{
  "abi": [
    {
      "inputs": [
        {
          "internalType": "address",
          "name": "eth_usd_priceFeedAddress",
          "type": "address"
        },
        {
          "internalType": "address",
          "name": "mapAddress",
          "type": "address"
        },
        {
          "internalType": "address",
          "name": "utilsAddress",
          "type": "address"
        }
      ],
      "stateMutability": "nonpayable",
      "type": "constructor"
    },
    {
      "inputs": [],
      "name": "AuctionCantBeBought",
      "type": "error"
    },
    {
      "inputs": [],
      "name": "AuctionNotOver",
      "type": "error"
    },
    {
      "inputs": [],
      "name": "AuctionOver",
      "type": "error"
    },
    {
      "inputs": [],
      "name": "InvalidBid",
      "type": "error"
    },
    {
      "inputs": [],
      "name": "InvalidListing",
      "type": "error"
    },
    {
      "inputs": [],
      "name": "InvalidListingId",
      "type": "error"
    },
    {
      "inputs": [],
      "name": "InvalidPrice",
      "type": "error"
    },
    {
      "inputs": [],
      "name": "InvalidTokenId",
      "type": "error"
    },
    {
      "inputs": [],
      "name": "NotAuction",
      "type": "error"
    },
    {
      "inputs": [],
      "name": "NotEnoughFunds",
      "type": "error"
    },
    {
      "inputs": [],
      "name": "NotHighestBidder",
      "type": "error"
    },
    {
      "inputs": [],
      "name": "NotListingOwner",
      "type": "error"
    },
    {
      "inputs": [],
      "name": "NotTokenOwner",
      "type": "error"
    },
    {
      "inputs": [],
      "name": "USDNotSupportedForAuction",
      "type": "error"
    },
    {
      "inputs": [],
      "name": "ValidListing",
      "type": "error"
    },
    {
      "inputs": [
        {
          "internalType": "address",
          "name": "",
          "type": "address"
        }
      ],
      "name": "auctionBalance",
      "outputs": [
        {
          "internalType": "uint256",
          "name": "",
          "type": "uint256"
        }
      ],
      "stateMutability": "view",
      "type": "function"
    },
    {
      "inputs": [
        {
          "internalType": "address",
          "name": "",
          "type": "address"
        }
      ],
      "name": "balances",
      "outputs": [
        {
          "internalType": "uint256",
          "name": "",
          "type": "uint256"
        }
      ],
      "stateMutability": "view",
      "type": "function"
    },
    {
      "inputs": [
        {
          "internalType": "uint256",
          "name": "listingId",
          "type": "uint256"
        }
      ],
      "name": "bid",
      "outputs": [],
      "stateMutability": "payable",
      "type": "function"
    },
    {
      "inputs": [
        {
          "internalType": "uint256",
          "name": "listingId",
          "type": "uint256"
        }
      ],
      "name": "buyListing",
      "outputs": [],
      "stateMutability": "payable",
      "type": "function"
    },
    {
      "inputs": [
        {
          "internalType": "uint256",
          "name": "listingId",
          "type": "uint256"
        }
      ],
      "name": "calculateWinner",
      "outputs": [],
      "stateMutability": "nonpayable",
      "type": "function"
    },
    {
      "inputs": [
        {
          "internalType": "bool",
          "name": "inUSD",
          "type": "bool"
        },
        {
          "internalType": "uint256",
          "name": "tokenId",
          "type": "uint256"
        },
        {
          "internalType": "uint256",
          "name": "price",
          "type": "uint256"
        },
        {
          "internalType": "bool",
          "name": "isAuction",
          "type": "bool"
        },
        {
          "internalType": "uint256",
          "name": "auctionTime",
          "type": "uint256"
        }
      ],
      "name": "createListing",
      "outputs": [],
      "stateMutability": "nonpayable",
      "type": "function"
    },
    {
      "inputs": [
        {
          "internalType": "uint256",
          "name": "listingId",
          "type": "uint256"
        }
      ],
      "name": "deleteListing",
      "outputs": [],
      "stateMutability": "nonpayable",
      "type": "function"
    },
    {
      "inputs": [
        {
          "internalType": "uint256",
          "name": "listingId",
          "type": "uint256"
        }
      ],
      "name": "getPrice",
      "outputs": [
        {
          "internalType": "uint256",
          "name": "",
          "type": "uint256"
        }
      ],
      "stateMutability": "view",
      "type": "function"
    },
    {
      "inputs": [
        {
          "internalType": "uint256",
          "name": "",
          "type": "uint256"
        }
      ],
      "name": "highestBid",
      "outputs": [
        {
          "internalType": "address",
          "name": "bidder",
          "type": "address"
        },
        {
          "internalType": "uint256",
          "name": "amount",
          "type": "uint256"
        }
      ],
      "stateMutability": "view",
      "type": "function"
    },
    {
      "inputs": [
        {
          "internalType": "uint256",
          "name": "listingId",
          "type": "uint256"
        }
      ],
      "name": "invalidateAuctionBid",
      "outputs": [],
      "stateMutability": "nonpayable",
      "type": "function"
    },
    {
      "inputs": [
        {
          "internalType": "uint256",
          "name": "listingId",
          "type": "uint256"
        }
      ],
      "name": "isListingValid",
      "outputs": [
        {
          "internalType": "bool",
          "name": "",
          "type": "bool"
        }
      ],
      "stateMutability": "view",
      "type": "function"
    },
    {
      "inputs": [],
      "name": "listingCount",
      "outputs": [
        {
          "internalType": "uint256",
          "name": "",
          "type": "uint256"
        }
      ],
      "stateMutability": "view",
      "type": "function"
    },
    {
      "inputs": [
        {
          "internalType": "uint256",
          "name": "",
          "type": "uint256"
        }
      ],
      "name": "listings",
      "outputs": [
        {
          "internalType": "address",
          "name": "seller",
          "type": "address"
        },
        {
          "internalType": "bool",
          "name": "inUSD",
          "type": "bool"
        },
        {
          "internalType": "uint256",
          "name": "tokenId",
          "type": "uint256"
        },
        {
          "internalType": "uint256",
          "name": "price",
          "type": "uint256"
        },
        {
          "internalType": "uint256",
          "name": "timestamp",
          "type": "uint256"
        },
        {
          "internalType": "bool",
          "name": "isValid",
          "type": "bool"
        },
        {
          "internalType": "bool",
          "name": "isAuction",
          "type": "bool"
        },
        {
          "internalType": "uint256",
          "name": "aucionTime",
          "type": "uint256"
        }
      ],
      "stateMutability": "view",
      "type": "function"
    },
    {
      "inputs": [
        {
          "internalType": "address",
          "name": "",
          "type": "address"
        },
        {
          "internalType": "address",
          "name": "",
          "type": "address"
        },
        {
          "internalType": "uint256[]",
          "name": "",
          "type": "uint256[]"
        },
        {
          "internalType": "uint256[]",
          "name": "",
          "type": "uint256[]"
        },
        {
          "internalType": "bytes",
          "name": "",
          "type": "bytes"
        }
      ],
      "name": "onERC1155BatchReceived",
      "outputs": [
        {
          "internalType": "bytes4",
          "name": "",
          "type": "bytes4"
        }
      ],
      "stateMutability": "nonpayable",
      "type": "function"
    },
    {
      "inputs": [
        {
          "internalType": "address",
          "name": "",
          "type": "address"
        },
        {
          "internalType": "address",
          "name": "",
          "type": "address"
        },
        {
          "internalType": "uint256",
          "name": "",
          "type": "uint256"
        },
        {
          "internalType": "uint256",
          "name": "",
          "type": "uint256"
        },
        {
          "internalType": "bytes",
          "name": "",
          "type": "bytes"
        }
      ],
      "name": "onERC1155Received",
      "outputs": [
        {
          "internalType": "bytes4",
          "name": "",
          "type": "bytes4"
        }
      ],
      "stateMutability": "nonpayable",
      "type": "function"
    },
    {
      "inputs": [
        {
          "internalType": "address",
          "name": "",
          "type": "address"
        },
        {
          "internalType": "address",
          "name": "",
          "type": "address"
        },
        {
          "internalType": "uint256",
          "name": "",
          "type": "uint256"
        },
        {
          "internalType": "bytes",
          "name": "",
          "type": "bytes"
        }
      ],
      "name": "onERC721Received",
      "outputs": [
        {
          "internalType": "bytes4",
          "name": "",
          "type": "bytes4"
        }
      ],
      "stateMutability": "nonpayable",
      "type": "function"
    },
    {
      "inputs": [],
      "name": "withdraw",
      "outputs": [],
      "stateMutability": "nonpayable",
      "type": "function"
    }
  ],
  "bytecode": {
    "object": "0x608060405260006003553480156200001657600080fd5b506040516200198b3803806200198b833981016040819052620000399162000099565b600080546001600160a01b039485166001600160a01b031991821617909155600180549385169382169390931790925560028054919093169116179055620000e3565b80516001600160a01b03811681146200009457600080fd5b919050565b600080600060608486031215620000af57600080fd5b620000ba846200007c565b9250620000ca602085016200007c565b9150620000da604085016200007c565b90509250925092565b61189880620000f36000396000f3fe6080604052600436106100fe5760003560e01c8063a9b07c2611610095578063da1086a011610064578063da1086a014610303578063de74e57b14610323578063e6282c6e146103e0578063e757223014610400578063f23a6e611461042057600080fd5b8063a9b07c2614610235578063b14c63c51461024b578063bc197c81146102aa578063d36443ca146102d657600080fd5b80633ccfd60b116100d15780633ccfd60b146101ca578063454a2ab3146101df5780634884f459146101f2578063732533871461020557600080fd5b80630c87bce614610103578063150b7a021461012557806325cbce1c1461016f57806327e235e31461018f575b600080fd5b34801561010f57600080fd5b5061012361011e366004611286565b61044c565b005b34801561013157600080fd5b506101516101403660046112ed565b630a85bd0160e11b95945050505050565b6040516001600160e01b031990911681526020015b60405180910390f35b34801561017b57600080fd5b5061012361018a36600461138c565b610634565b34801561019b57600080fd5b506101bc6101aa3660046113a5565b60056020526000908152604090205481565b604051908152602001610166565b3480156101d657600080fd5b506101236107e0565b6101236101ed36600461138c565b61084d565b61012361020036600461138c565b6109f2565b34801561021157600080fd5b5061022561022036600461138c565b610b9b565b6040519015158152602001610166565b34801561024157600080fd5b506101bc60035481565b34801561025757600080fd5b5061028b61026636600461138c565b600660205260009081526040902080546001909101546001600160a01b039091169082565b604080516001600160a01b039093168352602083019190915201610166565b3480156102b657600080fd5b506101516102c5366004611500565b63bc197c8160e01b95945050505050565b3480156102e257600080fd5b506101bc6102f13660046113a5565b60076020526000908152604090205481565b34801561030f57600080fd5b5061012361031e36600461138c565b610c7f565b34801561032f57600080fd5b5061039761033e36600461138c565b60046020819052600091825260409091208054600182015460028301546003840154948401546005909401546001600160a01b0384169560ff600160a01b90950485169593949293909281811692610100909204169088565b604080516001600160a01b03909916895296151560208901529587019490945260608601929092526080850152151560a0840152151560c083015260e082015261010001610166565b3480156103ec57600080fd5b506101236103fb36600461138c565b610f48565b34801561040c57600080fd5b506101bc61041b36600461138c565b611038565b34801561042c57600080fd5b5061015161043b3660046115ae565b63f23a6e6160e01b95945050505050565b6000831161046c5760405162bfc92160e01b815260040160405180910390fd5b6000841161048d576040516307ed98ed60e31b815260040160405180910390fd5b6001546040516331a9108f60e11b81526004810186905233916001600160a01b031690636352211e90602401602060405180830381865afa1580156104d6573d6000803e3d6000fd5b505050506040513d601f19601f820116820180604052508101906104fa9190611617565b6001600160a01b031614610521576040516359dc379f60e01b815260040160405180910390fd5b81801561052b5750845b15610549576040516323dab71360e01b815260040160405180910390fd5b600380549060006105598361164a565b90915550506040805161010080820183523382529615156020808301918252828401978852606083019687524260808401908152600160a0850181815297151560c0860190815260e08601978852600380546000908152600495869052979097209551865495511515600160a01b026001600160a81b03199096166001600160a01b03919091161794909417855598519884019890985595516002830155955191810191909155915192820180549451151590950261ff00199315159390931661ffff19909416939093179190911790925551600590910155565b600081815260046020819052604082200154610100900460ff161515900361066f57604051633fbfe96d60e01b815260040160405180910390fd5b600081815260046020526040902060058101546003909101546106929190611663565b42116106e5576000818152600460208190526040909120015460ff16156106cc576040516312a83adf60e01b815260040160405180910390fd5b60405163058ebc1760e11b815260040160405180910390fd5b60015460008281526004602081905260409182902054915163e985e9c560e01b81526001600160a01b039283169181019190915230602482015291169063e985e9c590604401602060405180830381865afa158015610748573d6000803e3d6000fd5b505050506040513d601f19601f8201168201806040525081019061076c919061167c565b156107a5576000818152600460208190526040909120015460ff16156107a5576040516312a83adf60e01b815260040160405180910390fd5b6000818152600660205260409020600101546107d457604051631036b5ad60e31b815260040160405180910390fd5b6107dd816111e4565b50565b336000908152600560205260409020548061080e57604051631036b5ad60e31b815260040160405180910390fd5b336000818152600560205260408082208290555183156108fc0291849190818181858888f19350505050158015610849573d6000803e3d6000fd5b5050565b60008181526004602081905260408220015460ff161515900361088357604051631ab4dc1760e31b815260040160405180910390fd5b600081815260046020819052604082200154610100900460ff16151590036108be57604051633fbfe96d60e01b815260040160405180910390fd5b60008181526006602052604090206001015434116108ef5760405163c6388ef760e01b815260040160405180910390fd5b60008181526006602052604090206001015415610987576000818152600660209081526040808320600181015490546001600160a01b0316845260059092528220805491929091610941908490611663565b90915550506000818152600660209081526040808320600181015490546001600160a01b0316845260079092528220805491929091610981908490611699565b90915550505b33600090815260076020526040812080543492906109a6908490611663565b909155505060408051808201825233815234602080830191825260009485526006905291909220915182546001600160a01b0319166001600160a01b0390911617825551600190910155565b6109fb81610b9b565b1515600003610a1d57604051631ab4dc1760e31b815260040160405180910390fd5b60008181526004602081905260409091200154610100900460ff1615610a56576040516306fd349d60e31b815260040160405180910390fd5b6000610a6182611038565b905080341015610a8457604051631036b5ad60e31b815260040160405180910390fd5b6000610a908234611699565b90508015610abd573360009081526005602052604081208054839290610ab7908490611663565b90915550505b6000838152600460209081526040808320546001600160a01b03168352600590915281208054849290610af1908490611663565b90915550506001805460008581526004602081905260409182902080549401549151632142170760e11b81526001600160a01b039485169181019190915233602482015260448101919091529116906342842e0e90606401600060405180830381600087803b158015610b6357600080fd5b505af1158015610b77573d6000803e3d6000fd5b50505060009384525050600460208190526040909220909101805460ff1916905550565b6000811580610bab575060035482115b15610bc957604051632d36379960e11b815260040160405180910390fd5b60008281526004602081905260409182902080546001805492015493516331a9108f60e11b8152928301939093526001600160a01b03928316921690636352211e90602401602060405180830381865afa158015610c2b573d6000803e3d6000fd5b505050506040513d601f19601f82011682018060405250810190610c4f9190611617565b6001600160a01b031614610c6557506000919050565b506000908152600460208190526040909120015460ff1690565b600081815260046020819052604082200154610100900460ff1615159003610cba57604051633fbfe96d60e01b815260040160405180910390fd5b60008181526004602052604090206005810154600390910154610cdd9190611663565b4211610cfc5760405163058ebc1760e11b815260040160405180910390fd5b600081815260066020526040902060010154610d2b57604051631036b5ad60e31b815260040160405180910390fd5b60008181526004602081905260408220015460ff1615159003610d865760008181526006602052604090206001015415610d6d57610d68816111e4565b610d86565b604051631ab4dc1760e31b815260040160405180910390fd5b60015460008281526004602081905260409182902054915163e985e9c560e01b81526001600160a01b039283169181019190915230602482015291169063e985e9c590604401602060405180830381865afa158015610de9573d6000803e3d6000fd5b505050506040513d601f19601f82011682018060405250810190610e0d919061167c565b1515600003610e1f576107dd816111e4565b60008181526004602081905260408220015460ff1615159003610e5557604051631ab4dc1760e31b815260040160405180910390fd5b60008181526006602090815260408083206001015460048352818420546001600160a01b0316845260059092528220805491929091610e95908490611663565b90915550506001805460008381526004602081815260408084208054600684529482902054928490529095015494516323b872dd60e01b81526001600160a01b039384169281019290925282166024820152604481019390935216906323b872dd90606401600060405180830381600087803b158015610f1457600080fd5b505af1158015610f28573d6000803e3d6000fd5b50505060009182525060046020819052604090912001805460ff19169055565b610f5181610b9b565b1515600003610f7357604051631ab4dc1760e31b815260040160405180910390fd5b600180546000838152600460208190526040918290209093015490516331a9108f60e11b81529283015233916001600160a01b0390911690636352211e90602401602060405180830381865afa158015610fd1573d6000803e3d6000fd5b505050506040513d601f19601f82011682018060405250810190610ff59190611617565b6001600160a01b03161461101c57604051637c62d69f60e01b815260040160405180910390fd5b600090815260046020819052604090912001805460ff19169055565b6000811580611048575060035482115b1561106657604051632d36379960e11b815260040160405180910390fd5b600082815260046020526040902054600160a01b900460ff16156111c95760008060009054906101000a90046001600160a01b03166001600160a01b031663313ce5676040518163ffffffff1660e01b8152600401602060405180830381865afa1580156110d8573d6000803e3d6000fd5b505050506040513d601f19601f820116820180604052508101906110fc91906116ac565b60ff16905060008060009054906101000a90046001600160a01b03166001600160a01b031663feaf968c6040518163ffffffff1660e01b815260040160a060405180830381865afa158015611155573d6000803e3d6000fd5b505050506040513d601f19601f8201168201806040525081019061117991906116e9565b50505091505060008183601261118f9190611663565b61119a90600a61181d565b6000878152600460205260409020600201546111b69190611829565b6111c09190611840565b95945050505050565b5060009081526004602052604090206002015490565b919050565b6000818152600660209081526040808320600181015490546001600160a01b031684526007909252822080549192909161121f908490611699565b90915550506000818152600660209081526040808320600181015490546001600160a01b031684526005909252822080549192909161125f908490611663565b9091555050600090815260066020526040812060010155565b80151581146107dd57600080fd5b600080600080600060a0868803121561129e57600080fd5b85356112a981611278565b9450602086013593506040860135925060608601356112c781611278565b949793965091946080013592915050565b6001600160a01b03811681146107dd57600080fd5b60008060008060006080868803121561130557600080fd5b8535611310816112d8565b94506020860135611320816112d8565b935060408601359250606086013567ffffffffffffffff8082111561134457600080fd5b818801915088601f83011261135857600080fd5b81358181111561136757600080fd5b89602082850101111561137957600080fd5b9699959850939650602001949392505050565b60006020828403121561139e57600080fd5b5035919050565b6000602082840312156113b757600080fd5b81356113c2816112d8565b9392505050565b634e487b7160e01b600052604160045260246000fd5b604051601f8201601f1916810167ffffffffffffffff81118282101715611408576114086113c9565b604052919050565b600082601f83011261142157600080fd5b8135602067ffffffffffffffff82111561143d5761143d6113c9565b8160051b61144c8282016113df565b928352848101820192828101908785111561146657600080fd5b83870192505b848310156114855782358252918301919083019061146c565b979650505050505050565b600082601f8301126114a157600080fd5b813567ffffffffffffffff8111156114bb576114bb6113c9565b6114ce601f8201601f19166020016113df565b8181528460208386010111156114e357600080fd5b816020850160208301376000918101602001919091529392505050565b600080600080600060a0868803121561151857600080fd5b8535611523816112d8565b94506020860135611533816112d8565b9350604086013567ffffffffffffffff8082111561155057600080fd5b61155c89838a01611410565b9450606088013591508082111561157257600080fd5b61157e89838a01611410565b9350608088013591508082111561159457600080fd5b506115a188828901611490565b9150509295509295909350565b600080600080600060a086880312156115c657600080fd5b85356115d1816112d8565b945060208601356115e1816112d8565b93506040860135925060608601359150608086013567ffffffffffffffff81111561160b57600080fd5b6115a188828901611490565b60006020828403121561162957600080fd5b81516113c2816112d8565b634e487b7160e01b600052601160045260246000fd5b60006001820161165c5761165c611634565b5060010190565b8082018082111561167657611676611634565b92915050565b60006020828403121561168e57600080fd5b81516113c281611278565b8181038181111561167657611676611634565b6000602082840312156116be57600080fd5b815160ff811681146113c257600080fd5b805169ffffffffffffffffffff811681146111df57600080fd5b600080600080600060a0868803121561170157600080fd5b61170a866116cf565b945060208601519350604086015192506060860151915061172d608087016116cf565b90509295509295909350565b600181815b8085111561177457816000190482111561175a5761175a611634565b8085161561176757918102915b93841c939080029061173e565b509250929050565b60008261178b57506001611676565b8161179857506000611676565b81600181146117ae57600281146117b8576117d4565b6001915050611676565b60ff8411156117c9576117c9611634565b50506001821b611676565b5060208310610133831016604e8410600b84101617156117f7575081810a611676565b6118018383611739565b806000190482111561181557611815611634565b029392505050565b60006113c2838361177c565b808202811582820484141761167657611676611634565b60008261185d57634e487b7160e01b600052601260045260246000fd5b50049056fea2646970667358221220280d9f6a0a0768b54d7f5a7fe65ab7a4daf33e18176925e69459a17e34d199c464736f6c63430008130033",
    "linkReferences": {}
  },
  "methodIdentifiers": {
    "auctionBalance(address)": "d36443ca",
    "balances(address)": "27e235e3",
    "bid(uint256)": "454a2ab3",
    "buyListing(uint256)": "4884f459",
    "calculateWinner(uint256)": "da1086a0",
    "createListing(bool,uint256,uint256,bool,uint256)": "0c87bce6",
    "deleteListing(uint256)": "e6282c6e",
    "getPrice(uint256)": "e7572230",
    "highestBid(uint256)": "b14c63c5",
    "invalidateAuctionBid(uint256)": "25cbce1c",
    "isListingValid(uint256)": "73253387",
    "listingCount()": "a9b07c26",
    "listings(uint256)": "de74e57b",
    "onERC1155BatchReceived(address,address,uint256[],uint256[],bytes)": "bc197c81",
    "onERC1155Received(address,address,uint256,uint256,bytes)": "f23a6e61",
    "onERC721Received(address,address,uint256,bytes)": "150b7a02",
    "withdraw()": "3ccfd60b"
  },
  "id": 23
}