{
  "abi": [
    {
      "inputs": [
        {
          "internalType": "address",
          "name": "eth_usd_priceFeedAddress",
          "type": "address"
        },
        {
          "internalType": "address",
          "name": "mapAddress",
          "type": "address"
        },
        {
          "internalType": "address",
          "name": "utilsAddress",
          "type": "address"
        },
        {
          "internalType": "address",
          "name": "_linkAddress",
          "type": "address"
        },
        {
          "internalType": "address",
          "name": "_registrar",
          "type": "address"
        },
        {
          "internalType": "address",
          "name": "_registryAddress",
          "type": "address"
        },
        {
          "internalType": "uint256",
          "name": "_gasLimit",
          "type": "uint256"
        }
      ],
      "stateMutability": "nonpayable",
      "type": "constructor"
    },
    {
      "inputs": [],
      "name": "AuctionCantBeBought",
      "type": "error"
    },
    {
      "inputs": [],
      "name": "AuctionNotOver",
      "type": "error"
    },
    {
      "inputs": [],
      "name": "AuctionOver",
      "type": "error"
    },
    {
      "inputs": [],
      "name": "InvalidBid",
      "type": "error"
    },
    {
      "inputs": [],
      "name": "InvalidListing",
      "type": "error"
    },
    {
      "inputs": [],
      "name": "InvalidListingId",
      "type": "error"
    },
    {
      "inputs": [],
      "name": "InvalidPrice",
      "type": "error"
    },
    {
      "inputs": [],
      "name": "InvalidTokenId",
      "type": "error"
    },
    {
      "inputs": [],
      "name": "NotAuction",
      "type": "error"
    },
    {
      "inputs": [],
      "name": "NotEnoughFunds",
      "type": "error"
    },
    {
      "inputs": [],
      "name": "NotHighestBidder",
      "type": "error"
    },
    {
      "inputs": [],
      "name": "NotListingOwner",
      "type": "error"
    },
    {
      "inputs": [],
      "name": "NotTokenOwner",
      "type": "error"
    },
    {
      "inputs": [],
      "name": "USDNotSupportedForAuction",
      "type": "error"
    },
    {
      "inputs": [],
      "name": "ValidListing",
      "type": "error"
    },
    {
      "inputs": [
        {
          "internalType": "address",
          "name": "",
          "type": "address"
        }
      ],
      "name": "auctionBalance",
      "outputs": [
        {
          "internalType": "uint256",
          "name": "",
          "type": "uint256"
        }
      ],
      "stateMutability": "view",
      "type": "function"
    },
    {
      "inputs": [
        {
          "internalType": "address",
          "name": "",
          "type": "address"
        }
      ],
      "name": "balances",
      "outputs": [
        {
          "internalType": "uint256",
          "name": "",
          "type": "uint256"
        }
      ],
      "stateMutability": "view",
      "type": "function"
    },
    {
      "inputs": [
        {
          "internalType": "uint256",
          "name": "listingId",
          "type": "uint256"
        }
      ],
      "name": "bid",
      "outputs": [],
      "stateMutability": "payable",
      "type": "function"
    },
    {
      "inputs": [
        {
          "internalType": "uint256",
          "name": "listingId",
          "type": "uint256"
        }
      ],
      "name": "buyListing",
      "outputs": [],
      "stateMutability": "payable",
      "type": "function"
    },
    {
      "inputs": [
        {
          "internalType": "uint256",
          "name": "listingId",
          "type": "uint256"
        }
      ],
      "name": "calculateWinner",
      "outputs": [],
      "stateMutability": "nonpayable",
      "type": "function"
    },
    {
      "inputs": [
        {
          "internalType": "bytes",
          "name": "checkData",
          "type": "bytes"
        }
      ],
      "name": "checkUpkeep",
      "outputs": [
        {
          "internalType": "bool",
          "name": "upkeepNeeded",
          "type": "bool"
        },
        {
          "internalType": "bytes",
          "name": "performData",
          "type": "bytes"
        }
      ],
      "stateMutability": "view",
      "type": "function"
    },
    {
      "inputs": [
        {
          "internalType": "bool",
          "name": "inUSD",
          "type": "bool"
        },
        {
          "internalType": "uint256",
          "name": "tokenId",
          "type": "uint256"
        },
        {
          "internalType": "uint256",
          "name": "price",
          "type": "uint256"
        },
        {
          "internalType": "bool",
          "name": "isAuction",
          "type": "bool"
        },
        {
          "internalType": "uint256",
          "name": "auctionTime",
          "type": "uint256"
        },
        {
          "internalType": "uint96",
          "name": "amount",
          "type": "uint96"
        }
      ],
      "name": "createListing",
      "outputs": [],
      "stateMutability": "nonpayable",
      "type": "function"
    },
    {
      "inputs": [
        {
          "internalType": "uint256",
          "name": "listingId",
          "type": "uint256"
        }
      ],
      "name": "deleteListing",
      "outputs": [],
      "stateMutability": "nonpayable",
      "type": "function"
    },
    {
      "inputs": [],
      "name": "gasLimit",
      "outputs": [
        {
          "internalType": "uint256",
          "name": "",
          "type": "uint256"
        }
      ],
      "stateMutability": "view",
      "type": "function"
    },
    {
      "inputs": [
        {
          "internalType": "uint256",
          "name": "listingId",
          "type": "uint256"
        }
      ],
      "name": "getPrice",
      "outputs": [
        {
          "internalType": "uint256",
          "name": "",
          "type": "uint256"
        }
      ],
      "stateMutability": "view",
      "type": "function"
    },
    {
      "inputs": [
        {
          "internalType": "uint256",
          "name": "",
          "type": "uint256"
        }
      ],
      "name": "highestBid",
      "outputs": [
        {
          "internalType": "address",
          "name": "bidder",
          "type": "address"
        },
        {
          "internalType": "uint256",
          "name": "amount",
          "type": "uint256"
        }
      ],
      "stateMutability": "view",
      "type": "function"
    },
    {
      "inputs": [],
      "name": "i_link",
      "outputs": [
        {
          "internalType": "contract LinkTokenInterface",
          "name": "",
          "type": "address"
        }
      ],
      "stateMutability": "view",
      "type": "function"
    },
    {
      "inputs": [],
      "name": "i_registry",
      "outputs": [
        {
          "internalType": "contract AutomationRegistryInterface",
          "name": "",
          "type": "address"
        }
      ],
      "stateMutability": "view",
      "type": "function"
    },
    {
      "inputs": [
        {
          "internalType": "uint256",
          "name": "listingId",
          "type": "uint256"
        }
      ],
      "name": "invalidateAuctionBid",
      "outputs": [],
      "stateMutability": "nonpayable",
      "type": "function"
    },
    {
      "inputs": [
        {
          "internalType": "uint256",
          "name": "listingId",
          "type": "uint256"
        }
      ],
      "name": "isListingValid",
      "outputs": [
        {
          "internalType": "bool",
          "name": "",
          "type": "bool"
        }
      ],
      "stateMutability": "view",
      "type": "function"
    },
    {
      "inputs": [],
      "name": "listingCount",
      "outputs": [
        {
          "internalType": "uint256",
          "name": "",
          "type": "uint256"
        }
      ],
      "stateMutability": "view",
      "type": "function"
    },
    {
      "inputs": [
        {
          "internalType": "uint256",
          "name": "",
          "type": "uint256"
        }
      ],
      "name": "listingToUpkeepID",
      "outputs": [
        {
          "internalType": "uint256",
          "name": "",
          "type": "uint256"
        }
      ],
      "stateMutability": "view",
      "type": "function"
    },
    {
      "inputs": [
        {
          "internalType": "uint256",
          "name": "",
          "type": "uint256"
        }
      ],
      "name": "listings",
      "outputs": [
        {
          "internalType": "address",
          "name": "seller",
          "type": "address"
        },
        {
          "internalType": "bool",
          "name": "inUSD",
          "type": "bool"
        },
        {
          "internalType": "uint256",
          "name": "tokenId",
          "type": "uint256"
        },
        {
          "internalType": "uint256",
          "name": "price",
          "type": "uint256"
        },
        {
          "internalType": "uint256",
          "name": "timestamp",
          "type": "uint256"
        },
        {
          "internalType": "bool",
          "name": "isValid",
          "type": "bool"
        },
        {
          "internalType": "bool",
          "name": "isAuction",
          "type": "bool"
        },
        {
          "internalType": "uint256",
          "name": "aucionTime",
          "type": "uint256"
        }
      ],
      "stateMutability": "view",
      "type": "function"
    },
    {
      "inputs": [
        {
          "internalType": "address",
          "name": "",
          "type": "address"
        },
        {
          "internalType": "address",
          "name": "",
          "type": "address"
        },
        {
          "internalType": "uint256[]",
          "name": "",
          "type": "uint256[]"
        },
        {
          "internalType": "uint256[]",
          "name": "",
          "type": "uint256[]"
        },
        {
          "internalType": "bytes",
          "name": "",
          "type": "bytes"
        }
      ],
      "name": "onERC1155BatchReceived",
      "outputs": [
        {
          "internalType": "bytes4",
          "name": "",
          "type": "bytes4"
        }
      ],
      "stateMutability": "nonpayable",
      "type": "function"
    },
    {
      "inputs": [
        {
          "internalType": "address",
          "name": "",
          "type": "address"
        },
        {
          "internalType": "address",
          "name": "",
          "type": "address"
        },
        {
          "internalType": "uint256",
          "name": "",
          "type": "uint256"
        },
        {
          "internalType": "uint256",
          "name": "",
          "type": "uint256"
        },
        {
          "internalType": "bytes",
          "name": "",
          "type": "bytes"
        }
      ],
      "name": "onERC1155Received",
      "outputs": [
        {
          "internalType": "bytes4",
          "name": "",
          "type": "bytes4"
        }
      ],
      "stateMutability": "nonpayable",
      "type": "function"
    },
    {
      "inputs": [
        {
          "internalType": "address",
          "name": "",
          "type": "address"
        },
        {
          "internalType": "address",
          "name": "",
          "type": "address"
        },
        {
          "internalType": "uint256",
          "name": "",
          "type": "uint256"
        },
        {
          "internalType": "bytes",
          "name": "",
          "type": "bytes"
        }
      ],
      "name": "onERC721Received",
      "outputs": [
        {
          "internalType": "bytes4",
          "name": "",
          "type": "bytes4"
        }
      ],
      "stateMutability": "nonpayable",
      "type": "function"
    },
    {
      "inputs": [
        {
          "internalType": "bytes",
          "name": "performData",
          "type": "bytes"
        }
      ],
      "name": "performUpkeep",
      "outputs": [],
      "stateMutability": "nonpayable",
      "type": "function"
    },
    {
      "inputs": [],
      "name": "registrar",
      "outputs": [
        {
          "internalType": "address",
          "name": "",
          "type": "address"
        }
      ],
      "stateMutability": "view",
      "type": "function"
    },
    {
      "inputs": [],
      "name": "withdraw",
      "outputs": [],
      "stateMutability": "nonpayable",
      "type": "function"
    }
  ],
  "bytecode": {
    "object": "0x60e060405260006003556009805463ffffffff1916633659d6661790553480156200002957600080fd5b5060405162002568380380620025688339810160408190526200004c91620000c2565b600080546001600160a01b03199081166001600160a01b03998a1617909155600180548216978916979097179096556002805490961694871694909417909455908416608052831660a052911660c052600a556200014e565b80516001600160a01b0381168114620000bd57600080fd5b919050565b600080600080600080600060e0888a031215620000de57600080fd5b620000e988620000a5565b9650620000f960208901620000a5565b95506200010960408901620000a5565b94506200011960608901620000a5565b93506200012960808901620000a5565b92506200013960a08901620000a5565b915060c0880151905092959891949750929550565b60805160a05160c0516123c0620001a8600039600081816102090152818161159301528181611763015261182d01526000818161025501526116ae01526000818161034201528181611519015261167f01526123c06000f3fe60806040526004361061014b5760003560e01c8063a9b07c26116100b6578063da1086a01161006f578063da1086a01461047f578063de74e57b1461049f578063e6282c6e1461055c578063e75722301461057c578063f23a6e611461059c578063f68016b7146105c857600080fd5b8063a9b07c2614610364578063a9fbcdc21461037a578063b14c63c5146103a7578063bc197c8114610406578063c62fb5c414610432578063d36443ca1461045257600080fd5b8063454a2ab311610108578063454a2ab31461028c5780634585e33b1461029f5780634884f459146102bf5780636e04ff0d146102d257806373253387146103005780637d253aff1461033057600080fd5b8063150b7a021461015057806325cbce1c1461019a57806327e235e3146101bc5780632a663606146101f75780632b20e397146102435780633ccfd60b14610277575b600080fd5b34801561015c57600080fd5b5061017c61016b366004611985565b630a85bd0160e11b95945050505050565b6040516001600160e01b031990911681526020015b60405180910390f35b3480156101a657600080fd5b506101ba6101b53660046119f8565b6105de565b005b3480156101c857600080fd5b506101e96101d7366004611a11565b60056020526000908152604090205481565b604051908152602001610191565b34801561020357600080fd5b5061022b7f000000000000000000000000000000000000000000000000000000000000000081565b6040516001600160a01b039091168152602001610191565b34801561024f57600080fd5b5061022b7f000000000000000000000000000000000000000000000000000000000000000081565b34801561028357600080fd5b506101ba61078a565b6101ba61029a3660046119f8565b6107f7565b3480156102ab57600080fd5b506101ba6102ba366004611a35565b61099c565b6101ba6102cd3660046119f8565b6109ba565b3480156102de57600080fd5b506102f26102ed366004611a35565b610b63565b604051610191929190611ac7565b34801561030c57600080fd5b5061032061031b3660046119f8565b610c17565b6040519015158152602001610191565b34801561033c57600080fd5b5061022b7f000000000000000000000000000000000000000000000000000000000000000081565b34801561037057600080fd5b506101e960035481565b34801561038657600080fd5b506101e96103953660046119f8565b60086020526000908152604090205481565b3480156103b357600080fd5b506103e76103c23660046119f8565b600660205260009081526040902080546001909101546001600160a01b039091169082565b604080516001600160a01b039093168352602083019190915201610191565b34801561041257600080fd5b5061017c610421366004611c7d565b63bc197c8160e01b95945050505050565b34801561043e57600080fd5b506101ba61044d366004611d4e565b610cfb565b34801561045e57600080fd5b506101e961046d366004611a11565b60076020526000908152604090205481565b34801561048b57600080fd5b506101ba61049a3660046119f8565b610ef3565b3480156104ab57600080fd5b506105136104ba3660046119f8565b60046020819052600091825260409091208054600182015460028301546003840154948401546005909401546001600160a01b0384169560ff600160a01b90950485169593949293909281811692610100909204169088565b604080516001600160a01b03909916895296151560208901529587019490945260608601929092526080850152151560a0840152151560c083015260e082015261010001610191565b34801561056857600080fd5b506101ba6105773660046119f8565b6111db565b34801561058857600080fd5b506101e96105973660046119f8565b6112af565b3480156105a857600080fd5b5061017c6105b7366004611db5565b63f23a6e6160e01b95945050505050565b3480156105d457600080fd5b506101e9600a5481565b600081815260046020819052604082200154610100900460ff161515900361061957604051633fbfe96d60e01b815260040160405180910390fd5b6000818152600460205260409020600581015460039091015461063c9190611e34565b421161068f576000818152600460208190526040909120015460ff1615610676576040516312a83adf60e01b815260040160405180910390fd5b60405163058ebc1760e11b815260040160405180910390fd5b60015460008281526004602081905260409182902054915163e985e9c560e01b81526001600160a01b039283169181019190915230602482015291169063e985e9c590604401602060405180830381865afa1580156106f2573d6000803e3d6000fd5b505050506040513d601f19601f820116820180604052508101906107169190611e4d565b1561074f576000818152600460208190526040909120015460ff161561074f576040516312a83adf60e01b815260040160405180910390fd5b60008181526006602052604090206001015461077e57604051631036b5ad60e31b815260040160405180910390fd5b6107878161145b565b50565b33600090815260056020526040902054806107b857604051631036b5ad60e31b815260040160405180910390fd5b336000818152600560205260408082208290555183156108fc0291849190818181858888f193505050501580156107f3573d6000803e3d6000fd5b5050565b60008181526004602081905260408220015460ff161515900361082d57604051631ab4dc1760e31b815260040160405180910390fd5b600081815260046020819052604082200154610100900460ff161515900361086857604051633fbfe96d60e01b815260040160405180910390fd5b60008181526006602052604090206001015434116108995760405163c6388ef760e01b815260040160405180910390fd5b60008181526006602052604090206001015415610931576000818152600660209081526040808320600181015490546001600160a01b03168452600590925282208054919290916108eb908490611e34565b90915550506000818152600660209081526040808320600181015490546001600160a01b031684526007909252822080549192909161092b908490611e6a565b90915550505b3360009081526007602052604081208054349290610950908490611e34565b909155505060408051808201825233815234602080830191825260009485526006905291909220915182546001600160a01b0319166001600160a01b0390911617825551600190910155565b60006109aa828401846119f8565b90506109b581610ef3565b505050565b6109c381610c17565b15156000036109e557604051631ab4dc1760e31b815260040160405180910390fd5b60008181526004602081905260409091200154610100900460ff1615610a1e576040516306fd349d60e31b815260040160405180910390fd5b6000610a29826112af565b905080341015610a4c57604051631036b5ad60e31b815260040160405180910390fd5b6000610a588234611e6a565b90508015610a85573360009081526005602052604081208054839290610a7f908490611e34565b90915550505b6000838152600460209081526040808320546001600160a01b03168352600590915281208054849290610ab9908490611e34565b90915550506001805460008581526004602081905260409182902080549401549151632142170760e11b81526001600160a01b039485169181019190915233602482015260448101919091529116906342842e0e90606401600060405180830381600087803b158015610b2b57600080fd5b505af1158015610b3f573d6000803e3d6000fd5b50505060009384525050600460208190526040909220909101805460ff1916905550565b6000606081610b74848601866119f8565b60008181526004602052604090206005810154600390910154919250610b9991611e34565b42118015610bd357506000818152600460208190526040909120015460ff1680610bd3575060008181526006602052604090206001015415155b925084848080601f01602080910402602001604051908101604052809392919081815260200183838082843760009201919091525095989297509195505050505050565b6000811580610c27575060035482115b15610c4557604051632d36379960e11b815260040160405180910390fd5b60008281526004602081905260409182902080546001805492015493516331a9108f60e11b8152928301939093526001600160a01b03928316921690636352211e90602401602060405180830381865afa158015610ca7573d6000803e3d6000fd5b505050506040513d601f19601f82011682018060405250810190610ccb9190611e88565b6001600160a01b031614610ce157506000919050565b506000908152600460208190526040909120015460ff1690565b60008411610d1b5760405162bfc92160e01b815260040160405180910390fd5b60008511610d3c576040516307ed98ed60e31b815260040160405180910390fd5b6001546040516331a9108f60e11b81526004810187905233916001600160a01b031690636352211e90602401602060405180830381865afa158015610d85573d6000803e3d6000fd5b505050506040513d601f19601f82011682018060405250810190610da99190611e88565b6001600160a01b031614610dd0576040516359dc379f60e01b815260040160405180910390fd5b828015610dda5750855b15610df8576040516323dab71360e01b815260040160405180910390fd5b60038054906000610e0883611ea5565b909155505060408051610100808201835233825288151560208084019182528385018a8152606085018a81524260808701908152600160a088018181528c15801560c08b0190815260e08b018e815260038054600090815260049a8b90529d909d209b518c549a511515600160a01b026001600160a81b0319909b166001600160a01b039190911617999099178b559551928a0192909255925160028901559051978701979097555191850180549151151590940261ff00199215159290921661ffff19909116171790915551600590910155610eeb57610eeb600354826114ef565b505050505050565b600081815260046020819052604082200154610100900460ff1615159003610f2e57604051633fbfe96d60e01b815260040160405180910390fd5b60008181526004602052604090206005810154600390910154610f519190611e34565b4211610f705760405163058ebc1760e11b815260040160405180910390fd5b60008181526004602081905260408220015460ff1615159003610fcb5760008181526006602052604090206001015415610fb257610fad8161145b565b610fcb565b604051631ab4dc1760e31b815260040160405180910390fd5b600081815260066020526040902060010154610ffd57600090815260046020819052604090912001805460ff19169055565b60015460008281526004602081905260409182902054915163e985e9c560e01b81526001600160a01b039283169181019190915230602482015291169063e985e9c590604401602060405180830381865afa158015611060573d6000803e3d6000fd5b505050506040513d601f19601f820116820180604052508101906110849190611e4d565b15156000036110b2576110968161145b565b600090815260046020819052604090912001805460ff19169055565b60008181526004602081905260408220015460ff16151590036110e857604051631ab4dc1760e31b815260040160405180910390fd5b60008181526006602090815260408083206001015460048352818420546001600160a01b0316845260059092528220805491929091611128908490611e34565b90915550506001805460008381526004602081815260408084208054600684529482902054928490529095015494516323b872dd60e01b81526001600160a01b039384169281019290925282166024820152604481019390935216906323b872dd90606401600060405180830381600087803b1580156111a757600080fd5b505af11580156111bb573d6000803e3d6000fd5b50505060009182525060046020819052604090912001805460ff19169055565b6111e481610c17565b151560000361120657604051631ab4dc1760e31b815260040160405180910390fd5b600180546000838152600460208190526040918290209093015490516331a9108f60e11b81529283015233916001600160a01b0390911690636352211e90602401602060405180830381865afa158015611264573d6000803e3d6000fd5b505050506040513d601f19601f820116820180604052508101906112889190611e88565b6001600160a01b03161461109657604051637c62d69f60e01b815260040160405180910390fd5b60008115806112bf575060035482115b156112dd57604051632d36379960e11b815260040160405180910390fd5b600082815260046020526040902054600160a01b900460ff16156114405760008060009054906101000a90046001600160a01b03166001600160a01b031663313ce5676040518163ffffffff1660e01b8152600401602060405180830381865afa15801561134f573d6000803e3d6000fd5b505050506040513d601f19601f820116820180604052508101906113739190611ebe565b60ff16905060008060009054906101000a90046001600160a01b03166001600160a01b031663feaf968c6040518163ffffffff1660e01b815260040160a060405180830381865afa1580156113cc573d6000803e3d6000fd5b505050506040513d601f19601f820116820180604052508101906113f09190611efb565b5050509150506000818360126114069190611e34565b61141190600a61202f565b60008781526004602052604090206002015461142d919061203b565b6114379190612052565b95945050505050565b5060009081526004602052604090206002015490565b919050565b6000818152600660209081526040808320600181015490546001600160a01b0316845260079092528220805491929091611496908490611e6a565b90915550506000818152600660209081526040808320600181015490546001600160a01b03168452600590925282208054919290916114d6908490611e34565b9091555050600090815260066020526040812060010155565b6040516323b872dd60e01b81523360048201523060248201526001600160601b03821660448201527f00000000000000000000000000000000000000000000000000000000000000006001600160a01b0316906323b872dd906064016020604051808303816000875af115801561156a573d6000803e3d6000fd5b505050506040513d601f19601f8201168201806040525081019061158e9190611e4d565b5060007f00000000000000000000000000000000000000000000000000000000000000006001600160a01b0316631865c57d6040518163ffffffff1660e01b8152600401600060405180830381865afa1580156115ef573d6000803e3d6000fd5b505050506040513d6000823e601f3d908101601f19168201604052611617919081019061211c565b505080516040805160208082018890528251808303909101815290820190915291925063ffffffff1690600061164c866118e3565b600a5460405161166c92913091339087908b906000908690602001612294565b60405160208183030381529060405290507f00000000000000000000000000000000000000000000000000000000000000006001600160a01b0316634000aea07f000000000000000000000000000000000000000000000000000000000000000087600960009054906101000a900460e01b856040516020016116f0929190612326565b6040516020818303038152906040526040518463ffffffff1660e01b815260040161171d93929190612357565b6020604051808303816000875af115801561173c573d6000803e3d6000fd5b505050506040513d601f19601f820116820180604052508101906117609190611e4d565b507f00000000000000000000000000000000000000000000000000000000000000006001600160a01b0316631865c57d6040518163ffffffff1660e01b8152600401600060405180830381865afa1580156117bf573d6000803e3d6000fd5b505050506040513d6000823e601f3d908101601f191682016040526117e7919081019061211c565b5050805190945063ffffffff166117ff846001611e34565b8103611896576000611812600143611e6a565b60408051914060208301526bffffffffffffffffffffffff197f000000000000000000000000000000000000000000000000000000000000000060601b16908201526001600160e01b031960e087901b16605482015260580160408051601f19818403018152918152815160209283012060008b81526008909352912055506118da565b60405162461bcd60e51b8152602060048201526015602482015274185d5d1bcb585c1c1c9bdd9948191a5cd8589b1959605a1b604482015260640160405180910390fd5b50505050505050565b606060a06040510180604052602081039150506000815280825b600183039250600a81066030018353600a9004806118fd5750819003601f19909101908152919050565b6001600160a01b038116811461078757600080fd5b60008083601f84011261194e57600080fd5b50813567ffffffffffffffff81111561196657600080fd5b60208301915083602082850101111561197e57600080fd5b9250929050565b60008060008060006080868803121561199d57600080fd5b85356119a881611927565b945060208601356119b881611927565b935060408601359250606086013567ffffffffffffffff8111156119db57600080fd5b6119e78882890161193c565b969995985093965092949392505050565b600060208284031215611a0a57600080fd5b5035919050565b600060208284031215611a2357600080fd5b8135611a2e81611927565b9392505050565b60008060208385031215611a4857600080fd5b823567ffffffffffffffff811115611a5f57600080fd5b611a6b8582860161193c565b90969095509350505050565b60005b83811015611a92578181015183820152602001611a7a565b50506000910152565b60008151808452611ab3816020860160208601611a77565b601f01601f19169290920160200192915050565b8215158152604060208201526000611ae26040830184611a9b565b949350505050565b634e487b7160e01b600052604160045260246000fd5b6040516080810167ffffffffffffffff81118282101715611b2357611b23611aea565b60405290565b604051610180810167ffffffffffffffff81118282101715611b2357611b23611aea565b604051601f8201601f1916810167ffffffffffffffff81118282101715611b7657611b76611aea565b604052919050565b600067ffffffffffffffff821115611b9857611b98611aea565b5060051b60200190565b600082601f830112611bb357600080fd5b81356020611bc8611bc383611b7e565b611b4d565b82815260059290921b84018101918181019086841115611be757600080fd5b8286015b84811015611c025780358352918301918301611beb565b509695505050505050565b600082601f830112611c1e57600080fd5b813567ffffffffffffffff811115611c3857611c38611aea565b611c4b601f8201601f1916602001611b4d565b818152846020838601011115611c6057600080fd5b816020850160208301376000918101602001919091529392505050565b600080600080600060a08688031215611c9557600080fd5b8535611ca081611927565b94506020860135611cb081611927565b9350604086013567ffffffffffffffff80821115611ccd57600080fd5b611cd989838a01611ba2565b94506060880135915080821115611cef57600080fd5b611cfb89838a01611ba2565b93506080880135915080821115611d1157600080fd5b50611d1e88828901611c0d565b9150509295509295909350565b801515811461078757600080fd5b6001600160601b038116811461078757600080fd5b60008060008060008060c08789031215611d6757600080fd5b8635611d7281611d2b565b955060208701359450604087013593506060870135611d9081611d2b565b92506080870135915060a0870135611da781611d39565b809150509295509295509295565b600080600080600060a08688031215611dcd57600080fd5b8535611dd881611927565b94506020860135611de881611927565b93506040860135925060608601359150608086013567ffffffffffffffff811115611e1257600080fd5b611d1e88828901611c0d565b634e487b7160e01b600052601160045260246000fd5b80820180821115611e4757611e47611e1e565b92915050565b600060208284031215611e5f57600080fd5b8151611a2e81611d2b565b81810381811115611e4757611e47611e1e565b805161145681611927565b600060208284031215611e9a57600080fd5b8151611a2e81611927565b600060018201611eb757611eb7611e1e565b5060010190565b600060208284031215611ed057600080fd5b815160ff81168114611a2e57600080fd5b805169ffffffffffffffffffff8116811461145657600080fd5b600080600080600060a08688031215611f1357600080fd5b611f1c86611ee1565b9450602086015193506040860151925060608601519150611f3f60808701611ee1565b90509295509295909350565b600181815b80851115611f86578160001904821115611f6c57611f6c611e1e565b80851615611f7957918102915b93841c9390800290611f50565b509250929050565b600082611f9d57506001611e47565b81611faa57506000611e47565b8160018114611fc05760028114611fca57611fe6565b6001915050611e47565b60ff841115611fdb57611fdb611e1e565b50506001821b611e47565b5060208310610133831016604e8410600b8410161715612009575081810a611e47565b6120138383611f4b565b806000190482111561202757612027611e1e565b029392505050565b6000611a2e8383611f8e565b8082028115828204841417611e4757611e47611e1e565b60008261206f57634e487b7160e01b600052601260045260246000fd5b500490565b805163ffffffff8116811461145657600080fd5b805161145681611d39565b805162ffffff8116811461145657600080fd5b805161ffff8116811461145657600080fd5b600082601f8301126120c957600080fd5b815160206120d9611bc383611b7e565b82815260059290921b840181019181810190868411156120f857600080fd5b8286015b84811015611c0257805161210f81611927565b83529183019183016120fc565b600080600083850361022081121561213357600080fd5b608081121561214157600080fd5b612149611b00565b61215286612074565b8152602086015161216281611d39565b602082015260408681015190820152606080870151908201529350610180607f19820181131561219157600080fd5b612199611b29565b91506121a760808701612074565b82526121b560a08701612074565b60208301526121c660c08701612093565b60408301526121d760e08701612074565b60608301526101006121ea818801612093565b60808401526101206121fd8189016120a6565b60a0850152610140612210818a01612088565b60c0860152610160612223818b01612074565b60e0870152848a0151848701526101a08a0151838701526122476101c08b01611e7d565b828701526122586101e08b01611e7d565b908601525050505061020085015190925067ffffffffffffffff81111561227e57600080fd5b61228a868287016120b8565b9150509250925092565b60006101208083526122a88184018c611a9b565b90508281038060208501526002825261060f60f31b602083015260018060a01b03808c1660408601528a6060860152808a1660808601526040820160a08601526122f5604084018a611a9b565b6001600160601b039890981660c086015260ff9690961660e085015250505091166101009091015295945050505050565b6001600160e01b0319831681528151600090612349816004850160208701611a77565b919091016004019392505050565b6001600160a01b03841681526001600160601b038316602082015260606040820181905260009061143790830184611a9b56fea26469706673582212206e51d38090552c081844dfc976141dac1e2372e85b2682a1b50e8198030d51dd64736f6c63430008130033",
    "linkReferences": {}
  },
  "methodIdentifiers": {
    "auctionBalance(address)": "d36443ca",
    "balances(address)": "27e235e3",
    "bid(uint256)": "454a2ab3",
    "buyListing(uint256)": "4884f459",
    "calculateWinner(uint256)": "da1086a0",
    "checkUpkeep(bytes)": "6e04ff0d",
    "createListing(bool,uint256,uint256,bool,uint256,uint96)": "c62fb5c4",
    "deleteListing(uint256)": "e6282c6e",
    "gasLimit()": "f68016b7",
    "getPrice(uint256)": "e7572230",
    "highestBid(uint256)": "b14c63c5",
    "i_link()": "7d253aff",
    "i_registry()": "2a663606",
    "invalidateAuctionBid(uint256)": "25cbce1c",
    "isListingValid(uint256)": "73253387",
    "listingCount()": "a9b07c26",
    "listingToUpkeepID(uint256)": "a9fbcdc2",
    "listings(uint256)": "de74e57b",
    "onERC1155BatchReceived(address,address,uint256[],uint256[],bytes)": "bc197c81",
    "onERC1155Received(address,address,uint256,uint256,bytes)": "f23a6e61",
    "onERC721Received(address,address,uint256,bytes)": "150b7a02",
    "performUpkeep(bytes)": "4585e33b",
    "registrar()": "2b20e397",
    "withdraw()": "3ccfd60b"
  },
  "id": 11
}