{
  "abi": [
    {
      "inputs": [
        {
          "internalType": "address",
          "name": "_witnetPriceRouterAddress",
          "type": "address"
        },
        {
          "internalType": "bytes4",
          "name": "_witnetPriceRouterUsdId4",
          "type": "bytes4"
        },
        {
          "internalType": "address",
          "name": "mapAddress",
          "type": "address"
        },
        {
          "internalType": "address",
          "name": "utilsAddress",
          "type": "address"
        },
        {
          "internalType": "address",
          "name": "_linkAddress",
          "type": "address"
        },
        {
          "internalType": "address",
          "name": "_registrar",
          "type": "address"
        },
        {
          "internalType": "address",
          "name": "_registryAddress",
          "type": "address"
        },
        {
          "internalType": "uint256",
          "name": "_gasLimit",
          "type": "uint256"
        },
        {
          "internalType": "address",
          "name": "trustedForwarder",
          "type": "address"
        }
      ],
      "stateMutability": "nonpayable",
      "type": "constructor"
    },
    {
      "inputs": [],
      "name": "AuctioNotSupported",
      "type": "error"
    },
    {
      "inputs": [],
      "name": "AuctionCantBeBought",
      "type": "error"
    },
    {
      "inputs": [],
      "name": "AuctionNotOver",
      "type": "error"
    },
    {
      "inputs": [],
      "name": "AuctionOver",
      "type": "error"
    },
    {
      "inputs": [],
      "name": "BidNotHighEnough",
      "type": "error"
    },
    {
      "inputs": [],
      "name": "InvalidListing",
      "type": "error"
    },
    {
      "inputs": [],
      "name": "InvalidListingId",
      "type": "error"
    },
    {
      "inputs": [],
      "name": "InvalidPrice",
      "type": "error"
    },
    {
      "inputs": [],
      "name": "InvalidTokenId",
      "type": "error"
    },
    {
      "inputs": [],
      "name": "NoBids",
      "type": "error"
    },
    {
      "inputs": [],
      "name": "NotAuction",
      "type": "error"
    },
    {
      "inputs": [],
      "name": "NotEnoughFunds",
      "type": "error"
    },
    {
      "inputs": [],
      "name": "NotHighestBidder",
      "type": "error"
    },
    {
      "inputs": [],
      "name": "NotListingOwner",
      "type": "error"
    },
    {
      "inputs": [],
      "name": "NotTokenOwner",
      "type": "error"
    },
    {
      "inputs": [],
      "name": "USDNotSupported",
      "type": "error"
    },
    {
      "inputs": [],
      "name": "USDNotSupportedForAuction",
      "type": "error"
    },
    {
      "inputs": [],
      "name": "ValidListing",
      "type": "error"
    },
    {
      "inputs": [
        {
          "internalType": "address",
          "name": "",
          "type": "address"
        }
      ],
      "name": "auctionBalance",
      "outputs": [
        {
          "internalType": "uint256",
          "name": "",
          "type": "uint256"
        }
      ],
      "stateMutability": "view",
      "type": "function"
    },
    {
      "inputs": [
        {
          "internalType": "address",
          "name": "",
          "type": "address"
        }
      ],
      "name": "balances",
      "outputs": [
        {
          "internalType": "uint256",
          "name": "",
          "type": "uint256"
        }
      ],
      "stateMutability": "view",
      "type": "function"
    },
    {
      "inputs": [
        {
          "internalType": "uint256",
          "name": "listingId",
          "type": "uint256"
        }
      ],
      "name": "bid",
      "outputs": [],
      "stateMutability": "payable",
      "type": "function"
    },
    {
      "inputs": [
        {
          "internalType": "uint256",
          "name": "listingId",
          "type": "uint256"
        }
      ],
      "name": "buyListing",
      "outputs": [],
      "stateMutability": "payable",
      "type": "function"
    },
    {
      "inputs": [
        {
          "internalType": "uint256",
          "name": "listingId",
          "type": "uint256"
        }
      ],
      "name": "calculateWinner",
      "outputs": [],
      "stateMutability": "nonpayable",
      "type": "function"
    },
    {
      "inputs": [
        {
          "internalType": "bytes",
          "name": "checkData",
          "type": "bytes"
        }
      ],
      "name": "checkUpkeep",
      "outputs": [
        {
          "internalType": "bool",
          "name": "upkeepNeeded",
          "type": "bool"
        },
        {
          "internalType": "bytes",
          "name": "performData",
          "type": "bytes"
        }
      ],
      "stateMutability": "view",
      "type": "function"
    },
    {
      "inputs": [
        {
          "internalType": "bool",
          "name": "inUSD",
          "type": "bool"
        },
        {
          "internalType": "uint256",
          "name": "tokenId",
          "type": "uint256"
        },
        {
          "internalType": "uint256",
          "name": "price",
          "type": "uint256"
        },
        {
          "internalType": "bool",
          "name": "isAuction",
          "type": "bool"
        },
        {
          "internalType": "uint256",
          "name": "auctionTime",
          "type": "uint256"
        },
        {
          "internalType": "uint96",
          "name": "amount",
          "type": "uint96"
        }
      ],
      "name": "createListing",
      "outputs": [],
      "stateMutability": "nonpayable",
      "type": "function"
    },
    {
      "inputs": [
        {
          "internalType": "uint256",
          "name": "listingId",
          "type": "uint256"
        }
      ],
      "name": "deleteListing",
      "outputs": [],
      "stateMutability": "nonpayable",
      "type": "function"
    },
    {
      "inputs": [],
      "name": "gasLimit",
      "outputs": [
        {
          "internalType": "uint256",
          "name": "",
          "type": "uint256"
        }
      ],
      "stateMutability": "view",
      "type": "function"
    },
    {
      "inputs": [
        {
          "internalType": "uint256",
          "name": "listingId",
          "type": "uint256"
        }
      ],
      "name": "getPrice",
      "outputs": [
        {
          "internalType": "uint256",
          "name": "",
          "type": "uint256"
        }
      ],
      "stateMutability": "view",
      "type": "function"
    },
    {
      "inputs": [
        {
          "internalType": "uint256",
          "name": "",
          "type": "uint256"
        }
      ],
      "name": "highestBid",
      "outputs": [
        {
          "internalType": "address",
          "name": "bidder",
          "type": "address"
        },
        {
          "internalType": "uint256",
          "name": "amount",
          "type": "uint256"
        }
      ],
      "stateMutability": "view",
      "type": "function"
    },
    {
      "inputs": [],
      "name": "i_link",
      "outputs": [
        {
          "internalType": "contract LinkTokenInterface",
          "name": "",
          "type": "address"
        }
      ],
      "stateMutability": "view",
      "type": "function"
    },
    {
      "inputs": [],
      "name": "i_registry",
      "outputs": [
        {
          "internalType": "contract AutomationRegistryInterface",
          "name": "",
          "type": "address"
        }
      ],
      "stateMutability": "view",
      "type": "function"
    },
    {
      "inputs": [],
      "name": "i_witnetPriceRouter",
      "outputs": [
        {
          "internalType": "contract IWitnetPriceRouter",
          "name": "",
          "type": "address"
        }
      ],
      "stateMutability": "view",
      "type": "function"
    },
    {
      "inputs": [],
      "name": "i_witnetPriceRouterUsdId4",
      "outputs": [
        {
          "internalType": "bytes4",
          "name": "",
          "type": "bytes4"
        }
      ],
      "stateMutability": "view",
      "type": "function"
    },
    {
      "inputs": [
        {
          "internalType": "uint256",
          "name": "listingId",
          "type": "uint256"
        }
      ],
      "name": "invalidateAuctionBid",
      "outputs": [],
      "stateMutability": "nonpayable",
      "type": "function"
    },
    {
      "inputs": [
        {
          "internalType": "uint256",
          "name": "listingId",
          "type": "uint256"
        }
      ],
      "name": "isListingValid",
      "outputs": [
        {
          "internalType": "bool",
          "name": "",
          "type": "bool"
        }
      ],
      "stateMutability": "view",
      "type": "function"
    },
    {
      "inputs": [
        {
          "internalType": "address",
          "name": "forwarder",
          "type": "address"
        }
      ],
      "name": "isTrustedForwarder",
      "outputs": [
        {
          "internalType": "bool",
          "name": "",
          "type": "bool"
        }
      ],
      "stateMutability": "view",
      "type": "function"
    },
    {
      "inputs": [],
      "name": "listingCount",
      "outputs": [
        {
          "internalType": "uint256",
          "name": "",
          "type": "uint256"
        }
      ],
      "stateMutability": "view",
      "type": "function"
    },
    {
      "inputs": [
        {
          "internalType": "uint256",
          "name": "",
          "type": "uint256"
        }
      ],
      "name": "listingToUpkeepID",
      "outputs": [
        {
          "internalType": "uint256",
          "name": "",
          "type": "uint256"
        }
      ],
      "stateMutability": "view",
      "type": "function"
    },
    {
      "inputs": [
        {
          "internalType": "uint256",
          "name": "",
          "type": "uint256"
        }
      ],
      "name": "listings",
      "outputs": [
        {
          "internalType": "address",
          "name": "seller",
          "type": "address"
        },
        {
          "internalType": "bool",
          "name": "inUSD",
          "type": "bool"
        },
        {
          "internalType": "uint256",
          "name": "tokenId",
          "type": "uint256"
        },
        {
          "internalType": "uint256",
          "name": "price",
          "type": "uint256"
        },
        {
          "internalType": "uint256",
          "name": "timestamp",
          "type": "uint256"
        },
        {
          "internalType": "bool",
          "name": "isValid",
          "type": "bool"
        },
        {
          "internalType": "bool",
          "name": "isAuction",
          "type": "bool"
        },
        {
          "internalType": "uint256",
          "name": "aucionTime",
          "type": "uint256"
        }
      ],
      "stateMutability": "view",
      "type": "function"
    },
    {
      "inputs": [
        {
          "internalType": "address",
          "name": "",
          "type": "address"
        },
        {
          "internalType": "address",
          "name": "",
          "type": "address"
        },
        {
          "internalType": "uint256",
          "name": "",
          "type": "uint256"
        },
        {
          "internalType": "bytes",
          "name": "",
          "type": "bytes"
        }
      ],
      "name": "onKIP17Received",
      "outputs": [
        {
          "internalType": "bytes4",
          "name": "",
          "type": "bytes4"
        }
      ],
      "stateMutability": "nonpayable",
      "type": "function"
    },
    {
      "inputs": [
        {
          "internalType": "address",
          "name": "",
          "type": "address"
        },
        {
          "internalType": "address",
          "name": "",
          "type": "address"
        },
        {
          "internalType": "uint256[]",
          "name": "",
          "type": "uint256[]"
        },
        {
          "internalType": "uint256[]",
          "name": "",
          "type": "uint256[]"
        },
        {
          "internalType": "bytes",
          "name": "",
          "type": "bytes"
        }
      ],
      "name": "onKIP37BatchReceived",
      "outputs": [
        {
          "internalType": "bytes4",
          "name": "",
          "type": "bytes4"
        }
      ],
      "stateMutability": "nonpayable",
      "type": "function"
    },
    {
      "inputs": [
        {
          "internalType": "address",
          "name": "",
          "type": "address"
        },
        {
          "internalType": "address",
          "name": "",
          "type": "address"
        },
        {
          "internalType": "uint256",
          "name": "",
          "type": "uint256"
        },
        {
          "internalType": "uint256",
          "name": "",
          "type": "uint256"
        },
        {
          "internalType": "bytes",
          "name": "",
          "type": "bytes"
        }
      ],
      "name": "onKIP37Received",
      "outputs": [
        {
          "internalType": "bytes4",
          "name": "",
          "type": "bytes4"
        }
      ],
      "stateMutability": "nonpayable",
      "type": "function"
    },
    {
      "inputs": [
        {
          "internalType": "bytes",
          "name": "performData",
          "type": "bytes"
        }
      ],
      "name": "performUpkeep",
      "outputs": [],
      "stateMutability": "nonpayable",
      "type": "function"
    },
    {
      "inputs": [],
      "name": "registrar",
      "outputs": [
        {
          "internalType": "address",
          "name": "",
          "type": "address"
        }
      ],
      "stateMutability": "view",
      "type": "function"
    },
    {
      "inputs": [],
      "name": "withdraw",
      "outputs": [],
      "stateMutability": "nonpayable",
      "type": "function"
    }
  ],
  "bytecode": {
    "object": "0x61014060405260006002556008805463ffffffff1916633659d6661790553480156200002a57600080fd5b50604051620029a8380380620029a88339810160408190526200004d91620000d1565b6001600160a01b0390811660805297881660a0526001600160e01b031990961660c052600080549588166001600160a01b0319968716179055600180549488169490951693909317909355841660e052908316610100529091166101205260095562000192565b80516001600160a01b0381168114620000cc57600080fd5b919050565b60008060008060008060008060006101208a8c031215620000f157600080fd5b620000fc8a620000b4565b60208b01519099506001600160e01b0319811681146200011b57600080fd5b97506200012b60408b01620000b4565b96506200013b60608b01620000b4565b95506200014b60808b01620000b4565b94506200015b60a08b01620000b4565b93506200016b60c08b01620000b4565b925060e08a01519150620001836101008b01620000b4565b90509295985092959850929598565b60805160a05160c05160e051610100516101205161276b6200023d600039600081816102610152818161197201528181611b4a0152611c140152600081816102950152611a950152600081816104480152818161106a015281816118b90152611a660152600081816102de015281816110170152818161162701526116dc0152600081816101b301528181611651015261171601526000818161037c0152611877015261276b6000f3fe60806040526004361061019c5760003560e01c806373253387116100ec578063d36443ca1161008a578063e6282c6e11610064578063e6282c6e14610662578063e757223014610682578063e78b3325146106a2578063f68016b7146106ce57600080fd5b8063d36443ca14610558578063da1086a014610585578063de74e57b146105a557600080fd5b8063a9b07c26116100c6578063a9b07c2614610496578063a9fbcdc2146104ac578063b14c63c5146104d9578063c62fb5c41461053857600080fd5b806373253387146104165780637d253aff146104365780639b49e3321461046a57600080fd5b80634055459c116101595780634884f459116101335780634884f4591461034c578063572b6c051461035f5780636745782b146103bc5780636e04ff0d146103e857600080fd5b80634055459c146102cc578063454a2ab3146103195780634585e33b1461032c57600080fd5b80631fd4a80e146101a157806325cbce1c146101f257806327e235e3146102145780632a6636061461024f5780632b20e397146102835780633ccfd60b146102b7575b600080fd5b3480156101ad57600080fd5b506101d57f000000000000000000000000000000000000000000000000000000000000000081565b6040516001600160a01b0390911681526020015b60405180910390f35b3480156101fe57600080fd5b5061021261020d366004611d0e565b6106e4565b005b34801561022057600080fd5b5061024161022f366004611d3c565b60046020526000908152604090205481565b6040519081526020016101e9565b34801561025b57600080fd5b506101d57f000000000000000000000000000000000000000000000000000000000000000081565b34801561028f57600080fd5b506101d57f000000000000000000000000000000000000000000000000000000000000000081565b3480156102c357600080fd5b50610212610889565b3480156102d857600080fd5b506103007f000000000000000000000000000000000000000000000000000000000000000081565b6040516001600160e01b031990911681526020016101e9565b610212610327366004611d0e565b610947565b34801561033857600080fd5b50610212610347366004611da9565b610b4b565b61021261035a366004611d0e565b610b69565b34801561036b57600080fd5b506103ac61037a366004611d3c565b7f00000000000000000000000000000000000000000000000000000000000000006001600160a01b0390811691161490565b60405190151581526020016101e9565b3480156103c857600080fd5b506103006103d7366004611deb565b636745782b60e01b95945050505050565b3480156103f457600080fd5b50610408610403366004611da9565b610d4d565b6040516101e9929190611eae565b34801561042257600080fd5b506103ac610431366004611d0e565b610e22565b34801561044257600080fd5b506101d57f000000000000000000000000000000000000000000000000000000000000000081565b34801561047657600080fd5b50610300610485366004612064565b634da4f19960e11b95945050505050565b3480156104a257600080fd5b5061024160025481565b3480156104b857600080fd5b506102416104c7366004611d0e565b60076020526000908152604090205481565b3480156104e557600080fd5b506105196104f4366004611d0e565b600560205260009081526040902080546001909101546001600160a01b039091169082565b604080516001600160a01b0390931683526020830191909152016101e9565b34801561054457600080fd5b50610212610553366004612135565b610f04565b34801561056457600080fd5b50610241610573366004611d3c565b60066020526000908152604090205481565b34801561059157600080fd5b506102126105a0366004611d0e565b6111d9565b3480156105b157600080fd5b506106196105c0366004611d0e565b60036020819052600091825260409091208054600182015460028301549383015460048401546005909401546001600160a01b0384169560ff600160a01b90950485169593949093808216926101009091049091169088565b604080516001600160a01b03909916895296151560208901529587019490945260608601929092526080850152151560a0840152151560c083015260e0820152610100016101e9565b34801561066e57600080fd5b5061021261067d366004611d0e565b6114e7565b34801561068e57600080fd5b5061024161069d366004611d0e565b6115c3565b3480156106ae57600080fd5b506103006106bd36600461219c565b63e78b332560e01b95945050505050565b3480156106da57600080fd5b5061024160095481565b600081815260036020526040812060040154610100900460ff161515900361071f57604051633fbfe96d60e01b815260040160405180910390fd5b60008181526003602081905260409091206005810154910154610742919061221b565b42116107945760008181526003602052604090206004015460ff161561077b576040516312a83adf60e01b815260040160405180910390fd5b60405163058ebc1760e11b815260040160405180910390fd5b60008054828252600360205260409182902054915163e985e9c560e01b81526001600160a01b03928316600482015230602482015291169063e985e9c590604401602060405180830381865afa1580156107f2573d6000803e3d6000fd5b505050506040513d601f19601f820116820180604052508101906108169190612234565b1561084e5760008181526003602052604090206004015460ff161561084e576040516312a83adf60e01b815260040160405180910390fd5b60008181526005602052604090206001015461087d57604051631036b5ad60e31b815260040160405180910390fd5b610886816117df565b50565b600060046000610897611873565b6001600160a01b03166001600160a01b03168152602001908152602001600020549050600081116108db57604051631036b5ad60e31b815260040160405180910390fd5b6000600460006108e9611873565b6001600160a01b0316815260208101919091526040016000205561090b611873565b6001600160a01b03166108fc829081150290604051600060405180830381858888f19350505050158015610943573d6000803e3d6000fd5b5050565b60008181526003602052604081206004015460ff161515900361097d57604051631ab4dc1760e31b815260040160405180910390fd5b600081815260036020526040812060040154610100900460ff16151590036109b857604051633fbfe96d60e01b815260040160405180910390fd5b6000818152600360205260409020600201543410156109ea57604051633bdb1be760e01b815260040160405180910390fd5b6000818152600560205260409020600101543411610a1b57604051633bdb1be760e01b815260040160405180910390fd5b60008181526005602052604090206001015415610ab3576000818152600560209081526040808320600181015490546001600160a01b0316845260049092528220805491929091610a6d90849061221b565b90915550506000818152600560209081526040808320600181015490546001600160a01b0316845260069092528220805491929091610aad908490612251565b90915550505b3460066000610ac0611873565b6001600160a01b03166001600160a01b031681526020019081526020016000206000828254610aef919061221b565b925050819055506040518060400160405280610b09611873565b6001600160a01b039081168252346020928301526000938452600582526040909320825181546001600160a01b03191694169390931783550151600190910155565b6000610b5982840184611d0e565b9050610b64816111d9565b505050565b610b7281610e22565b1515600003610b9457604051631ab4dc1760e31b815260040160405180910390fd5b600081815260036020526040902060040154610100900460ff1615610bcc576040516306fd349d60e31b815260040160405180910390fd5b6000610bd7826115c3565b905080341015610bfa57604051631036b5ad60e31b815260040160405180910390fd5b6000610c068234612251565b90508015610c50578060046000610c1b611873565b6001600160a01b03166001600160a01b031681526020019081526020016000206000828254610c4a919061221b565b90915550505b6000838152600360209081526040808320546001600160a01b03168352600490915281208054849290610c8490849061221b565b90915550506000805484825260036020526040909120546001600160a01b03918216916342842e0e9116610cb6611873565b6000878152600360205260409081902060010154905160e085901b6001600160e01b03191681526001600160a01b0393841660048201529290911660248301526044820152606401600060405180830381600087803b158015610d1857600080fd5b505af1158015610d2c573d6000803e3d6000fd5b5050506000938452505060036020525060409020600401805460ff19169055565b6000606081610d5e84860186611d0e565b60008181526003602081905260409091206005810154910154919250610d839161221b565b42118015610da757506000818152600560205260409020546001600160a01b031615155b8015610dde575060008181526003602052604090206004015460ff1680610dde575060008181526005602052604090206001015415155b925084848080601f01602080910402602001604051908101604052809392919081815260200183838082843760009201919091525095989297509195505050505050565b6000811580610e32575060025482115b15610e5057604051632d36379960e11b815260040160405180910390fd5b6000828152600360205260408082208054925460019091015491516331a9108f60e11b815260048101929092526001600160a01b03928316921690636352211e90602401602060405180830381865afa158015610eb1573d6000803e3d6000fd5b505050506040513d601f19601f82011682018060405250810190610ed5919061226f565b6001600160a01b031614610eeb57506000919050565b5060009081526003602052604090206004015460ff1690565b60008411610f245760405162bfc92160e01b815260040160405180910390fd5b60008511610f45576040516307ed98ed60e31b815260040160405180910390fd5b610f4d611873565b6000546040516331a9108f60e11b8152600481018890526001600160a01b039283169290911690636352211e90602401602060405180830381865afa158015610f9a573d6000803e3d6000fd5b505050506040513d601f19601f82011682018060405250810190610fbe919061226f565b6001600160a01b031614610fe5576040516359dc379f60e01b815260040160405180910390fd5b828015610fef5750855b1561100d576040516323dab71360e01b815260040160405180910390fd5b85801561104257507f00000000000000000000000000000000000000000000000000000000000000006001600160e01b031916155b1561106057604051630f99819560e01b815260040160405180910390fd5b82801561109457507f00000000000000000000000000000000000000000000000000000000000000006001600160a01b0316155b156110b257604051632e3abd1160e11b815260040160405180910390fd5b600280549060006110c28361228c565b91905055506040518061010001604052806110db611873565b6001600160a01b03908116825288151560208084019190915260408084018a905260608085018a905242608080870191909152600160a08088018290528b15801560c0808b019190915260e0998a018d90526002805460009081526003808b52908990208d5181549b8f01511515600160a01b026001600160a81b0319909c169c169b909b17999099178a55968b01519389019390935593890151948701949094559087015193850193909355908501516004840180549387015115156101000261ff00199215159290921661ffff19909416939093171790915592909101516005909101556111d1576111d1600254826118b7565b505050505050565b600081815260036020526040812060040154610100900460ff161515900361121457604051633fbfe96d60e01b815260040160405180910390fd5b60008181526003602081905260409091206005810154910154611237919061221b565b42116112565760405163058ebc1760e11b815260040160405180910390fd5b6000818152600560205260409020546001600160a01b031661128b5760405163c3bc404360e01b815260040160405180910390fd5b60008181526003602052604081206004015460ff16151590036112e657600081815260056020526040902060010154156112cd576112c8816117df565b6112e6565b604051631ab4dc1760e31b815260040160405180910390fd5b600081815260056020526040902060010154611317576000908152600360205260409020600401805460ff19169055565b60008054828252600360205260409182902054915163e985e9c560e01b81526001600160a01b03928316600482015230602482015291169063e985e9c590604401602060405180830381865afa158015611375573d6000803e3d6000fd5b505050506040513d601f19601f820116820180604052508101906113999190612234565b15156000036113c6576113ab816117df565b6000908152600360205260409020600401805460ff19169055565b60008181526003602052604081206004015460ff16151590036113fc57604051631ab4dc1760e31b815260040160405180910390fd5b60008181526005602090815260408083206001015460038352818420546001600160a01b031684526004909252822080549192909161143c90849061221b565b90915550506000805482825260036020818152604080852080546005845282872054949093526001015481516323b872dd60e01b81526001600160a01b03938416600482015293831660248501526044840152519216926323b872dd9260648084019382900301818387803b1580156114b457600080fd5b505af11580156114c8573d6000803e3d6000fd5b505050600091825250600360205260409020600401805460ff19169055565b6114f081610e22565b151560000361151257604051631ab4dc1760e31b815260040160405180910390fd5b61151a611873565b6000805483825260036020526040918290206001015491516331a9108f60e11b815260048101929092526001600160a01b03928316921690636352211e90602401602060405180830381865afa158015611578573d6000803e3d6000fd5b505050506040513d601f19601f8201168201806040525081019061159c919061226f565b6001600160a01b0316146113ab57604051637c62d69f60e01b815260040160405180910390fd5b60008115806115d3575060025482115b156115f157604051632d36379960e11b815260040160405180910390fd5b600082815260036020526040902054600160a01b900460ff16156117c457604051630d56443f60e31b81526001600160e01b03197f00000000000000000000000000000000000000000000000000000000000000001660048201526000907f00000000000000000000000000000000000000000000000000000000000000006001600160a01b031690636ab221f890602401602060405180830381865afa1580156116a0573d6000803e3d6000fd5b505050506040513d601f19601f820116820180604052508101906116c491906122a5565b60405163f78eea8360e01b81526001600160e01b03197f000000000000000000000000000000000000000000000000000000000000000016600482015260ff9190911691506000906001600160a01b037f0000000000000000000000000000000000000000000000000000000000000000169063f78eea8390602401606060405180830381865afa15801561175d573d6000803e3d6000fd5b505050506040513d601f19601f8201168201806040525081019061178191906122c8565b5050905060008183600a61179591906123da565b6000878152600360205260409020600201546117b191906123e6565b6117bb91906123fd565b95945050505050565b5060009081526003602052604090206002015490565b919050565b6000818152600560209081526040808320600181015490546001600160a01b031684526006909252822080549192909161181a908490612251565b90915550506000818152600560209081526040808320600181015490546001600160a01b031684526004909252822080549192909161185a90849061221b565b9091555050600090815260056020526040812060010155565b60007f00000000000000000000000000000000000000000000000000000000000000006001600160a01b031633036118b2575060131936013560601c90565b503390565b7f00000000000000000000000000000000000000000000000000000000000000006001600160a01b03166323b872dd6118ee611873565b6040516001600160e01b031960e084901b1681526001600160a01b0390911660048201523060248201526001600160601b03841660448201526064016020604051808303816000875af1158015611949573d6000803e3d6000fd5b505050506040513d601f19601f8201168201806040525081019061196d9190612234565b5060007f00000000000000000000000000000000000000000000000000000000000000006001600160a01b0316631865c57d6040518163ffffffff1660e01b8152600401600060405180830381865afa1580156119ce573d6000803e3d6000fd5b505050506040513d6000823e601f3d908101601f191682016040526119f691908101906124c7565b505080516040805160208082018890528251808303909101815290820190915291925063ffffffff16906000611a2b86611cca565b30600954611a37611873565b8589600030604051602001611a5398979695949392919061263f565b60405160208183030381529060405290507f00000000000000000000000000000000000000000000000000000000000000006001600160a01b0316634000aea07f000000000000000000000000000000000000000000000000000000000000000087600860009054906101000a900460e01b85604051602001611ad79291906126d1565b6040516020818303038152906040526040518463ffffffff1660e01b8152600401611b0493929190612702565b6020604051808303816000875af1158015611b23573d6000803e3d6000fd5b505050506040513d601f19601f82011682018060405250810190611b479190612234565b507f00000000000000000000000000000000000000000000000000000000000000006001600160a01b0316631865c57d6040518163ffffffff1660e01b8152600401600060405180830381865afa158015611ba6573d6000803e3d6000fd5b505050506040513d6000823e601f3d908101601f19168201604052611bce91908101906124c7565b5050805190945063ffffffff16611be684600161221b565b8103611c7d576000611bf9600143612251565b60408051914060208301526bffffffffffffffffffffffff197f000000000000000000000000000000000000000000000000000000000000000060601b16908201526001600160e01b031960e087901b16605482015260580160408051601f19818403018152918152815160209283012060008b8152600790935291205550611cc1565b60405162461bcd60e51b8152602060048201526015602482015274185d5d1bcb585c1c1c9bdd9948191a5cd8589b1959605a1b604482015260640160405180910390fd5b50505050505050565b606060a06040510180604052602081039150506000815280825b600183039250600a81066030018353600a900480611ce45750819003601f19909101908152919050565b600060208284031215611d2057600080fd5b5035919050565b6001600160a01b038116811461088657600080fd5b600060208284031215611d4e57600080fd5b8135611d5981611d27565b9392505050565b60008083601f840112611d7257600080fd5b50813567ffffffffffffffff811115611d8a57600080fd5b602083019150836020828501011115611da257600080fd5b9250929050565b60008060208385031215611dbc57600080fd5b823567ffffffffffffffff811115611dd357600080fd5b611ddf85828601611d60565b90969095509350505050565b600080600080600060808688031215611e0357600080fd5b8535611e0e81611d27565b94506020860135611e1e81611d27565b935060408601359250606086013567ffffffffffffffff811115611e4157600080fd5b611e4d88828901611d60565b969995985093965092949392505050565b60005b83811015611e79578181015183820152602001611e61565b50506000910152565b60008151808452611e9a816020860160208601611e5e565b601f01601f19169290920160200192915050565b8215158152604060208201526000611ec96040830184611e82565b949350505050565b634e487b7160e01b600052604160045260246000fd5b6040516080810167ffffffffffffffff81118282101715611f0a57611f0a611ed1565b60405290565b604051610180810167ffffffffffffffff81118282101715611f0a57611f0a611ed1565b604051601f8201601f1916810167ffffffffffffffff81118282101715611f5d57611f5d611ed1565b604052919050565b600067ffffffffffffffff821115611f7f57611f7f611ed1565b5060051b60200190565b600082601f830112611f9a57600080fd5b81356020611faf611faa83611f65565b611f34565b82815260059290921b84018101918181019086841115611fce57600080fd5b8286015b84811015611fe95780358352918301918301611fd2565b509695505050505050565b600082601f83011261200557600080fd5b813567ffffffffffffffff81111561201f5761201f611ed1565b612032601f8201601f1916602001611f34565b81815284602083860101111561204757600080fd5b816020850160208301376000918101602001919091529392505050565b600080600080600060a0868803121561207c57600080fd5b853561208781611d27565b9450602086013561209781611d27565b9350604086013567ffffffffffffffff808211156120b457600080fd5b6120c089838a01611f89565b945060608801359150808211156120d657600080fd5b6120e289838a01611f89565b935060808801359150808211156120f857600080fd5b5061210588828901611ff4565b9150509295509295909350565b801515811461088657600080fd5b6001600160601b038116811461088657600080fd5b60008060008060008060c0878903121561214e57600080fd5b863561215981612112565b95506020870135945060408701359350606087013561217781612112565b92506080870135915060a087013561218e81612120565b809150509295509295509295565b600080600080600060a086880312156121b457600080fd5b85356121bf81611d27565b945060208601356121cf81611d27565b93506040860135925060608601359150608086013567ffffffffffffffff8111156121f957600080fd5b61210588828901611ff4565b634e487b7160e01b600052601160045260246000fd5b8082018082111561222e5761222e612205565b92915050565b60006020828403121561224657600080fd5b8151611d5981612112565b8181038181111561222e5761222e612205565b80516117da81611d27565b60006020828403121561228157600080fd5b8151611d5981611d27565b60006001820161229e5761229e612205565b5060010190565b6000602082840312156122b757600080fd5b815160ff81168114611d5957600080fd5b6000806000606084860312156122dd57600080fd5b8351925060208401519150604084015190509250925092565b600181815b8085111561233157816000190482111561231757612317612205565b8085161561232457918102915b93841c93908002906122fb565b509250929050565b6000826123485750600161222e565b816123555750600061222e565b816001811461236b576002811461237557612391565b600191505061222e565b60ff84111561238657612386612205565b50506001821b61222e565b5060208310610133831016604e8410600b84101617156123b4575081810a61222e565b6123be83836122f6565b80600019048211156123d2576123d2612205565b029392505050565b6000611d598383612339565b808202811582820484141761222e5761222e612205565b60008261241a57634e487b7160e01b600052601260045260246000fd5b500490565b805163ffffffff811681146117da57600080fd5b80516117da81612120565b805162ffffff811681146117da57600080fd5b805161ffff811681146117da57600080fd5b600082601f83011261247457600080fd5b81516020612484611faa83611f65565b82815260059290921b840181019181810190868411156124a357600080fd5b8286015b84811015611fe95780516124ba81611d27565b83529183019183016124a7565b60008060008385036102208112156124de57600080fd5b60808112156124ec57600080fd5b6124f4611ee7565b6124fd8661241f565b8152602086015161250d81612120565b602082015260408681015190820152606080870151908201529350610180607f19820181131561253c57600080fd5b612544611f10565b91506125526080870161241f565b825261256060a0870161241f565b602083015261257160c0870161243e565b604083015261258260e0870161241f565b606083015261010061259581880161243e565b60808401526101206125a8818901612451565b60a08501526101406125bb818a01612433565b60c08601526101606125ce818b0161241f565b60e0870152848a0151848701526101a08a0151838701526125f26101c08b01612264565b828701526126036101e08b01612264565b908601525050505061020085015190925067ffffffffffffffff81111561262957600080fd5b61263586828701612463565b9150509250925092565b60006101208083526126538184018c611e82565b90508281038060208501526002825261060f60f31b602083015260018060a01b03808c1660408601528a6060860152808a1660808601526040820160a08601526126a0604084018a611e82565b6001600160601b039890981660c086015260ff9690961660e085015250505091166101009091015295945050505050565b6001600160e01b03198316815281516000906126f4816004850160208701611e5e565b919091016004019392505050565b6001600160a01b03841681526001600160601b03831660208201526060604082018190526000906117bb90830184611e8256fea26469706673582212207df92c867a8dcc2bc90cf78331b2c8aa08b448ec8d72cf98a59470e9b4cd45bc64736f6c63430008130033",
    "linkReferences": {}
  },
  "methodIdentifiers": {
    "auctionBalance(address)": "d36443ca",
    "balances(address)": "27e235e3",
    "bid(uint256)": "454a2ab3",
    "buyListing(uint256)": "4884f459",
    "calculateWinner(uint256)": "da1086a0",
    "checkUpkeep(bytes)": "6e04ff0d",
    "createListing(bool,uint256,uint256,bool,uint256,uint96)": "c62fb5c4",
    "deleteListing(uint256)": "e6282c6e",
    "gasLimit()": "f68016b7",
    "getPrice(uint256)": "e7572230",
    "highestBid(uint256)": "b14c63c5",
    "i_link()": "7d253aff",
    "i_registry()": "2a663606",
    "i_witnetPriceRouter()": "1fd4a80e",
    "i_witnetPriceRouterUsdId4()": "4055459c",
    "invalidateAuctionBid(uint256)": "25cbce1c",
    "isListingValid(uint256)": "73253387",
    "isTrustedForwarder(address)": "572b6c05",
    "listingCount()": "a9b07c26",
    "listingToUpkeepID(uint256)": "a9fbcdc2",
    "listings(uint256)": "de74e57b",
    "onKIP17Received(address,address,uint256,bytes)": "6745782b",
    "onKIP37BatchReceived(address,address,uint256[],uint256[],bytes)": "9b49e332",
    "onKIP37Received(address,address,uint256,uint256,bytes)": "e78b3325",
    "performUpkeep(bytes)": "4585e33b",
    "registrar()": "2b20e397",
    "withdraw()": "3ccfd60b"
  },
  "id": 30
}