{
  "abi": [
    {
      "inputs": [
        {
          "internalType": "string",
          "name": "_baseUri",
          "type": "string"
        },
        {
          "internalType": "address",
          "name": "trustedForwarder",
          "type": "address"
        },
        {
          "internalType": "contract IPolygonZkEVMBridge",
          "name": "_polygonZkEVMBridge",
          "type": "address"
        }
      ],
      "stateMutability": "nonpayable",
      "type": "constructor"
    },
    {
      "inputs": [],
      "name": "InsufficientBalance",
      "type": "error"
    },
    {
      "inputs": [],
      "name": "InvalidChain",
      "type": "error"
    },
    {
      "inputs": [],
      "name": "NotPolygonZkEVMBridge",
      "type": "error"
    },
    {
      "anonymous": false,
      "inputs": [
        {
          "indexed": true,
          "internalType": "address",
          "name": "account",
          "type": "address"
        },
        {
          "indexed": true,
          "internalType": "address",
          "name": "operator",
          "type": "address"
        },
        {
          "indexed": false,
          "internalType": "bool",
          "name": "approved",
          "type": "bool"
        }
      ],
      "name": "ApprovalForAll",
      "type": "event"
    },
    {
      "anonymous": false,
      "inputs": [
        {
          "indexed": true,
          "internalType": "address",
          "name": "previousOwner",
          "type": "address"
        },
        {
          "indexed": true,
          "internalType": "address",
          "name": "newOwner",
          "type": "address"
        }
      ],
      "name": "OwnershipTransferred",
      "type": "event"
    },
    {
      "anonymous": false,
      "inputs": [
        {
          "indexed": true,
          "internalType": "address",
          "name": "operator",
          "type": "address"
        },
        {
          "indexed": true,
          "internalType": "address",
          "name": "from",
          "type": "address"
        },
        {
          "indexed": true,
          "internalType": "address",
          "name": "to",
          "type": "address"
        },
        {
          "indexed": false,
          "internalType": "uint256[]",
          "name": "ids",
          "type": "uint256[]"
        },
        {
          "indexed": false,
          "internalType": "uint256[]",
          "name": "values",
          "type": "uint256[]"
        }
      ],
      "name": "TransferBatch",
      "type": "event"
    },
    {
      "anonymous": false,
      "inputs": [
        {
          "indexed": true,
          "internalType": "address",
          "name": "operator",
          "type": "address"
        },
        {
          "indexed": true,
          "internalType": "address",
          "name": "from",
          "type": "address"
        },
        {
          "indexed": true,
          "internalType": "address",
          "name": "to",
          "type": "address"
        },
        {
          "indexed": false,
          "internalType": "uint256",
          "name": "id",
          "type": "uint256"
        },
        {
          "indexed": false,
          "internalType": "uint256",
          "name": "value",
          "type": "uint256"
        }
      ],
      "name": "TransferSingle",
      "type": "event"
    },
    {
      "anonymous": false,
      "inputs": [
        {
          "indexed": false,
          "internalType": "string",
          "name": "value",
          "type": "string"
        },
        {
          "indexed": true,
          "internalType": "uint256",
          "name": "id",
          "type": "uint256"
        }
      ],
      "name": "URI",
      "type": "event"
    },
    {
      "inputs": [
        {
          "internalType": "address",
          "name": "account",
          "type": "address"
        },
        {
          "internalType": "uint256",
          "name": "id",
          "type": "uint256"
        }
      ],
      "name": "balanceOf",
      "outputs": [
        {
          "internalType": "uint256",
          "name": "",
          "type": "uint256"
        }
      ],
      "stateMutability": "view",
      "type": "function"
    },
    {
      "inputs": [
        {
          "internalType": "address[]",
          "name": "accounts",
          "type": "address[]"
        },
        {
          "internalType": "uint256[]",
          "name": "ids",
          "type": "uint256[]"
        }
      ],
      "name": "balanceOfBatch",
      "outputs": [
        {
          "internalType": "uint256[]",
          "name": "",
          "type": "uint256[]"
        }
      ],
      "stateMutability": "view",
      "type": "function"
    },
    {
      "inputs": [],
      "name": "baseUri",
      "outputs": [
        {
          "internalType": "string",
          "name": "",
          "type": "string"
        }
      ],
      "stateMutability": "view",
      "type": "function"
    },
    {
      "inputs": [
        {
          "internalType": "uint32",
          "name": "",
          "type": "uint32"
        }
      ],
      "name": "chains",
      "outputs": [
        {
          "internalType": "address",
          "name": "",
          "type": "address"
        }
      ],
      "stateMutability": "view",
      "type": "function"
    },
    {
      "inputs": [
        {
          "internalType": "uint32",
          "name": "destinationChain",
          "type": "uint32"
        },
        {
          "internalType": "uint256",
          "name": "tokenId",
          "type": "uint256"
        },
        {
          "internalType": "uint256",
          "name": "amount",
          "type": "uint256"
        },
        {
          "internalType": "bool",
          "name": "forceUpdateGlobalExitRoot",
          "type": "bool"
        }
      ],
      "name": "crossChainTransfer",
      "outputs": [],
      "stateMutability": "payable",
      "type": "function"
    },
    {
      "inputs": [
        {
          "internalType": "address",
          "name": "account",
          "type": "address"
        },
        {
          "internalType": "address",
          "name": "operator",
          "type": "address"
        }
      ],
      "name": "isApprovedForAll",
      "outputs": [
        {
          "internalType": "bool",
          "name": "",
          "type": "bool"
        }
      ],
      "stateMutability": "view",
      "type": "function"
    },
    {
      "inputs": [
        {
          "internalType": "address",
          "name": "forwarder",
          "type": "address"
        }
      ],
      "name": "isTrustedForwarder",
      "outputs": [
        {
          "internalType": "bool",
          "name": "",
          "type": "bool"
        }
      ],
      "stateMutability": "view",
      "type": "function"
    },
    {
      "inputs": [
        {
          "internalType": "uint256",
          "name": "amount",
          "type": "uint256"
        }
      ],
      "name": "mint",
      "outputs": [],
      "stateMutability": "nonpayable",
      "type": "function"
    },
    {
      "inputs": [
        {
          "internalType": "uint256",
          "name": "id",
          "type": "uint256"
        },
        {
          "internalType": "uint256",
          "name": "amount",
          "type": "uint256"
        }
      ],
      "name": "mintMore",
      "outputs": [],
      "stateMutability": "nonpayable",
      "type": "function"
    },
    {
      "inputs": [],
      "name": "networkID",
      "outputs": [
        {
          "internalType": "uint32",
          "name": "",
          "type": "uint32"
        }
      ],
      "stateMutability": "view",
      "type": "function"
    },
    {
      "inputs": [
        {
          "internalType": "address",
          "name": "sourceAddress",
          "type": "address"
        },
        {
          "internalType": "uint32",
          "name": "sourceChain",
          "type": "uint32"
        },
        {
          "internalType": "bytes",
          "name": "payload",
          "type": "bytes"
        }
      ],
      "name": "onMessageReceived",
      "outputs": [],
      "stateMutability": "payable",
      "type": "function"
    },
    {
      "inputs": [],
      "name": "owner",
      "outputs": [
        {
          "internalType": "address",
          "name": "",
          "type": "address"
        }
      ],
      "stateMutability": "view",
      "type": "function"
    },
    {
      "inputs": [],
      "name": "polygonZkEVMBridge",
      "outputs": [
        {
          "internalType": "contract IPolygonZkEVMBridge",
          "name": "",
          "type": "address"
        }
      ],
      "stateMutability": "view",
      "type": "function"
    },
    {
      "inputs": [],
      "name": "renounceOwnership",
      "outputs": [],
      "stateMutability": "nonpayable",
      "type": "function"
    },
    {
      "inputs": [
        {
          "internalType": "address",
          "name": "from",
          "type": "address"
        },
        {
          "internalType": "address",
          "name": "to",
          "type": "address"
        },
        {
          "internalType": "uint256[]",
          "name": "ids",
          "type": "uint256[]"
        },
        {
          "internalType": "uint256[]",
          "name": "amounts",
          "type": "uint256[]"
        },
        {
          "internalType": "bytes",
          "name": "data",
          "type": "bytes"
        }
      ],
      "name": "safeBatchTransferFrom",
      "outputs": [],
      "stateMutability": "nonpayable",
      "type": "function"
    },
    {
      "inputs": [
        {
          "internalType": "address",
          "name": "from",
          "type": "address"
        },
        {
          "internalType": "address",
          "name": "to",
          "type": "address"
        },
        {
          "internalType": "uint256",
          "name": "id",
          "type": "uint256"
        },
        {
          "internalType": "uint256",
          "name": "amount",
          "type": "uint256"
        },
        {
          "internalType": "bytes",
          "name": "data",
          "type": "bytes"
        }
      ],
      "name": "safeTransferFrom",
      "outputs": [],
      "stateMutability": "nonpayable",
      "type": "function"
    },
    {
      "inputs": [
        {
          "internalType": "address",
          "name": "operator",
          "type": "address"
        },
        {
          "internalType": "bool",
          "name": "approved",
          "type": "bool"
        }
      ],
      "name": "setApprovalForAll",
      "outputs": [],
      "stateMutability": "nonpayable",
      "type": "function"
    },
    {
      "inputs": [
        {
          "internalType": "uint32",
          "name": "chain",
          "type": "uint32"
        },
        {
          "internalType": "address",
          "name": "addr",
          "type": "address"
        }
      ],
      "name": "setChain",
      "outputs": [],
      "stateMutability": "nonpayable",
      "type": "function"
    },
    {
      "inputs": [
        {
          "internalType": "bytes4",
          "name": "interfaceId",
          "type": "bytes4"
        }
      ],
      "name": "supportsInterface",
      "outputs": [
        {
          "internalType": "bool",
          "name": "",
          "type": "bool"
        }
      ],
      "stateMutability": "view",
      "type": "function"
    },
    {
      "inputs": [
        {
          "internalType": "address",
          "name": "newOwner",
          "type": "address"
        }
      ],
      "name": "transferOwnership",
      "outputs": [],
      "stateMutability": "nonpayable",
      "type": "function"
    },
    {
      "inputs": [
        {
          "internalType": "uint256",
          "name": "id",
          "type": "uint256"
        }
      ],
      "name": "uri",
      "outputs": [
        {
          "internalType": "string",
          "name": "",
          "type": "string"
        }
      ],
      "stateMutability": "view",
      "type": "function"
    },
    {
      "inputs": [],
      "name": "utilCount",
      "outputs": [
        {
          "internalType": "uint256",
          "name": "",
          "type": "uint256"
        }
      ],
      "stateMutability": "view",
      "type": "function"
    }
  ],
  "bytecode": {
    "object": "0x60e06040523480156200001157600080fd5b506040516200260f3803806200260f8339810160408190526200003491620001c7565b6001600160a01b038216608052826200004d81620000f7565b50620000626200005c62000109565b6200011a565b600462000070848262000350565b506001600160a01b03811660a08190526040805163bab161bf60e01b8152905163bab161bf9160048082019260209290919082900301816000875af1158015620000be573d6000803e3d6000fd5b505050506040513d601f19601f82011682018060405250810190620000e491906200041c565b63ffffffff1660c052506200044b915050565b600262000105828262000350565b5050565b6000620001156200016c565b905090565b600380546001600160a01b038381166001600160a01b0319831681179093556040519116919082907f8be0079c531659141344cd1fd0a4f28419497f9722a3daafe3b4186f6b6457e090600090a35050565b6080516000906001600160a01b031633036200018f575060131936013560601c90565b503390565b634e487b7160e01b600052604160045260246000fd5b80516001600160a01b0381168114620001c257600080fd5b919050565b600080600060608486031215620001dd57600080fd5b83516001600160401b0380821115620001f557600080fd5b818601915086601f8301126200020a57600080fd5b8151818111156200021f576200021f62000194565b604051601f8201601f19908116603f011681019083821181831017156200024a576200024a62000194565b816040528281526020935089848487010111156200026757600080fd5b600091505b828210156200028b57848201840151818301850152908301906200026c565b6000848483010152809750505050620002a6818701620001aa565b93505050620002b860408501620001aa565b90509250925092565b600181811c90821680620002d657607f821691505b602082108103620002f757634e487b7160e01b600052602260045260246000fd5b50919050565b601f8211156200034b57600081815260208120601f850160051c81016020861015620003265750805b601f850160051c820191505b81811015620003475782815560010162000332565b5050505b505050565b81516001600160401b038111156200036c576200036c62000194565b62000384816200037d8454620002c1565b84620002fd565b602080601f831160018114620003bc5760008415620003a35750858301515b600019600386901b1c1916600185901b17855562000347565b600085815260208120601f198616915b82811015620003ed57888601518255948401946001909101908401620003cc565b50858210156200040c5787850151600019600388901b60f8161c191681555b5050505050600190811b01905550565b6000602082840312156200042f57600080fd5b815163ffffffff811681146200044457600080fd5b9392505050565b60805160a05160c05161217f6200049060003960006103dd0152600081816102bd015281816105dc015261083b01526000818161027b01526113cb015261217f6000f3fe6080604052600436106101345760003560e01c80638b203dd4116100ab578063baacbe9b1161006f578063baacbe9b146103b5578063bab161bf146103cb578063e416749f14610414578063e985e9c514610434578063f242432a1461047d578063f2fde38b1461049d57600080fd5b80638b203dd41461030c5780638da5cb5b146103425780639abc832014610360578063a0712d6814610375578063a22cb4651461039557600080fd5b806340150236116100fd57806340150236146101fe5780634e1273f4146102115780634f7c055e1461023e578063572b6c051461025e5780635d43792c146102ab578063715018a6146102f757600080fd5b8062fdd58e1461013957806301ffc9a71461016c5780630e89341c1461019c5780631806b5f2146101c95780632eb2c2d6146101de575b600080fd5b34801561014557600080fd5b50610159610154366004611684565b6104bd565b6040519081526020015b60405180910390f35b34801561017857600080fd5b5061018c6101873660046116c6565b610556565b6040519015158152602001610163565b3480156101a857600080fd5b506101bc6101b73660046116ea565b6105a6565b6040516101639190611753565b6101dc6101d736600461177f565b6105da565b005b3480156101ea57600080fd5b506101dc6101f936600461195b565b610707565b6101dc61020c366004611a19565b610765565b34801561021d57600080fd5b5061023161022c366004611a5f565b6108b0565b6040516101639190611b67565b34801561024a57600080fd5b506101dc610259366004611b7a565b6109da565b34801561026a57600080fd5b5061018c610279366004611b9c565b7f00000000000000000000000000000000000000000000000000000000000000006001600160a01b0390811691161490565b3480156102b757600080fd5b506102df7f000000000000000000000000000000000000000000000000000000000000000081565b6040516001600160a01b039091168152602001610163565b34801561030357600080fd5b506101dc610a08565b34801561031857600080fd5b506102df610327366004611bb9565b6006602052600090815260409020546001600160a01b031681565b34801561034e57600080fd5b506003546001600160a01b03166102df565b34801561036c57600080fd5b506101bc610a1c565b34801561038157600080fd5b506101dc6103903660046116ea565b610aaa565b3480156103a157600080fd5b506101dc6103b0366004611bd4565b610af2565b3480156103c157600080fd5b5061015960055481565b3480156103d757600080fd5b506103ff7f000000000000000000000000000000000000000000000000000000000000000081565b60405163ffffffff9091168152602001610163565b34801561042057600080fd5b506101dc61042f366004611c09565b610b04565b34801561044057600080fd5b5061018c61044f366004611c40565b6001600160a01b03918216600090815260016020908152604080832093909416825291909152205460ff1690565b34801561048957600080fd5b506101dc610498366004611c5e565b610b42565b3480156104a957600080fd5b506101dc6104b8366004611b9c565b610b99565b60006001600160a01b03831661052d5760405162461bcd60e51b815260206004820152602a60248201527f455243313135353a2061646472657373207a65726f206973206e6f742061207660448201526930b634b21037bbb732b960b11b60648201526084015b60405180910390fd5b506000818152602081815260408083206001600160a01b03861684529091529020545b92915050565b60006001600160e01b03198216636cdb3d1360e11b148061058757506001600160e01b031982166303a24d0760e21b145b8061055057506301ffc9a760e01b6001600160e01b0319831614610550565b606060046105b383610c0f565b6040516020016105c4929190611d1d565b6040516020818303038152906040529050919050565b7f00000000000000000000000000000000000000000000000000000000000000006001600160a01b031661060c610c53565b6001600160a01b03161461063357604051636d10671f60e11b815260040160405180910390fd5b6040516bffffffffffffffffffffffff19606086901b16602082015260340160408051601f19818403018152828252805160209182012063ffffffff8716600090815260068352929092205460601b6bffffffffffffffffffffffff1916908301529060340160405160208183030381529060405280519060200120146106cd5760405163057f3fa760e51b815260040160405180910390fd5b600080806106dd84860186611dc7565b9250925092506106fe81848460405180602001604052806000815250610c62565b50505050505050565b61070f610c53565b6001600160a01b0316856001600160a01b0316148061073557506107358561044f610c53565b6107515760405162461bcd60e51b815260040161052490611e00565b61075e8585858585610d78565b5050505050565b63ffffffff84166000908152600660205260409020546001600160a01b0316806107a25760405163057f3fa760e51b815260040160405180910390fd5b6107b36107ad610c53565b856104bd565b8311156107d357604051631e9acf1760e31b815260040160405180910390fd5b6107e56107de610c53565b8585610f60565b600084846107f1610c53565b6040805160208101949094528301919091526001600160a01b0316606082015260800160408051601f1981840301815290829052630481fe6f60e31b825291506001600160a01b037f0000000000000000000000000000000000000000000000000000000000000000169063240ff37890610876908990869088908790600401611e4e565b600060405180830381600087803b15801561089057600080fd5b505af11580156108a4573d6000803e3d6000fd5b50505050505050505050565b606081518351146109155760405162461bcd60e51b815260206004820152602960248201527f455243313135353a206163636f756e747320616e6420696473206c656e677468604482015268040dad2e6dac2e8c6d60bb1b6064820152608401610524565b6000835167ffffffffffffffff8111156109315761093161180f565b60405190808252806020026020018201604052801561095a578160200160208202803683370190505b50905060005b84518110156109d2576109a585828151811061097e5761097e611e90565b602002602001015185838151811061099857610998611e90565b60200260200101516104bd565b8282815181106109b7576109b7611e90565b60209081029190910101526109cb81611ebc565b9050610960565b509392505050565b6109e26110e7565b610a046109ed610c53565b838360405180602001604052806000815250610c62565b5050565b610a106110e7565b610a1a6000611160565b565b60048054610a2990611cc7565b80601f0160208091040260200160405190810160405280929190818152602001828054610a5590611cc7565b8015610aa25780601f10610a7757610100808354040283529160200191610aa2565b820191906000526020600020905b815481529060010190602001808311610a8557829003601f168201915b505050505081565b610ab26110e7565b600160056000828254610ac59190611ed5565b90915550610aef9050610ad6610c53565b6005548360405180602001604052806000815250610c62565b50565b610a04610afd610c53565b83836111b2565b610b0c6110e7565b63ffffffff91909116600090815260066020526040902080546001600160a01b0319166001600160a01b03909216919091179055565b610b4a610c53565b6001600160a01b0316856001600160a01b03161480610b705750610b708561044f610c53565b610b8c5760405162461bcd60e51b815260040161052490611e00565b61075e8585858585611292565b610ba16110e7565b6001600160a01b038116610c065760405162461bcd60e51b815260206004820152602660248201527f4f776e61626c653a206e6577206f776e657220697320746865207a65726f206160448201526564647265737360d01b6064820152608401610524565b610aef81611160565b606060a06040510180604052602081039150506000815280825b600183039250600a81066030018353600a900480610c295750819003601f19909101908152919050565b6000610c5d6113c7565b905090565b6001600160a01b038416610cc25760405162461bcd60e51b815260206004820152602160248201527f455243313135353a206d696e7420746f20746865207a65726f206164647265736044820152607360f81b6064820152608401610524565b6000610ccc610c53565b90506000610cd98561140e565b90506000610ce68561140e565b90506000868152602081815260408083206001600160a01b038b16845290915281208054879290610d18908490611ed5565b909155505060408051878152602081018790526001600160a01b03808a1692600092918716917fc3d58168c5ae7397731d063d5bbf3d657854427343f4c083240f7aacaa2d0f62910160405180910390a46106fe83600089898989611459565b8151835114610dda5760405162461bcd60e51b815260206004820152602860248201527f455243313135353a2069647320616e6420616d6f756e7473206c656e677468206044820152670dad2e6dac2e8c6d60c31b6064820152608401610524565b6001600160a01b038416610e005760405162461bcd60e51b815260040161052490611ee8565b6000610e0a610c53565b905060005b8451811015610ef2576000858281518110610e2c57610e2c611e90565b602002602001015190506000858381518110610e4a57610e4a611e90565b602090810291909101810151600084815280835260408082206001600160a01b038e168352909352919091205490915081811015610e9a5760405162461bcd60e51b815260040161052490611f2d565b6000838152602081815260408083206001600160a01b038e8116855292528083208585039055908b16825281208054849290610ed7908490611ed5565b9250508190555050505080610eeb90611ebc565b9050610e0f565b50846001600160a01b0316866001600160a01b0316826001600160a01b03167f4a39dc06d4c0dbc64b70af90fd698a233a518aa5d07e595d983b8c0526c8f7fb8787604051610f42929190611f77565b60405180910390a4610f588187878787876115b4565b505050505050565b6001600160a01b038316610fc25760405162461bcd60e51b815260206004820152602360248201527f455243313135353a206275726e2066726f6d20746865207a65726f206164647260448201526265737360e81b6064820152608401610524565b6000610fcc610c53565b90506000610fd98461140e565b90506000610fe68461140e565b60408051602080820183526000918290528882528181528282206001600160a01b038b168352905220549091508481101561106f5760405162461bcd60e51b8152602060048201526024808201527f455243313135353a206275726e20616d6f756e7420657863656564732062616c604482015263616e636560e01b6064820152608401610524565b6000868152602081815260408083206001600160a01b038b81168086529184528285208a8703905582518b81529384018a90529092908816917fc3d58168c5ae7397731d063d5bbf3d657854427343f4c083240f7aacaa2d0f62910160405180910390a46040805160208101909152600090526106fe565b6110ef610c53565b6001600160a01b031661110a6003546001600160a01b031690565b6001600160a01b031614610a1a5760405162461bcd60e51b815260206004820181905260248201527f4f776e61626c653a2063616c6c6572206973206e6f7420746865206f776e65726044820152606401610524565b600380546001600160a01b038381166001600160a01b0319831681179093556040519116919082907f8be0079c531659141344cd1fd0a4f28419497f9722a3daafe3b4186f6b6457e090600090a35050565b816001600160a01b0316836001600160a01b0316036112255760405162461bcd60e51b815260206004820152602960248201527f455243313135353a2073657474696e6720617070726f76616c20737461747573604482015268103337b91039b2b63360b91b6064820152608401610524565b6001600160a01b03838116600081815260016020908152604080832094871680845294825291829020805460ff191686151590811790915591519182527f17307eab39ab6107e8899845ad3d59bd9653f200f220920489ca2b5937696c31910160405180910390a3505050565b6001600160a01b0384166112b85760405162461bcd60e51b815260040161052490611ee8565b60006112c2610c53565b905060006112cf8561140e565b905060006112dc8561140e565b90506000868152602081815260408083206001600160a01b038c1684529091529020548581101561131f5760405162461bcd60e51b815260040161052490611f2d565b6000878152602081815260408083206001600160a01b038d8116855292528083208985039055908a1682528120805488929061135c908490611ed5565b909155505060408051888152602081018890526001600160a01b03808b16928c821692918816917fc3d58168c5ae7397731d063d5bbf3d657854427343f4c083240f7aacaa2d0f62910160405180910390a46113bc848a8a8a8a8a611459565b505050505050505050565b60007f00000000000000000000000000000000000000000000000000000000000000006001600160a01b03163303611406575060131936013560601c90565b503390565b90565b6040805160018082528183019092526060916000919060208083019080368337019050509050828160008151811061144857611448611e90565b602090810291909101015292915050565b6001600160a01b0384163b15610f585760405163f23a6e6160e01b81526001600160a01b0385169063f23a6e619061149d9089908990889088908890600401611f9c565b6020604051808303816000875af19250505080156114d8575060408051601f3d908101601f191682019092526114d591810190611fe1565b60015b611584576114e4611ffe565b806308c379a00361151d57506114f8612019565b80611503575061151f565b8060405162461bcd60e51b81526004016105249190611753565b505b60405162461bcd60e51b815260206004820152603460248201527f455243313135353a207472616e7366657220746f206e6f6e2d455243313135356044820152732932b1b2b4bb32b91034b6b83632b6b2b73a32b960611b6064820152608401610524565b6001600160e01b0319811663f23a6e6160e01b146106fe5760405162461bcd60e51b8152600401610524906120a3565b6001600160a01b0384163b15610f585760405163bc197c8160e01b81526001600160a01b0385169063bc197c81906115f890899089908890889088906004016120eb565b6020604051808303816000875af1925050508015611633575060408051601f3d908101601f1916820190925261163091810190611fe1565b60015b61163f576114e4611ffe565b6001600160e01b0319811663bc197c8160e01b146106fe5760405162461bcd60e51b8152600401610524906120a3565b6001600160a01b0381168114610aef57600080fd5b6000806040838503121561169757600080fd5b82356116a28161166f565b946020939093013593505050565b6001600160e01b031981168114610aef57600080fd5b6000602082840312156116d857600080fd5b81356116e3816116b0565b9392505050565b6000602082840312156116fc57600080fd5b5035919050565b60005b8381101561171e578181015183820152602001611706565b50506000910152565b6000815180845261173f816020860160208601611703565b601f01601f19169290920160200192915050565b6020815260006116e36020830184611727565b803563ffffffff8116811461177a57600080fd5b919050565b6000806000806060858703121561179557600080fd5b84356117a08161166f565b93506117ae60208601611766565b9250604085013567ffffffffffffffff808211156117cb57600080fd5b818701915087601f8301126117df57600080fd5b8135818111156117ee57600080fd5b88602082850101111561180057600080fd5b95989497505060200194505050565b634e487b7160e01b600052604160045260246000fd5b601f8201601f1916810167ffffffffffffffff8111828210171561184b5761184b61180f565b6040525050565b600067ffffffffffffffff82111561186c5761186c61180f565b5060051b60200190565b600082601f83011261188757600080fd5b8135602061189482611852565b6040516118a18282611825565b83815260059390931b85018201928281019150868411156118c157600080fd5b8286015b848110156118dc57803583529183019183016118c5565b509695505050505050565b600082601f8301126118f857600080fd5b813567ffffffffffffffff8111156119125761191261180f565b604051611929601f8301601f191660200182611825565b81815284602083860101111561193e57600080fd5b816020850160208301376000918101602001919091529392505050565b600080600080600060a0868803121561197357600080fd5b853561197e8161166f565b9450602086013561198e8161166f565b9350604086013567ffffffffffffffff808211156119ab57600080fd5b6119b789838a01611876565b945060608801359150808211156119cd57600080fd5b6119d989838a01611876565b935060808801359150808211156119ef57600080fd5b506119fc888289016118e7565b9150509295509295909350565b8035801515811461177a57600080fd5b60008060008060808587031215611a2f57600080fd5b611a3885611766565b93506020850135925060408501359150611a5460608601611a09565b905092959194509250565b60008060408385031215611a7257600080fd5b823567ffffffffffffffff80821115611a8a57600080fd5b818501915085601f830112611a9e57600080fd5b81356020611aab82611852565b604051611ab88282611825565b83815260059390931b8501820192828101915089841115611ad857600080fd5b948201945b83861015611aff578535611af08161166f565b82529482019490820190611add565b96505086013592505080821115611b1557600080fd5b50611b2285828601611876565b9150509250929050565b600081518084526020808501945080840160005b83811015611b5c57815187529582019590820190600101611b40565b509495945050505050565b6020815260006116e36020830184611b2c565b60008060408385031215611b8d57600080fd5b50508035926020909101359150565b600060208284031215611bae57600080fd5b81356116e38161166f565b600060208284031215611bcb57600080fd5b6116e382611766565b60008060408385031215611be757600080fd5b8235611bf28161166f565b9150611c0060208401611a09565b90509250929050565b60008060408385031215611c1c57600080fd5b611c2583611766565b91506020830135611c358161166f565b809150509250929050565b60008060408385031215611c5357600080fd5b8235611c258161166f565b600080600080600060a08688031215611c7657600080fd5b8535611c818161166f565b94506020860135611c918161166f565b93506040860135925060608601359150608086013567ffffffffffffffff811115611cbb57600080fd5b6119fc888289016118e7565b600181811c90821680611cdb57607f821691505b602082108103611cfb57634e487b7160e01b600052602260045260246000fd5b50919050565b60008151611d13818560208601611703565b9290920192915050565b600080845481600182811c915080831680611d3957607f831692505b60208084108203611d5857634e487b7160e01b86526022600452602486fd5b818015611d6c5760018114611d8157611dae565b60ff1986168952841515850289019650611dae565b60008b81526020902060005b86811015611da65781548b820152908501908301611d8d565b505084890196505b505050505050611dbe8185611d01565b95945050505050565b600080600060608486031215611ddc57600080fd5b83359250602084013591506040840135611df58161166f565b809150509250925092565b6020808252602e908201527f455243313135353a2063616c6c6572206973206e6f7420746f6b656e206f776e60408201526d195c881bdc88185c1c1c9bdd995960921b606082015260800190565b63ffffffff851681526001600160a01b03841660208201528215156040820152608060608201819052600090611e8690830184611727565b9695505050505050565b634e487b7160e01b600052603260045260246000fd5b634e487b7160e01b600052601160045260246000fd5b600060018201611ece57611ece611ea6565b5060010190565b8082018082111561055057610550611ea6565b60208082526025908201527f455243313135353a207472616e7366657220746f20746865207a65726f206164604082015264647265737360d81b606082015260800190565b6020808252602a908201527f455243313135353a20696e73756666696369656e742062616c616e636520666f60408201526939103a3930b739b332b960b11b606082015260800190565b604081526000611f8a6040830185611b2c565b8281036020840152611dbe8185611b2c565b6001600160a01b03868116825285166020820152604081018490526060810183905260a060808201819052600090611fd690830184611727565b979650505050505050565b600060208284031215611ff357600080fd5b81516116e3816116b0565b600060033d111561140b5760046000803e5060005160e01c90565b600060443d10156120275790565b6040516003193d81016004833e81513d67ffffffffffffffff816024840111818411171561205757505050505090565b828501915081518181111561206f5750505050505090565b843d87010160208285010111156120895750505050505090565b61209860208286010187611825565b509095945050505050565b60208082526028908201527f455243313135353a204552433131353552656365697665722072656a656374656040820152676420746f6b656e7360c01b606082015260800190565b6001600160a01b0386811682528516602082015260a06040820181905260009061211790830186611b2c565b82810360608401526121298186611b2c565b9050828103608084015261213d8185611727565b9897505050505050505056fea2646970667358221220550974391a1c01c6b6b7509d44b57158f8c45886b77692241b7e45ed2843ce5e64736f6c63430008130033",
    "linkReferences": {}
  },
  "methodIdentifiers": {
    "balanceOf(address,uint256)": "00fdd58e",
    "balanceOfBatch(address[],uint256[])": "4e1273f4",
    "baseUri()": "9abc8320",
    "chains(uint32)": "8b203dd4",
    "crossChainTransfer(uint32,uint256,uint256,bool)": "40150236",
    "isApprovedForAll(address,address)": "e985e9c5",
    "isTrustedForwarder(address)": "572b6c05",
    "mint(uint256)": "a0712d68",
    "mintMore(uint256,uint256)": "4f7c055e",
    "networkID()": "bab161bf",
    "onMessageReceived(address,uint32,bytes)": "1806b5f2",
    "owner()": "8da5cb5b",
    "polygonZkEVMBridge()": "5d43792c",
    "renounceOwnership()": "715018a6",
    "safeBatchTransferFrom(address,address,uint256[],uint256[],bytes)": "2eb2c2d6",
    "safeTransferFrom(address,address,uint256,uint256,bytes)": "f242432a",
    "setApprovalForAll(address,bool)": "a22cb465",
    "setChain(uint32,address)": "e416749f",
    "supportsInterface(bytes4)": "01ffc9a7",
    "transferOwnership(address)": "f2fde38b",
    "uri(uint256)": "0e89341c",
    "utilCount()": "baacbe9b"
  },
  "id": 47
}