{
  "address": "0x75E21b9484d857098BA1E83FAE31E60C95f0afE5",
  "abi": [
    {
      "inputs": [
        {
          "internalType": "address",
          "name": "eth_usd_priceFeedAddress",
          "type": "address"
        },
        {
          "internalType": "address",
          "name": "mapAddress",
          "type": "address"
        },
        {
          "internalType": "address",
          "name": "utilsAddress",
          "type": "address"
        },
        {
          "internalType": "address",
          "name": "_linkAddress",
          "type": "address"
        },
        {
          "internalType": "address",
          "name": "_registrar",
          "type": "address"
        },
        {
          "internalType": "address",
          "name": "_registryAddress",
          "type": "address"
        },
        {
          "internalType": "uint256",
          "name": "_gasLimit",
          "type": "uint256"
        },
        {
          "internalType": "address",
          "name": "trustedForwarder",
          "type": "address"
        }
      ],
      "stateMutability": "nonpayable",
      "type": "constructor"
    },
    {
      "inputs": [],
      "name": "AuctionCantBeBought",
      "type": "error"
    },
    {
      "inputs": [],
      "name": "AuctionNotOver",
      "type": "error"
    },
    {
      "inputs": [],
      "name": "AuctionOver",
      "type": "error"
    },
    {
      "inputs": [],
      "name": "InvalidBid",
      "type": "error"
    },
    {
      "inputs": [],
      "name": "InvalidListing",
      "type": "error"
    },
    {
      "inputs": [],
      "name": "InvalidListingId",
      "type": "error"
    },
    {
      "inputs": [],
      "name": "InvalidPrice",
      "type": "error"
    },
    {
      "inputs": [],
      "name": "InvalidTokenId",
      "type": "error"
    },
    {
      "inputs": [],
      "name": "NotAuction",
      "type": "error"
    },
    {
      "inputs": [],
      "name": "NotEnoughFunds",
      "type": "error"
    },
    {
      "inputs": [],
      "name": "NotHighestBidder",
      "type": "error"
    },
    {
      "inputs": [],
      "name": "NotListingOwner",
      "type": "error"
    },
    {
      "inputs": [],
      "name": "NotTokenOwner",
      "type": "error"
    },
    {
      "inputs": [],
      "name": "USDNotSupportedForAuction",
      "type": "error"
    },
    {
      "inputs": [],
      "name": "ValidListing",
      "type": "error"
    },
    {
      "inputs": [
        {
          "internalType": "address",
          "name": "",
          "type": "address"
        }
      ],
      "name": "auctionBalance",
      "outputs": [
        {
          "internalType": "uint256",
          "name": "",
          "type": "uint256"
        }
      ],
      "stateMutability": "view",
      "type": "function"
    },
    {
      "inputs": [
        {
          "internalType": "address",
          "name": "",
          "type": "address"
        }
      ],
      "name": "balances",
      "outputs": [
        {
          "internalType": "uint256",
          "name": "",
          "type": "uint256"
        }
      ],
      "stateMutability": "view",
      "type": "function"
    },
    {
      "inputs": [
        {
          "internalType": "uint256",
          "name": "listingId",
          "type": "uint256"
        }
      ],
      "name": "bid",
      "outputs": [],
      "stateMutability": "payable",
      "type": "function"
    },
    {
      "inputs": [
        {
          "internalType": "uint256",
          "name": "listingId",
          "type": "uint256"
        }
      ],
      "name": "buyListing",
      "outputs": [],
      "stateMutability": "payable",
      "type": "function"
    },
    {
      "inputs": [
        {
          "internalType": "uint256",
          "name": "listingId",
          "type": "uint256"
        }
      ],
      "name": "calculateWinner",
      "outputs": [],
      "stateMutability": "nonpayable",
      "type": "function"
    },
    {
      "inputs": [
        {
          "internalType": "bytes",
          "name": "checkData",
          "type": "bytes"
        }
      ],
      "name": "checkUpkeep",
      "outputs": [
        {
          "internalType": "bool",
          "name": "upkeepNeeded",
          "type": "bool"
        },
        {
          "internalType": "bytes",
          "name": "performData",
          "type": "bytes"
        }
      ],
      "stateMutability": "view",
      "type": "function"
    },
    {
      "inputs": [
        {
          "internalType": "bool",
          "name": "inUSD",
          "type": "bool"
        },
        {
          "internalType": "uint256",
          "name": "tokenId",
          "type": "uint256"
        },
        {
          "internalType": "uint256",
          "name": "price",
          "type": "uint256"
        },
        {
          "internalType": "bool",
          "name": "isAuction",
          "type": "bool"
        },
        {
          "internalType": "uint256",
          "name": "auctionTime",
          "type": "uint256"
        },
        {
          "internalType": "uint96",
          "name": "amount",
          "type": "uint96"
        }
      ],
      "name": "createListing",
      "outputs": [],
      "stateMutability": "nonpayable",
      "type": "function"
    },
    {
      "inputs": [
        {
          "internalType": "uint256",
          "name": "listingId",
          "type": "uint256"
        }
      ],
      "name": "deleteListing",
      "outputs": [],
      "stateMutability": "nonpayable",
      "type": "function"
    },
    {
      "inputs": [],
      "name": "gasLimit",
      "outputs": [
        {
          "internalType": "uint256",
          "name": "",
          "type": "uint256"
        }
      ],
      "stateMutability": "view",
      "type": "function"
    },
    {
      "inputs": [
        {
          "internalType": "uint256",
          "name": "listingId",
          "type": "uint256"
        }
      ],
      "name": "getPrice",
      "outputs": [
        {
          "internalType": "uint256",
          "name": "",
          "type": "uint256"
        }
      ],
      "stateMutability": "view",
      "type": "function"
    },
    {
      "inputs": [
        {
          "internalType": "uint256",
          "name": "",
          "type": "uint256"
        }
      ],
      "name": "highestBid",
      "outputs": [
        {
          "internalType": "address",
          "name": "bidder",
          "type": "address"
        },
        {
          "internalType": "uint256",
          "name": "amount",
          "type": "uint256"
        }
      ],
      "stateMutability": "view",
      "type": "function"
    },
    {
      "inputs": [],
      "name": "i_link",
      "outputs": [
        {
          "internalType": "contract LinkTokenInterface",
          "name": "",
          "type": "address"
        }
      ],
      "stateMutability": "view",
      "type": "function"
    },
    {
      "inputs": [],
      "name": "i_registry",
      "outputs": [
        {
          "internalType": "contract AutomationRegistryInterface",
          "name": "",
          "type": "address"
        }
      ],
      "stateMutability": "view",
      "type": "function"
    },
    {
      "inputs": [
        {
          "internalType": "uint256",
          "name": "listingId",
          "type": "uint256"
        }
      ],
      "name": "invalidateAuctionBid",
      "outputs": [],
      "stateMutability": "nonpayable",
      "type": "function"
    },
    {
      "inputs": [
        {
          "internalType": "uint256",
          "name": "listingId",
          "type": "uint256"
        }
      ],
      "name": "isListingValid",
      "outputs": [
        {
          "internalType": "bool",
          "name": "",
          "type": "bool"
        }
      ],
      "stateMutability": "view",
      "type": "function"
    },
    {
      "inputs": [
        {
          "internalType": "address",
          "name": "forwarder",
          "type": "address"
        }
      ],
      "name": "isTrustedForwarder",
      "outputs": [
        {
          "internalType": "bool",
          "name": "",
          "type": "bool"
        }
      ],
      "stateMutability": "view",
      "type": "function"
    },
    {
      "inputs": [],
      "name": "listingCount",
      "outputs": [
        {
          "internalType": "uint256",
          "name": "",
          "type": "uint256"
        }
      ],
      "stateMutability": "view",
      "type": "function"
    },
    {
      "inputs": [
        {
          "internalType": "uint256",
          "name": "",
          "type": "uint256"
        }
      ],
      "name": "listingToUpkeepID",
      "outputs": [
        {
          "internalType": "uint256",
          "name": "",
          "type": "uint256"
        }
      ],
      "stateMutability": "view",
      "type": "function"
    },
    {
      "inputs": [
        {
          "internalType": "uint256",
          "name": "",
          "type": "uint256"
        }
      ],
      "name": "listings",
      "outputs": [
        {
          "internalType": "address",
          "name": "seller",
          "type": "address"
        },
        {
          "internalType": "bool",
          "name": "inUSD",
          "type": "bool"
        },
        {
          "internalType": "uint256",
          "name": "tokenId",
          "type": "uint256"
        },
        {
          "internalType": "uint256",
          "name": "price",
          "type": "uint256"
        },
        {
          "internalType": "uint256",
          "name": "timestamp",
          "type": "uint256"
        },
        {
          "internalType": "bool",
          "name": "isValid",
          "type": "bool"
        },
        {
          "internalType": "bool",
          "name": "isAuction",
          "type": "bool"
        },
        {
          "internalType": "uint256",
          "name": "aucionTime",
          "type": "uint256"
        }
      ],
      "stateMutability": "view",
      "type": "function"
    },
    {
      "inputs": [
        {
          "internalType": "address",
          "name": "",
          "type": "address"
        },
        {
          "internalType": "address",
          "name": "",
          "type": "address"
        },
        {
          "internalType": "uint256[]",
          "name": "",
          "type": "uint256[]"
        },
        {
          "internalType": "uint256[]",
          "name": "",
          "type": "uint256[]"
        },
        {
          "internalType": "bytes",
          "name": "",
          "type": "bytes"
        }
      ],
      "name": "onERC1155BatchReceived",
      "outputs": [
        {
          "internalType": "bytes4",
          "name": "",
          "type": "bytes4"
        }
      ],
      "stateMutability": "nonpayable",
      "type": "function"
    },
    {
      "inputs": [
        {
          "internalType": "address",
          "name": "",
          "type": "address"
        },
        {
          "internalType": "address",
          "name": "",
          "type": "address"
        },
        {
          "internalType": "uint256",
          "name": "",
          "type": "uint256"
        },
        {
          "internalType": "uint256",
          "name": "",
          "type": "uint256"
        },
        {
          "internalType": "bytes",
          "name": "",
          "type": "bytes"
        }
      ],
      "name": "onERC1155Received",
      "outputs": [
        {
          "internalType": "bytes4",
          "name": "",
          "type": "bytes4"
        }
      ],
      "stateMutability": "nonpayable",
      "type": "function"
    },
    {
      "inputs": [
        {
          "internalType": "address",
          "name": "",
          "type": "address"
        },
        {
          "internalType": "address",
          "name": "",
          "type": "address"
        },
        {
          "internalType": "uint256",
          "name": "",
          "type": "uint256"
        },
        {
          "internalType": "bytes",
          "name": "",
          "type": "bytes"
        }
      ],
      "name": "onERC721Received",
      "outputs": [
        {
          "internalType": "bytes4",
          "name": "",
          "type": "bytes4"
        }
      ],
      "stateMutability": "nonpayable",
      "type": "function"
    },
    {
      "inputs": [
        {
          "internalType": "bytes",
          "name": "performData",
          "type": "bytes"
        }
      ],
      "name": "performUpkeep",
      "outputs": [],
      "stateMutability": "nonpayable",
      "type": "function"
    },
    {
      "inputs": [],
      "name": "registrar",
      "outputs": [
        {
          "internalType": "address",
          "name": "",
          "type": "address"
        }
      ],
      "stateMutability": "view",
      "type": "function"
    },
    {
      "inputs": [],
      "name": "withdraw",
      "outputs": [],
      "stateMutability": "nonpayable",
      "type": "function"
    }
  ],
  "transactionHash": "0x632fa48af30d60dfdcb36f2a716138f7fd6c003b27b2c44b223995b4dc070d10",
  "args": [
    "0x694AA1769357215DE4FAC081bf1f309aDC325306",
    "0xc32Fb0cb3D6CcfD111146a2CA26A3FC774F3ECd2",
    "0x9c0549334fbCDF0AFc85B83B2Bb4b422Ba38960f",
    "0x779877A7B0D9E8603169DdbD7836e478b4624789",
    "0x9a811502d843E5a03913d5A2cfb646c11463467A",
    "0xE16Df59B887e3Caa439E0b29B42bA2e7976FD8b2",
    999999,
    "0x3EC31e8B991FF0b3FfffD480e2A5F259B51DdF5c"
  ],
  "numDeployments": 2,
  "solcInputHash": "39c08dd12cf39938eb79727465a21586",
  "bytecode": "0x61010060405260006003556009805463ffffffff1916633659d6661790553480156200002a57600080fd5b5060405162002777380380620027778339810160408190526200004d91620000ca565b6001600160a01b03908116608052600080549882166001600160a01b0319998a16179055600180549782169789169790971790965560028054958716959097169490941790955590831660a052821660c052911660e052600a5562000169565b80516001600160a01b0381168114620000c557600080fd5b919050565b600080600080600080600080610100898b031215620000e857600080fd5b620000f389620000ad565b97506200010360208a01620000ad565b96506200011360408a01620000ad565b95506200012360608a01620000ad565b94506200013360808a01620000ad565b93506200014360a08a01620000ad565b925060c089015191506200015a60e08a01620000ad565b90509295985092959890939650565b60805160a05160c05160e0516125a3620001d460003960008181610224015281816117550152818161192d01526119f701526000818161027001526118780152600081816103aa0152818161169c015261184901526000818161030a015261165a01526125a36000f3fe6080604052600436106101665760003560e01c80637d253aff116100d1578063d36443ca1161008a578063e6282c6e11610064578063e6282c6e146105c4578063e7572230146105e4578063f23a6e6114610604578063f68016b71461063057600080fd5b8063d36443ca146104ba578063da1086a0146104e7578063de74e57b1461050757600080fd5b80637d253aff14610398578063a9b07c26146103cc578063a9fbcdc2146103e2578063b14c63c51461040f578063bc197c811461046e578063c62fb5c41461049a57600080fd5b8063454a2ab311610123578063454a2ab3146102a75780634585e33b146102ba5780634884f459146102da578063572b6c05146102ed5780636e04ff0d1461034a578063732533871461037857600080fd5b8063150b7a021461016b57806325cbce1c146101b557806327e235e3146101d75780632a663606146102125780632b20e3971461025e5780633ccfd60b14610292575b600080fd5b34801561017757600080fd5b50610197610186366004611b4f565b630a85bd0160e11b95945050505050565b6040516001600160e01b031990911681526020015b60405180910390f35b3480156101c157600080fd5b506101d56101d0366004611bc2565b610646565b005b3480156101e357600080fd5b506102046101f2366004611bdb565b60056020526000908152604090205481565b6040519081526020016101ac565b34801561021e57600080fd5b506102467f000000000000000000000000000000000000000000000000000000000000000081565b6040516001600160a01b0390911681526020016101ac565b34801561026a57600080fd5b506102467f000000000000000000000000000000000000000000000000000000000000000081565b34801561029e57600080fd5b506101d56107f2565b6101d56102b5366004611bc2565b6108b0565b3480156102c657600080fd5b506101d56102d5366004611bff565b610a82565b6101d56102e8366004611bc2565b610aa0565b3480156102f957600080fd5b5061033a610308366004611bdb565b7f00000000000000000000000000000000000000000000000000000000000000006001600160a01b0390811691161490565b60405190151581526020016101ac565b34801561035657600080fd5b5061036a610365366004611bff565b610c8c565b6040516101ac929190611c9d565b34801561038457600080fd5b5061033a610393366004611bc2565b610d40565b3480156103a457600080fd5b506102467f000000000000000000000000000000000000000000000000000000000000000081565b3480156103d857600080fd5b5061020460035481565b3480156103ee57600080fd5b506102046103fd366004611bc2565b60086020526000908152604090205481565b34801561041b57600080fd5b5061044f61042a366004611bc2565b600660205260009081526040902080546001909101546001600160a01b039091169082565b604080516001600160a01b0390931683526020830191909152016101ac565b34801561047a57600080fd5b50610197610489366004611e53565b63bc197c8160e01b95945050505050565b3480156104a657600080fd5b506101d56104b5366004611f24565b610e24565b3480156104c657600080fd5b506102046104d5366004611bdb565b60076020526000908152604090205481565b3480156104f357600080fd5b506101d5610502366004611bc2565b611052565b34801561051357600080fd5b5061057b610522366004611bc2565b60046020819052600091825260409091208054600182015460028301546003840154948401546005909401546001600160a01b0384169560ff600160a01b90950485169593949293909281811692610100909204169088565b604080516001600160a01b03909916895296151560208901529587019490945260608601929092526080850152151560a0840152151560c083015260e0820152610100016101ac565b3480156105d057600080fd5b506101d56105df366004611bc2565b61133a565b3480156105f057600080fd5b506102046105ff366004611bc2565b611416565b34801561061057600080fd5b5061019761061f366004611f8b565b63f23a6e6160e01b95945050505050565b34801561063c57600080fd5b50610204600a5481565b600081815260046020819052604082200154610100900460ff161515900361068157604051633fbfe96d60e01b815260040160405180910390fd5b600081815260046020526040902060058101546003909101546106a4919061200a565b42116106f7576000818152600460208190526040909120015460ff16156106de576040516312a83adf60e01b815260040160405180910390fd5b60405163058ebc1760e11b815260040160405180910390fd5b60015460008281526004602081905260409182902054915163e985e9c560e01b81526001600160a01b039283169181019190915230602482015291169063e985e9c590604401602060405180830381865afa15801561075a573d6000803e3d6000fd5b505050506040513d601f19601f8201168201806040525081019061077e9190612022565b156107b7576000818152600460208190526040909120015460ff16156107b7576040516312a83adf60e01b815260040160405180910390fd5b6000818152600660205260409020600101546107e657604051631036b5ad60e31b815260040160405180910390fd5b6107ef816115c2565b50565b600060056000610800611656565b6001600160a01b03166001600160a01b031681526020019081526020016000205490506000811161084457604051631036b5ad60e31b815260040160405180910390fd5b600060056000610852611656565b6001600160a01b03168152602081019190915260400160002055610874611656565b6001600160a01b03166108fc829081150290604051600060405180830381858888f193505050501580156108ac573d6000803e3d6000fd5b5050565b60008181526004602081905260408220015460ff16151590036108e657604051631ab4dc1760e31b815260040160405180910390fd5b600081815260046020819052604082200154610100900460ff161515900361092157604051633fbfe96d60e01b815260040160405180910390fd5b60008181526006602052604090206001015434116109525760405163c6388ef760e01b815260040160405180910390fd5b600081815260066020526040902060010154156109ea576000818152600660209081526040808320600181015490546001600160a01b03168452600590925282208054919290916109a490849061200a565b90915550506000818152600660209081526040808320600181015490546001600160a01b03168452600790925282208054919290916109e490849061203f565b90915550505b34600760006109f7611656565b6001600160a01b03166001600160a01b031681526020019081526020016000206000828254610a26919061200a565b925050819055506040518060400160405280610a40611656565b6001600160a01b039081168252346020928301526000938452600682526040909320825181546001600160a01b03191694169390931783550151600190910155565b6000610a9082840184611bc2565b9050610a9b81611052565b505050565b610aa981610d40565b1515600003610acb57604051631ab4dc1760e31b815260040160405180910390fd5b60008181526004602081905260409091200154610100900460ff1615610b04576040516306fd349d60e31b815260040160405180910390fd5b6000610b0f82611416565b905080341015610b3257604051631036b5ad60e31b815260040160405180910390fd5b6000610b3e823461203f565b90508015610b88578060056000610b53611656565b6001600160a01b03166001600160a01b031681526020019081526020016000206000828254610b82919061200a565b90915550505b6000838152600460209081526040808320546001600160a01b03168352600590915281208054849290610bbc90849061200a565b90915550506001546000848152600460205260409020546001600160a01b03918216916342842e0e9116610bee611656565b6000878152600460208190526040918290206001015491516001600160e01b031960e087901b1681526001600160a01b03948516918101919091529290911660248301526044820152606401600060405180830381600087803b158015610c5457600080fd5b505af1158015610c68573d6000803e3d6000fd5b50505060009384525050600460208190526040909220909101805460ff1916905550565b6000606081610c9d84860186611bc2565b60008181526004602052604090206005810154600390910154919250610cc29161200a565b42118015610cfc57506000818152600460208190526040909120015460ff1680610cfc575060008181526006602052604090206001015415155b925084848080601f01602080910402602001604051908101604052809392919081815260200183838082843760009201919091525095989297509195505050505050565b6000811580610d50575060035482115b15610d6e57604051632d36379960e11b815260040160405180910390fd5b60008281526004602081905260409182902080546001805492015493516331a9108f60e11b8152928301939093526001600160a01b03928316921690636352211e90602401602060405180830381865afa158015610dd0573d6000803e3d6000fd5b505050506040513d601f19601f82011682018060405250810190610df49190612061565b6001600160a01b031614610e0a57506000919050565b506000908152600460208190526040909120015460ff1690565b60008411610e445760405162bfc92160e01b815260040160405180910390fd5b60008511610e65576040516307ed98ed60e31b815260040160405180910390fd5b610e6d611656565b6001546040516331a9108f60e11b8152600481018890526001600160a01b039283169290911690636352211e90602401602060405180830381865afa158015610eba573d6000803e3d6000fd5b505050506040513d601f19601f82011682018060405250810190610ede9190612061565b6001600160a01b031614610f05576040516359dc379f60e01b815260040160405180910390fd5b828015610f0f5750855b15610f2d576040516323dab71360e01b815260040160405180910390fd5b60038054906000610f3d8361207e565b9190505550604051806101000160405280610f56611656565b6001600160a01b03908116825288151560208084019190915260408084018a905260608085018a905242608080870191909152600160a08088018290528b15801560c0808b019190915260e0998a018d90526003805460009081526004808b52908990208d5181549b8f01511515600160a01b026001600160a81b0319909c169c169b909b17999099178a55968b015193890193909355938901516002880155918801519386019390935586015192840180549287015115156101000261ff00199415159490941661ffff1990931692909217929092179055929091015160059091015561104a5761104a6003548261169a565b505050505050565b600081815260046020819052604082200154610100900460ff161515900361108d57604051633fbfe96d60e01b815260040160405180910390fd5b600081815260046020526040902060058101546003909101546110b0919061200a565b42116110cf5760405163058ebc1760e11b815260040160405180910390fd5b60008181526004602081905260408220015460ff161515900361112a57600081815260066020526040902060010154156111115761110c816115c2565b61112a565b604051631ab4dc1760e31b815260040160405180910390fd5b60008181526006602052604090206001015461115c57600090815260046020819052604090912001805460ff19169055565b60015460008281526004602081905260409182902054915163e985e9c560e01b81526001600160a01b039283169181019190915230602482015291169063e985e9c590604401602060405180830381865afa1580156111bf573d6000803e3d6000fd5b505050506040513d601f19601f820116820180604052508101906111e39190612022565b1515600003611211576111f5816115c2565b600090815260046020819052604090912001805460ff19169055565b60008181526004602081905260408220015460ff161515900361124757604051631ab4dc1760e31b815260040160405180910390fd5b60008181526006602090815260408083206001015460048352818420546001600160a01b031684526005909252822080549192909161128790849061200a565b90915550506001805460008381526004602081815260408084208054600684529482902054928490529095015494516323b872dd60e01b81526001600160a01b039384169281019290925282166024820152604481019390935216906323b872dd90606401600060405180830381600087803b15801561130657600080fd5b505af115801561131a573d6000803e3d6000fd5b50505060009182525060046020819052604090912001805460ff19169055565b61134381610d40565b151560000361136557604051631ab4dc1760e31b815260040160405180910390fd5b61136d611656565b600180546000848152600460208190526040918290209093015490516331a9108f60e11b8152928301526001600160a01b03928316921690636352211e90602401602060405180830381865afa1580156113cb573d6000803e3d6000fd5b505050506040513d601f19601f820116820180604052508101906113ef9190612061565b6001600160a01b0316146111f557604051637c62d69f60e01b815260040160405180910390fd5b6000811580611426575060035482115b1561144457604051632d36379960e11b815260040160405180910390fd5b600082815260046020526040902054600160a01b900460ff16156115a75760008060009054906101000a90046001600160a01b03166001600160a01b031663313ce5676040518163ffffffff1660e01b8152600401602060405180830381865afa1580156114b6573d6000803e3d6000fd5b505050506040513d601f19601f820116820180604052508101906114da9190612097565b60ff16905060008060009054906101000a90046001600160a01b03166001600160a01b031663feaf968c6040518163ffffffff1660e01b815260040160a060405180830381865afa158015611533573d6000803e3d6000fd5b505050506040513d601f19601f8201168201806040525081019061155791906120d4565b50505091505060008183601261156d919061200a565b61157890600a61220a565b6000878152600460205260409020600201546115949190612216565b61159e9190612235565b95945050505050565b5060009081526004602052604090206002015490565b919050565b6000818152600660209081526040808320600181015490546001600160a01b03168452600790925282208054919290916115fd90849061203f565b90915550506000818152600660209081526040808320600181015490546001600160a01b031684526005909252822080549192909161163d90849061200a565b9091555050600090815260066020526040812060010155565b60007f00000000000000000000000000000000000000000000000000000000000000006001600160a01b03163303611695575060131936013560601c90565b503390565b7f00000000000000000000000000000000000000000000000000000000000000006001600160a01b03166323b872dd6116d1611656565b6040516001600160e01b031960e084901b1681526001600160a01b0390911660048201523060248201526001600160601b03841660448201526064016020604051808303816000875af115801561172c573d6000803e3d6000fd5b505050506040513d601f19601f820116820180604052508101906117509190612022565b5060007f00000000000000000000000000000000000000000000000000000000000000006001600160a01b0316631865c57d6040518163ffffffff1660e01b8152600401600060405180830381865afa1580156117b1573d6000803e3d6000fd5b505050506040513d6000823e601f3d908101601f191682016040526117d991908101906122ff565b505080516040805160208082018890528251808303909101815290820190915291925063ffffffff1690600061180e86611aad565b30600a5461181a611656565b8589600030604051602001611836989796959493929190612477565b60405160208183030381529060405290507f00000000000000000000000000000000000000000000000000000000000000006001600160a01b0316634000aea07f000000000000000000000000000000000000000000000000000000000000000087600960009054906101000a900460e01b856040516020016118ba929190612509565b6040516020818303038152906040526040518463ffffffff1660e01b81526004016118e79392919061253a565b6020604051808303816000875af1158015611906573d6000803e3d6000fd5b505050506040513d601f19601f8201168201806040525081019061192a9190612022565b507f00000000000000000000000000000000000000000000000000000000000000006001600160a01b0316631865c57d6040518163ffffffff1660e01b8152600401600060405180830381865afa158015611989573d6000803e3d6000fd5b505050506040513d6000823e601f3d908101601f191682016040526119b191908101906122ff565b5050805190945063ffffffff166119c984600161200a565b8103611a605760006119dc60014361203f565b60408051914060208301526bffffffffffffffffffffffff197f000000000000000000000000000000000000000000000000000000000000000060601b16908201526001600160e01b031960e087901b16605482015260580160408051601f19818403018152918152815160209283012060008b8152600890935291205550611aa4565b60405162461bcd60e51b8152602060048201526015602482015274185d5d1bcb585c1c1c9bdd9948191a5cd8589b1959605a1b604482015260640160405180910390fd5b50505050505050565b606060a06040510180604052602081039150506000815280825b600183039250600a81066030018353600a900480611ac75750819003601f19909101908152919050565b6001600160a01b03811681146107ef57600080fd5b60008083601f840112611b1857600080fd5b50813567ffffffffffffffff811115611b3057600080fd5b602083019150836020828501011115611b4857600080fd5b9250929050565b600080600080600060808688031215611b6757600080fd5b8535611b7281611af1565b94506020860135611b8281611af1565b935060408601359250606086013567ffffffffffffffff811115611ba557600080fd5b611bb188828901611b06565b969995985093965092949392505050565b600060208284031215611bd457600080fd5b5035919050565b600060208284031215611bed57600080fd5b8135611bf881611af1565b9392505050565b60008060208385031215611c1257600080fd5b823567ffffffffffffffff811115611c2957600080fd5b611c3585828601611b06565b90969095509350505050565b60005b83811015611c5c578181015183820152602001611c44565b83811115611c6b576000848401525b50505050565b60008151808452611c89816020860160208601611c41565b601f01601f19169290920160200192915050565b8215158152604060208201526000611cb86040830184611c71565b949350505050565b634e487b7160e01b600052604160045260246000fd5b6040516080810167ffffffffffffffff81118282101715611cf957611cf9611cc0565b60405290565b604051610180810167ffffffffffffffff81118282101715611cf957611cf9611cc0565b604051601f8201601f1916810167ffffffffffffffff81118282101715611d4c57611d4c611cc0565b604052919050565b600067ffffffffffffffff821115611d6e57611d6e611cc0565b5060051b60200190565b600082601f830112611d8957600080fd5b81356020611d9e611d9983611d54565b611d23565b82815260059290921b84018101918181019086841115611dbd57600080fd5b8286015b84811015611dd85780358352918301918301611dc1565b509695505050505050565b600082601f830112611df457600080fd5b813567ffffffffffffffff811115611e0e57611e0e611cc0565b611e21601f8201601f1916602001611d23565b818152846020838601011115611e3657600080fd5b816020850160208301376000918101602001919091529392505050565b600080600080600060a08688031215611e6b57600080fd5b8535611e7681611af1565b94506020860135611e8681611af1565b9350604086013567ffffffffffffffff80821115611ea357600080fd5b611eaf89838a01611d78565b94506060880135915080821115611ec557600080fd5b611ed189838a01611d78565b93506080880135915080821115611ee757600080fd5b50611ef488828901611de3565b9150509295509295909350565b80151581146107ef57600080fd5b6001600160601b03811681146107ef57600080fd5b60008060008060008060c08789031215611f3d57600080fd5b8635611f4881611f01565b955060208701359450604087013593506060870135611f6681611f01565b92506080870135915060a0870135611f7d81611f0f565b809150509295509295509295565b600080600080600060a08688031215611fa357600080fd5b8535611fae81611af1565b94506020860135611fbe81611af1565b93506040860135925060608601359150608086013567ffffffffffffffff811115611fe857600080fd5b611ef488828901611de3565b634e487b7160e01b600052601160045260246000fd5b6000821982111561201d5761201d611ff4565b500190565b60006020828403121561203457600080fd5b8151611bf881611f01565b60008282101561205157612051611ff4565b500390565b80516115bd81611af1565b60006020828403121561207357600080fd5b8151611bf881611af1565b60006001820161209057612090611ff4565b5060010190565b6000602082840312156120a957600080fd5b815160ff81168114611bf857600080fd5b805169ffffffffffffffffffff811681146115bd57600080fd5b600080600080600060a086880312156120ec57600080fd5b6120f5866120ba565b9450602086015193506040860151925060608601519150612118608087016120ba565b90509295509295909350565b600181815b8085111561215f57816000190482111561214557612145611ff4565b8085161561215257918102915b93841c9390800290612129565b509250929050565b60008261217657506001612204565b8161218357506000612204565b816001811461219957600281146121a3576121bf565b6001915050612204565b60ff8411156121b4576121b4611ff4565b50506001821b612204565b5060208310610133831016604e8410600b84101617156121e2575081810a612204565b6121ec8383612124565b806000190482111561220057612200611ff4565b0290505b92915050565b6000611bf88383612167565b600081600019048311821515161561223057612230611ff4565b500290565b60008261225257634e487b7160e01b600052601260045260246000fd5b500490565b805163ffffffff811681146115bd57600080fd5b80516115bd81611f0f565b805162ffffff811681146115bd57600080fd5b805161ffff811681146115bd57600080fd5b600082601f8301126122ac57600080fd5b815160206122bc611d9983611d54565b82815260059290921b840181019181810190868411156122db57600080fd5b8286015b84811015611dd85780516122f281611af1565b83529183019183016122df565b600080600083850361022081121561231657600080fd5b608081121561232457600080fd5b61232c611cd6565b61233586612257565b8152602086015161234581611f0f565b602082015260408681015190820152606080870151908201529350610180607f19820181131561237457600080fd5b61237c611cff565b915061238a60808701612257565b825261239860a08701612257565b60208301526123a960c08701612276565b60408301526123ba60e08701612257565b60608301526101006123cd818801612276565b60808401526101206123e0818901612289565b60a08501526101406123f3818a0161226b565b60c0860152610160612406818b01612257565b60e0870152848a0151848701526101a08a01518387015261242a6101c08b01612056565b8287015261243b6101e08b01612056565b908601525050505061020085015190925067ffffffffffffffff81111561246157600080fd5b61246d8682870161229b565b9150509250925092565b600061012080835261248b8184018c611c71565b90508281038060208501526002825261060f60f31b602083015260018060a01b03808c1660408601528a6060860152808a1660808601526040820160a08601526124d8604084018a611c71565b6001600160601b039890981660c086015260ff9690961660e085015250505091166101009091015295945050505050565b6001600160e01b031983168152815160009061252c816004850160208701611c41565b919091016004019392505050565b6001600160a01b03841681526001600160601b038316602082015260606040820181905260009061159e90830184611c7156fea264697066735822122017ec11ceee97fbd982f84dbdd47022cd6d1feedd59655d829ca01277b449ecce64736f6c634300080d0033",
  "devdoc": {
    "kind": "dev",
    "methods": {},
    "version": 1
  },
  "userdoc": {
    "kind": "user",
    "methods": {},
    "version": 1
  },
  "storageLayout": {
    "storage": [
      {
        "astId": 7766,
        "contract": "src/Marketplace.sol:Marketplace",
        "label": "eth_usd_priceFeed",
        "offset": 0,
        "slot": "0",
        "type": "t_contract(AggregatorV3Interface)45"
      },
      {
        "astId": 7769,
        "contract": "src/Marketplace.sol:Marketplace",
        "label": "map",
        "offset": 0,
        "slot": "1",
        "type": "t_contract(IERC721)3004"
      },
      {
        "astId": 7772,
        "contract": "src/Marketplace.sol:Marketplace",
        "label": "utils",
        "offset": 0,
        "slot": "2",
        "type": "t_contract(IERC1155)1905"
      },
      {
        "astId": 7775,
        "contract": "src/Marketplace.sol:Marketplace",
        "label": "listingCount",
        "offset": 0,
        "slot": "3",
        "type": "t_uint256"
      },
      {
        "astId": 7780,
        "contract": "src/Marketplace.sol:Marketplace",
        "label": "listings",
        "offset": 0,
        "slot": "4",
        "type": "t_mapping(t_uint256,t_struct(Listing)7758_storage)"
      },
      {
        "astId": 7784,
        "contract": "src/Marketplace.sol:Marketplace",
        "label": "balances",
        "offset": 0,
        "slot": "5",
        "type": "t_mapping(t_address,t_uint256)"
      },
      {
        "astId": 7789,
        "contract": "src/Marketplace.sol:Marketplace",
        "label": "highestBid",
        "offset": 0,
        "slot": "6",
        "type": "t_mapping(t_uint256,t_struct(Bid)7763_storage)"
      },
      {
        "astId": 7793,
        "contract": "src/Marketplace.sol:Marketplace",
        "label": "auctionBalance",
        "offset": 0,
        "slot": "7",
        "type": "t_mapping(t_address,t_uint256)"
      },
      {
        "astId": 7797,
        "contract": "src/Marketplace.sol:Marketplace",
        "label": "listingToUpkeepID",
        "offset": 0,
        "slot": "8",
        "type": "t_mapping(t_uint256,t_uint256)"
      },
      {
        "astId": 7810,
        "contract": "src/Marketplace.sol:Marketplace",
        "label": "registerSig",
        "offset": 0,
        "slot": "9",
        "type": "t_bytes4"
      },
      {
        "astId": 7812,
        "contract": "src/Marketplace.sol:Marketplace",
        "label": "gasLimit",
        "offset": 0,
        "slot": "10",
        "type": "t_uint256"
      }
    ],
    "types": {
      "t_address": {
        "encoding": "inplace",
        "label": "address",
        "numberOfBytes": "20"
      },
      "t_bool": {
        "encoding": "inplace",
        "label": "bool",
        "numberOfBytes": "1"
      },
      "t_bytes4": {
        "encoding": "inplace",
        "label": "bytes4",
        "numberOfBytes": "4"
      },
      "t_contract(AggregatorV3Interface)45": {
        "encoding": "inplace",
        "label": "contract AggregatorV3Interface",
        "numberOfBytes": "20"
      },
      "t_contract(IERC1155)1905": {
        "encoding": "inplace",
        "label": "contract IERC1155",
        "numberOfBytes": "20"
      },
      "t_contract(IERC721)3004": {
        "encoding": "inplace",
        "label": "contract IERC721",
        "numberOfBytes": "20"
      },
      "t_mapping(t_address,t_uint256)": {
        "encoding": "mapping",
        "key": "t_address",
        "label": "mapping(address => uint256)",
        "numberOfBytes": "32",
        "value": "t_uint256"
      },
      "t_mapping(t_uint256,t_struct(Bid)7763_storage)": {
        "encoding": "mapping",
        "key": "t_uint256",
        "label": "mapping(uint256 => struct Marketplace.Bid)",
        "numberOfBytes": "32",
        "value": "t_struct(Bid)7763_storage"
      },
      "t_mapping(t_uint256,t_struct(Listing)7758_storage)": {
        "encoding": "mapping",
        "key": "t_uint256",
        "label": "mapping(uint256 => struct Marketplace.Listing)",
        "numberOfBytes": "32",
        "value": "t_struct(Listing)7758_storage"
      },
      "t_mapping(t_uint256,t_uint256)": {
        "encoding": "mapping",
        "key": "t_uint256",
        "label": "mapping(uint256 => uint256)",
        "numberOfBytes": "32",
        "value": "t_uint256"
      },
      "t_struct(Bid)7763_storage": {
        "encoding": "inplace",
        "label": "struct Marketplace.Bid",
        "members": [
          {
            "astId": 7760,
            "contract": "src/Marketplace.sol:Marketplace",
            "label": "bidder",
            "offset": 0,
            "slot": "0",
            "type": "t_address"
          },
          {
            "astId": 7762,
            "contract": "src/Marketplace.sol:Marketplace",
            "label": "amount",
            "offset": 0,
            "slot": "1",
            "type": "t_uint256"
          }
        ],
        "numberOfBytes": "64"
      },
      "t_struct(Listing)7758_storage": {
        "encoding": "inplace",
        "label": "struct Marketplace.Listing",
        "members": [
          {
            "astId": 7743,
            "contract": "src/Marketplace.sol:Marketplace",
            "label": "seller",
            "offset": 0,
            "slot": "0",
            "type": "t_address"
          },
          {
            "astId": 7745,
            "contract": "src/Marketplace.sol:Marketplace",
            "label": "inUSD",
            "offset": 20,
            "slot": "0",
            "type": "t_bool"
          },
          {
            "astId": 7747,
            "contract": "src/Marketplace.sol:Marketplace",
            "label": "tokenId",
            "offset": 0,
            "slot": "1",
            "type": "t_uint256"
          },
          {
            "astId": 7749,
            "contract": "src/Marketplace.sol:Marketplace",
            "label": "price",
            "offset": 0,
            "slot": "2",
            "type": "t_uint256"
          },
          {
            "astId": 7751,
            "contract": "src/Marketplace.sol:Marketplace",
            "label": "timestamp",
            "offset": 0,
            "slot": "3",
            "type": "t_uint256"
          },
          {
            "astId": 7753,
            "contract": "src/Marketplace.sol:Marketplace",
            "label": "isValid",
            "offset": 0,
            "slot": "4",
            "type": "t_bool"
          },
          {
            "astId": 7755,
            "contract": "src/Marketplace.sol:Marketplace",
            "label": "isAuction",
            "offset": 1,
            "slot": "4",
            "type": "t_bool"
          },
          {
            "astId": 7757,
            "contract": "src/Marketplace.sol:Marketplace",
            "label": "aucionTime",
            "offset": 0,
            "slot": "5",
            "type": "t_uint256"
          }
        ],
        "numberOfBytes": "192"
      },
      "t_uint256": {
        "encoding": "inplace",
        "label": "uint256",
        "numberOfBytes": "32"
      }
    }
  }
}