{
  "address": "0xCb5B8FB3a71C44dEBcF0C0E745CCBdF968682bbB",
  "abi": [
    {
      "inputs": [
        {
          "internalType": "string",
          "name": "_baseUri",
          "type": "string"
        },
        {
          "internalType": "address",
          "name": "trustedForwarder",
          "type": "address"
        },
        {
          "internalType": "address",
          "name": "_linkAddress",
          "type": "address"
        },
        {
          "internalType": "address",
          "name": "_router",
          "type": "address"
        }
      ],
      "stateMutability": "nonpayable",
      "type": "constructor"
    },
    {
      "inputs": [],
      "name": "CrossChainNotSupported",
      "type": "error"
    },
    {
      "inputs": [],
      "name": "InsufficientBalance",
      "type": "error"
    },
    {
      "inputs": [],
      "name": "InvalidChain",
      "type": "error"
    },
    {
      "inputs": [
        {
          "internalType": "address",
          "name": "router",
          "type": "address"
        }
      ],
      "name": "InvalidRouter",
      "type": "error"
    },
    {
      "anonymous": false,
      "inputs": [
        {
          "indexed": true,
          "internalType": "address",
          "name": "account",
          "type": "address"
        },
        {
          "indexed": true,
          "internalType": "address",
          "name": "operator",
          "type": "address"
        },
        {
          "indexed": false,
          "internalType": "bool",
          "name": "approved",
          "type": "bool"
        }
      ],
      "name": "ApprovalForAll",
      "type": "event"
    },
    {
      "anonymous": false,
      "inputs": [
        {
          "indexed": true,
          "internalType": "address",
          "name": "previousOwner",
          "type": "address"
        },
        {
          "indexed": true,
          "internalType": "address",
          "name": "newOwner",
          "type": "address"
        }
      ],
      "name": "OwnershipTransferred",
      "type": "event"
    },
    {
      "anonymous": false,
      "inputs": [
        {
          "indexed": true,
          "internalType": "address",
          "name": "operator",
          "type": "address"
        },
        {
          "indexed": true,
          "internalType": "address",
          "name": "from",
          "type": "address"
        },
        {
          "indexed": true,
          "internalType": "address",
          "name": "to",
          "type": "address"
        },
        {
          "indexed": false,
          "internalType": "uint256[]",
          "name": "ids",
          "type": "uint256[]"
        },
        {
          "indexed": false,
          "internalType": "uint256[]",
          "name": "values",
          "type": "uint256[]"
        }
      ],
      "name": "TransferBatch",
      "type": "event"
    },
    {
      "anonymous": false,
      "inputs": [
        {
          "indexed": true,
          "internalType": "address",
          "name": "operator",
          "type": "address"
        },
        {
          "indexed": true,
          "internalType": "address",
          "name": "from",
          "type": "address"
        },
        {
          "indexed": true,
          "internalType": "address",
          "name": "to",
          "type": "address"
        },
        {
          "indexed": false,
          "internalType": "uint256",
          "name": "id",
          "type": "uint256"
        },
        {
          "indexed": false,
          "internalType": "uint256",
          "name": "value",
          "type": "uint256"
        }
      ],
      "name": "TransferSingle",
      "type": "event"
    },
    {
      "anonymous": false,
      "inputs": [
        {
          "indexed": false,
          "internalType": "string",
          "name": "value",
          "type": "string"
        },
        {
          "indexed": true,
          "internalType": "uint256",
          "name": "id",
          "type": "uint256"
        }
      ],
      "name": "URI",
      "type": "event"
    },
    {
      "inputs": [
        {
          "internalType": "address",
          "name": "account",
          "type": "address"
        },
        {
          "internalType": "uint256",
          "name": "id",
          "type": "uint256"
        }
      ],
      "name": "balanceOf",
      "outputs": [
        {
          "internalType": "uint256",
          "name": "",
          "type": "uint256"
        }
      ],
      "stateMutability": "view",
      "type": "function"
    },
    {
      "inputs": [
        {
          "internalType": "address[]",
          "name": "accounts",
          "type": "address[]"
        },
        {
          "internalType": "uint256[]",
          "name": "ids",
          "type": "uint256[]"
        }
      ],
      "name": "balanceOfBatch",
      "outputs": [
        {
          "internalType": "uint256[]",
          "name": "",
          "type": "uint256[]"
        }
      ],
      "stateMutability": "view",
      "type": "function"
    },
    {
      "inputs": [],
      "name": "baseUri",
      "outputs": [
        {
          "internalType": "string",
          "name": "",
          "type": "string"
        }
      ],
      "stateMutability": "view",
      "type": "function"
    },
    {
      "inputs": [
        {
          "components": [
            {
              "internalType": "bytes32",
              "name": "messageId",
              "type": "bytes32"
            },
            {
              "internalType": "uint64",
              "name": "sourceChainSelector",
              "type": "uint64"
            },
            {
              "internalType": "bytes",
              "name": "sender",
              "type": "bytes"
            },
            {
              "internalType": "bytes",
              "name": "data",
              "type": "bytes"
            },
            {
              "components": [
                {
                  "internalType": "address",
                  "name": "token",
                  "type": "address"
                },
                {
                  "internalType": "uint256",
                  "name": "amount",
                  "type": "uint256"
                }
              ],
              "internalType": "struct Client.EVMTokenAmount[]",
              "name": "destTokenAmounts",
              "type": "tuple[]"
            }
          ],
          "internalType": "struct Client.Any2EVMMessage",
          "name": "message",
          "type": "tuple"
        }
      ],
      "name": "ccipReceive",
      "outputs": [],
      "stateMutability": "nonpayable",
      "type": "function"
    },
    {
      "inputs": [
        {
          "internalType": "uint64",
          "name": "",
          "type": "uint64"
        }
      ],
      "name": "chains",
      "outputs": [
        {
          "internalType": "address",
          "name": "",
          "type": "address"
        }
      ],
      "stateMutability": "view",
      "type": "function"
    },
    {
      "inputs": [
        {
          "internalType": "uint64",
          "name": "destinationChain",
          "type": "uint64"
        },
        {
          "internalType": "uint256",
          "name": "tokenId",
          "type": "uint256"
        },
        {
          "internalType": "uint256",
          "name": "amount",
          "type": "uint256"
        }
      ],
      "name": "crossChainTransfer",
      "outputs": [
        {
          "internalType": "bytes32",
          "name": "messageId",
          "type": "bytes32"
        }
      ],
      "stateMutability": "payable",
      "type": "function"
    },
    {
      "inputs": [
        {
          "internalType": "uint64",
          "name": "destinationChain",
          "type": "uint64"
        },
        {
          "internalType": "uint256",
          "name": "tokenId",
          "type": "uint256"
        },
        {
          "internalType": "uint256",
          "name": "amount",
          "type": "uint256"
        },
        {
          "internalType": "address",
          "name": "msgSender",
          "type": "address"
        }
      ],
      "name": "getLinkFees",
      "outputs": [
        {
          "internalType": "uint256",
          "name": "fees",
          "type": "uint256"
        }
      ],
      "stateMutability": "view",
      "type": "function"
    },
    {
      "inputs": [],
      "name": "getRouter",
      "outputs": [
        {
          "internalType": "address",
          "name": "",
          "type": "address"
        }
      ],
      "stateMutability": "view",
      "type": "function"
    },
    {
      "inputs": [],
      "name": "i_link",
      "outputs": [
        {
          "internalType": "contract LinkTokenInterface",
          "name": "",
          "type": "address"
        }
      ],
      "stateMutability": "view",
      "type": "function"
    },
    {
      "inputs": [
        {
          "internalType": "address",
          "name": "account",
          "type": "address"
        },
        {
          "internalType": "address",
          "name": "operator",
          "type": "address"
        }
      ],
      "name": "isApprovedForAll",
      "outputs": [
        {
          "internalType": "bool",
          "name": "",
          "type": "bool"
        }
      ],
      "stateMutability": "view",
      "type": "function"
    },
    {
      "inputs": [
        {
          "internalType": "address",
          "name": "forwarder",
          "type": "address"
        }
      ],
      "name": "isTrustedForwarder",
      "outputs": [
        {
          "internalType": "bool",
          "name": "",
          "type": "bool"
        }
      ],
      "stateMutability": "view",
      "type": "function"
    },
    {
      "inputs": [
        {
          "internalType": "uint256",
          "name": "amount",
          "type": "uint256"
        }
      ],
      "name": "mint",
      "outputs": [],
      "stateMutability": "nonpayable",
      "type": "function"
    },
    {
      "inputs": [
        {
          "internalType": "uint256",
          "name": "id",
          "type": "uint256"
        },
        {
          "internalType": "uint256",
          "name": "amount",
          "type": "uint256"
        }
      ],
      "name": "mintMore",
      "outputs": [],
      "stateMutability": "nonpayable",
      "type": "function"
    },
    {
      "inputs": [],
      "name": "owner",
      "outputs": [
        {
          "internalType": "address",
          "name": "",
          "type": "address"
        }
      ],
      "stateMutability": "view",
      "type": "function"
    },
    {
      "inputs": [],
      "name": "renounceOwnership",
      "outputs": [],
      "stateMutability": "nonpayable",
      "type": "function"
    },
    {
      "inputs": [
        {
          "internalType": "address",
          "name": "from",
          "type": "address"
        },
        {
          "internalType": "address",
          "name": "to",
          "type": "address"
        },
        {
          "internalType": "uint256[]",
          "name": "ids",
          "type": "uint256[]"
        },
        {
          "internalType": "uint256[]",
          "name": "amounts",
          "type": "uint256[]"
        },
        {
          "internalType": "bytes",
          "name": "data",
          "type": "bytes"
        }
      ],
      "name": "safeBatchTransferFrom",
      "outputs": [],
      "stateMutability": "nonpayable",
      "type": "function"
    },
    {
      "inputs": [
        {
          "internalType": "address",
          "name": "from",
          "type": "address"
        },
        {
          "internalType": "address",
          "name": "to",
          "type": "address"
        },
        {
          "internalType": "uint256",
          "name": "id",
          "type": "uint256"
        },
        {
          "internalType": "uint256",
          "name": "amount",
          "type": "uint256"
        },
        {
          "internalType": "bytes",
          "name": "data",
          "type": "bytes"
        }
      ],
      "name": "safeTransferFrom",
      "outputs": [],
      "stateMutability": "nonpayable",
      "type": "function"
    },
    {
      "inputs": [
        {
          "internalType": "address",
          "name": "operator",
          "type": "address"
        },
        {
          "internalType": "bool",
          "name": "approved",
          "type": "bool"
        }
      ],
      "name": "setApprovalForAll",
      "outputs": [],
      "stateMutability": "nonpayable",
      "type": "function"
    },
    {
      "inputs": [
        {
          "internalType": "uint64",
          "name": "chain",
          "type": "uint64"
        },
        {
          "internalType": "address",
          "name": "addr",
          "type": "address"
        }
      ],
      "name": "setChain",
      "outputs": [],
      "stateMutability": "nonpayable",
      "type": "function"
    },
    {
      "inputs": [
        {
          "internalType": "bytes4",
          "name": "interfaceId",
          "type": "bytes4"
        }
      ],
      "name": "supportsInterface",
      "outputs": [
        {
          "internalType": "bool",
          "name": "",
          "type": "bool"
        }
      ],
      "stateMutability": "pure",
      "type": "function"
    },
    {
      "inputs": [
        {
          "internalType": "address",
          "name": "newOwner",
          "type": "address"
        }
      ],
      "name": "transferOwnership",
      "outputs": [],
      "stateMutability": "nonpayable",
      "type": "function"
    },
    {
      "inputs": [
        {
          "internalType": "uint256",
          "name": "id",
          "type": "uint256"
        }
      ],
      "name": "uri",
      "outputs": [
        {
          "internalType": "string",
          "name": "",
          "type": "string"
        }
      ],
      "stateMutability": "view",
      "type": "function"
    },
    {
      "inputs": [],
      "name": "utilCount",
      "outputs": [
        {
          "internalType": "uint256",
          "name": "",
          "type": "uint256"
        }
      ],
      "stateMutability": "view",
      "type": "function"
    }
  ],
  "transactionHash": "0xc179a179652459d962707346b41871d649ca918ace8c23d3b19633aa52064ab1",
  "args": [
    "https://www.example.com/utils/",
    "0xAdA21730026A539bDa27C2a2997E71023463C3D1",
    "0x779877A7B0D9E8603169DdbD7836e478b4624789",
    "0xd0daae2231e9cb96b94c8512223533293c3693bf"
  ],
  "numDeployments": 2,
  "solcInputHash": "d88ad0053b49629775a8ba8ce4359f0e",
  "bytecode": "0x60e06040523480156200001157600080fd5b5060405162002ddb38038062002ddb833981016040819052620000349162000266565b6001600160a01b03831660805280846200004e81620000ca565b50620000636200005d620000e3565b620000ff565b6001600160a01b03811662000092576040516335fdcccd60e21b81526000600482015260240160405180910390fd5b6001600160a01b031660a0528351620000b39060049060208701906200018d565b50506001600160a01b031660c05250620003b89050565b8051620000df9060029060208401906200018d565b5050565b6000620000fa6200015160201b620010581760201c565b905090565b600380546001600160a01b038381166001600160a01b0319831681179093556040519116919082907f8be0079c531659141344cd1fd0a4f28419497f9722a3daafe3b4186f6b6457e090600090a35050565b6080516000906001600160a01b0316330362000174575060131936013560601c90565b620000fa6200018960201b620010a41760201c565b3390565b8280546200019b906200037c565b90600052602060002090601f016020900481019282620001bf57600085556200020a565b82601f10620001da57805160ff19168380011785556200020a565b828001600101855582156200020a579182015b828111156200020a578251825591602001919060010190620001ed565b50620002189291506200021c565b5090565b5b808211156200021857600081556001016200021d565b634e487b7160e01b600052604160045260246000fd5b80516001600160a01b03811681146200026157600080fd5b919050565b600080600080608085870312156200027d57600080fd5b84516001600160401b03808211156200029557600080fd5b818701915087601f830112620002aa57600080fd5b815181811115620002bf57620002bf62000233565b604051601f8201601f19908116603f01168101908382118183101715620002ea57620002ea62000233565b81604052828152602093508a848487010111156200030757600080fd5b600091505b828210156200032b57848201840151818301850152908301906200030c565b828211156200033d5760008484830101525b97506200034f91505087820162000249565b94505050620003616040860162000249565b9150620003716060860162000249565b905092959194509250565b600181811c908216806200039157607f821691505b602082108103620003b257634e487b7160e01b600052602260045260246000fd5b50919050565b60805160a05160c0516129ad6200042e600039600081816102d701528181610a0601528181610af101528181610be40152610ecb0152600081816103fc0152818161084901528181610a7501528181610bb501528181610c690152610f37015260008181610280015261105c01526129ad6000f3fe60806040526004361061013f5760003560e01c80638d8b65a3116100b6578063b0f479a11161006f578063b0f479a1146103ed578063ba51d7ff14610420578063baacbe9b14610440578063e985e9c514610456578063f242432a1461049f578063f2fde38b146104bf57600080fd5b80638d8b65a3146103315780638da5cb5b146103445780639abc832014610362578063a0712d6814610377578063a22cb46514610397578063ada8bcdc146103b757600080fd5b80634f7c055e116101085780634f7c055e146102235780635694048c14610243578063572b6c0514610263578063715018a6146102b05780637d253aff146102c557806385572ffb1461031157600080fd5b8062fdd58e1461014457806301ffc9a7146101775780630e89341c146101a75780632eb2c2d6146101d45780634e1273f4146101f6575b600080fd5b34801561015057600080fd5b5061016461015f366004611c5f565b6104df565b6040519081526020015b60405180910390f35b34801561018357600080fd5b50610197610192366004611ca1565b610575565b604051901515815260200161016e565b3480156101b357600080fd5b506101c76101c2366004611cc5565b610600565b60405161016e9190611d36565b3480156101e057600080fd5b506101f46101ef366004611edf565b610634565b005b34801561020257600080fd5b50610216610211366004611f8c565b610692565b60405161016e9190612093565b34801561022f57600080fd5b506101f461023e3660046120a6565b6107bb565b34801561024f57600080fd5b506101f461025e3660046120e4565b6107e9565b34801561026f57600080fd5b5061019761027e36600461211b565b7f00000000000000000000000000000000000000000000000000000000000000006001600160a01b0390811691161490565b3480156102bc57600080fd5b506101f461082a565b3480156102d157600080fd5b506102f97f000000000000000000000000000000000000000000000000000000000000000081565b6040516001600160a01b03909116815260200161016e565b34801561031d57600080fd5b506101f461032c366004612138565b61083e565b61016461033f366004612172565b61089d565b34801561035057600080fd5b506003546001600160a01b03166102f9565b34801561036e57600080fd5b506101c7610cef565b34801561038357600080fd5b506101f4610392366004611cc5565b610d7d565b3480156103a357600080fd5b506101f46103b23660046121b3565b610dc2565b3480156103c357600080fd5b506102f96103d23660046121e1565b6006602052600090815260409020546001600160a01b031681565b3480156103f957600080fd5b507f00000000000000000000000000000000000000000000000000000000000000006102f9565b34801561042c57600080fd5b5061016461043b3660046121fc565b610dd4565b34801561044c57600080fd5b5061016460055481565b34801561046257600080fd5b50610197610471366004612244565b6001600160a01b03918216600090815260016020908152604080832093909416825291909152205460ff1690565b3480156104ab57600080fd5b506101f46104ba366004612262565b610f8b565b3480156104cb57600080fd5b506101f46104da36600461211b565b610fe2565b60006001600160a01b03831661054f5760405162461bcd60e51b815260206004820152602a60248201527f455243313135353a2061646472657373207a65726f206973206e6f742061207660448201526930b634b21037bbb732b960b11b60648201526084015b60405180910390fd5b506000908152602081815260408083206001600160a01b03949094168352929052205490565b60006001600160e01b03198216636cdb3d1360e11b14806105a657506001600160e01b031982166303a24d0760e21b145b806105c157506001600160e01b031982166385572ffb60e01b145b806105dc57506001600160e01b031982166301ffc9a760e01b145b806105eb57506105eb826110a8565b806105fa57506105fa826110a8565b92915050565b6060600461060d836110de565b60405160200161061e929190612320565b6040516020818303038152906040529050919050565b61063c611122565b6001600160a01b0316856001600160a01b03161480610662575061066285610471611122565b61067e5760405162461bcd60e51b8152600401610546906123c6565b61068b858585858561112c565b5050505050565b606081518351146106f75760405162461bcd60e51b815260206004820152602960248201527f455243313135353a206163636f756e747320616e6420696473206c656e677468604482015268040dad2e6dac2e8c6d60bb1b6064820152608401610546565b600083516001600160401b0381111561071257610712611d49565b60405190808252806020026020018201604052801561073b578160200160208202803683370190505b50905060005b84518110156107b35761078685828151811061075f5761075f612414565b602002602001015185838151811061077957610779612414565b60200260200101516104df565b82828151811061079857610798612414565b60209081029190910101526107ac81612440565b9050610741565b509392505050565b6107c3611314565b6107e56107ce611122565b83836040518060200160405280600081525061138d565b5050565b6107f1611314565b6001600160401b0391909116600090815260066020526040902080546001600160a01b0319166001600160a01b03909216919091179055565b610832611314565b61083c60006114ac565b565b336001600160a01b037f00000000000000000000000000000000000000000000000000000000000000001614610889576040516335fdcccd60e21b8152336004820152602401610546565b61089a610895826124fa565b6114fe565b50565b6001600160401b0383166000908152600660205260408120546001600160a01b031680156108de5760405163057f3fa760e51b815260040160405180910390fd5b6108ef6108e9611122565b856104df565b83111561090f57604051631e9acf1760e31b815260040160405180910390fd5b61092161091a611122565b8585611603565b6000848461092d611122565b6040805160208101949094528301919091526001600160a01b0316606082015260800160408051808303601f1901815260a083019091526001600160a01b03841660c083015291506000908060e081016040516020818303038152906040528152602001836040516020016109a29190611d36565b60408051601f19818403018152919052815260200160006040519080825280602002602001820160405280156109fe57816020015b60408051808201909152600080825260208201528152602001906001900390816109d75790505b5081526020017f00000000000000000000000000000000000000000000000000000000000000006001600160a01b03168152602001610a56604051806040016040528062030d4081526020016000151581525061178a565b90526040516320487ded60e01b81529091506000906001600160a01b037f000000000000000000000000000000000000000000000000000000000000000016906320487ded90610aac908b9086906004016125a6565b602060405180830381865afa158015610ac9573d6000803e3d6000fd5b505050506040513d601f19601f82011682018060405250810190610aed919061267f565b90507f00000000000000000000000000000000000000000000000000000000000000006001600160a01b03166323b872dd610b26611122565b6040516001600160e01b031960e084901b1681526001600160a01b039091166004820152306024820152604481018490526064016020604051808303816000875af1158015610b79573d6000803e3d6000fd5b505050506040513d601f19601f82011682018060405250810190610b9d9190612698565b5060405163095ea7b360e01b81526001600160a01b037f000000000000000000000000000000000000000000000000000000000000000081166004830152602482018390527f0000000000000000000000000000000000000000000000000000000000000000169063095ea7b3906044016020604051808303816000875af1158015610c2d573d6000803e3d6000fd5b505050506040513d601f19601f82011682018060405250810190610c519190612698565b506040516396f4e9f960e01b81526001600160a01b037f000000000000000000000000000000000000000000000000000000000000000016906396f4e9f990610ca0908b9086906004016125a6565b6020604051808303816000875af1158015610cbf573d6000803e3d6000fd5b505050506040513d601f19601f82011682018060405250810190610ce3919061267f565b98975050505050505050565b60048054610cfc906122ca565b80601f0160208091040260200160405190810160405280929190818152602001828054610d28906122ca565b8015610d755780601f10610d4a57610100808354040283529160200191610d75565b820191906000526020600020905b815481529060010190602001808311610d5857829003601f168201915b505050505081565b610d85611314565b600160056000828254610d9891906126b5565b9091555061089a9050610da9611122565b600554836040518060200160405280600081525061138d565b6107e5610dcd611122565b83836117d4565b6001600160401b03841660009081526006602090815260408083205481519283018790529082018590526001600160a01b0384811660608401521690829060800160408051808303601f1901815260a083019091526001600160a01b03841660c083015291506000908060e08101604051602081830303815290604052815260200183604051602001610e679190611d36565b60408051601f1981840301815291905281526020016000604051908082528060200260200182016040528015610ec357816020015b6040805180820190915260008082526020820152815260200190600190039081610e9c5790505b5081526020017f00000000000000000000000000000000000000000000000000000000000000006001600160a01b03168152602001610f1b604051806040016040528062030d4081526020016000151581525061178a565b90526040516320487ded60e01b81529091506001600160a01b037f000000000000000000000000000000000000000000000000000000000000000016906320487ded90610f6e908b9085906004016125a6565b602060405180830381865afa158015610cbf573d6000803e3d6000fd5b610f93611122565b6001600160a01b0316856001600160a01b03161480610fb95750610fb985610471611122565b610fd55760405162461bcd60e51b8152600401610546906123c6565b61068b85858585856118b4565b610fea611314565b6001600160a01b03811661104f5760405162461bcd60e51b815260206004820152602660248201527f4f776e61626c653a206e6577206f776e657220697320746865207a65726f206160448201526564647265737360d01b6064820152608401610546565b61089a816114ac565b60007f00000000000000000000000000000000000000000000000000000000000000006001600160a01b03163303611097575060131936013560601c90565b503390565b905090565b90565b3390565b60006001600160e01b031982166385572ffb60e01b14806105fa57506001600160e01b031982166301ffc9a760e01b1492915050565b606060a06040510180604052602081039150506000815280825b600183039250600a81066030018353600a9004806110f85750819003601f19909101908152919050565b600061109c611058565b815183511461118e5760405162461bcd60e51b815260206004820152602860248201527f455243313135353a2069647320616e6420616d6f756e7473206c656e677468206044820152670dad2e6dac2e8c6d60c31b6064820152608401610546565b6001600160a01b0384166111b45760405162461bcd60e51b8152600401610546906126cd565b60006111be611122565b905060005b84518110156112a65760008582815181106111e0576111e0612414565b6020026020010151905060008583815181106111fe576111fe612414565b602090810291909101810151600084815280835260408082206001600160a01b038e16835290935291909120549091508181101561124e5760405162461bcd60e51b815260040161054690612712565b6000838152602081815260408083206001600160a01b038e8116855292528083208585039055908b1682528120805484929061128b9084906126b5565b925050819055505050508061129f90612440565b90506111c3565b50846001600160a01b0316866001600160a01b0316826001600160a01b03167f4a39dc06d4c0dbc64b70af90fd698a233a518aa5d07e595d983b8c0526c8f7fb87876040516112f692919061275c565b60405180910390a461130c8187878787876119e9565b505050505050565b61131c611122565b6001600160a01b03166113376003546001600160a01b031690565b6001600160a01b03161461083c5760405162461bcd60e51b815260206004820181905260248201527f4f776e61626c653a2063616c6c6572206973206e6f7420746865206f776e65726044820152606401610546565b6001600160a01b0384166113ed5760405162461bcd60e51b815260206004820152602160248201527f455243313135353a206d696e7420746f20746865207a65726f206164647265736044820152607360f81b6064820152608401610546565b60006113f7611122565b9050600061140485611b44565b9050600061141185611b44565b90506000868152602081815260408083206001600160a01b038b168452909152812080548792906114439084906126b5565b909155505060408051878152602081018790526001600160a01b03808a1692600092918716917fc3d58168c5ae7397731d063d5bbf3d657854427343f4c083240f7aacaa2d0f62910160405180910390a46114a383600089898989611b8f565b50505050505050565b600380546001600160a01b038381166001600160a01b0319831681179093556040519116919082907f8be0079c531659141344cd1fd0a4f28419497f9722a3daafe3b4186f6b6457e090600090a35050565b80604001518060200190518101906115169190612781565b60405160200161153e919060609190911b6bffffffffffffffffffffffff1916815260140190565b60408051601f198184030181528282528051602091820120848201516001600160401b0316600090815260068352929092205460601b6bffffffffffffffffffffffff1916908301529060340160405160208183030381529060405280519060200120146115bf5760405163057f3fa760e51b815260040160405180910390fd5b600080600083606001518060200190518101906115dc919061279e565b9250925092506115fd8184846040518060200160405280600081525061138d565b50505050565b6001600160a01b0383166116655760405162461bcd60e51b815260206004820152602360248201527f455243313135353a206275726e2066726f6d20746865207a65726f206164647260448201526265737360e81b6064820152608401610546565b600061166f611122565b9050600061167c84611b44565b9050600061168984611b44565b60408051602080820183526000918290528882528181528282206001600160a01b038b16835290522054909150848110156117125760405162461bcd60e51b8152602060048201526024808201527f455243313135353a206275726e20616d6f756e7420657863656564732062616c604482015263616e636560e01b6064820152608401610546565b6000868152602081815260408083206001600160a01b038b81168086529184528285208a8703905582518b81529384018a90529092908816917fc3d58168c5ae7397731d063d5bbf3d657854427343f4c083240f7aacaa2d0f62910160405180910390a46040805160208101909152600090526114a3565b6040805182516024820152602092830151151560448083019190915282518083039091018152606490910190915290810180516001600160e01b03166397a657c960e01b17905290565b816001600160a01b0316836001600160a01b0316036118475760405162461bcd60e51b815260206004820152602960248201527f455243313135353a2073657474696e6720617070726f76616c20737461747573604482015268103337b91039b2b63360b91b6064820152608401610546565b6001600160a01b03838116600081815260016020908152604080832094871680845294825291829020805460ff191686151590811790915591519182527f17307eab39ab6107e8899845ad3d59bd9653f200f220920489ca2b5937696c31910160405180910390a3505050565b6001600160a01b0384166118da5760405162461bcd60e51b8152600401610546906126cd565b60006118e4611122565b905060006118f185611b44565b905060006118fe85611b44565b90506000868152602081815260408083206001600160a01b038c168452909152902054858110156119415760405162461bcd60e51b815260040161054690612712565b6000878152602081815260408083206001600160a01b038d8116855292528083208985039055908a1682528120805488929061197e9084906126b5565b909155505060408051888152602081018890526001600160a01b03808b16928c821692918816917fc3d58168c5ae7397731d063d5bbf3d657854427343f4c083240f7aacaa2d0f62910160405180910390a46119de848a8a8a8a8a611b8f565b505050505050505050565b6001600160a01b0384163b1561130c5760405163bc197c8160e01b81526001600160a01b0385169063bc197c8190611a2d90899089908890889088906004016127d7565b6020604051808303816000875af1925050508015611a68575060408051601f3d908101601f19168201909252611a6591810190612829565b60015b611b1457611a74612846565b806308c379a003611aad5750611a88612861565b80611a935750611aaf565b8060405162461bcd60e51b81526004016105469190611d36565b505b60405162461bcd60e51b815260206004820152603460248201527f455243313135353a207472616e7366657220746f206e6f6e2d455243313135356044820152732932b1b2b4bb32b91034b6b83632b6b2b73a32b960611b6064820152608401610546565b6001600160e01b0319811663bc197c8160e01b146114a35760405162461bcd60e51b8152600401610546906128ea565b60408051600180825281830190925260609160009190602080830190803683370190505090508281600081518110611b7e57611b7e612414565b602090810291909101015292915050565b6001600160a01b0384163b1561130c5760405163f23a6e6160e01b81526001600160a01b0385169063f23a6e6190611bd39089908990889088908890600401612932565b6020604051808303816000875af1925050508015611c0e575060408051601f3d908101601f19168201909252611c0b91810190612829565b60015b611c1a57611a74612846565b6001600160e01b0319811663f23a6e6160e01b146114a35760405162461bcd60e51b8152600401610546906128ea565b6001600160a01b038116811461089a57600080fd5b60008060408385031215611c7257600080fd5b8235611c7d81611c4a565b946020939093013593505050565b6001600160e01b03198116811461089a57600080fd5b600060208284031215611cb357600080fd5b8135611cbe81611c8b565b9392505050565b600060208284031215611cd757600080fd5b5035919050565b60005b83811015611cf9578181015183820152602001611ce1565b838111156115fd5750506000910152565b60008151808452611d22816020860160208601611cde565b601f01601f19169290920160200192915050565b602081526000611cbe6020830184611d0a565b634e487b7160e01b600052604160045260246000fd5b604081018181106001600160401b0382111715611d7e57611d7e611d49565b60405250565b601f8201601f191681016001600160401b0381118282101715611da957611da9611d49565b6040525050565b60405160a081016001600160401b0381118282101715611dd257611dd2611d49565b60405290565b60006001600160401b03821115611df157611df1611d49565b5060051b60200190565b600082601f830112611e0c57600080fd5b81356020611e1982611dd8565b604051611e268282611d84565b83815260059390931b8501820192828101915086841115611e4657600080fd5b8286015b84811015611e615780358352918301918301611e4a565b509695505050505050565b600082601f830112611e7d57600080fd5b81356001600160401b03811115611e9657611e96611d49565b604051611ead601f8301601f191660200182611d84565b818152846020838601011115611ec257600080fd5b816020850160208301376000918101602001919091529392505050565b600080600080600060a08688031215611ef757600080fd5b8535611f0281611c4a565b94506020860135611f1281611c4a565b935060408601356001600160401b0380821115611f2e57600080fd5b611f3a89838a01611dfb565b94506060880135915080821115611f5057600080fd5b611f5c89838a01611dfb565b93506080880135915080821115611f7257600080fd5b50611f7f88828901611e6c565b9150509295509295909350565b60008060408385031215611f9f57600080fd5b82356001600160401b0380821115611fb657600080fd5b818501915085601f830112611fca57600080fd5b81356020611fd782611dd8565b604051611fe48282611d84565b83815260059390931b850182019282810191508984111561200457600080fd5b948201945b8386101561202b57853561201c81611c4a565b82529482019490820190612009565b9650508601359250508082111561204157600080fd5b5061204e85828601611dfb565b9150509250929050565b600081518084526020808501945080840160005b838110156120885781518752958201959082019060010161206c565b509495945050505050565b602081526000611cbe6020830184612058565b600080604083850312156120b957600080fd5b50508035926020909101359150565b80356001600160401b03811681146120df57600080fd5b919050565b600080604083850312156120f757600080fd5b612100836120c8565b9150602083013561211081611c4a565b809150509250929050565b60006020828403121561212d57600080fd5b8135611cbe81611c4a565b60006020828403121561214a57600080fd5b81356001600160401b0381111561216057600080fd5b820160a08185031215611cbe57600080fd5b60008060006060848603121561218757600080fd5b612190846120c8565b95602085013595506040909401359392505050565b801515811461089a57600080fd5b600080604083850312156121c657600080fd5b82356121d181611c4a565b91506020830135612110816121a5565b6000602082840312156121f357600080fd5b611cbe826120c8565b6000806000806080858703121561221257600080fd5b61221b856120c8565b93506020850135925060408501359150606085013561223981611c4a565b939692955090935050565b6000806040838503121561225757600080fd5b823561210081611c4a565b600080600080600060a0868803121561227a57600080fd5b853561228581611c4a565b9450602086013561229581611c4a565b9350604086013592506060860135915060808601356001600160401b038111156122be57600080fd5b611f7f88828901611e6c565b600181811c908216806122de57607f821691505b6020821081036122fe57634e487b7160e01b600052602260045260246000fd5b50919050565b60008151612316818560208601611cde565b9290920192915050565b600080845481600182811c91508083168061233c57607f831692505b6020808410820361235b57634e487b7160e01b86526022600452602486fd5b81801561236f5760018114612380576123ad565b60ff198616895284890196506123ad565b60008b81526020902060005b868110156123a55781548b82015290850190830161238c565b505084890196505b5050505050506123bd8185612304565b95945050505050565b6020808252602e908201527f455243313135353a2063616c6c6572206973206e6f7420746f6b656e206f776e60408201526d195c881bdc88185c1c1c9bdd995960921b606082015260800190565b634e487b7160e01b600052603260045260246000fd5b634e487b7160e01b600052601160045260246000fd5b6000600182016124525761245261242a565b5060010190565b600082601f83011261246a57600080fd5b8135602061247782611dd8565b604080516124858382611d84565b84815260069490941b86018301938381019250878511156124a557600080fd5b8387015b858110156124ee5782818a0312156124c15760008081fd5b82516124cc81611d5f565b81356124d781611c4a565b8152818601358682015284529284019282016124a9565b50979650505050505050565b600060a0823603121561250c57600080fd5b612514611db0565b82358152612524602084016120c8565b602082015260408301356001600160401b038082111561254357600080fd5b61254f36838701611e6c565b6040840152606085013591508082111561256857600080fd5b61257436838701611e6c565b6060840152608085013591508082111561258d57600080fd5b5061259a36828601612459565b60808301525092915050565b600060406001600160401b038516835260208181850152845160a0838601526125d260e0860182611d0a565b905081860151603f19808784030160608801526125ef8383611d0a565b88860151888203830160808a01528051808352908601945060009350908501905b8084101561264257845180516001600160a01b0316835286015186830152938501936001939093019290860190612610565b5060608901516001600160a01b031660a08901526080890151888203830160c08a015295506126718187611d0a565b9a9950505050505050505050565b60006020828403121561269157600080fd5b5051919050565b6000602082840312156126aa57600080fd5b8151611cbe816121a5565b600082198211156126c8576126c861242a565b500190565b60208082526025908201527f455243313135353a207472616e7366657220746f20746865207a65726f206164604082015264647265737360d81b606082015260800190565b6020808252602a908201527f455243313135353a20696e73756666696369656e742062616c616e636520666f60408201526939103a3930b739b332b960b11b606082015260800190565b60408152600061276f6040830185612058565b82810360208401526123bd8185612058565b60006020828403121561279357600080fd5b8151611cbe81611c4a565b6000806000606084860312156127b357600080fd5b835192506020840151915060408401516127cc81611c4a565b809150509250925092565b6001600160a01b0386811682528516602082015260a06040820181905260009061280390830186612058565b82810360608401526128158186612058565b90508281036080840152610ce38185611d0a565b60006020828403121561283b57600080fd5b8151611cbe81611c8b565b600060033d11156110a15760046000803e5060005160e01c90565b600060443d101561286f5790565b6040516003193d81016004833e81513d6001600160401b03816024840111818411171561289e57505050505090565b82850191508151818111156128b65750505050505090565b843d87010160208285010111156128d05750505050505090565b6128df60208286010187611d84565b509095945050505050565b60208082526028908201527f455243313135353a204552433131353552656365697665722072656a656374656040820152676420746f6b656e7360c01b606082015260800190565b6001600160a01b03868116825285166020820152604081018490526060810183905260a06080820181905260009061296c90830184611d0a565b97965050505050505056fea2646970667358221220c0785b5a7350118cfa1a051b0daa0e7383b1dc6e03005b375cd7769277e11fac64736f6c634300080d0033",
  "devdoc": {
    "kind": "dev",
    "methods": {
      "balanceOf(address,uint256)": {
        "details": "See {IERC1155-balanceOf}. Requirements: - `account` cannot be the zero address."
      },
      "balanceOfBatch(address[],uint256[])": {
        "details": "See {IERC1155-balanceOfBatch}. Requirements: - `accounts` and `ids` must have the same length."
      },
      "ccipReceive((bytes32,uint64,bytes,bytes,(address,uint256)[]))": {
        "details": "Note ensure you check the msg.sender is the OffRampRouter",
        "params": {
          "message": "CCIP Message"
        }
      },
      "getRouter()": {
        "returns": {
          "_0": "i_router address"
        }
      },
      "isApprovedForAll(address,address)": {
        "details": "See {IERC1155-isApprovedForAll}."
      },
      "owner()": {
        "details": "Returns the address of the current owner."
      },
      "renounceOwnership()": {
        "details": "Leaves the contract without owner. It will not be possible to call `onlyOwner` functions. Can only be called by the current owner. NOTE: Renouncing ownership will leave the contract without an owner, thereby disabling any functionality that is only available to the owner."
      },
      "safeBatchTransferFrom(address,address,uint256[],uint256[],bytes)": {
        "details": "See {IERC1155-safeBatchTransferFrom}."
      },
      "safeTransferFrom(address,address,uint256,uint256,bytes)": {
        "details": "See {IERC1155-safeTransferFrom}."
      },
      "setApprovalForAll(address,bool)": {
        "details": "See {IERC1155-setApprovalForAll}."
      },
      "transferOwnership(address)": {
        "details": "Transfers ownership of the contract to a new account (`newOwner`). Can only be called by the current owner."
      }
    },
    "version": 1
  },
  "userdoc": {
    "kind": "user",
    "methods": {
      "ccipReceive((bytes32,uint64,bytes,bytes,(address,uint256)[]))": {
        "notice": "Called by the Router to deliver a message. If this reverts, any token transfers also revert. The message will move to a FAILED state and become available for manual execution."
      },
      "getRouter()": {
        "notice": "Return the current router"
      }
    },
    "version": 1
  },
  "storageLayout": {
    "storage": [
      {
        "astId": 913,
        "contract": "src/UtilsCCIP.sol:Utils",
        "label": "_balances",
        "offset": 0,
        "slot": "0",
        "type": "t_mapping(t_uint256,t_mapping(t_address,t_uint256))"
      },
      {
        "astId": 919,
        "contract": "src/UtilsCCIP.sol:Utils",
        "label": "_operatorApprovals",
        "offset": 0,
        "slot": "1",
        "type": "t_mapping(t_address,t_mapping(t_address,t_bool))"
      },
      {
        "astId": 921,
        "contract": "src/UtilsCCIP.sol:Utils",
        "label": "_uri",
        "offset": 0,
        "slot": "2",
        "type": "t_string_storage"
      },
      {
        "astId": 703,
        "contract": "src/UtilsCCIP.sol:Utils",
        "label": "_owner",
        "offset": 0,
        "slot": "3",
        "type": "t_address"
      },
      {
        "astId": 2761,
        "contract": "src/UtilsCCIP.sol:Utils",
        "label": "baseUri",
        "offset": 0,
        "slot": "4",
        "type": "t_string_storage"
      },
      {
        "astId": 2763,
        "contract": "src/UtilsCCIP.sol:Utils",
        "label": "utilCount",
        "offset": 0,
        "slot": "5",
        "type": "t_uint256"
      },
      {
        "astId": 2770,
        "contract": "src/UtilsCCIP.sol:Utils",
        "label": "chains",
        "offset": 0,
        "slot": "6",
        "type": "t_mapping(t_uint64,t_address)"
      }
    ],
    "types": {
      "t_address": {
        "encoding": "inplace",
        "label": "address",
        "numberOfBytes": "20"
      },
      "t_bool": {
        "encoding": "inplace",
        "label": "bool",
        "numberOfBytes": "1"
      },
      "t_mapping(t_address,t_bool)": {
        "encoding": "mapping",
        "key": "t_address",
        "label": "mapping(address => bool)",
        "numberOfBytes": "32",
        "value": "t_bool"
      },
      "t_mapping(t_address,t_mapping(t_address,t_bool))": {
        "encoding": "mapping",
        "key": "t_address",
        "label": "mapping(address => mapping(address => bool))",
        "numberOfBytes": "32",
        "value": "t_mapping(t_address,t_bool)"
      },
      "t_mapping(t_address,t_uint256)": {
        "encoding": "mapping",
        "key": "t_address",
        "label": "mapping(address => uint256)",
        "numberOfBytes": "32",
        "value": "t_uint256"
      },
      "t_mapping(t_uint256,t_mapping(t_address,t_uint256))": {
        "encoding": "mapping",
        "key": "t_uint256",
        "label": "mapping(uint256 => mapping(address => uint256))",
        "numberOfBytes": "32",
        "value": "t_mapping(t_address,t_uint256)"
      },
      "t_mapping(t_uint64,t_address)": {
        "encoding": "mapping",
        "key": "t_uint64",
        "label": "mapping(uint64 => address)",
        "numberOfBytes": "32",
        "value": "t_address"
      },
      "t_string_storage": {
        "encoding": "bytes",
        "label": "string",
        "numberOfBytes": "32"
      },
      "t_uint256": {
        "encoding": "inplace",
        "label": "uint256",
        "numberOfBytes": "32"
      },
      "t_uint64": {
        "encoding": "inplace",
        "label": "uint64",
        "numberOfBytes": "8"
      }
    }
  }
}