{
  "address": "0xCA34FF4068f042203087D475805c4DD8347cE958",
  "abi": [
    {
      "inputs": [
        {
          "internalType": "string",
          "name": "_baseUri",
          "type": "string"
        }
      ],
      "stateMutability": "nonpayable",
      "type": "constructor"
    },
    {
      "anonymous": false,
      "inputs": [
        {
          "indexed": true,
          "internalType": "address",
          "name": "owner",
          "type": "address"
        },
        {
          "indexed": true,
          "internalType": "address",
          "name": "operator",
          "type": "address"
        },
        {
          "indexed": false,
          "internalType": "bool",
          "name": "approved",
          "type": "bool"
        }
      ],
      "name": "ApprovalForAll",
      "type": "event"
    },
    {
      "anonymous": false,
      "inputs": [
        {
          "indexed": true,
          "internalType": "address",
          "name": "user",
          "type": "address"
        },
        {
          "indexed": true,
          "internalType": "address",
          "name": "newOwner",
          "type": "address"
        }
      ],
      "name": "OwnershipTransferred",
      "type": "event"
    },
    {
      "anonymous": false,
      "inputs": [
        {
          "indexed": true,
          "internalType": "address",
          "name": "operator",
          "type": "address"
        },
        {
          "indexed": true,
          "internalType": "address",
          "name": "from",
          "type": "address"
        },
        {
          "indexed": true,
          "internalType": "address",
          "name": "to",
          "type": "address"
        },
        {
          "indexed": false,
          "internalType": "uint256[]",
          "name": "ids",
          "type": "uint256[]"
        },
        {
          "indexed": false,
          "internalType": "uint256[]",
          "name": "amounts",
          "type": "uint256[]"
        }
      ],
      "name": "TransferBatch",
      "type": "event"
    },
    {
      "anonymous": false,
      "inputs": [
        {
          "indexed": true,
          "internalType": "address",
          "name": "operator",
          "type": "address"
        },
        {
          "indexed": true,
          "internalType": "address",
          "name": "from",
          "type": "address"
        },
        {
          "indexed": true,
          "internalType": "address",
          "name": "to",
          "type": "address"
        },
        {
          "indexed": false,
          "internalType": "uint256",
          "name": "id",
          "type": "uint256"
        },
        {
          "indexed": false,
          "internalType": "uint256",
          "name": "amount",
          "type": "uint256"
        }
      ],
      "name": "TransferSingle",
      "type": "event"
    },
    {
      "anonymous": false,
      "inputs": [
        {
          "indexed": false,
          "internalType": "string",
          "name": "value",
          "type": "string"
        },
        {
          "indexed": true,
          "internalType": "uint256",
          "name": "id",
          "type": "uint256"
        }
      ],
      "name": "URI",
      "type": "event"
    },
    {
      "inputs": [
        {
          "internalType": "address",
          "name": "",
          "type": "address"
        },
        {
          "internalType": "uint256",
          "name": "",
          "type": "uint256"
        }
      ],
      "name": "balanceOf",
      "outputs": [
        {
          "internalType": "uint256",
          "name": "",
          "type": "uint256"
        }
      ],
      "stateMutability": "view",
      "type": "function"
    },
    {
      "inputs": [
        {
          "internalType": "address[]",
          "name": "owners",
          "type": "address[]"
        },
        {
          "internalType": "uint256[]",
          "name": "ids",
          "type": "uint256[]"
        }
      ],
      "name": "balanceOfBatch",
      "outputs": [
        {
          "internalType": "uint256[]",
          "name": "balances",
          "type": "uint256[]"
        }
      ],
      "stateMutability": "view",
      "type": "function"
    },
    {
      "inputs": [],
      "name": "baseUri",
      "outputs": [
        {
          "internalType": "string",
          "name": "",
          "type": "string"
        }
      ],
      "stateMutability": "view",
      "type": "function"
    },
    {
      "inputs": [
        {
          "internalType": "address",
          "name": "",
          "type": "address"
        },
        {
          "internalType": "address",
          "name": "",
          "type": "address"
        }
      ],
      "name": "isApprovedForAll",
      "outputs": [
        {
          "internalType": "bool",
          "name": "",
          "type": "bool"
        }
      ],
      "stateMutability": "view",
      "type": "function"
    },
    {
      "inputs": [
        {
          "internalType": "uint256",
          "name": "amount",
          "type": "uint256"
        }
      ],
      "name": "mint",
      "outputs": [],
      "stateMutability": "nonpayable",
      "type": "function"
    },
    {
      "inputs": [],
      "name": "owner",
      "outputs": [
        {
          "internalType": "address",
          "name": "",
          "type": "address"
        }
      ],
      "stateMutability": "view",
      "type": "function"
    },
    {
      "inputs": [
        {
          "internalType": "address",
          "name": "from",
          "type": "address"
        },
        {
          "internalType": "address",
          "name": "to",
          "type": "address"
        },
        {
          "internalType": "uint256[]",
          "name": "ids",
          "type": "uint256[]"
        },
        {
          "internalType": "uint256[]",
          "name": "amounts",
          "type": "uint256[]"
        },
        {
          "internalType": "bytes",
          "name": "data",
          "type": "bytes"
        }
      ],
      "name": "safeBatchTransferFrom",
      "outputs": [],
      "stateMutability": "nonpayable",
      "type": "function"
    },
    {
      "inputs": [
        {
          "internalType": "address",
          "name": "from",
          "type": "address"
        },
        {
          "internalType": "address",
          "name": "to",
          "type": "address"
        },
        {
          "internalType": "uint256",
          "name": "id",
          "type": "uint256"
        },
        {
          "internalType": "uint256",
          "name": "amount",
          "type": "uint256"
        },
        {
          "internalType": "bytes",
          "name": "data",
          "type": "bytes"
        }
      ],
      "name": "safeTransferFrom",
      "outputs": [],
      "stateMutability": "nonpayable",
      "type": "function"
    },
    {
      "inputs": [
        {
          "internalType": "address",
          "name": "operator",
          "type": "address"
        },
        {
          "internalType": "bool",
          "name": "approved",
          "type": "bool"
        }
      ],
      "name": "setApprovalForAll",
      "outputs": [],
      "stateMutability": "nonpayable",
      "type": "function"
    },
    {
      "inputs": [
        {
          "internalType": "bytes4",
          "name": "interfaceId",
          "type": "bytes4"
        }
      ],
      "name": "supportsInterface",
      "outputs": [
        {
          "internalType": "bool",
          "name": "",
          "type": "bool"
        }
      ],
      "stateMutability": "view",
      "type": "function"
    },
    {
      "inputs": [
        {
          "internalType": "address",
          "name": "newOwner",
          "type": "address"
        }
      ],
      "name": "transferOwnership",
      "outputs": [],
      "stateMutability": "nonpayable",
      "type": "function"
    },
    {
      "inputs": [
        {
          "internalType": "uint256",
          "name": "id",
          "type": "uint256"
        }
      ],
      "name": "uri",
      "outputs": [
        {
          "internalType": "string",
          "name": "",
          "type": "string"
        }
      ],
      "stateMutability": "view",
      "type": "function"
    },
    {
      "inputs": [],
      "name": "utilCount",
      "outputs": [
        {
          "internalType": "uint256",
          "name": "",
          "type": "uint256"
        }
      ],
      "stateMutability": "view",
      "type": "function"
    }
  ],
  "transactionHash": "0x434b4aa6a920ee506aeeb4b596f7040c8a4756c6f302f849df66788fbceda7f3",
  "args": [
    "https://www.example.com/utils/"
  ],
  "numDeployments": 1,
  "solcInputHash": "479bd514209e88aad7b52b085e9ff57f",
  "bytecode": "0x60806040523480156200001157600080fd5b506040516200160e3803806200160e833981016040819052620000349162000150565b600280546001600160a01b0319163390811790915560405181906000907f8be0079c531659141344cd1fd0a4f28419497f9722a3daafe3b4186f6b6457e0908290a35080516200008c90600390602084019062000094565b505062000268565b828054620000a2906200022c565b90600052602060002090601f016020900481019282620000c6576000855562000111565b82601f10620000e157805160ff191683800117855562000111565b8280016001018555821562000111579182015b8281111562000111578251825591602001919060010190620000f4565b506200011f92915062000123565b5090565b5b808211156200011f576000815560010162000124565b634e487b7160e01b600052604160045260246000fd5b600060208083850312156200016457600080fd5b82516001600160401b03808211156200017c57600080fd5b818501915085601f8301126200019157600080fd5b815181811115620001a657620001a66200013a565b604051601f8201601f19908116603f01168101908382118183101715620001d157620001d16200013a565b816040528281528886848701011115620001ea57600080fd5b600093505b828410156200020e5784840186015181850187015292850192620001ef565b82841115620002205760008684830101525b98975050505050505050565b600181811c908216806200024157607f821691505b6020821081036200026257634e487b7160e01b600052602260045260246000fd5b50919050565b61139680620002786000396000f3fe608060405234801561001057600080fd5b50600436106100ce5760003560e01c80639abc83201161008c578063baacbe9b11610066578063baacbe9b146101df578063e985e9c5146101e8578063f242432a14610216578063f2fde38b1461022957600080fd5b80639abc8320146101b1578063a0712d68146101b9578063a22cb465146101cc57600080fd5b8062fdd58e146100d357806301ffc9a71461010e5780630e89341c146101315780632eb2c2d6146101515780634e1273f4146101665780638da5cb5b14610186575b600080fd5b6100fb6100e1366004610c53565b600060208181529281526040808220909352908152205481565b6040519081526020015b60405180910390f35b61012161011c366004610c93565b61023c565b6040519015158152602001610105565b61014461013f366004610cb7565b61028e565b6040516101059190610d28565b61016461015f366004610dc9565b6102c2565b005b610179610174366004610e84565b61056a565b6040516101059190610ef0565b600254610199906001600160a01b031681565b6040516001600160a01b039091168152602001610105565b61014461069f565b6101646101c7366004610cb7565b61072d565b6101646101da366004610f34565b6107b0565b6100fb60045481565b6101216101f6366004610f70565b600160209081526000928352604080842090915290825290205460ff1681565b610164610224366004610fa3565b61081c565b61016461023736600461101b565b610a16565b60006301ffc9a760e01b6001600160e01b03198316148061026d5750636cdb3d1360e11b6001600160e01b03198316145b8061028857506303a24d0760e21b6001600160e01b03198316145b92915050565b6060600361029b83610aab565b6040516020016102ac92919061108c565b6040516020818303038152906040529050919050565b8483146103085760405162461bcd60e51b815260206004820152600f60248201526e0988a9c8ea890be9a92a69a82a8869608b1b60448201526064015b60405180910390fd5b336001600160a01b038916148061034257506001600160a01b038816600090815260016020908152604080832033845290915290205460ff165b61037f5760405162461bcd60e51b815260206004820152600e60248201526d1393d517d055551213d49256915160921b60448201526064016102ff565b60008060005b8781101561043a5788888281811061039f5761039f611132565b9050602002013592508686828181106103ba576103ba611132565b6001600160a01b038e16600090815260208181526040808320898452825282208054939091029490940135955085939250906103f790849061115e565b90915550506001600160a01b038a166000908152602081815260408083208684529091528120805484929061042d908490611175565b9091555050600101610385565b50886001600160a01b03168a6001600160a01b0316336001600160a01b03167f4a39dc06d4c0dbc64b70af90fd698a233a518aa5d07e595d983b8c0526c8f7fb8b8b8b8b60405161048e94939291906111c3565b60405180910390a46001600160a01b0389163b156105355760405163bc197c8160e01b808252906001600160a01b038b169063bc197c81906104e29033908f908e908e908e908e908e908e9060040161121e565b6020604051808303816000875af1158015610501573d6000803e3d6000fd5b505050506040513d601f19601f820116820180604052508101906105259190611282565b6001600160e01b03191614610542565b6001600160a01b03891615155b61055e5760405162461bcd60e51b81526004016102ff9061129f565b50505050505050505050565b60608382146105ad5760405162461bcd60e51b815260206004820152600f60248201526e0988a9c8ea890be9a92a69a82a8869608b1b60448201526064016102ff565b8367ffffffffffffffff8111156105c6576105c66112c9565b6040519080825280602002602001820160405280156105ef578160200160208202803683370190505b50905060005b848110156106965760008087878481811061061257610612611132565b9050602002016020810190610627919061101b565b6001600160a01b03166001600160a01b03168152602001908152602001600020600085858481811061065b5761065b611132565b9050602002013581526020019081526020016000205482828151811061068357610683611132565b60209081029190910101526001016105f5565b50949350505050565b600380546106ac90611036565b80601f01602080910402602001604051908101604052809291908181526020018280546106d890611036565b80156107255780601f106106fa57610100808354040283529160200191610725565b820191906000526020600020905b81548152906001019060200180831161070857829003601f168201915b505050505081565b6002546001600160a01b031633146107765760405162461bcd60e51b815260206004820152600c60248201526b15539055551213d49256915160a21b60448201526064016102ff565b6001600460008282546107899190611175565b925050819055506107ad336004548360405180602001604052806000815250610aef565b50565b3360008181526001602090815260408083206001600160a01b03871680855290835292819020805460ff191686151590811790915590519081529192917f17307eab39ab6107e8899845ad3d59bd9653f200f220920489ca2b5937696c31910160405180910390a35050565b336001600160a01b038716148061085657506001600160a01b038616600090815260016020908152604080832033845290915290205460ff165b6108935760405162461bcd60e51b815260206004820152600e60248201526d1393d517d055551213d49256915160921b60448201526064016102ff565b6001600160a01b038616600090815260208181526040808320878452909152812080548592906108c490849061115e565b90915550506001600160a01b038516600090815260208181526040808320878452909152812080548592906108fa908490611175565b909155505060408051858152602081018590526001600160a01b03808816929089169133917fc3d58168c5ae7397731d063d5bbf3d657854427343f4c083240f7aacaa2d0f62910160405180910390a46001600160a01b0385163b156109e55760405163f23a6e6160e01b808252906001600160a01b0387169063f23a6e61906109929033908b908a908a908a908a906004016112df565b6020604051808303816000875af11580156109b1573d6000803e3d6000fd5b505050506040513d601f19601f820116820180604052508101906109d59190611282565b6001600160e01b031916146109f2565b6001600160a01b03851615155b610a0e5760405162461bcd60e51b81526004016102ff9061129f565b505050505050565b6002546001600160a01b03163314610a5f5760405162461bcd60e51b815260206004820152600c60248201526b15539055551213d49256915160a21b60448201526064016102ff565b600280546001600160a01b0319166001600160a01b03831690811790915560405133907f8be0079c531659141344cd1fd0a4f28419497f9722a3daafe3b4186f6b6457e090600090a350565b606060a06040510180604052602081039150506000815280825b600183039250600a81066030018353600a900480610ac55750819003601f19909101908152919050565b6001600160a01b03841660009081526020818152604080832086845290915281208054849290610b20908490611175565b909155505060408051848152602081018490526001600160a01b0386169160009133917fc3d58168c5ae7397731d063d5bbf3d657854427343f4c083240f7aacaa2d0f62910160405180910390a46001600160a01b0384163b15610c085760405163f23a6e6160e01b808252906001600160a01b0386169063f23a6e6190610bb5903390600090899089908990600401611326565b6020604051808303816000875af1158015610bd4573d6000803e3d6000fd5b505050506040513d601f19601f82011682018060405250810190610bf89190611282565b6001600160e01b03191614610c15565b6001600160a01b03841615155b610c315760405162461bcd60e51b81526004016102ff9061129f565b50505050565b80356001600160a01b0381168114610c4e57600080fd5b919050565b60008060408385031215610c6657600080fd5b610c6f83610c37565b946020939093013593505050565b6001600160e01b0319811681146107ad57600080fd5b600060208284031215610ca557600080fd5b8135610cb081610c7d565b9392505050565b600060208284031215610cc957600080fd5b5035919050565b60005b83811015610ceb578181015183820152602001610cd3565b83811115610c315750506000910152565b60008151808452610d14816020860160208601610cd0565b601f01601f19169290920160200192915050565b602081526000610cb06020830184610cfc565b60008083601f840112610d4d57600080fd5b50813567ffffffffffffffff811115610d6557600080fd5b6020830191508360208260051b8501011115610d8057600080fd5b9250929050565b60008083601f840112610d9957600080fd5b50813567ffffffffffffffff811115610db157600080fd5b602083019150836020828501011115610d8057600080fd5b60008060008060008060008060a0898b031215610de557600080fd5b610dee89610c37565b9750610dfc60208a01610c37565b9650604089013567ffffffffffffffff80821115610e1957600080fd5b610e258c838d01610d3b565b909850965060608b0135915080821115610e3e57600080fd5b610e4a8c838d01610d3b565b909650945060808b0135915080821115610e6357600080fd5b50610e708b828c01610d87565b999c989b5096995094979396929594505050565b60008060008060408587031215610e9a57600080fd5b843567ffffffffffffffff80821115610eb257600080fd5b610ebe88838901610d3b565b90965094506020870135915080821115610ed757600080fd5b50610ee487828801610d3b565b95989497509550505050565b6020808252825182820181905260009190848201906040850190845b81811015610f2857835183529284019291840191600101610f0c565b50909695505050505050565b60008060408385031215610f4757600080fd5b610f5083610c37565b915060208301358015158114610f6557600080fd5b809150509250929050565b60008060408385031215610f8357600080fd5b610f8c83610c37565b9150610f9a60208401610c37565b90509250929050565b60008060008060008060a08789031215610fbc57600080fd5b610fc587610c37565b9550610fd360208801610c37565b94506040870135935060608701359250608087013567ffffffffffffffff811115610ffd57600080fd5b61100989828a01610d87565b979a9699509497509295939492505050565b60006020828403121561102d57600080fd5b610cb082610c37565b600181811c9082168061104a57607f821691505b60208210810361106a57634e487b7160e01b600052602260045260246000fd5b50919050565b60008151611082818560208601610cd0565b9290920192915050565b600080845481600182811c9150808316806110a857607f831692505b602080841082036110c757634e487b7160e01b86526022600452602486fd5b8180156110db57600181146110ec57611119565b60ff19861689528489019650611119565b60008b81526020902060005b868110156111115781548b8201529085019083016110f8565b505084890196505b5050505050506111298185611070565b95945050505050565b634e487b7160e01b600052603260045260246000fd5b634e487b7160e01b600052601160045260246000fd5b60008282101561117057611170611148565b500390565b6000821982111561118857611188611148565b500190565b81835260006001600160fb1b038311156111a657600080fd5b8260051b8083602087013760009401602001938452509192915050565b6040815260006111d760408301868861118d565b82810360208401526111ea81858761118d565b979650505050505050565b81835281816020850137506000828201602090810191909152601f909101601f19169091010190565b6001600160a01b0389811682528816602082015260a06040820181905260009061124b908301888a61118d565b828103606084015261125e81878961118d565b905082810360808401526112738185876111f5565b9b9a5050505050505050505050565b60006020828403121561129457600080fd5b8151610cb081610c7d565b60208082526010908201526f155394d0519157d49150d2541251539560821b604082015260600190565b634e487b7160e01b600052604160045260246000fd5b6001600160a01b03878116825286166020820152604081018590526060810184905260a06080820181905260009061131a90830184866111f5565b98975050505050505050565b6001600160a01b03868116825285166020820152604081018490526060810183905260a0608082018190526000906111ea90830184610cfc56fea264697066735822122095bea604e8b7597823d98a582a211608dbd0b80c102e00c388d7fe5e745e044764736f6c634300080d0033",
  "devdoc": {
    "kind": "dev",
    "methods": {},
    "version": 1
  },
  "userdoc": {
    "kind": "user",
    "methods": {},
    "version": 1
  },
  "storageLayout": {
    "storage": [
      {
        "astId": 154,
        "contract": "src/Utils.sol:Utils",
        "label": "balanceOf",
        "offset": 0,
        "slot": "0",
        "type": "t_mapping(t_address,t_mapping(t_uint256,t_uint256))"
      },
      {
        "astId": 160,
        "contract": "src/Utils.sol:Utils",
        "label": "isApprovedForAll",
        "offset": 0,
        "slot": "1",
        "type": "t_mapping(t_address,t_mapping(t_address,t_bool))"
      },
      {
        "astId": 56,
        "contract": "src/Utils.sol:Utils",
        "label": "owner",
        "offset": 0,
        "slot": "2",
        "type": "t_address"
      },
      {
        "astId": 2103,
        "contract": "src/Utils.sol:Utils",
        "label": "baseUri",
        "offset": 0,
        "slot": "3",
        "type": "t_string_storage"
      },
      {
        "astId": 2105,
        "contract": "src/Utils.sol:Utils",
        "label": "utilCount",
        "offset": 0,
        "slot": "4",
        "type": "t_uint256"
      }
    ],
    "types": {
      "t_address": {
        "encoding": "inplace",
        "label": "address",
        "numberOfBytes": "20"
      },
      "t_bool": {
        "encoding": "inplace",
        "label": "bool",
        "numberOfBytes": "1"
      },
      "t_mapping(t_address,t_bool)": {
        "encoding": "mapping",
        "key": "t_address",
        "label": "mapping(address => bool)",
        "numberOfBytes": "32",
        "value": "t_bool"
      },
      "t_mapping(t_address,t_mapping(t_address,t_bool))": {
        "encoding": "mapping",
        "key": "t_address",
        "label": "mapping(address => mapping(address => bool))",
        "numberOfBytes": "32",
        "value": "t_mapping(t_address,t_bool)"
      },
      "t_mapping(t_address,t_mapping(t_uint256,t_uint256))": {
        "encoding": "mapping",
        "key": "t_address",
        "label": "mapping(address => mapping(uint256 => uint256))",
        "numberOfBytes": "32",
        "value": "t_mapping(t_uint256,t_uint256)"
      },
      "t_mapping(t_uint256,t_uint256)": {
        "encoding": "mapping",
        "key": "t_uint256",
        "label": "mapping(uint256 => uint256)",
        "numberOfBytes": "32",
        "value": "t_uint256"
      },
      "t_string_storage": {
        "encoding": "bytes",
        "label": "string",
        "numberOfBytes": "32"
      },
      "t_uint256": {
        "encoding": "inplace",
        "label": "uint256",
        "numberOfBytes": "32"
      }
    }
  }
}