{
  "address": "0xE9cEAe69B724F4340Ca3D6D2F0D147b0Bc3E1978",
  "abi": [
    {
      "inputs": [
        {
          "internalType": "string",
          "name": "_baseUri",
          "type": "string"
        },
        {
          "internalType": "address",
          "name": "trustedForwarder",
          "type": "address"
        },
        {
          "internalType": "address",
          "name": "_linkAddress",
          "type": "address"
        },
        {
          "internalType": "address",
          "name": "_router",
          "type": "address"
        }
      ],
      "stateMutability": "nonpayable",
      "type": "constructor"
    },
    {
      "inputs": [],
      "name": "CrossChainNotSupported",
      "type": "error"
    },
    {
      "inputs": [],
      "name": "InsufficientBalance",
      "type": "error"
    },
    {
      "inputs": [],
      "name": "InvalidChain",
      "type": "error"
    },
    {
      "inputs": [
        {
          "internalType": "address",
          "name": "router",
          "type": "address"
        }
      ],
      "name": "InvalidRouter",
      "type": "error"
    },
    {
      "anonymous": false,
      "inputs": [
        {
          "indexed": true,
          "internalType": "address",
          "name": "account",
          "type": "address"
        },
        {
          "indexed": true,
          "internalType": "address",
          "name": "operator",
          "type": "address"
        },
        {
          "indexed": false,
          "internalType": "bool",
          "name": "approved",
          "type": "bool"
        }
      ],
      "name": "ApprovalForAll",
      "type": "event"
    },
    {
      "anonymous": false,
      "inputs": [
        {
          "indexed": true,
          "internalType": "address",
          "name": "previousOwner",
          "type": "address"
        },
        {
          "indexed": true,
          "internalType": "address",
          "name": "newOwner",
          "type": "address"
        }
      ],
      "name": "OwnershipTransferred",
      "type": "event"
    },
    {
      "anonymous": false,
      "inputs": [
        {
          "indexed": true,
          "internalType": "address",
          "name": "operator",
          "type": "address"
        },
        {
          "indexed": true,
          "internalType": "address",
          "name": "from",
          "type": "address"
        },
        {
          "indexed": true,
          "internalType": "address",
          "name": "to",
          "type": "address"
        },
        {
          "indexed": false,
          "internalType": "uint256[]",
          "name": "ids",
          "type": "uint256[]"
        },
        {
          "indexed": false,
          "internalType": "uint256[]",
          "name": "values",
          "type": "uint256[]"
        }
      ],
      "name": "TransferBatch",
      "type": "event"
    },
    {
      "anonymous": false,
      "inputs": [
        {
          "indexed": true,
          "internalType": "address",
          "name": "operator",
          "type": "address"
        },
        {
          "indexed": true,
          "internalType": "address",
          "name": "from",
          "type": "address"
        },
        {
          "indexed": true,
          "internalType": "address",
          "name": "to",
          "type": "address"
        },
        {
          "indexed": false,
          "internalType": "uint256",
          "name": "id",
          "type": "uint256"
        },
        {
          "indexed": false,
          "internalType": "uint256",
          "name": "value",
          "type": "uint256"
        }
      ],
      "name": "TransferSingle",
      "type": "event"
    },
    {
      "anonymous": false,
      "inputs": [
        {
          "indexed": false,
          "internalType": "string",
          "name": "value",
          "type": "string"
        },
        {
          "indexed": true,
          "internalType": "uint256",
          "name": "id",
          "type": "uint256"
        }
      ],
      "name": "URI",
      "type": "event"
    },
    {
      "inputs": [
        {
          "internalType": "address",
          "name": "account",
          "type": "address"
        },
        {
          "internalType": "uint256",
          "name": "id",
          "type": "uint256"
        }
      ],
      "name": "balanceOf",
      "outputs": [
        {
          "internalType": "uint256",
          "name": "",
          "type": "uint256"
        }
      ],
      "stateMutability": "view",
      "type": "function"
    },
    {
      "inputs": [
        {
          "internalType": "address[]",
          "name": "accounts",
          "type": "address[]"
        },
        {
          "internalType": "uint256[]",
          "name": "ids",
          "type": "uint256[]"
        }
      ],
      "name": "balanceOfBatch",
      "outputs": [
        {
          "internalType": "uint256[]",
          "name": "",
          "type": "uint256[]"
        }
      ],
      "stateMutability": "view",
      "type": "function"
    },
    {
      "inputs": [],
      "name": "baseUri",
      "outputs": [
        {
          "internalType": "string",
          "name": "",
          "type": "string"
        }
      ],
      "stateMutability": "view",
      "type": "function"
    },
    {
      "inputs": [
        {
          "components": [
            {
              "internalType": "bytes32",
              "name": "messageId",
              "type": "bytes32"
            },
            {
              "internalType": "uint64",
              "name": "sourceChainSelector",
              "type": "uint64"
            },
            {
              "internalType": "bytes",
              "name": "sender",
              "type": "bytes"
            },
            {
              "internalType": "bytes",
              "name": "data",
              "type": "bytes"
            },
            {
              "components": [
                {
                  "internalType": "address",
                  "name": "token",
                  "type": "address"
                },
                {
                  "internalType": "uint256",
                  "name": "amount",
                  "type": "uint256"
                }
              ],
              "internalType": "struct Client.EVMTokenAmount[]",
              "name": "destTokenAmounts",
              "type": "tuple[]"
            }
          ],
          "internalType": "struct Client.Any2EVMMessage",
          "name": "message",
          "type": "tuple"
        }
      ],
      "name": "ccipReceive",
      "outputs": [],
      "stateMutability": "nonpayable",
      "type": "function"
    },
    {
      "inputs": [
        {
          "internalType": "uint64",
          "name": "",
          "type": "uint64"
        }
      ],
      "name": "chainIdToChainSelector",
      "outputs": [
        {
          "internalType": "uint64",
          "name": "",
          "type": "uint64"
        }
      ],
      "stateMutability": "view",
      "type": "function"
    },
    {
      "inputs": [
        {
          "internalType": "uint64",
          "name": "",
          "type": "uint64"
        }
      ],
      "name": "chains",
      "outputs": [
        {
          "internalType": "address",
          "name": "",
          "type": "address"
        }
      ],
      "stateMutability": "view",
      "type": "function"
    },
    {
      "inputs": [
        {
          "internalType": "uint64",
          "name": "destinationChain",
          "type": "uint64"
        },
        {
          "internalType": "uint256",
          "name": "tokenId",
          "type": "uint256"
        },
        {
          "internalType": "uint256",
          "name": "amount",
          "type": "uint256"
        }
      ],
      "name": "crossChainTransfer",
      "outputs": [
        {
          "internalType": "bytes32",
          "name": "messageId",
          "type": "bytes32"
        }
      ],
      "stateMutability": "payable",
      "type": "function"
    },
    {
      "inputs": [
        {
          "internalType": "uint64",
          "name": "destinationChain",
          "type": "uint64"
        },
        {
          "internalType": "uint256",
          "name": "tokenId",
          "type": "uint256"
        },
        {
          "internalType": "uint256",
          "name": "amount",
          "type": "uint256"
        },
        {
          "internalType": "address",
          "name": "msgSender",
          "type": "address"
        }
      ],
      "name": "getLinkFees",
      "outputs": [
        {
          "internalType": "uint256",
          "name": "fees",
          "type": "uint256"
        }
      ],
      "stateMutability": "view",
      "type": "function"
    },
    {
      "inputs": [],
      "name": "getRouter",
      "outputs": [
        {
          "internalType": "address",
          "name": "",
          "type": "address"
        }
      ],
      "stateMutability": "view",
      "type": "function"
    },
    {
      "inputs": [],
      "name": "i_link",
      "outputs": [
        {
          "internalType": "contract LinkTokenInterface",
          "name": "",
          "type": "address"
        }
      ],
      "stateMutability": "view",
      "type": "function"
    },
    {
      "inputs": [
        {
          "internalType": "address",
          "name": "account",
          "type": "address"
        },
        {
          "internalType": "address",
          "name": "operator",
          "type": "address"
        }
      ],
      "name": "isApprovedForAll",
      "outputs": [
        {
          "internalType": "bool",
          "name": "",
          "type": "bool"
        }
      ],
      "stateMutability": "view",
      "type": "function"
    },
    {
      "inputs": [
        {
          "internalType": "address",
          "name": "forwarder",
          "type": "address"
        }
      ],
      "name": "isTrustedForwarder",
      "outputs": [
        {
          "internalType": "bool",
          "name": "",
          "type": "bool"
        }
      ],
      "stateMutability": "view",
      "type": "function"
    },
    {
      "inputs": [
        {
          "internalType": "uint256",
          "name": "amount",
          "type": "uint256"
        }
      ],
      "name": "mint",
      "outputs": [],
      "stateMutability": "nonpayable",
      "type": "function"
    },
    {
      "inputs": [
        {
          "internalType": "uint256",
          "name": "id",
          "type": "uint256"
        },
        {
          "internalType": "uint256",
          "name": "amount",
          "type": "uint256"
        }
      ],
      "name": "mintMore",
      "outputs": [],
      "stateMutability": "nonpayable",
      "type": "function"
    },
    {
      "inputs": [],
      "name": "owner",
      "outputs": [
        {
          "internalType": "address",
          "name": "",
          "type": "address"
        }
      ],
      "stateMutability": "view",
      "type": "function"
    },
    {
      "inputs": [],
      "name": "renounceOwnership",
      "outputs": [],
      "stateMutability": "nonpayable",
      "type": "function"
    },
    {
      "inputs": [
        {
          "internalType": "address",
          "name": "from",
          "type": "address"
        },
        {
          "internalType": "address",
          "name": "to",
          "type": "address"
        },
        {
          "internalType": "uint256[]",
          "name": "ids",
          "type": "uint256[]"
        },
        {
          "internalType": "uint256[]",
          "name": "amounts",
          "type": "uint256[]"
        },
        {
          "internalType": "bytes",
          "name": "data",
          "type": "bytes"
        }
      ],
      "name": "safeBatchTransferFrom",
      "outputs": [],
      "stateMutability": "nonpayable",
      "type": "function"
    },
    {
      "inputs": [
        {
          "internalType": "address",
          "name": "from",
          "type": "address"
        },
        {
          "internalType": "address",
          "name": "to",
          "type": "address"
        },
        {
          "internalType": "uint256",
          "name": "id",
          "type": "uint256"
        },
        {
          "internalType": "uint256",
          "name": "amount",
          "type": "uint256"
        },
        {
          "internalType": "bytes",
          "name": "data",
          "type": "bytes"
        }
      ],
      "name": "safeTransferFrom",
      "outputs": [],
      "stateMutability": "nonpayable",
      "type": "function"
    },
    {
      "inputs": [
        {
          "internalType": "address",
          "name": "operator",
          "type": "address"
        },
        {
          "internalType": "bool",
          "name": "approved",
          "type": "bool"
        }
      ],
      "name": "setApprovalForAll",
      "outputs": [],
      "stateMutability": "nonpayable",
      "type": "function"
    },
    {
      "inputs": [
        {
          "internalType": "uint64",
          "name": "chain",
          "type": "uint64"
        },
        {
          "internalType": "address",
          "name": "addr",
          "type": "address"
        }
      ],
      "name": "setChain",
      "outputs": [],
      "stateMutability": "nonpayable",
      "type": "function"
    },
    {
      "inputs": [
        {
          "internalType": "uint64",
          "name": "chain",
          "type": "uint64"
        },
        {
          "internalType": "uint64",
          "name": "selector",
          "type": "uint64"
        }
      ],
      "name": "setChainSelector",
      "outputs": [],
      "stateMutability": "nonpayable",
      "type": "function"
    },
    {
      "inputs": [
        {
          "internalType": "bytes4",
          "name": "interfaceId",
          "type": "bytes4"
        }
      ],
      "name": "supportsInterface",
      "outputs": [
        {
          "internalType": "bool",
          "name": "",
          "type": "bool"
        }
      ],
      "stateMutability": "pure",
      "type": "function"
    },
    {
      "inputs": [
        {
          "internalType": "address",
          "name": "newOwner",
          "type": "address"
        }
      ],
      "name": "transferOwnership",
      "outputs": [],
      "stateMutability": "nonpayable",
      "type": "function"
    },
    {
      "inputs": [
        {
          "internalType": "uint256",
          "name": "id",
          "type": "uint256"
        }
      ],
      "name": "uri",
      "outputs": [
        {
          "internalType": "string",
          "name": "",
          "type": "string"
        }
      ],
      "stateMutability": "view",
      "type": "function"
    },
    {
      "inputs": [],
      "name": "utilCount",
      "outputs": [
        {
          "internalType": "uint256",
          "name": "",
          "type": "uint256"
        }
      ],
      "stateMutability": "view",
      "type": "function"
    }
  ],
  "transactionHash": "0x330e727f000bd0eec8647f1326a170ba7cfdce95850c25bb5d60afc72b423772",
  "args": [
    "https://www.example.com/utils/",
    "0xAdA21730026A539bDa27C2a2997E71023463C3D1",
    "0x779877A7B0D9E8603169DdbD7836e478b4624789",
    "0xd0daae2231e9cb96b94c8512223533293c3693bf"
  ],
  "numDeployments": 5,
  "solcInputHash": "d6ed31d2c2f93c872023ce3de3e18979",
  "bytecode": "0x60e06040523480156200001157600080fd5b5060405162002f4138038062002f41833981016040819052620000349162000266565b6001600160a01b03831660805280846200004e81620000ca565b50620000636200005d620000e3565b620000ff565b6001600160a01b03811662000092576040516335fdcccd60e21b81526000600482015260240160405180910390fd5b6001600160a01b031660a0528351620000b39060049060208701906200018d565b50506001600160a01b031660c05250620003b89050565b8051620000df9060029060208401906200018d565b5050565b6000620000fa6200015160201b6200117c1760201c565b905090565b600380546001600160a01b038381166001600160a01b0319831681179093556040519116919082907f8be0079c531659141344cd1fd0a4f28419497f9722a3daafe3b4186f6b6457e090600090a35050565b6080516000906001600160a01b0316330362000174575060131936013560601c90565b620000fa6200018960201b620011c81760201c565b3390565b8280546200019b906200037c565b90600052602060002090601f016020900481019282620001bf57600085556200020a565b82601f10620001da57805160ff19168380011785556200020a565b828001600101855582156200020a579182015b828111156200020a578251825591602001919060010190620001ed565b50620002189291506200021c565b5090565b5b808211156200021857600081556001016200021d565b634e487b7160e01b600052604160045260246000fd5b80516001600160a01b03811681146200026157600080fd5b919050565b600080600080608085870312156200027d57600080fd5b84516001600160401b03808211156200029557600080fd5b818701915087601f830112620002aa57600080fd5b815181811115620002bf57620002bf62000233565b604051601f8201601f19908116603f01168101908382118183101715620002ea57620002ea62000233565b81604052828152602093508a848487010111156200030757600080fd5b600091505b828210156200032b57848201840151818301850152908301906200030c565b828211156200033d5760008484830101525b97506200034f91505087820162000249565b94505050620003616040860162000249565b9150620003716060860162000249565b905092959194509250565b600181811c908216806200039157607f821691505b602082108103620003b257634e487b7160e01b600052602260045260246000fd5b50919050565b60805160a05160c051612b136200042e6000396000818161031d01528181610ae201528181610be701528181610cda0152610fd40152600081816104900152818161091401528181610b6a01528181610cab01528181610d5f015261105b0152600081816102a601526111800152612b136000f3fe6080604052600436106101655760003560e01c80638d8b65a3116100d1578063ada8bcdc1161008a578063baacbe9b11610064578063baacbe9b146104d4578063e985e9c5146104ea578063f242432a14610533578063f2fde38b1461055357600080fd5b8063ada8bcdc1461044b578063b0f479a114610481578063ba51d7ff146104b457600080fd5b80638d8b65a3146103775780638da5cb5b1461038a5780639abc8320146103a85780639e5b0366146103bd578063a0712d681461040b578063a22cb4651461042b57600080fd5b80635694048c116101235780635694048c14610269578063572b6c0514610289578063715018a6146102d657806378b7926e146102eb5780637d253aff1461030b57806385572ffb1461035757600080fd5b8062fdd58e1461016a57806301ffc9a71461019d5780630e89341c146101cd5780632eb2c2d6146101fa5780634e1273f41461021c5780634f7c055e14610249575b600080fd5b34801561017657600080fd5b5061018a610185366004611d92565b610573565b6040519081526020015b60405180910390f35b3480156101a957600080fd5b506101bd6101b8366004611dd4565b610609565b6040519015158152602001610194565b3480156101d957600080fd5b506101ed6101e8366004611df8565b610694565b6040516101949190611e69565b34801561020657600080fd5b5061021a610215366004612012565b6106c8565b005b34801561022857600080fd5b5061023c6102373660046120bf565b610726565b60405161019491906121c6565b34801561025557600080fd5b5061021a6102643660046121d9565b61084f565b34801561027557600080fd5b5061021a610284366004612217565b61087d565b34801561029557600080fd5b506101bd6102a436600461224e565b7f00000000000000000000000000000000000000000000000000000000000000006001600160a01b0390811691161490565b3480156102e257600080fd5b5061021a6108be565b3480156102f757600080fd5b5061021a61030636600461226b565b6108d2565b34801561031757600080fd5b5061033f7f000000000000000000000000000000000000000000000000000000000000000081565b6040516001600160a01b039091168152602001610194565b34801561036357600080fd5b5061021a61037236600461229e565b610909565b61018a6103853660046122d8565b610968565b34801561039657600080fd5b506003546001600160a01b031661033f565b3480156103b457600080fd5b506101ed610de5565b3480156103c957600080fd5b506103f36103d836600461230b565b6007602052600090815260409020546001600160401b031681565b6040516001600160401b039091168152602001610194565b34801561041757600080fd5b5061021a610426366004611df8565b610e73565b34801561043757600080fd5b5061021a610446366004612334565b610eb8565b34801561045757600080fd5b5061033f61046636600461230b565b6006602052600090815260409020546001600160a01b031681565b34801561048d57600080fd5b507f000000000000000000000000000000000000000000000000000000000000000061033f565b3480156104c057600080fd5b5061018a6104cf366004612362565b610eca565b3480156104e057600080fd5b5061018a60055481565b3480156104f657600080fd5b506101bd6105053660046123aa565b6001600160a01b03918216600090815260016020908152604080832093909416825291909152205460ff1690565b34801561053f57600080fd5b5061021a61054e3660046123c8565b6110af565b34801561055f57600080fd5b5061021a61056e36600461224e565b611106565b60006001600160a01b0383166105e35760405162461bcd60e51b815260206004820152602a60248201527f455243313135353a2061646472657373207a65726f206973206e6f742061207660448201526930b634b21037bbb732b960b11b60648201526084015b60405180910390fd5b506000908152602081815260408083206001600160a01b03949094168352929052205490565b60006001600160e01b03198216636cdb3d1360e11b148061063a57506001600160e01b031982166303a24d0760e21b145b8061065557506001600160e01b031982166385572ffb60e01b145b8061067057506001600160e01b031982166301ffc9a760e01b145b8061067f575061067f826111cc565b8061068e575061068e826111cc565b92915050565b606060046106a183611202565b6040516020016106b2929190612486565b6040516020818303038152906040529050919050565b6106d0611246565b6001600160a01b0316856001600160a01b031614806106f657506106f685610505611246565b6107125760405162461bcd60e51b81526004016105da9061252c565b61071f8585858585611250565b5050505050565b6060815183511461078b5760405162461bcd60e51b815260206004820152602960248201527f455243313135353a206163636f756e747320616e6420696473206c656e677468604482015268040dad2e6dac2e8c6d60bb1b60648201526084016105da565b600083516001600160401b038111156107a6576107a6611e7c565b6040519080825280602002602001820160405280156107cf578160200160208202803683370190505b50905060005b84518110156108475761081a8582815181106107f3576107f361257a565b602002602001015185838151811061080d5761080d61257a565b6020026020010151610573565b82828151811061082c5761082c61257a565b6020908102919091010152610840816125a6565b90506107d5565b509392505050565b610857611438565b610879610862611246565b8383604051806020016040528060008152506114b1565b5050565b610885611438565b6001600160401b0391909116600090815260066020526040902080546001600160a01b0319166001600160a01b03909216919091179055565b6108c6611438565b6108d060006115d0565b565b6108da611438565b6001600160401b039182166000908152600760205260409020805467ffffffffffffffff191691909216179055565b336001600160a01b037f00000000000000000000000000000000000000000000000000000000000000001614610954576040516335fdcccd60e21b81523360048201526024016105da565b61096561096082612660565b611622565b50565b6001600160401b03808416600090815260076020908152604080832054909316825260069052908120546001600160a01b031680156109ba5760405163057f3fa760e51b815260040160405180910390fd5b6109cb6109c5611246565b85610573565b8311156109eb57604051631e9acf1760e31b815260040160405180910390fd5b6109fd6109f6611246565b8585611736565b60008484610a09611246565b6040805160208101949094528301919091526001600160a01b0316606082015260800160408051808303601f1901815260a083019091526001600160a01b03841660c083015291506000908060e08101604051602081830303815290604052815260200183604051602001610a7e9190611e69565b60408051601f1981840301815291905281526020016000604051908082528060200260200182016040528015610ada57816020015b6040805180820190915260008082526020820152815260200190600190039081610ab35790505b5081526020017f00000000000000000000000000000000000000000000000000000000000000006001600160a01b03168152602001610b32604051806040016040528062030d408152602001600015158152506118bd565b90526001600160401b038089166000908152600760205260408082205490516320487ded60e01b815293945090926001600160a01b037f000000000000000000000000000000000000000000000000000000000000000016926320487ded92610ba292911690869060040161270c565b602060405180830381865afa158015610bbf573d6000803e3d6000fd5b505050506040513d601f19601f82011682018060405250810190610be391906127e5565b90507f00000000000000000000000000000000000000000000000000000000000000006001600160a01b03166323b872dd610c1c611246565b6040516001600160e01b031960e084901b1681526001600160a01b039091166004820152306024820152604481018490526064016020604051808303816000875af1158015610c6f573d6000803e3d6000fd5b505050506040513d601f19601f82011682018060405250810190610c9391906127fe565b5060405163095ea7b360e01b81526001600160a01b037f000000000000000000000000000000000000000000000000000000000000000081166004830152602482018390527f0000000000000000000000000000000000000000000000000000000000000000169063095ea7b3906044016020604051808303816000875af1158015610d23573d6000803e3d6000fd5b505050506040513d601f19601f82011682018060405250810190610d4791906127fe565b506040516396f4e9f960e01b81526001600160a01b037f000000000000000000000000000000000000000000000000000000000000000016906396f4e9f990610d96908b90869060040161270c565b6020604051808303816000875af1158015610db5573d6000803e3d6000fd5b505050506040513d601f19601f82011682018060405250810190610dd991906127e5565b98975050505050505050565b60048054610df290612430565b80601f0160208091040260200160405190810160405280929190818152602001828054610e1e90612430565b8015610e6b5780601f10610e4057610100808354040283529160200191610e6b565b820191906000526020600020905b815481529060010190602001808311610e4e57829003601f168201915b505050505081565b610e7b611438565b600160056000828254610e8e919061281b565b909155506109659050610e9f611246565b60055483604051806020016040528060008152506114b1565b610879610ec3611246565b8383611907565b6001600160401b038481166000908152600760209081526040808320549093168252600681528282205483519182018790529281018590526001600160a01b03848116606083015291929190911690829060800160408051808303601f1901815260a083019091526001600160a01b03841660c083015291506000908060e08101604051602081830303815290604052815260200183604051602001610f709190611e69565b60408051601f1981840301815291905281526020016000604051908082528060200260200182016040528015610fcc57816020015b6040805180820190915260008082526020820152815260200190600190039081610fa55790505b5081526020017f00000000000000000000000000000000000000000000000000000000000000006001600160a01b03168152602001611024604051806040016040528062030d408152602001600015158152506118bd565b90526001600160401b03808a16600090815260076020526040908190205490516320487ded60e01b81529293506001600160a01b037f000000000000000000000000000000000000000000000000000000000000000016926320487ded92611092921690859060040161270c565b602060405180830381865afa158015610db5573d6000803e3d6000fd5b6110b7611246565b6001600160a01b0316856001600160a01b031614806110dd57506110dd85610505611246565b6110f95760405162461bcd60e51b81526004016105da9061252c565b61071f85858585856119e7565b61110e611438565b6001600160a01b0381166111735760405162461bcd60e51b815260206004820152602660248201527f4f776e61626c653a206e6577206f776e657220697320746865207a65726f206160448201526564647265737360d01b60648201526084016105da565b610965816115d0565b60007f00000000000000000000000000000000000000000000000000000000000000006001600160a01b031633036111bb575060131936013560601c90565b503390565b905090565b90565b3390565b60006001600160e01b031982166385572ffb60e01b148061068e57506001600160e01b031982166301ffc9a760e01b1492915050565b606060a06040510180604052602081039150506000815280825b600183039250600a81066030018353600a90048061121c5750819003601f19909101908152919050565b60006111c061117c565b81518351146112b25760405162461bcd60e51b815260206004820152602860248201527f455243313135353a2069647320616e6420616d6f756e7473206c656e677468206044820152670dad2e6dac2e8c6d60c31b60648201526084016105da565b6001600160a01b0384166112d85760405162461bcd60e51b81526004016105da90612833565b60006112e2611246565b905060005b84518110156113ca5760008582815181106113045761130461257a565b6020026020010151905060008583815181106113225761132261257a565b602090810291909101810151600084815280835260408082206001600160a01b038e1683529093529190912054909150818110156113725760405162461bcd60e51b81526004016105da90612878565b6000838152602081815260408083206001600160a01b038e8116855292528083208585039055908b168252812080548492906113af90849061281b565b92505081905550505050806113c3906125a6565b90506112e7565b50846001600160a01b0316866001600160a01b0316826001600160a01b03167f4a39dc06d4c0dbc64b70af90fd698a233a518aa5d07e595d983b8c0526c8f7fb878760405161141a9291906128c2565b60405180910390a4611430818787878787611b1c565b505050505050565b611440611246565b6001600160a01b031661145b6003546001600160a01b031690565b6001600160a01b0316146108d05760405162461bcd60e51b815260206004820181905260248201527f4f776e61626c653a2063616c6c6572206973206e6f7420746865206f776e657260448201526064016105da565b6001600160a01b0384166115115760405162461bcd60e51b815260206004820152602160248201527f455243313135353a206d696e7420746f20746865207a65726f206164647265736044820152607360f81b60648201526084016105da565b600061151b611246565b9050600061152885611c77565b9050600061153585611c77565b90506000868152602081815260408083206001600160a01b038b1684529091528120805487929061156790849061281b565b909155505060408051878152602081018790526001600160a01b03808a1692600092918716917fc3d58168c5ae7397731d063d5bbf3d657854427343f4c083240f7aacaa2d0f62910160405180910390a46115c783600089898989611cc2565b50505050505050565b600380546001600160a01b038381166001600160a01b0319831681179093556040519116919082907f8be0079c531659141344cd1fd0a4f28419497f9722a3daafe3b4186f6b6457e090600090a35050565b806040015180602001905181019061163a91906128e7565b604051602001611662919060609190911b6bffffffffffffffffffffffff1916815260140190565b60408051601f198184030181528282528051602091820120848201516001600160401b0390811660009081526007845284812054909116815260068352929092205460601b6bffffffffffffffffffffffff1916908301529060340160405160208183030381529060405280519060200120146116f25760405163057f3fa760e51b815260040160405180910390fd5b6000806000836060015180602001905181019061170f9190612904565b925092509250611730818484604051806020016040528060008152506114b1565b50505050565b6001600160a01b0383166117985760405162461bcd60e51b815260206004820152602360248201527f455243313135353a206275726e2066726f6d20746865207a65726f206164647260448201526265737360e81b60648201526084016105da565b60006117a2611246565b905060006117af84611c77565b905060006117bc84611c77565b60408051602080820183526000918290528882528181528282206001600160a01b038b16835290522054909150848110156118455760405162461bcd60e51b8152602060048201526024808201527f455243313135353a206275726e20616d6f756e7420657863656564732062616c604482015263616e636560e01b60648201526084016105da565b6000868152602081815260408083206001600160a01b038b81168086529184528285208a8703905582518b81529384018a90529092908816917fc3d58168c5ae7397731d063d5bbf3d657854427343f4c083240f7aacaa2d0f62910160405180910390a46040805160208101909152600090526115c7565b6040805182516024820152602092830151151560448083019190915282518083039091018152606490910190915290810180516001600160e01b03166397a657c960e01b17905290565b816001600160a01b0316836001600160a01b03160361197a5760405162461bcd60e51b815260206004820152602960248201527f455243313135353a2073657474696e6720617070726f76616c20737461747573604482015268103337b91039b2b63360b91b60648201526084016105da565b6001600160a01b03838116600081815260016020908152604080832094871680845294825291829020805460ff191686151590811790915591519182527f17307eab39ab6107e8899845ad3d59bd9653f200f220920489ca2b5937696c31910160405180910390a3505050565b6001600160a01b038416611a0d5760405162461bcd60e51b81526004016105da90612833565b6000611a17611246565b90506000611a2485611c77565b90506000611a3185611c77565b90506000868152602081815260408083206001600160a01b038c16845290915290205485811015611a745760405162461bcd60e51b81526004016105da90612878565b6000878152602081815260408083206001600160a01b038d8116855292528083208985039055908a16825281208054889290611ab190849061281b565b909155505060408051888152602081018890526001600160a01b03808b16928c821692918816917fc3d58168c5ae7397731d063d5bbf3d657854427343f4c083240f7aacaa2d0f62910160405180910390a4611b11848a8a8a8a8a611cc2565b505050505050505050565b6001600160a01b0384163b156114305760405163bc197c8160e01b81526001600160a01b0385169063bc197c8190611b60908990899088908890889060040161293d565b6020604051808303816000875af1925050508015611b9b575060408051601f3d908101601f19168201909252611b989181019061298f565b60015b611c4757611ba76129ac565b806308c379a003611be05750611bbb6129c7565b80611bc65750611be2565b8060405162461bcd60e51b81526004016105da9190611e69565b505b60405162461bcd60e51b815260206004820152603460248201527f455243313135353a207472616e7366657220746f206e6f6e2d455243313135356044820152732932b1b2b4bb32b91034b6b83632b6b2b73a32b960611b60648201526084016105da565b6001600160e01b0319811663bc197c8160e01b146115c75760405162461bcd60e51b81526004016105da90612a50565b60408051600180825281830190925260609160009190602080830190803683370190505090508281600081518110611cb157611cb161257a565b602090810291909101015292915050565b6001600160a01b0384163b156114305760405163f23a6e6160e01b81526001600160a01b0385169063f23a6e6190611d069089908990889088908890600401612a98565b6020604051808303816000875af1925050508015611d41575060408051601f3d908101601f19168201909252611d3e9181019061298f565b60015b611d4d57611ba76129ac565b6001600160e01b0319811663f23a6e6160e01b146115c75760405162461bcd60e51b81526004016105da90612a50565b6001600160a01b038116811461096557600080fd5b60008060408385031215611da557600080fd5b8235611db081611d7d565b946020939093013593505050565b6001600160e01b03198116811461096557600080fd5b600060208284031215611de657600080fd5b8135611df181611dbe565b9392505050565b600060208284031215611e0a57600080fd5b5035919050565b60005b83811015611e2c578181015183820152602001611e14565b838111156117305750506000910152565b60008151808452611e55816020860160208601611e11565b601f01601f19169290920160200192915050565b602081526000611df16020830184611e3d565b634e487b7160e01b600052604160045260246000fd5b604081018181106001600160401b0382111715611eb157611eb1611e7c565b60405250565b601f8201601f191681016001600160401b0381118282101715611edc57611edc611e7c565b6040525050565b60405160a081016001600160401b0381118282101715611f0557611f05611e7c565b60405290565b60006001600160401b03821115611f2457611f24611e7c565b5060051b60200190565b600082601f830112611f3f57600080fd5b81356020611f4c82611f0b565b604051611f598282611eb7565b83815260059390931b8501820192828101915086841115611f7957600080fd5b8286015b84811015611f945780358352918301918301611f7d565b509695505050505050565b600082601f830112611fb057600080fd5b81356001600160401b03811115611fc957611fc9611e7c565b604051611fe0601f8301601f191660200182611eb7565b818152846020838601011115611ff557600080fd5b816020850160208301376000918101602001919091529392505050565b600080600080600060a0868803121561202a57600080fd5b853561203581611d7d565b9450602086013561204581611d7d565b935060408601356001600160401b038082111561206157600080fd5b61206d89838a01611f2e565b9450606088013591508082111561208357600080fd5b61208f89838a01611f2e565b935060808801359150808211156120a557600080fd5b506120b288828901611f9f565b9150509295509295909350565b600080604083850312156120d257600080fd5b82356001600160401b03808211156120e957600080fd5b818501915085601f8301126120fd57600080fd5b8135602061210a82611f0b565b6040516121178282611eb7565b83815260059390931b850182019282810191508984111561213757600080fd5b948201945b8386101561215e57853561214f81611d7d565b8252948201949082019061213c565b9650508601359250508082111561217457600080fd5b5061218185828601611f2e565b9150509250929050565b600081518084526020808501945080840160005b838110156121bb5781518752958201959082019060010161219f565b509495945050505050565b602081526000611df1602083018461218b565b600080604083850312156121ec57600080fd5b50508035926020909101359150565b80356001600160401b038116811461221257600080fd5b919050565b6000806040838503121561222a57600080fd5b612233836121fb565b9150602083013561224381611d7d565b809150509250929050565b60006020828403121561226057600080fd5b8135611df181611d7d565b6000806040838503121561227e57600080fd5b612287836121fb565b9150612295602084016121fb565b90509250929050565b6000602082840312156122b057600080fd5b81356001600160401b038111156122c657600080fd5b820160a08185031215611df157600080fd5b6000806000606084860312156122ed57600080fd5b6122f6846121fb565b95602085013595506040909401359392505050565b60006020828403121561231d57600080fd5b611df1826121fb565b801515811461096557600080fd5b6000806040838503121561234757600080fd5b823561235281611d7d565b9150602083013561224381612326565b6000806000806080858703121561237857600080fd5b612381856121fb565b93506020850135925060408501359150606085013561239f81611d7d565b939692955090935050565b600080604083850312156123bd57600080fd5b823561223381611d7d565b600080600080600060a086880312156123e057600080fd5b85356123eb81611d7d565b945060208601356123fb81611d7d565b9350604086013592506060860135915060808601356001600160401b0381111561242457600080fd5b6120b288828901611f9f565b600181811c9082168061244457607f821691505b60208210810361246457634e487b7160e01b600052602260045260246000fd5b50919050565b6000815161247c818560208601611e11565b9290920192915050565b600080845481600182811c9150808316806124a257607f831692505b602080841082036124c157634e487b7160e01b86526022600452602486fd5b8180156124d557600181146124e657612513565b60ff19861689528489019650612513565b60008b81526020902060005b8681101561250b5781548b8201529085019083016124f2565b505084890196505b505050505050612523818561246a565b95945050505050565b6020808252602e908201527f455243313135353a2063616c6c6572206973206e6f7420746f6b656e206f776e60408201526d195c881bdc88185c1c1c9bdd995960921b606082015260800190565b634e487b7160e01b600052603260045260246000fd5b634e487b7160e01b600052601160045260246000fd5b6000600182016125b8576125b8612590565b5060010190565b600082601f8301126125d057600080fd5b813560206125dd82611f0b565b604080516125eb8382611eb7565b84815260069490941b860183019383810192508785111561260b57600080fd5b8387015b858110156126545782818a0312156126275760008081fd5b825161263281611e92565b813561263d81611d7d565b81528186013586820152845292840192820161260f565b50979650505050505050565b600060a0823603121561267257600080fd5b61267a611ee3565b8235815261268a602084016121fb565b602082015260408301356001600160401b03808211156126a957600080fd5b6126b536838701611f9f565b604084015260608501359150808211156126ce57600080fd5b6126da36838701611f9f565b606084015260808501359150808211156126f357600080fd5b50612700368286016125bf565b60808301525092915050565b600060406001600160401b038516835260208181850152845160a08386015261273860e0860182611e3d565b905081860151603f19808784030160608801526127558383611e3d565b88860151888203830160808a01528051808352908601945060009350908501905b808410156127a857845180516001600160a01b0316835286015186830152938501936001939093019290860190612776565b5060608901516001600160a01b031660a08901526080890151888203830160c08a015295506127d78187611e3d565b9a9950505050505050505050565b6000602082840312156127f757600080fd5b5051919050565b60006020828403121561281057600080fd5b8151611df181612326565b6000821982111561282e5761282e612590565b500190565b60208082526025908201527f455243313135353a207472616e7366657220746f20746865207a65726f206164604082015264647265737360d81b606082015260800190565b6020808252602a908201527f455243313135353a20696e73756666696369656e742062616c616e636520666f60408201526939103a3930b739b332b960b11b606082015260800190565b6040815260006128d5604083018561218b565b8281036020840152612523818561218b565b6000602082840312156128f957600080fd5b8151611df181611d7d565b60008060006060848603121561291957600080fd5b8351925060208401519150604084015161293281611d7d565b809150509250925092565b6001600160a01b0386811682528516602082015260a0604082018190526000906129699083018661218b565b828103606084015261297b818661218b565b90508281036080840152610dd98185611e3d565b6000602082840312156129a157600080fd5b8151611df181611dbe565b600060033d11156111c55760046000803e5060005160e01c90565b600060443d10156129d55790565b6040516003193d81016004833e81513d6001600160401b038160248401118184111715612a0457505050505090565b8285019150815181811115612a1c5750505050505090565b843d8701016020828501011115612a365750505050505090565b612a4560208286010187611eb7565b509095945050505050565b60208082526028908201527f455243313135353a204552433131353552656365697665722072656a656374656040820152676420746f6b656e7360c01b606082015260800190565b6001600160a01b03868116825285166020820152604081018490526060810183905260a060808201819052600090612ad290830184611e3d565b97965050505050505056fea26469706673582212204f64aacee6856741c6a123dede2e7957c5a44209d2f23e3b460798b8c9061d8e64736f6c634300080d0033",
  "devdoc": {
    "kind": "dev",
    "methods": {
      "balanceOf(address,uint256)": {
        "details": "See {IERC1155-balanceOf}. Requirements: - `account` cannot be the zero address."
      },
      "balanceOfBatch(address[],uint256[])": {
        "details": "See {IERC1155-balanceOfBatch}. Requirements: - `accounts` and `ids` must have the same length."
      },
      "ccipReceive((bytes32,uint64,bytes,bytes,(address,uint256)[]))": {
        "details": "Note ensure you check the msg.sender is the OffRampRouter",
        "params": {
          "message": "CCIP Message"
        }
      },
      "getRouter()": {
        "returns": {
          "_0": "i_router address"
        }
      },
      "isApprovedForAll(address,address)": {
        "details": "See {IERC1155-isApprovedForAll}."
      },
      "owner()": {
        "details": "Returns the address of the current owner."
      },
      "renounceOwnership()": {
        "details": "Leaves the contract without owner. It will not be possible to call `onlyOwner` functions. Can only be called by the current owner. NOTE: Renouncing ownership will leave the contract without an owner, thereby disabling any functionality that is only available to the owner."
      },
      "safeBatchTransferFrom(address,address,uint256[],uint256[],bytes)": {
        "details": "See {IERC1155-safeBatchTransferFrom}."
      },
      "safeTransferFrom(address,address,uint256,uint256,bytes)": {
        "details": "See {IERC1155-safeTransferFrom}."
      },
      "setApprovalForAll(address,bool)": {
        "details": "See {IERC1155-setApprovalForAll}."
      },
      "transferOwnership(address)": {
        "details": "Transfers ownership of the contract to a new account (`newOwner`). Can only be called by the current owner."
      }
    },
    "version": 1
  },
  "userdoc": {
    "kind": "user",
    "methods": {
      "ccipReceive((bytes32,uint64,bytes,bytes,(address,uint256)[]))": {
        "notice": "Called by the Router to deliver a message. If this reverts, any token transfers also revert. The message will move to a FAILED state and become available for manual execution."
      },
      "getRouter()": {
        "notice": "Return the current router"
      }
    },
    "version": 1
  },
  "storageLayout": {
    "storage": [
      {
        "astId": 913,
        "contract": "src/UtilsCCIP.sol:Utils",
        "label": "_balances",
        "offset": 0,
        "slot": "0",
        "type": "t_mapping(t_uint256,t_mapping(t_address,t_uint256))"
      },
      {
        "astId": 919,
        "contract": "src/UtilsCCIP.sol:Utils",
        "label": "_operatorApprovals",
        "offset": 0,
        "slot": "1",
        "type": "t_mapping(t_address,t_mapping(t_address,t_bool))"
      },
      {
        "astId": 921,
        "contract": "src/UtilsCCIP.sol:Utils",
        "label": "_uri",
        "offset": 0,
        "slot": "2",
        "type": "t_string_storage"
      },
      {
        "astId": 703,
        "contract": "src/UtilsCCIP.sol:Utils",
        "label": "_owner",
        "offset": 0,
        "slot": "3",
        "type": "t_address"
      },
      {
        "astId": 2761,
        "contract": "src/UtilsCCIP.sol:Utils",
        "label": "baseUri",
        "offset": 0,
        "slot": "4",
        "type": "t_string_storage"
      },
      {
        "astId": 2763,
        "contract": "src/UtilsCCIP.sol:Utils",
        "label": "utilCount",
        "offset": 0,
        "slot": "5",
        "type": "t_uint256"
      },
      {
        "astId": 2770,
        "contract": "src/UtilsCCIP.sol:Utils",
        "label": "chains",
        "offset": 0,
        "slot": "6",
        "type": "t_mapping(t_uint64,t_address)"
      },
      {
        "astId": 2774,
        "contract": "src/UtilsCCIP.sol:Utils",
        "label": "chainIdToChainSelector",
        "offset": 0,
        "slot": "7",
        "type": "t_mapping(t_uint64,t_uint64)"
      }
    ],
    "types": {
      "t_address": {
        "encoding": "inplace",
        "label": "address",
        "numberOfBytes": "20"
      },
      "t_bool": {
        "encoding": "inplace",
        "label": "bool",
        "numberOfBytes": "1"
      },
      "t_mapping(t_address,t_bool)": {
        "encoding": "mapping",
        "key": "t_address",
        "label": "mapping(address => bool)",
        "numberOfBytes": "32",
        "value": "t_bool"
      },
      "t_mapping(t_address,t_mapping(t_address,t_bool))": {
        "encoding": "mapping",
        "key": "t_address",
        "label": "mapping(address => mapping(address => bool))",
        "numberOfBytes": "32",
        "value": "t_mapping(t_address,t_bool)"
      },
      "t_mapping(t_address,t_uint256)": {
        "encoding": "mapping",
        "key": "t_address",
        "label": "mapping(address => uint256)",
        "numberOfBytes": "32",
        "value": "t_uint256"
      },
      "t_mapping(t_uint256,t_mapping(t_address,t_uint256))": {
        "encoding": "mapping",
        "key": "t_uint256",
        "label": "mapping(uint256 => mapping(address => uint256))",
        "numberOfBytes": "32",
        "value": "t_mapping(t_address,t_uint256)"
      },
      "t_mapping(t_uint64,t_address)": {
        "encoding": "mapping",
        "key": "t_uint64",
        "label": "mapping(uint64 => address)",
        "numberOfBytes": "32",
        "value": "t_address"
      },
      "t_mapping(t_uint64,t_uint64)": {
        "encoding": "mapping",
        "key": "t_uint64",
        "label": "mapping(uint64 => uint64)",
        "numberOfBytes": "32",
        "value": "t_uint64"
      },
      "t_string_storage": {
        "encoding": "bytes",
        "label": "string",
        "numberOfBytes": "32"
      },
      "t_uint256": {
        "encoding": "inplace",
        "label": "uint256",
        "numberOfBytes": "32"
      },
      "t_uint64": {
        "encoding": "inplace",
        "label": "uint64",
        "numberOfBytes": "8"
      }
    }
  }
}