{
  "address": "0x76cfdE04F691B93c9993Be24d5FE7667E7A8782C",
  "abi": [
    {
      "inputs": [
        {
          "internalType": "address",
          "name": "trustedForwarder",
          "type": "address"
        }
      ],
      "stateMutability": "nonpayable",
      "type": "constructor"
    },
    {
      "inputs": [
        {
          "internalType": "address",
          "name": "tokenAddress",
          "type": "address"
        },
        {
          "internalType": "uint256",
          "name": "tokenId",
          "type": "uint256"
        }
      ],
      "name": "getToken",
      "outputs": [],
      "stateMutability": "nonpayable",
      "type": "function"
    },
    {
      "inputs": [
        {
          "internalType": "address",
          "name": "forwarder",
          "type": "address"
        }
      ],
      "name": "isTrustedForwarder",
      "outputs": [
        {
          "internalType": "bool",
          "name": "",
          "type": "bool"
        }
      ],
      "stateMutability": "view",
      "type": "function"
    },
    {
      "inputs": [
        {
          "internalType": "address",
          "name": "",
          "type": "address"
        },
        {
          "internalType": "address",
          "name": "",
          "type": "address"
        },
        {
          "internalType": "uint256[]",
          "name": "",
          "type": "uint256[]"
        },
        {
          "internalType": "uint256[]",
          "name": "",
          "type": "uint256[]"
        },
        {
          "internalType": "bytes",
          "name": "",
          "type": "bytes"
        }
      ],
      "name": "onKIP37BatchReceived",
      "outputs": [
        {
          "internalType": "bytes4",
          "name": "",
          "type": "bytes4"
        }
      ],
      "stateMutability": "nonpayable",
      "type": "function"
    },
    {
      "inputs": [
        {
          "internalType": "address",
          "name": "",
          "type": "address"
        },
        {
          "internalType": "address",
          "name": "",
          "type": "address"
        },
        {
          "internalType": "uint256",
          "name": "",
          "type": "uint256"
        },
        {
          "internalType": "uint256",
          "name": "",
          "type": "uint256"
        },
        {
          "internalType": "bytes",
          "name": "",
          "type": "bytes"
        }
      ],
      "name": "onKIP37Received",
      "outputs": [
        {
          "internalType": "bytes4",
          "name": "",
          "type": "bytes4"
        }
      ],
      "stateMutability": "nonpayable",
      "type": "function"
    }
  ],
  "transactionHash": "0x433cffc5f00f3fddbef84396e28231fdaa1353d1a898167c539277d479e8df00",
  "args": [
    "0xCA34FF4068f042203087D475805c4DD8347cE958"
  ],
  "numDeployments": 1,
  "solcInputHash": "f8ac31a76b81bc0864fbf2d9adec4820",
  "bytecode": "0x60a060405234801561001057600080fd5b5060405161056338038061056383398101604081905261002f91610040565b6001600160a01b0316608052610070565b60006020828403121561005257600080fd5b81516001600160a01b038116811461006957600080fd5b9392505050565b6080516104d261009160003960008181607601526101ae01526104d26000f3fe608060405234801561001057600080fd5b506004361061004c5760003560e01c806343d7cce614610051578063572b6c05146100665780639b49e332146100bb578063e78b3325146100f3575b600080fd5b61006461005f36600461020a565b610112565b005b6100a6610074366004610234565b7f00000000000000000000000000000000000000000000000000000000000000006001600160a01b0390811691161490565b60405190151581526020015b60405180910390f35b6100da6100c936600461038d565b634da4f19960e11b95945050505050565b6040516001600160e01b031990911681526020016100b2565b6100da610101366004610437565b63e78b332560e01b95945050505050565b816001600160a01b031663f242432a3061012a6101aa565b6040516001600160e01b031960e085901b1681526001600160a01b0392831660048201529116602482015260448101849052600a606482015260a06084820152600060a482015260c401600060405180830381600087803b15801561018e57600080fd5b505af11580156101a2573d6000803e3d6000fd5b505050505050565b60007f00000000000000000000000000000000000000000000000000000000000000006001600160a01b031633036101e9575060131936013560601c90565b503390565b80356001600160a01b038116811461020557600080fd5b919050565b6000806040838503121561021d57600080fd5b610226836101ee565b946020939093013593505050565b60006020828403121561024657600080fd5b61024f826101ee565b9392505050565b634e487b7160e01b600052604160045260246000fd5b604051601f8201601f1916810167ffffffffffffffff8111828210171561029557610295610256565b604052919050565b600082601f8301126102ae57600080fd5b8135602067ffffffffffffffff8211156102ca576102ca610256565b8160051b6102d982820161026c565b92835284810182019282810190878511156102f357600080fd5b83870192505b84831015610312578235825291830191908301906102f9565b979650505050505050565b600082601f83011261032e57600080fd5b813567ffffffffffffffff81111561034857610348610256565b61035b601f8201601f191660200161026c565b81815284602083860101111561037057600080fd5b816020850160208301376000918101602001919091529392505050565b600080600080600060a086880312156103a557600080fd5b6103ae866101ee565b94506103bc602087016101ee565b9350604086013567ffffffffffffffff808211156103d957600080fd5b6103e589838a0161029d565b945060608801359150808211156103fb57600080fd5b61040789838a0161029d565b9350608088013591508082111561041d57600080fd5b5061042a8882890161031d565b9150509295509295909350565b600080600080600060a0868803121561044f57600080fd5b610458866101ee565b9450610466602087016101ee565b93506040860135925060608601359150608086013567ffffffffffffffff81111561049057600080fd5b61042a8882890161031d56fea26469706673582212205dba581efcb5522e7096c5996027f793d51fe2fb3d49a4ad9b76af672cd26fbd64736f6c634300080d0033",
  "devdoc": {
    "kind": "dev",
    "methods": {},
    "version": 1
  },
  "userdoc": {
    "kind": "user",
    "methods": {},
    "version": 1
  },
  "storageLayout": {
    "storage": [],
    "types": null
  }
}