{
  "address": "0x11DA0f57086a19977E46B548b64166411d839a30",
  "abi": [
    {
      "inputs": [
        {
          "internalType": "uint256",
          "name": "_size",
          "type": "uint256"
        },
        {
          "internalType": "uint256",
          "name": "_perSize",
          "type": "uint256"
        },
        {
          "internalType": "string",
          "name": "_baseUri",
          "type": "string"
        },
        {
          "internalType": "address",
          "name": "_utilsAddress",
          "type": "address"
        }
      ],
      "stateMutability": "nonpayable",
      "type": "constructor"
    },
    {
      "inputs": [],
      "name": "InvalidLength",
      "type": "error"
    },
    {
      "inputs": [],
      "name": "InvalidXIndex",
      "type": "error"
    },
    {
      "inputs": [],
      "name": "InvalidYIndex",
      "type": "error"
    },
    {
      "inputs": [],
      "name": "LandAlreadyOwned",
      "type": "error"
    },
    {
      "inputs": [],
      "name": "NotOwner",
      "type": "error"
    },
    {
      "inputs": [],
      "name": "SizeNotDivisibleByPerSize",
      "type": "error"
    },
    {
      "inputs": [],
      "name": "ZeroPerSize",
      "type": "error"
    },
    {
      "inputs": [],
      "name": "ZeroSize",
      "type": "error"
    },
    {
      "anonymous": false,
      "inputs": [
        {
          "indexed": true,
          "internalType": "address",
          "name": "owner",
          "type": "address"
        },
        {
          "indexed": true,
          "internalType": "address",
          "name": "spender",
          "type": "address"
        },
        {
          "indexed": true,
          "internalType": "uint256",
          "name": "id",
          "type": "uint256"
        }
      ],
      "name": "Approval",
      "type": "event"
    },
    {
      "anonymous": false,
      "inputs": [
        {
          "indexed": true,
          "internalType": "address",
          "name": "owner",
          "type": "address"
        },
        {
          "indexed": true,
          "internalType": "address",
          "name": "operator",
          "type": "address"
        },
        {
          "indexed": false,
          "internalType": "bool",
          "name": "approved",
          "type": "bool"
        }
      ],
      "name": "ApprovalForAll",
      "type": "event"
    },
    {
      "anonymous": false,
      "inputs": [
        {
          "indexed": true,
          "internalType": "address",
          "name": "user",
          "type": "address"
        },
        {
          "indexed": true,
          "internalType": "address",
          "name": "newOwner",
          "type": "address"
        }
      ],
      "name": "OwnershipTransferred",
      "type": "event"
    },
    {
      "anonymous": false,
      "inputs": [
        {
          "indexed": true,
          "internalType": "address",
          "name": "from",
          "type": "address"
        },
        {
          "indexed": true,
          "internalType": "address",
          "name": "to",
          "type": "address"
        },
        {
          "indexed": true,
          "internalType": "uint256",
          "name": "id",
          "type": "uint256"
        }
      ],
      "name": "Transfer",
      "type": "event"
    },
    {
      "inputs": [
        {
          "internalType": "address",
          "name": "spender",
          "type": "address"
        },
        {
          "internalType": "uint256",
          "name": "id",
          "type": "uint256"
        }
      ],
      "name": "approve",
      "outputs": [],
      "stateMutability": "nonpayable",
      "type": "function"
    },
    {
      "inputs": [
        {
          "internalType": "address",
          "name": "owner",
          "type": "address"
        }
      ],
      "name": "balanceOf",
      "outputs": [
        {
          "internalType": "uint256",
          "name": "",
          "type": "uint256"
        }
      ],
      "stateMutability": "view",
      "type": "function"
    },
    {
      "inputs": [],
      "name": "baseUri",
      "outputs": [
        {
          "internalType": "string",
          "name": "",
          "type": "string"
        }
      ],
      "stateMutability": "view",
      "type": "function"
    },
    {
      "inputs": [
        {
          "internalType": "uint256",
          "name": "",
          "type": "uint256"
        }
      ],
      "name": "getApproved",
      "outputs": [
        {
          "internalType": "address",
          "name": "",
          "type": "address"
        }
      ],
      "stateMutability": "view",
      "type": "function"
    },
    {
      "inputs": [
        {
          "internalType": "address",
          "name": "",
          "type": "address"
        },
        {
          "internalType": "address",
          "name": "",
          "type": "address"
        }
      ],
      "name": "isApprovedForAll",
      "outputs": [
        {
          "internalType": "bool",
          "name": "",
          "type": "bool"
        }
      ],
      "stateMutability": "view",
      "type": "function"
    },
    {
      "inputs": [
        {
          "internalType": "uint256",
          "name": "",
          "type": "uint256"
        }
      ],
      "name": "land",
      "outputs": [
        {
          "internalType": "uint256",
          "name": "xIndex",
          "type": "uint256"
        },
        {
          "internalType": "uint256",
          "name": "yIndex",
          "type": "uint256"
        }
      ],
      "stateMutability": "view",
      "type": "function"
    },
    {
      "inputs": [],
      "name": "landCount",
      "outputs": [
        {
          "internalType": "uint256",
          "name": "",
          "type": "uint256"
        }
      ],
      "stateMutability": "view",
      "type": "function"
    },
    {
      "inputs": [
        {
          "internalType": "uint256",
          "name": "",
          "type": "uint256"
        },
        {
          "internalType": "uint256",
          "name": "",
          "type": "uint256"
        }
      ],
      "name": "landIds",
      "outputs": [
        {
          "internalType": "uint256",
          "name": "",
          "type": "uint256"
        }
      ],
      "stateMutability": "view",
      "type": "function"
    },
    {
      "inputs": [
        {
          "internalType": "uint256",
          "name": "",
          "type": "uint256"
        },
        {
          "internalType": "uint256",
          "name": "",
          "type": "uint256"
        }
      ],
      "name": "map",
      "outputs": [
        {
          "internalType": "uint256",
          "name": "",
          "type": "uint256"
        }
      ],
      "stateMutability": "view",
      "type": "function"
    },
    {
      "inputs": [
        {
          "internalType": "uint256",
          "name": "xIndex",
          "type": "uint256"
        },
        {
          "internalType": "uint256",
          "name": "yIndex",
          "type": "uint256"
        }
      ],
      "name": "mint",
      "outputs": [
        {
          "internalType": "uint256",
          "name": "",
          "type": "uint256"
        }
      ],
      "stateMutability": "nonpayable",
      "type": "function"
    },
    {
      "inputs": [],
      "name": "name",
      "outputs": [
        {
          "internalType": "string",
          "name": "",
          "type": "string"
        }
      ],
      "stateMutability": "view",
      "type": "function"
    },
    {
      "inputs": [
        {
          "internalType": "address",
          "name": "",
          "type": "address"
        },
        {
          "internalType": "address",
          "name": "",
          "type": "address"
        },
        {
          "internalType": "uint256[]",
          "name": "",
          "type": "uint256[]"
        },
        {
          "internalType": "uint256[]",
          "name": "",
          "type": "uint256[]"
        },
        {
          "internalType": "bytes",
          "name": "",
          "type": "bytes"
        }
      ],
      "name": "onERC1155BatchReceived",
      "outputs": [
        {
          "internalType": "bytes4",
          "name": "",
          "type": "bytes4"
        }
      ],
      "stateMutability": "nonpayable",
      "type": "function"
    },
    {
      "inputs": [
        {
          "internalType": "address",
          "name": "",
          "type": "address"
        },
        {
          "internalType": "address",
          "name": "",
          "type": "address"
        },
        {
          "internalType": "uint256",
          "name": "",
          "type": "uint256"
        },
        {
          "internalType": "uint256",
          "name": "",
          "type": "uint256"
        },
        {
          "internalType": "bytes",
          "name": "",
          "type": "bytes"
        }
      ],
      "name": "onERC1155Received",
      "outputs": [
        {
          "internalType": "bytes4",
          "name": "",
          "type": "bytes4"
        }
      ],
      "stateMutability": "nonpayable",
      "type": "function"
    },
    {
      "inputs": [],
      "name": "owner",
      "outputs": [
        {
          "internalType": "address",
          "name": "",
          "type": "address"
        }
      ],
      "stateMutability": "view",
      "type": "function"
    },
    {
      "inputs": [
        {
          "internalType": "uint256",
          "name": "id",
          "type": "uint256"
        }
      ],
      "name": "ownerOf",
      "outputs": [
        {
          "internalType": "address",
          "name": "owner",
          "type": "address"
        }
      ],
      "stateMutability": "view",
      "type": "function"
    },
    {
      "inputs": [],
      "name": "perSize",
      "outputs": [
        {
          "internalType": "uint256",
          "name": "",
          "type": "uint256"
        }
      ],
      "stateMutability": "view",
      "type": "function"
    },
    {
      "inputs": [
        {
          "internalType": "uint256",
          "name": "x",
          "type": "uint256"
        },
        {
          "internalType": "uint256",
          "name": "y",
          "type": "uint256"
        },
        {
          "internalType": "uint256",
          "name": "utilId",
          "type": "uint256"
        }
      ],
      "name": "placeItem",
      "outputs": [],
      "stateMutability": "nonpayable",
      "type": "function"
    },
    {
      "inputs": [
        {
          "internalType": "uint256[]",
          "name": "x",
          "type": "uint256[]"
        },
        {
          "internalType": "uint256[]",
          "name": "y",
          "type": "uint256[]"
        },
        {
          "internalType": "uint256[]",
          "name": "utilId",
          "type": "uint256[]"
        }
      ],
      "name": "placeItems",
      "outputs": [],
      "stateMutability": "nonpayable",
      "type": "function"
    },
    {
      "inputs": [
        {
          "internalType": "uint256",
          "name": "x",
          "type": "uint256"
        },
        {
          "internalType": "uint256",
          "name": "y",
          "type": "uint256"
        }
      ],
      "name": "removeItem",
      "outputs": [],
      "stateMutability": "nonpayable",
      "type": "function"
    },
    {
      "inputs": [
        {
          "internalType": "address",
          "name": "from",
          "type": "address"
        },
        {
          "internalType": "address",
          "name": "to",
          "type": "address"
        },
        {
          "internalType": "uint256",
          "name": "id",
          "type": "uint256"
        }
      ],
      "name": "safeTransferFrom",
      "outputs": [],
      "stateMutability": "nonpayable",
      "type": "function"
    },
    {
      "inputs": [
        {
          "internalType": "address",
          "name": "from",
          "type": "address"
        },
        {
          "internalType": "address",
          "name": "to",
          "type": "address"
        },
        {
          "internalType": "uint256",
          "name": "id",
          "type": "uint256"
        },
        {
          "internalType": "bytes",
          "name": "data",
          "type": "bytes"
        }
      ],
      "name": "safeTransferFrom",
      "outputs": [],
      "stateMutability": "nonpayable",
      "type": "function"
    },
    {
      "inputs": [
        {
          "internalType": "address",
          "name": "operator",
          "type": "address"
        },
        {
          "internalType": "bool",
          "name": "approved",
          "type": "bool"
        }
      ],
      "name": "setApprovalForAll",
      "outputs": [],
      "stateMutability": "nonpayable",
      "type": "function"
    },
    {
      "inputs": [],
      "name": "size",
      "outputs": [
        {
          "internalType": "uint256",
          "name": "",
          "type": "uint256"
        }
      ],
      "stateMutability": "view",
      "type": "function"
    },
    {
      "inputs": [
        {
          "internalType": "bytes4",
          "name": "interfaceId",
          "type": "bytes4"
        }
      ],
      "name": "supportsInterface",
      "outputs": [
        {
          "internalType": "bool",
          "name": "",
          "type": "bool"
        }
      ],
      "stateMutability": "view",
      "type": "function"
    },
    {
      "inputs": [],
      "name": "symbol",
      "outputs": [
        {
          "internalType": "string",
          "name": "",
          "type": "string"
        }
      ],
      "stateMutability": "view",
      "type": "function"
    },
    {
      "inputs": [
        {
          "internalType": "uint256",
          "name": "id",
          "type": "uint256"
        }
      ],
      "name": "tokenURI",
      "outputs": [
        {
          "internalType": "string",
          "name": "",
          "type": "string"
        }
      ],
      "stateMutability": "view",
      "type": "function"
    },
    {
      "inputs": [
        {
          "internalType": "address",
          "name": "from",
          "type": "address"
        },
        {
          "internalType": "address",
          "name": "to",
          "type": "address"
        },
        {
          "internalType": "uint256",
          "name": "id",
          "type": "uint256"
        }
      ],
      "name": "transferFrom",
      "outputs": [],
      "stateMutability": "nonpayable",
      "type": "function"
    },
    {
      "inputs": [
        {
          "internalType": "address",
          "name": "newOwner",
          "type": "address"
        }
      ],
      "name": "transferOwnership",
      "outputs": [],
      "stateMutability": "nonpayable",
      "type": "function"
    },
    {
      "inputs": [
        {
          "internalType": "uint256",
          "name": "x",
          "type": "uint256"
        },
        {
          "internalType": "uint256",
          "name": "y",
          "type": "uint256"
        },
        {
          "internalType": "uint256",
          "name": "utilId",
          "type": "uint256"
        }
      ],
      "name": "updateItem",
      "outputs": [],
      "stateMutability": "nonpayable",
      "type": "function"
    },
    {
      "inputs": [
        {
          "internalType": "uint256[]",
          "name": "x",
          "type": "uint256[]"
        },
        {
          "internalType": "uint256[]",
          "name": "y",
          "type": "uint256[]"
        },
        {
          "internalType": "uint256[]",
          "name": "utilId",
          "type": "uint256[]"
        }
      ],
      "name": "updateItems",
      "outputs": [],
      "stateMutability": "nonpayable",
      "type": "function"
    },
    {
      "inputs": [],
      "name": "utilCount",
      "outputs": [
        {
          "internalType": "uint256",
          "name": "",
          "type": "uint256"
        }
      ],
      "stateMutability": "view",
      "type": "function"
    },
    {
      "inputs": [],
      "name": "utilsAddress",
      "outputs": [
        {
          "internalType": "address",
          "name": "",
          "type": "address"
        }
      ],
      "stateMutability": "view",
      "type": "function"
    }
  ],
  "transactionHash": "0xf14a7a5539a20ee5469a82bd10f4e3af05367504175ff966ceff3067b36e3579",
  "args": [
    15,
    5,
    "https://www.example.com/map/",
    "0xCA34FF4068f042203087D475805c4DD8347cE958"
  ],
  "numDeployments": 1,
  "solcInputHash": "b07f161cdf4c96f93038d6d2ea7d98f3",
  "bytecode": "0x60806040523480156200001157600080fd5b5060405162001f0c38038062001f0c83398101604081905262000034916200027c565b336040518060400160405280600381526020016204d61760ec1b8152506040518060400160405280600381526020016204d41560ec1b815250816000908051906020019062000085929190620001a3565b5080516200009b906001906020840190620001a3565b5050600680546001600160a01b0319166001600160a01b0384169081179091556040519091506000907f8be0079c531659141344cd1fd0a4f28419497f9722a3daafe3b4186f6b6457e0908290a350836000036200010c5760405163c459d23f60e01b815260040160405180910390fd5b826000036200012e57604051630c110df560e41b815260040160405180910390fd5b6007849055600883905562000144838562000382565b156200016357604051632b0baa0760e11b815260040160405180910390fd5b81516200017890600a906020850190620001a3565b50600c80546001600160a01b0319166001600160a01b039290921691909117905550620003e1915050565b828054620001b190620003a5565b90600052602060002090601f016020900481019282620001d5576000855562000220565b82601f10620001f057805160ff191683800117855562000220565b8280016001018555821562000220579182015b828111156200022057825182559160200191906001019062000203565b506200022e92915062000232565b5090565b5b808211156200022e576000815560010162000233565b634e487b7160e01b600052604160045260246000fd5b80516001600160a01b03811681146200027757600080fd5b919050565b600080600080608085870312156200029357600080fd5b845160208087015160408801519296509450906001600160401b0380821115620002bc57600080fd5b818801915088601f830112620002d157600080fd5b815181811115620002e657620002e662000249565b604051601f8201601f19908116603f0116810190838211818310171562000311576200031162000249565b816040528281528b868487010111156200032a57600080fd5b600093505b828410156200034e57848401860151818501870152928501926200032f565b82841115620003605760008684830101525b80975050505050505062000377606086016200025f565b905092959194509250565b600082620003a057634e487b7160e01b600052601260045260246000fd5b500690565b600181811c90821680620003ba57607f821691505b602082108103620003db57634e487b7160e01b600052602260045260246000fd5b50919050565b611b1b80620003f16000396000f3fe608060405234801561001057600080fd5b50600436106101f05760003560e01c8063949d225d1161010f578063baacbe9b116100a2578063e985e9c511610071578063e985e9c51461049e578063f23a6e61146104cc578063f2fde38b146104eb578063fb9bb97f146104fe57600080fd5b8063baacbe9b14610441578063bc197c811461044a578063c87b56dd14610482578063d7bce6581461049557600080fd5b8063a22cb465116100de578063a22cb465146103e7578063a90b9128146103fa578063ae9deae414610425578063b88d4fde1461042e57600080fd5b8063949d225d146103bb57806395d89b41146103c457806395f5b17a146103cc5780639abc8320146103df57600080fd5b806342842e0e1161018757806370a082311161015657806370a0823114610346578063861e465614610359578063870fc347146103955780638da5cb5b146103a857600080fd5b806342842e0e146102fa578063512c4aaf1461030d578063539447d4146103205780636352211e1461033357600080fd5b80630d0637b3116101c35780630d0637b31461028857806319579a541461029b5780631b2ef1ca146102d457806323b872dd146102e757600080fd5b806301ffc9a7146101f557806306fdde031461021d578063081812fc14610232578063095ea7b314610273575b600080fd5b610208610203366004611367565b610511565b60405190151581526020015b60405180910390f35b610225610563565b60405161021491906113b7565b61025b6102403660046113ea565b6004602052600090815260409020546001600160a01b031681565b6040516001600160a01b039091168152602001610214565b61028661028136600461141a565b6105f1565b005b61028661029636600461150b565b6106d8565b6102c66102a9366004611593565b600d60209081526000928352604080842090915290825290205481565b604051908152602001610214565b6102c66102e2366004611593565b610796565b6102866102f53660046115b5565b6108a3565b6102866103083660046115b5565b610a6a565b600c5461025b906001600160a01b031681565b61028661032e3660046115f1565b610b62565b61025b6103413660046113ea565b610b7f565b6102c661035436600461161d565b610bd6565b6103806103673660046113ea565b600e602052600090815260409020805460019091015482565b60408051928352602083019190915201610214565b6102866103a3366004611593565b610c39565b60065461025b906001600160a01b031681565b6102c660075481565b610225610d7c565b6102866103da3660046115f1565b610d89565b610225610f1d565b6102866103f5366004611638565b610f2a565b6102c6610408366004611593565b600f60209081526000928352604080842090915290825290205481565b6102c660085481565b61028661043c366004611674565b610f96565b6102c6600b5481565b61046961045836600461177f565b63bc197c8160e01b95945050505050565b6040516001600160e01b03199091168152602001610214565b6102256104903660046113ea565b61107e565b6102c660095481565b6102086104ac366004611829565b600560209081526000928352604080842090915290825290205460ff1681565b6104696104da36600461185c565b63f23a6e6160e01b95945050505050565b6102866104f936600461161d565b6110b2565b61028661050c36600461150b565b611147565b60006301ffc9a760e01b6001600160e01b03198316148061054257506380ac58cd60e01b6001600160e01b03198316145b8061055d5750635b5e139f60e01b6001600160e01b03198316145b92915050565b60008054610570906118c1565b80601f016020809104026020016040519081016040528092919081815260200182805461059c906118c1565b80156105e95780601f106105be576101008083540402835291602001916105e9565b820191906000526020600020905b8154815290600101906020018083116105cc57829003601f168201915b505050505081565b6000818152600260205260409020546001600160a01b03163381148061063a57506001600160a01b038116600090815260056020908152604080832033845290915290205460ff165b61067c5760405162461bcd60e51b815260206004820152600e60248201526d1393d517d055551213d49256915160921b60448201526064015b60405180910390fd5b60008281526004602052604080822080546001600160a01b0319166001600160a01b0387811691821790925591518593918516917f8c5be1e5ebec7d5bd14f71427d1e84f3dd0314c0f7b2291e5b200ac8c7c3b92591a4505050565b81518351146106fa5760405163251f56a160e21b815260040160405180910390fd5b805183511461071c5760405163251f56a160e21b815260040160405180910390fd5b60005b83518110156107905761077e84828151811061073d5761073d6118fb565b6020026020010151848381518110610757576107576118fb565b6020026020010151848481518110610771576107716118fb565b6020026020010151610d89565b8061078881611927565b91505061071f565b50505050565b60006008546007546107a89190611940565b83106107c75760405163c24c736760e01b815260040160405180910390fd5b6008546007546107d79190611940565b82106107f657604051634665aadb60e11b815260040160405180910390fd5b6000838152600d602090815260408083208584529091529020541561082e576040516306a9893b60e51b815260040160405180910390fd5b6001600960008282546108419190611962565b9091555050600980546000858152600d60209081526040808320878452825280832084905580518082018252888152808301888152948452600e909252909120905181559051600190910155546108999033906111ff565b5060095492915050565b6000818152600260205260409020546001600160a01b038481169116146108f95760405162461bcd60e51b815260206004820152600a60248201526957524f4e475f46524f4d60b01b6044820152606401610673565b6001600160a01b0382166109435760405162461bcd60e51b81526020600482015260116024820152701253959053125117d49150d25412515395607a1b6044820152606401610673565b336001600160a01b038416148061097d57506001600160a01b038316600090815260056020908152604080832033845290915290205460ff165b8061099e57506000818152600460205260409020546001600160a01b031633145b6109db5760405162461bcd60e51b815260206004820152600e60248201526d1393d517d055551213d49256915160921b6044820152606401610673565b6001600160a01b0380841660008181526003602090815260408083208054600019019055938616808352848320805460010190558583526002825284832080546001600160a01b03199081168317909155600490925284832080549092169091559251849392917fddf252ad1be2c89b69c2b068fc378daa952ba7f163c4a11628f55a4df523b3ef91a4505050565b610a758383836108a3565b6001600160a01b0382163b1580610b1e5750604051630a85bd0160e11b8082523360048301526001600160a01b03858116602484015260448301849052608060648401526000608484015290919084169063150b7a029060a4016020604051808303816000875af1158015610aee573d6000803e3d6000fd5b505050506040513d601f19601f82011682018060405250810190610b12919061197a565b6001600160e01b031916145b610b5d5760405162461bcd60e51b815260206004820152601060248201526f155394d0519157d49150d2541251539560821b6044820152606401610673565b505050565b80600003610b7457610b5d8383610c39565b610b5d838383610d89565b6000818152600260205260409020546001600160a01b031680610bd15760405162461bcd60e51b815260206004820152600a6024820152691393d517d3525395115160b21b6044820152606401610673565b919050565b60006001600160a01b038216610c1d5760405162461bcd60e51b815260206004820152600c60248201526b5a45524f5f4144445245535360a01b6044820152606401610673565b506001600160a01b031660009081526003602052604090205490565b610c80600d600060085485610c4e9190611940565b8152602001908152602001600020600060085484610c6c9190611940565b815260200190815260200160002054610b7f565b6001600160a01b0316336001600160a01b031614610cb1576040516330cd747160e01b815260040160405180910390fd5b600c546000838152600f602090815260408083208584529091529020546001600160a01b039091169015610d5f576000838152600f6020908152604080832085845290915290819020549051637921219560e11b81526001600160a01b0383169163f242432a91610d2c913091339190600190600401611997565b600060405180830381600087803b158015610d4657600080fd5b505af1158015610d5a573d6000803e3d6000fd5b505050505b506000918252600f60209081526040808420928452919052812055565b60018054610570906118c1565b610dbc600d600060085486610d9e9190611940565b8152602001908152602001600020600060085485610c6c9190611940565b6001600160a01b0316336001600160a01b031614610ded576040516330cd747160e01b815260040160405180910390fd5b600c546000848152600f602090815260408083208684529091529020546001600160a01b039091169015610e9b576000848152600f6020908152604080832086845290915290819020549051637921219560e11b81526001600160a01b0383169163f242432a91610e68913091339190600190600401611997565b600060405180830381600087803b158015610e8257600080fd5b505af1158015610e96573d6000803e3d6000fd5b505050505b604051637921219560e11b81526001600160a01b0382169063f242432a90610ece90339030908790600190600401611997565b600060405180830381600087803b158015610ee857600080fd5b505af1158015610efc573d6000803e3d6000fd5b50505060009485525050600f60209081526040808520938552929052912055565b600a8054610570906118c1565b3360008181526005602090815260408083206001600160a01b03871680855290835292819020805460ff191686151590811790915590519081529192917f17307eab39ab6107e8899845ad3d59bd9653f200f220920489ca2b5937696c31910160405180910390a35050565b610fa18585856108a3565b6001600160a01b0384163b15806110385750604051630a85bd0160e11b808252906001600160a01b0386169063150b7a0290610fe99033908a908990899089906004016119cf565b6020604051808303816000875af1158015611008573d6000803e3d6000fd5b505050506040513d601f19601f8201168201806040525081019061102c919061197a565b6001600160e01b031916145b6110775760405162461bcd60e51b815260206004820152601060248201526f155394d0519157d49150d2541251539560821b6044820152606401610673565b5050505050565b6060600a61108b8361130a565b60405160200161109c929190611a3f565b6040516020818303038152906040529050919050565b6006546001600160a01b031633146110fb5760405162461bcd60e51b815260206004820152600c60248201526b15539055551213d49256915160a21b6044820152606401610673565b600680546001600160a01b0319166001600160a01b03831690811790915560405133907f8be0079c531659141344cd1fd0a4f28419497f9722a3daafe3b4186f6b6457e090600090a350565b81518351146111695760405163251f56a160e21b815260040160405180910390fd5b805183511461118b5760405163251f56a160e21b815260040160405180910390fd5b60005b8351811015610790576111ed8482815181106111ac576111ac6118fb565b60200260200101518483815181106111c6576111c66118fb565b60200260200101518484815181106111e0576111e06118fb565b6020026020010151610b62565b806111f781611927565b91505061118e565b6001600160a01b0382166112495760405162461bcd60e51b81526020600482015260116024820152701253959053125117d49150d25412515395607a1b6044820152606401610673565b6000818152600260205260409020546001600160a01b03161561129f5760405162461bcd60e51b815260206004820152600e60248201526d1053149150511657d3525395115160921b6044820152606401610673565b6001600160a01b038216600081815260036020908152604080832080546001019055848352600290915280822080546001600160a01b0319168417905551839291907fddf252ad1be2c89b69c2b068fc378daa952ba7f163c4a11628f55a4df523b3ef908290a45050565b606060a06040510180604052602081039150506000815280825b600183039250600a81066030018353600a9004806113245750819003601f19909101908152919050565b6001600160e01b03198116811461136457600080fd5b50565b60006020828403121561137957600080fd5b81356113848161134e565b9392505050565b60005b838110156113a657818101518382015260200161138e565b838111156107905750506000910152565b60208152600082518060208401526113d681604085016020870161138b565b601f01601f19169190910160400192915050565b6000602082840312156113fc57600080fd5b5035919050565b80356001600160a01b0381168114610bd157600080fd5b6000806040838503121561142d57600080fd5b61143683611403565b946020939093013593505050565b634e487b7160e01b600052604160045260246000fd5b604051601f8201601f1916810167ffffffffffffffff8111828210171561148357611483611444565b604052919050565b600082601f83011261149c57600080fd5b8135602067ffffffffffffffff8211156114b8576114b8611444565b8160051b6114c782820161145a565b92835284810182019282810190878511156114e157600080fd5b83870192505b84831015611500578235825291830191908301906114e7565b979650505050505050565b60008060006060848603121561152057600080fd5b833567ffffffffffffffff8082111561153857600080fd5b6115448783880161148b565b9450602086013591508082111561155a57600080fd5b6115668783880161148b565b9350604086013591508082111561157c57600080fd5b506115898682870161148b565b9150509250925092565b600080604083850312156115a657600080fd5b50508035926020909101359150565b6000806000606084860312156115ca57600080fd5b6115d384611403565b92506115e160208501611403565b9150604084013590509250925092565b60008060006060848603121561160657600080fd5b505081359360208301359350604090920135919050565b60006020828403121561162f57600080fd5b61138482611403565b6000806040838503121561164b57600080fd5b61165483611403565b91506020830135801515811461166957600080fd5b809150509250929050565b60008060008060006080868803121561168c57600080fd5b61169586611403565b94506116a360208701611403565b935060408601359250606086013567ffffffffffffffff808211156116c757600080fd5b818801915088601f8301126116db57600080fd5b8135818111156116ea57600080fd5b8960208285010111156116fc57600080fd5b9699959850939650602001949392505050565b600082601f83011261172057600080fd5b813567ffffffffffffffff81111561173a5761173a611444565b61174d601f8201601f191660200161145a565b81815284602083860101111561176257600080fd5b816020850160208301376000918101602001919091529392505050565b600080600080600060a0868803121561179757600080fd5b6117a086611403565b94506117ae60208701611403565b9350604086013567ffffffffffffffff808211156117cb57600080fd5b6117d789838a0161148b565b945060608801359150808211156117ed57600080fd5b6117f989838a0161148b565b9350608088013591508082111561180f57600080fd5b5061181c8882890161170f565b9150509295509295909350565b6000806040838503121561183c57600080fd5b61184583611403565b915061185360208401611403565b90509250929050565b600080600080600060a0868803121561187457600080fd5b61187d86611403565b945061188b60208701611403565b93506040860135925060608601359150608086013567ffffffffffffffff8111156118b557600080fd5b61181c8882890161170f565b600181811c908216806118d557607f821691505b6020821081036118f557634e487b7160e01b600052602260045260246000fd5b50919050565b634e487b7160e01b600052603260045260246000fd5b634e487b7160e01b600052601160045260246000fd5b60006001820161193957611939611911565b5060010190565b60008261195d57634e487b7160e01b600052601260045260246000fd5b500490565b6000821982111561197557611975611911565b500190565b60006020828403121561198c57600080fd5b81516113848161134e565b6001600160a01b0394851681529290931660208301526040820152606081019190915260a06080820181905260009082015260c00190565b6001600160a01b038681168252851660208201526040810184905260806060820181905281018290526000828460a0840137600060a0848401015260a0601f19601f85011683010190509695505050505050565b60008151611a3581856020860161138b565b9290920192915050565b600080845481600182811c915080831680611a5b57607f831692505b60208084108203611a7a57634e487b7160e01b86526022600452602486fd5b818015611a8e5760018114611a9f57611acc565b60ff19861689528489019650611acc565b60008b81526020902060005b86811015611ac45781548b820152908501908301611aab565b505084890196505b505050505050611adc8185611a23565b9594505050505056fea26469706673582212208782c4d2bb53b322229421d7e136e90637e11a7858ae0ef503ea09f75b0a28f364736f6c634300080d0033",
  "devdoc": {
    "kind": "dev",
    "methods": {},
    "version": 1
  },
  "userdoc": {
    "kind": "user",
    "methods": {},
    "version": 1
  },
  "storageLayout": {
    "storage": [
      {
        "astId": 767,
        "contract": "src/Map.sol:Map",
        "label": "name",
        "offset": 0,
        "slot": "0",
        "type": "t_string_storage"
      },
      {
        "astId": 769,
        "contract": "src/Map.sol:Map",
        "label": "symbol",
        "offset": 0,
        "slot": "1",
        "type": "t_string_storage"
      },
      {
        "astId": 780,
        "contract": "src/Map.sol:Map",
        "label": "_ownerOf",
        "offset": 0,
        "slot": "2",
        "type": "t_mapping(t_uint256,t_address)"
      },
      {
        "astId": 784,
        "contract": "src/Map.sol:Map",
        "label": "_balanceOf",
        "offset": 0,
        "slot": "3",
        "type": "t_mapping(t_address,t_uint256)"
      },
      {
        "astId": 833,
        "contract": "src/Map.sol:Map",
        "label": "getApproved",
        "offset": 0,
        "slot": "4",
        "type": "t_mapping(t_uint256,t_address)"
      },
      {
        "astId": 839,
        "contract": "src/Map.sol:Map",
        "label": "isApprovedForAll",
        "offset": 0,
        "slot": "5",
        "type": "t_mapping(t_address,t_mapping(t_address,t_bool))"
      },
      {
        "astId": 10,
        "contract": "src/Map.sol:Map",
        "label": "owner",
        "offset": 0,
        "slot": "6",
        "type": "t_address"
      },
      {
        "astId": 1381,
        "contract": "src/Map.sol:Map",
        "label": "size",
        "offset": 0,
        "slot": "7",
        "type": "t_uint256"
      },
      {
        "astId": 1383,
        "contract": "src/Map.sol:Map",
        "label": "perSize",
        "offset": 0,
        "slot": "8",
        "type": "t_uint256"
      },
      {
        "astId": 1385,
        "contract": "src/Map.sol:Map",
        "label": "landCount",
        "offset": 0,
        "slot": "9",
        "type": "t_uint256"
      },
      {
        "astId": 1387,
        "contract": "src/Map.sol:Map",
        "label": "baseUri",
        "offset": 0,
        "slot": "10",
        "type": "t_string_storage"
      },
      {
        "astId": 1389,
        "contract": "src/Map.sol:Map",
        "label": "utilCount",
        "offset": 0,
        "slot": "11",
        "type": "t_uint256"
      },
      {
        "astId": 1391,
        "contract": "src/Map.sol:Map",
        "label": "utilsAddress",
        "offset": 0,
        "slot": "12",
        "type": "t_address"
      },
      {
        "astId": 1397,
        "contract": "src/Map.sol:Map",
        "label": "landIds",
        "offset": 0,
        "slot": "13",
        "type": "t_mapping(t_uint256,t_mapping(t_uint256,t_uint256))"
      },
      {
        "astId": 1402,
        "contract": "src/Map.sol:Map",
        "label": "land",
        "offset": 0,
        "slot": "14",
        "type": "t_mapping(t_uint256,t_struct(Land)1379_storage)"
      },
      {
        "astId": 1408,
        "contract": "src/Map.sol:Map",
        "label": "map",
        "offset": 0,
        "slot": "15",
        "type": "t_mapping(t_uint256,t_mapping(t_uint256,t_uint256))"
      }
    ],
    "types": {
      "t_address": {
        "encoding": "inplace",
        "label": "address",
        "numberOfBytes": "20"
      },
      "t_bool": {
        "encoding": "inplace",
        "label": "bool",
        "numberOfBytes": "1"
      },
      "t_mapping(t_address,t_bool)": {
        "encoding": "mapping",
        "key": "t_address",
        "label": "mapping(address => bool)",
        "numberOfBytes": "32",
        "value": "t_bool"
      },
      "t_mapping(t_address,t_mapping(t_address,t_bool))": {
        "encoding": "mapping",
        "key": "t_address",
        "label": "mapping(address => mapping(address => bool))",
        "numberOfBytes": "32",
        "value": "t_mapping(t_address,t_bool)"
      },
      "t_mapping(t_address,t_uint256)": {
        "encoding": "mapping",
        "key": "t_address",
        "label": "mapping(address => uint256)",
        "numberOfBytes": "32",
        "value": "t_uint256"
      },
      "t_mapping(t_uint256,t_address)": {
        "encoding": "mapping",
        "key": "t_uint256",
        "label": "mapping(uint256 => address)",
        "numberOfBytes": "32",
        "value": "t_address"
      },
      "t_mapping(t_uint256,t_mapping(t_uint256,t_uint256))": {
        "encoding": "mapping",
        "key": "t_uint256",
        "label": "mapping(uint256 => mapping(uint256 => uint256))",
        "numberOfBytes": "32",
        "value": "t_mapping(t_uint256,t_uint256)"
      },
      "t_mapping(t_uint256,t_struct(Land)1379_storage)": {
        "encoding": "mapping",
        "key": "t_uint256",
        "label": "mapping(uint256 => struct Map.Land)",
        "numberOfBytes": "32",
        "value": "t_struct(Land)1379_storage"
      },
      "t_mapping(t_uint256,t_uint256)": {
        "encoding": "mapping",
        "key": "t_uint256",
        "label": "mapping(uint256 => uint256)",
        "numberOfBytes": "32",
        "value": "t_uint256"
      },
      "t_string_storage": {
        "encoding": "bytes",
        "label": "string",
        "numberOfBytes": "32"
      },
      "t_struct(Land)1379_storage": {
        "encoding": "inplace",
        "label": "struct Map.Land",
        "members": [
          {
            "astId": 1376,
            "contract": "src/Map.sol:Map",
            "label": "xIndex",
            "offset": 0,
            "slot": "0",
            "type": "t_uint256"
          },
          {
            "astId": 1378,
            "contract": "src/Map.sol:Map",
            "label": "yIndex",
            "offset": 0,
            "slot": "1",
            "type": "t_uint256"
          }
        ],
        "numberOfBytes": "64"
      },
      "t_uint256": {
        "encoding": "inplace",
        "label": "uint256",
        "numberOfBytes": "32"
      }
    }
  }
}