{
  "abi": [
    {
      "inputs": [
        {
          "internalType": "address",
          "name": "trustedForwarder",
          "type": "address"
        }
      ],
      "stateMutability": "nonpayable",
      "type": "constructor"
    },
    {
      "inputs": [
        {
          "internalType": "address",
          "name": "tokenAddress",
          "type": "address"
        },
        {
          "internalType": "uint256",
          "name": "tokenId",
          "type": "uint256"
        }
      ],
      "name": "getToken",
      "outputs": [],
      "stateMutability": "nonpayable",
      "type": "function"
    },
    {
      "inputs": [
        {
          "internalType": "address",
          "name": "forwarder",
          "type": "address"
        }
      ],
      "name": "isTrustedForwarder",
      "outputs": [
        {
          "internalType": "bool",
          "name": "",
          "type": "bool"
        }
      ],
      "stateMutability": "view",
      "type": "function"
    },
    {
      "inputs": [
        {
          "internalType": "address",
          "name": "",
          "type": "address"
        },
        {
          "internalType": "address",
          "name": "",
          "type": "address"
        },
        {
          "internalType": "uint256[]",
          "name": "",
          "type": "uint256[]"
        },
        {
          "internalType": "uint256[]",
          "name": "",
          "type": "uint256[]"
        },
        {
          "internalType": "bytes",
          "name": "",
          "type": "bytes"
        }
      ],
      "name": "onERC1155BatchReceived",
      "outputs": [
        {
          "internalType": "bytes4",
          "name": "",
          "type": "bytes4"
        }
      ],
      "stateMutability": "nonpayable",
      "type": "function"
    },
    {
      "inputs": [
        {
          "internalType": "address",
          "name": "",
          "type": "address"
        },
        {
          "internalType": "address",
          "name": "",
          "type": "address"
        },
        {
          "internalType": "uint256",
          "name": "",
          "type": "uint256"
        },
        {
          "internalType": "uint256",
          "name": "",
          "type": "uint256"
        },
        {
          "internalType": "bytes",
          "name": "",
          "type": "bytes"
        }
      ],
      "name": "onERC1155Received",
      "outputs": [
        {
          "internalType": "bytes4",
          "name": "",
          "type": "bytes4"
        }
      ],
      "stateMutability": "nonpayable",
      "type": "function"
    }
  ],
  "bytecode": {
    "object": "0x60a03461007157601f61046738819003918201601f19168301916001600160401b038311848410176100765780849260209460405283398101031261007157516001600160a01b0381168103610071576080526040516103da908161008d823960805181818161015c01526103670152f35b600080fd5b634e487b7160e01b600052604160045260246000fdfe608060408181526004918236101561001657600080fd5b600090813560e01c90816343d7cce61461018357508063572b6c0514610131578063bc197c81146100a75763f23a6e611461005057600080fd5b346100a45760a03660031901126100a45761006961023d565b50610072610258565b506084359067ffffffffffffffff82116100a457506020926100969136910161030d565b505163f23a6e6160e01b8152f35b80fd5b50346100a45760a03660031901126100a4576100c161023d565b506100ca610258565b5067ffffffffffffffff9060443582811161012d576100ec90369086016102a6565b5060643582811161012d5761010490369086016102a6565b506084359182116100a4575060209261011f9136910161030d565b505163bc197c8160e01b8152f35b5080fd5b50903461012d57602036600319011261012d5760209061014f61023d565b90519060018060a01b03807f0000000000000000000000000000000000000000000000000000000000000000169116148152f35b9050828434610239578160031936011261023957836001600160a01b03806101a961023d565b166101b2610364565b91813b15610239578360c4928894928593637921219560e11b855230898601521660248401526024356044840152600a606484015260a060848401528160a48401525af1801561022f57610204578380f35b67ffffffffffffffff831161021c5750528180808380f35b634e487b7160e01b845260419052602483fd5b82513d86823e3d90fd5b8380fd5b600435906001600160a01b038216820361025357565b600080fd5b602435906001600160a01b038216820361025357565b90601f8019910116810190811067ffffffffffffffff82111761029057604052565b634e487b7160e01b600052604160045260246000fd5b9080601f830112156102535781359067ffffffffffffffff8211610290578160051b604051936020936102db8584018761026e565b85528380860192820101928311610253578301905b8282106102fe575050505090565b813581529083019083016102f0565b81601f820112156102535780359067ffffffffffffffff82116102905760405192610342601f8401601f19166020018561026e565b8284526020838301011161025357816000926020809301838601378301015290565b337f00000000000000000000000000000000000000000000000000000000000000006001600160a01b0316036103a05736601319013560601c90565b339056fea2646970667358221220e754a2b188487b024fe4fee7324ef8a50c15b59ff34709672102a6ba8f61daac64736f6c63430008130033",
    "linkReferences": {}
  },
  "methodIdentifiers": {
    "getToken(address,uint256)": "43d7cce6",
    "isTrustedForwarder(address)": "572b6c05",
    "onERC1155BatchReceived(address,address,uint256[],uint256[],bytes)": "bc197c81",
    "onERC1155Received(address,address,uint256,uint256,bytes)": "f23a6e61"
  },
  "id": 50
}