{
  "abi": [
    {
      "inputs": [
        {
          "internalType": "address",
          "name": "tokenAddress",
          "type": "address"
        },
        {
          "internalType": "uint256",
          "name": "tokenId",
          "type": "uint256"
        }
      ],
      "name": "getToken",
      "outputs": [],
      "stateMutability": "nonpayable",
      "type": "function"
    },
    {
      "inputs": [
        {
          "internalType": "address",
          "name": "",
          "type": "address"
        },
        {
          "internalType": "address",
          "name": "",
          "type": "address"
        },
        {
          "internalType": "uint256[]",
          "name": "",
          "type": "uint256[]"
        },
        {
          "internalType": "uint256[]",
          "name": "",
          "type": "uint256[]"
        },
        {
          "internalType": "bytes",
          "name": "",
          "type": "bytes"
        }
      ],
      "name": "onERC1155BatchReceived",
      "outputs": [
        {
          "internalType": "bytes4",
          "name": "",
          "type": "bytes4"
        }
      ],
      "stateMutability": "nonpayable",
      "type": "function"
    },
    {
      "inputs": [
        {
          "internalType": "address",
          "name": "",
          "type": "address"
        },
        {
          "internalType": "address",
          "name": "",
          "type": "address"
        },
        {
          "internalType": "uint256",
          "name": "",
          "type": "uint256"
        },
        {
          "internalType": "uint256",
          "name": "",
          "type": "uint256"
        },
        {
          "internalType": "bytes",
          "name": "",
          "type": "bytes"
        }
      ],
      "name": "onERC1155Received",
      "outputs": [
        {
          "internalType": "bytes4",
          "name": "",
          "type": "bytes4"
        }
      ],
      "stateMutability": "nonpayable",
      "type": "function"
    }
  ],
  "bytecode": {
    "object": "0x608060405234801561001057600080fd5b506103f7806100206000396000f3fe608060405234801561001057600080fd5b50600436106100415760003560e01c806343d7cce614610046578063bc197c811461005b578063f23a6e6114610097575b600080fd5b610059610054366004610151565b6100b6565b005b61007a6100693660046102b2565b63bc197c8160e01b95945050505050565b6040516001600160e01b0319909116815260200160405180910390f35b61007a6100a536600461035c565b63f23a6e6160e01b95945050505050565b604051637921219560e11b815230600482015233602482015260448101829052600a606482015260a06084820152600060a48201526001600160a01b0383169063f242432a9060c401600060405180830381600087803b15801561011957600080fd5b505af115801561012d573d6000803e3d6000fd5b505050505050565b80356001600160a01b038116811461014c57600080fd5b919050565b6000806040838503121561016457600080fd5b61016d83610135565b946020939093013593505050565b634e487b7160e01b600052604160045260246000fd5b604051601f8201601f1916810167ffffffffffffffff811182821017156101ba576101ba61017b565b604052919050565b600082601f8301126101d357600080fd5b8135602067ffffffffffffffff8211156101ef576101ef61017b565b8160051b6101fe828201610191565b928352848101820192828101908785111561021857600080fd5b83870192505b848310156102375782358252918301919083019061021e565b979650505050505050565b600082601f83011261025357600080fd5b813567ffffffffffffffff81111561026d5761026d61017b565b610280601f8201601f1916602001610191565b81815284602083860101111561029557600080fd5b816020850160208301376000918101602001919091529392505050565b600080600080600060a086880312156102ca57600080fd5b6102d386610135565b94506102e160208701610135565b9350604086013567ffffffffffffffff808211156102fe57600080fd5b61030a89838a016101c2565b9450606088013591508082111561032057600080fd5b61032c89838a016101c2565b9350608088013591508082111561034257600080fd5b5061034f88828901610242565b9150509295509295909350565b600080600080600060a0868803121561037457600080fd5b61037d86610135565b945061038b60208701610135565b93506040860135925060608601359150608086013567ffffffffffffffff8111156103b557600080fd5b61034f8882890161024256fea26469706673582212209819e2b748be721f2ef656db4f402efe62c62527794f9cef079d8349a2434ff164736f6c63430008130033",
    "linkReferences": {}
  },
  "methodIdentifiers": {
    "getToken(address,uint256)": "43d7cce6",
    "onERC1155BatchReceived(address,address,uint256[],uint256[],bytes)": "bc197c81",
    "onERC1155Received(address,address,uint256,uint256,bytes)": "f23a6e61"
  },
  "id": 9
}