{
  "abi": [
    {
      "inputs": [
        {
          "internalType": "string",
          "name": "_baseUri",
          "type": "string"
        },
        {
          "internalType": "address",
          "name": "trustedForwarder",
          "type": "address"
        },
        {
          "internalType": "address",
          "name": "_linkAddress",
          "type": "address"
        },
        {
          "internalType": "address",
          "name": "_router",
          "type": "address"
        }
      ],
      "stateMutability": "nonpayable",
      "type": "constructor"
    },
    {
      "inputs": [],
      "name": "CrossChainNotSupported",
      "type": "error"
    },
    {
      "inputs": [],
      "name": "InsufficientBalance",
      "type": "error"
    },
    {
      "inputs": [],
      "name": "InvalidChain",
      "type": "error"
    },
    {
      "inputs": [
        {
          "internalType": "address",
          "name": "router",
          "type": "address"
        }
      ],
      "name": "InvalidRouter",
      "type": "error"
    },
    {
      "anonymous": false,
      "inputs": [
        {
          "indexed": true,
          "internalType": "address",
          "name": "account",
          "type": "address"
        },
        {
          "indexed": true,
          "internalType": "address",
          "name": "operator",
          "type": "address"
        },
        {
          "indexed": false,
          "internalType": "bool",
          "name": "approved",
          "type": "bool"
        }
      ],
      "name": "ApprovalForAll",
      "type": "event"
    },
    {
      "anonymous": false,
      "inputs": [
        {
          "indexed": true,
          "internalType": "address",
          "name": "previousOwner",
          "type": "address"
        },
        {
          "indexed": true,
          "internalType": "address",
          "name": "newOwner",
          "type": "address"
        }
      ],
      "name": "OwnershipTransferred",
      "type": "event"
    },
    {
      "anonymous": false,
      "inputs": [
        {
          "indexed": true,
          "internalType": "address",
          "name": "operator",
          "type": "address"
        },
        {
          "indexed": true,
          "internalType": "address",
          "name": "from",
          "type": "address"
        },
        {
          "indexed": true,
          "internalType": "address",
          "name": "to",
          "type": "address"
        },
        {
          "indexed": false,
          "internalType": "uint256[]",
          "name": "ids",
          "type": "uint256[]"
        },
        {
          "indexed": false,
          "internalType": "uint256[]",
          "name": "values",
          "type": "uint256[]"
        }
      ],
      "name": "TransferBatch",
      "type": "event"
    },
    {
      "anonymous": false,
      "inputs": [
        {
          "indexed": true,
          "internalType": "address",
          "name": "operator",
          "type": "address"
        },
        {
          "indexed": true,
          "internalType": "address",
          "name": "from",
          "type": "address"
        },
        {
          "indexed": true,
          "internalType": "address",
          "name": "to",
          "type": "address"
        },
        {
          "indexed": false,
          "internalType": "uint256",
          "name": "id",
          "type": "uint256"
        },
        {
          "indexed": false,
          "internalType": "uint256",
          "name": "value",
          "type": "uint256"
        }
      ],
      "name": "TransferSingle",
      "type": "event"
    },
    {
      "anonymous": false,
      "inputs": [
        {
          "indexed": false,
          "internalType": "string",
          "name": "value",
          "type": "string"
        },
        {
          "indexed": true,
          "internalType": "uint256",
          "name": "id",
          "type": "uint256"
        }
      ],
      "name": "URI",
      "type": "event"
    },
    {
      "inputs": [
        {
          "internalType": "address",
          "name": "account",
          "type": "address"
        },
        {
          "internalType": "uint256",
          "name": "id",
          "type": "uint256"
        }
      ],
      "name": "balanceOf",
      "outputs": [
        {
          "internalType": "uint256",
          "name": "",
          "type": "uint256"
        }
      ],
      "stateMutability": "view",
      "type": "function"
    },
    {
      "inputs": [
        {
          "internalType": "address[]",
          "name": "accounts",
          "type": "address[]"
        },
        {
          "internalType": "uint256[]",
          "name": "ids",
          "type": "uint256[]"
        }
      ],
      "name": "balanceOfBatch",
      "outputs": [
        {
          "internalType": "uint256[]",
          "name": "",
          "type": "uint256[]"
        }
      ],
      "stateMutability": "view",
      "type": "function"
    },
    {
      "inputs": [],
      "name": "baseUri",
      "outputs": [
        {
          "internalType": "string",
          "name": "",
          "type": "string"
        }
      ],
      "stateMutability": "view",
      "type": "function"
    },
    {
      "inputs": [
        {
          "components": [
            {
              "internalType": "bytes32",
              "name": "messageId",
              "type": "bytes32"
            },
            {
              "internalType": "uint64",
              "name": "sourceChainSelector",
              "type": "uint64"
            },
            {
              "internalType": "bytes",
              "name": "sender",
              "type": "bytes"
            },
            {
              "internalType": "bytes",
              "name": "data",
              "type": "bytes"
            },
            {
              "components": [
                {
                  "internalType": "address",
                  "name": "token",
                  "type": "address"
                },
                {
                  "internalType": "uint256",
                  "name": "amount",
                  "type": "uint256"
                }
              ],
              "internalType": "struct Client.EVMTokenAmount[]",
              "name": "destTokenAmounts",
              "type": "tuple[]"
            }
          ],
          "internalType": "struct Client.Any2EVMMessage",
          "name": "message",
          "type": "tuple"
        }
      ],
      "name": "ccipReceive",
      "outputs": [],
      "stateMutability": "nonpayable",
      "type": "function"
    },
    {
      "inputs": [
        {
          "internalType": "uint64",
          "name": "",
          "type": "uint64"
        }
      ],
      "name": "chainIdToChainSelector",
      "outputs": [
        {
          "internalType": "uint64",
          "name": "",
          "type": "uint64"
        }
      ],
      "stateMutability": "view",
      "type": "function"
    },
    {
      "inputs": [
        {
          "internalType": "uint64",
          "name": "",
          "type": "uint64"
        }
      ],
      "name": "chains",
      "outputs": [
        {
          "internalType": "address",
          "name": "",
          "type": "address"
        }
      ],
      "stateMutability": "view",
      "type": "function"
    },
    {
      "inputs": [
        {
          "internalType": "uint64",
          "name": "destinationChain",
          "type": "uint64"
        },
        {
          "internalType": "uint256",
          "name": "tokenId",
          "type": "uint256"
        },
        {
          "internalType": "uint256",
          "name": "amount",
          "type": "uint256"
        }
      ],
      "name": "crossChainTransfer",
      "outputs": [
        {
          "internalType": "bytes32",
          "name": "messageId",
          "type": "bytes32"
        }
      ],
      "stateMutability": "payable",
      "type": "function"
    },
    {
      "inputs": [
        {
          "internalType": "uint64",
          "name": "destinationChain",
          "type": "uint64"
        },
        {
          "internalType": "uint256",
          "name": "tokenId",
          "type": "uint256"
        },
        {
          "internalType": "uint256",
          "name": "amount",
          "type": "uint256"
        },
        {
          "internalType": "address",
          "name": "msgSender",
          "type": "address"
        }
      ],
      "name": "getLinkFees",
      "outputs": [
        {
          "internalType": "uint256",
          "name": "fees",
          "type": "uint256"
        }
      ],
      "stateMutability": "view",
      "type": "function"
    },
    {
      "inputs": [],
      "name": "getRouter",
      "outputs": [
        {
          "internalType": "address",
          "name": "",
          "type": "address"
        }
      ],
      "stateMutability": "view",
      "type": "function"
    },
    {
      "inputs": [],
      "name": "i_link",
      "outputs": [
        {
          "internalType": "contract LinkTokenInterface",
          "name": "",
          "type": "address"
        }
      ],
      "stateMutability": "view",
      "type": "function"
    },
    {
      "inputs": [
        {
          "internalType": "address",
          "name": "account",
          "type": "address"
        },
        {
          "internalType": "address",
          "name": "operator",
          "type": "address"
        }
      ],
      "name": "isApprovedForAll",
      "outputs": [
        {
          "internalType": "bool",
          "name": "",
          "type": "bool"
        }
      ],
      "stateMutability": "view",
      "type": "function"
    },
    {
      "inputs": [
        {
          "internalType": "address",
          "name": "forwarder",
          "type": "address"
        }
      ],
      "name": "isTrustedForwarder",
      "outputs": [
        {
          "internalType": "bool",
          "name": "",
          "type": "bool"
        }
      ],
      "stateMutability": "view",
      "type": "function"
    },
    {
      "inputs": [
        {
          "internalType": "uint256",
          "name": "amount",
          "type": "uint256"
        }
      ],
      "name": "mint",
      "outputs": [],
      "stateMutability": "nonpayable",
      "type": "function"
    },
    {
      "inputs": [
        {
          "internalType": "uint256",
          "name": "id",
          "type": "uint256"
        },
        {
          "internalType": "uint256",
          "name": "amount",
          "type": "uint256"
        }
      ],
      "name": "mintMore",
      "outputs": [],
      "stateMutability": "nonpayable",
      "type": "function"
    },
    {
      "inputs": [],
      "name": "owner",
      "outputs": [
        {
          "internalType": "address",
          "name": "",
          "type": "address"
        }
      ],
      "stateMutability": "view",
      "type": "function"
    },
    {
      "inputs": [],
      "name": "renounceOwnership",
      "outputs": [],
      "stateMutability": "nonpayable",
      "type": "function"
    },
    {
      "inputs": [
        {
          "internalType": "address",
          "name": "from",
          "type": "address"
        },
        {
          "internalType": "address",
          "name": "to",
          "type": "address"
        },
        {
          "internalType": "uint256[]",
          "name": "ids",
          "type": "uint256[]"
        },
        {
          "internalType": "uint256[]",
          "name": "amounts",
          "type": "uint256[]"
        },
        {
          "internalType": "bytes",
          "name": "data",
          "type": "bytes"
        }
      ],
      "name": "safeBatchTransferFrom",
      "outputs": [],
      "stateMutability": "nonpayable",
      "type": "function"
    },
    {
      "inputs": [
        {
          "internalType": "address",
          "name": "from",
          "type": "address"
        },
        {
          "internalType": "address",
          "name": "to",
          "type": "address"
        },
        {
          "internalType": "uint256",
          "name": "id",
          "type": "uint256"
        },
        {
          "internalType": "uint256",
          "name": "amount",
          "type": "uint256"
        },
        {
          "internalType": "bytes",
          "name": "data",
          "type": "bytes"
        }
      ],
      "name": "safeTransferFrom",
      "outputs": [],
      "stateMutability": "nonpayable",
      "type": "function"
    },
    {
      "inputs": [
        {
          "internalType": "address",
          "name": "operator",
          "type": "address"
        },
        {
          "internalType": "bool",
          "name": "approved",
          "type": "bool"
        }
      ],
      "name": "setApprovalForAll",
      "outputs": [],
      "stateMutability": "nonpayable",
      "type": "function"
    },
    {
      "inputs": [
        {
          "internalType": "uint64",
          "name": "chain",
          "type": "uint64"
        },
        {
          "internalType": "address",
          "name": "addr",
          "type": "address"
        }
      ],
      "name": "setChain",
      "outputs": [],
      "stateMutability": "nonpayable",
      "type": "function"
    },
    {
      "inputs": [
        {
          "internalType": "uint64",
          "name": "chain",
          "type": "uint64"
        },
        {
          "internalType": "uint64",
          "name": "selector",
          "type": "uint64"
        }
      ],
      "name": "setChainSelector",
      "outputs": [],
      "stateMutability": "nonpayable",
      "type": "function"
    },
    {
      "inputs": [
        {
          "internalType": "bytes4",
          "name": "interfaceId",
          "type": "bytes4"
        }
      ],
      "name": "supportsInterface",
      "outputs": [
        {
          "internalType": "bool",
          "name": "",
          "type": "bool"
        }
      ],
      "stateMutability": "pure",
      "type": "function"
    },
    {
      "inputs": [
        {
          "internalType": "address",
          "name": "newOwner",
          "type": "address"
        }
      ],
      "name": "transferOwnership",
      "outputs": [],
      "stateMutability": "nonpayable",
      "type": "function"
    },
    {
      "inputs": [
        {
          "internalType": "uint256",
          "name": "id",
          "type": "uint256"
        }
      ],
      "name": "uri",
      "outputs": [
        {
          "internalType": "string",
          "name": "",
          "type": "string"
        }
      ],
      "stateMutability": "view",
      "type": "function"
    },
    {
      "inputs": [],
      "name": "utilCount",
      "outputs": [
        {
          "internalType": "uint256",
          "name": "",
          "type": "uint256"
        }
      ],
      "stateMutability": "view",
      "type": "function"
    }
  ],
  "bytecode": {
    "object": "0x60e06040523480156200001157600080fd5b5060405162002f7438038062002f74833981016040819052620000349162000193565b6001600160a01b03831660805280846200004e81620000c3565b50620000636200005d620000d5565b620000e6565b6001600160a01b03811662000092576040516335fdcccd60e21b81526000600482015260240160405180910390fd5b6001600160a01b031660a0526004620000ac85826200032f565b50506001600160a01b031660c05250620003fb9050565b6002620000d182826200032f565b5050565b6000620000e162000138565b905090565b600380546001600160a01b038381166001600160a01b0319831681179093556040519116919082907f8be0079c531659141344cd1fd0a4f28419497f9722a3daafe3b4186f6b6457e090600090a35050565b6080516000906001600160a01b031633036200015b575060131936013560601c90565b503390565b634e487b7160e01b600052604160045260246000fd5b80516001600160a01b03811681146200018e57600080fd5b919050565b60008060008060808587031215620001aa57600080fd5b84516001600160401b0380821115620001c257600080fd5b818701915087601f830112620001d757600080fd5b815181811115620001ec57620001ec62000160565b604051601f8201601f19908116603f0116810190838211818310171562000217576200021762000160565b81604052828152602093508a848487010111156200023457600080fd5b600091505b8282101562000258578482018401518183018501529083019062000239565b60008484830101528098505050506200027381880162000176565b94505050620002856040860162000176565b9150620002956060860162000176565b905092959194509250565b600181811c90821680620002b557607f821691505b602082108103620002d657634e487b7160e01b600052602260045260246000fd5b50919050565b601f8211156200032a57600081815260208120601f850160051c81016020861015620003055750805b601f850160051c820191505b81811015620003265782815560010162000311565b5050505b505050565b81516001600160401b038111156200034b576200034b62000160565b62000363816200035c8454620002a0565b84620002dc565b602080601f8311600181146200039b5760008415620003825750858301515b600019600386901b1c1916600185901b17855562000326565b600085815260208120601f198616915b82811015620003cc57888601518255948401946001909101908401620003ab565b5085821015620003eb5787850151600019600388901b60f8161c191681555b5050505050600190811b01905550565b60805160a05160c051612b03620004716000396000818161031d01528181610adf01528181610be401528181610cd70152610fd10152600081816104900152818161091101528181610b6701528181610ca801528181610d5c01526110580152600081816102a60152611ad20152612b036000f3fe6080604052600436106101655760003560e01c80638d8b65a3116100d1578063ada8bcdc1161008a578063baacbe9b11610064578063baacbe9b146104d4578063e985e9c5146104ea578063f242432a14610533578063f2fde38b1461055357600080fd5b8063ada8bcdc1461044b578063b0f479a114610481578063ba51d7ff146104b457600080fd5b80638d8b65a3146103775780638da5cb5b1461038a5780639abc8320146103a85780639e5b0366146103bd578063a0712d681461040b578063a22cb4651461042b57600080fd5b80635694048c116101235780635694048c14610269578063572b6c0514610289578063715018a6146102d657806378b7926e146102eb5780637d253aff1461030b57806385572ffb1461035757600080fd5b8062fdd58e1461016a57806301ffc9a71461019d5780630e89341c146101cd5780632eb2c2d6146101fa5780634e1273f41461021c5780634f7c055e14610249575b600080fd5b34801561017657600080fd5b5061018a610185366004611d8b565b610573565b6040519081526020015b60405180910390f35b3480156101a957600080fd5b506101bd6101b8366004611dcd565b61060c565b6040519015158152602001610194565b3480156101d957600080fd5b506101ed6101e8366004611df1565b610691565b6040516101949190611e5a565b34801561020657600080fd5b5061021a610215366004612003565b6106c5565b005b34801561022857600080fd5b5061023c6102373660046120b0565b610723565b60405161019491906121b7565b34801561025557600080fd5b5061021a6102643660046121ca565b61084c565b34801561027557600080fd5b5061021a610284366004612208565b61087a565b34801561029557600080fd5b506101bd6102a436600461223f565b7f00000000000000000000000000000000000000000000000000000000000000006001600160a01b0390811691161490565b3480156102e257600080fd5b5061021a6108bb565b3480156102f757600080fd5b5061021a61030636600461225c565b6108cf565b34801561031757600080fd5b5061033f7f000000000000000000000000000000000000000000000000000000000000000081565b6040516001600160a01b039091168152602001610194565b34801561036357600080fd5b5061021a61037236600461228f565b610906565b61018a6103853660046122c9565b610965565b34801561039657600080fd5b506003546001600160a01b031661033f565b3480156103b457600080fd5b506101ed610de2565b3480156103c957600080fd5b506103f36103d83660046122fc565b6007602052600090815260409020546001600160401b031681565b6040516001600160401b039091168152602001610194565b34801561041757600080fd5b5061021a610426366004611df1565b610e70565b34801561043757600080fd5b5061021a610446366004612325565b610eb5565b34801561045757600080fd5b5061033f6104663660046122fc565b6006602052600090815260409020546001600160a01b031681565b34801561048d57600080fd5b507f000000000000000000000000000000000000000000000000000000000000000061033f565b3480156104c057600080fd5b5061018a6104cf366004612353565b610ec7565b3480156104e057600080fd5b5061018a60055481565b3480156104f657600080fd5b506101bd61050536600461239b565b6001600160a01b03918216600090815260016020908152604080832093909416825291909152205460ff1690565b34801561053f57600080fd5b5061021a61054e3660046123b9565b6110ac565b34801561055f57600080fd5b5061021a61056e36600461223f565b611103565b60006001600160a01b0383166105e35760405162461bcd60e51b815260206004820152602a60248201527f455243313135353a2061646472657373207a65726f206973206e6f742061207660448201526930b634b21037bbb732b960b11b60648201526084015b60405180910390fd5b506000818152602081815260408083206001600160a01b03861684529091529020545b92915050565b60006001600160e01b03198216636cdb3d1360e11b148061063d57506001600160e01b031982166303a24d0760e21b145b8061065857506001600160e01b031982166385572ffb60e01b145b8061067357506001600160e01b031982166301ffc9a760e01b145b80610682575061068282611179565b80610606575061060682611179565b6060600461069e836111af565b6040516020016106af929190612477565b6040516020818303038152906040529050919050565b6106cd6111f3565b6001600160a01b0316856001600160a01b031614806106f357506106f3856105056111f3565b61070f5760405162461bcd60e51b81526004016105da90612521565b61071c8585858585611202565b5050505050565b606081518351146107885760405162461bcd60e51b815260206004820152602960248201527f455243313135353a206163636f756e747320616e6420696473206c656e677468604482015268040dad2e6dac2e8c6d60bb1b60648201526084016105da565b600083516001600160401b038111156107a3576107a3611e6d565b6040519080825280602002602001820160405280156107cc578160200160208202803683370190505b50905060005b8451811015610844576108178582815181106107f0576107f061256f565b602002602001015185838151811061080a5761080a61256f565b6020026020010151610573565b8282815181106108295761082961256f565b602090810291909101015261083d8161259b565b90506107d2565b509392505050565b6108546113ea565b61087661085f6111f3565b838360405180602001604052806000815250611463565b5050565b6108826113ea565b6001600160401b0391909116600090815260066020526040902080546001600160a01b0319166001600160a01b03909216919091179055565b6108c36113ea565b6108cd6000611582565b565b6108d76113ea565b6001600160401b039182166000908152600760205260409020805467ffffffffffffffff191691909216179055565b336001600160a01b037f00000000000000000000000000000000000000000000000000000000000000001614610951576040516335fdcccd60e21b81523360048201526024016105da565b61096261095d82612655565b6115d4565b50565b6001600160401b03808416600090815260076020908152604080832054909316825260069052908120546001600160a01b031680156109b75760405163057f3fa760e51b815260040160405180910390fd5b6109c86109c26111f3565b85610573565b8311156109e857604051631e9acf1760e31b815260040160405180910390fd5b6109fa6109f36111f3565b85856116e8565b60008484610a066111f3565b6040805160208101949094528301919091526001600160a01b0316606082015260800160408051808303601f1901815260a083019091526001600160a01b03841660c083015291506000908060e08101604051602081830303815290604052815260200183604051602001610a7b9190611e5a565b60408051601f1981840301815291905281526020016000604051908082528060200260200182016040528015610ad757816020015b6040805180820190915260008082526020820152815260200190600190039081610ab05790505b5081526020017f00000000000000000000000000000000000000000000000000000000000000006001600160a01b03168152602001610b2f604051806040016040528062030d4081526020016000151581525061186f565b90526001600160401b038089166000908152600760205260408082205490516320487ded60e01b815293945090926001600160a01b037f000000000000000000000000000000000000000000000000000000000000000016926320487ded92610b9f929116908690600401612701565b602060405180830381865afa158015610bbc573d6000803e3d6000fd5b505050506040513d601f19601f82011682018060405250810190610be091906127da565b90507f00000000000000000000000000000000000000000000000000000000000000006001600160a01b03166323b872dd610c196111f3565b6040516001600160e01b031960e084901b1681526001600160a01b039091166004820152306024820152604481018490526064016020604051808303816000875af1158015610c6c573d6000803e3d6000fd5b505050506040513d601f19601f82011682018060405250810190610c9091906127f3565b5060405163095ea7b360e01b81526001600160a01b037f000000000000000000000000000000000000000000000000000000000000000081166004830152602482018390527f0000000000000000000000000000000000000000000000000000000000000000169063095ea7b3906044016020604051808303816000875af1158015610d20573d6000803e3d6000fd5b505050506040513d601f19601f82011682018060405250810190610d4491906127f3565b506040516396f4e9f960e01b81526001600160a01b037f000000000000000000000000000000000000000000000000000000000000000016906396f4e9f990610d93908b908690600401612701565b6020604051808303816000875af1158015610db2573d6000803e3d6000fd5b505050506040513d601f19601f82011682018060405250810190610dd691906127da565b98975050505050505050565b60048054610def90612421565b80601f0160208091040260200160405190810160405280929190818152602001828054610e1b90612421565b8015610e685780601f10610e3d57610100808354040283529160200191610e68565b820191906000526020600020905b815481529060010190602001808311610e4b57829003601f168201915b505050505081565b610e786113ea565b600160056000828254610e8b9190612810565b909155506109629050610e9c6111f3565b6005548360405180602001604052806000815250611463565b610876610ec06111f3565b83836118b9565b6001600160401b038481166000908152600760209081526040808320549093168252600681528282205483519182018790529281018590526001600160a01b03848116606083015291929190911690829060800160408051808303601f1901815260a083019091526001600160a01b03841660c083015291506000908060e08101604051602081830303815290604052815260200183604051602001610f6d9190611e5a565b60408051601f1981840301815291905281526020016000604051908082528060200260200182016040528015610fc957816020015b6040805180820190915260008082526020820152815260200190600190039081610fa25790505b5081526020017f00000000000000000000000000000000000000000000000000000000000000006001600160a01b03168152602001611021604051806040016040528062030d4081526020016000151581525061186f565b90526001600160401b03808a16600090815260076020526040908190205490516320487ded60e01b81529293506001600160a01b037f000000000000000000000000000000000000000000000000000000000000000016926320487ded9261108f9216908590600401612701565b602060405180830381865afa158015610db2573d6000803e3d6000fd5b6110b46111f3565b6001600160a01b0316856001600160a01b031614806110da57506110da856105056111f3565b6110f65760405162461bcd60e51b81526004016105da90612521565b61071c8585858585611999565b61110b6113ea565b6001600160a01b0381166111705760405162461bcd60e51b815260206004820152602660248201527f4f776e61626c653a206e6577206f776e657220697320746865207a65726f206160448201526564647265737360d01b60648201526084016105da565b61096281611582565b60006001600160e01b031982166385572ffb60e01b148061060657506001600160e01b031982166301ffc9a760e01b1492915050565b606060a06040510180604052602081039150506000815280825b600183039250600a81066030018353600a9004806111c95750819003601f19909101908152919050565b60006111fd611ace565b905090565b81518351146112645760405162461bcd60e51b815260206004820152602860248201527f455243313135353a2069647320616e6420616d6f756e7473206c656e677468206044820152670dad2e6dac2e8c6d60c31b60648201526084016105da565b6001600160a01b03841661128a5760405162461bcd60e51b81526004016105da90612823565b60006112946111f3565b905060005b845181101561137c5760008582815181106112b6576112b661256f565b6020026020010151905060008583815181106112d4576112d461256f565b602090810291909101810151600084815280835260408082206001600160a01b038e1683529093529190912054909150818110156113245760405162461bcd60e51b81526004016105da90612868565b6000838152602081815260408083206001600160a01b038e8116855292528083208585039055908b16825281208054849290611361908490612810565b92505081905550505050806113759061259b565b9050611299565b50846001600160a01b0316866001600160a01b0316826001600160a01b03167f4a39dc06d4c0dbc64b70af90fd698a233a518aa5d07e595d983b8c0526c8f7fb87876040516113cc9291906128b2565b60405180910390a46113e2818787878787611b15565b505050505050565b6113f26111f3565b6001600160a01b031661140d6003546001600160a01b031690565b6001600160a01b0316146108cd5760405162461bcd60e51b815260206004820181905260248201527f4f776e61626c653a2063616c6c6572206973206e6f7420746865206f776e657260448201526064016105da565b6001600160a01b0384166114c35760405162461bcd60e51b815260206004820152602160248201527f455243313135353a206d696e7420746f20746865207a65726f206164647265736044820152607360f81b60648201526084016105da565b60006114cd6111f3565b905060006114da85611c70565b905060006114e785611c70565b90506000868152602081815260408083206001600160a01b038b16845290915281208054879290611519908490612810565b909155505060408051878152602081018790526001600160a01b03808a1692600092918716917fc3d58168c5ae7397731d063d5bbf3d657854427343f4c083240f7aacaa2d0f62910160405180910390a461157983600089898989611cbb565b50505050505050565b600380546001600160a01b038381166001600160a01b0319831681179093556040519116919082907f8be0079c531659141344cd1fd0a4f28419497f9722a3daafe3b4186f6b6457e090600090a35050565b80604001518060200190518101906115ec91906128d7565b604051602001611614919060609190911b6bffffffffffffffffffffffff1916815260140190565b60408051601f198184030181528282528051602091820120848201516001600160401b0390811660009081526007845284812054909116815260068352929092205460601b6bffffffffffffffffffffffff1916908301529060340160405160208183030381529060405280519060200120146116a45760405163057f3fa760e51b815260040160405180910390fd5b600080600083606001518060200190518101906116c191906128f4565b9250925092506116e281848460405180602001604052806000815250611463565b50505050565b6001600160a01b03831661174a5760405162461bcd60e51b815260206004820152602360248201527f455243313135353a206275726e2066726f6d20746865207a65726f206164647260448201526265737360e81b60648201526084016105da565b60006117546111f3565b9050600061176184611c70565b9050600061176e84611c70565b60408051602080820183526000918290528882528181528282206001600160a01b038b16835290522054909150848110156117f75760405162461bcd60e51b8152602060048201526024808201527f455243313135353a206275726e20616d6f756e7420657863656564732062616c604482015263616e636560e01b60648201526084016105da565b6000868152602081815260408083206001600160a01b038b81168086529184528285208a8703905582518b81529384018a90529092908816917fc3d58168c5ae7397731d063d5bbf3d657854427343f4c083240f7aacaa2d0f62910160405180910390a4604080516020810190915260009052611579565b6040805182516024820152602092830151151560448083019190915282518083039091018152606490910190915290810180516001600160e01b03166397a657c960e01b17905290565b816001600160a01b0316836001600160a01b03160361192c5760405162461bcd60e51b815260206004820152602960248201527f455243313135353a2073657474696e6720617070726f76616c20737461747573604482015268103337b91039b2b63360b91b60648201526084016105da565b6001600160a01b03838116600081815260016020908152604080832094871680845294825291829020805460ff191686151590811790915591519182527f17307eab39ab6107e8899845ad3d59bd9653f200f220920489ca2b5937696c31910160405180910390a3505050565b6001600160a01b0384166119bf5760405162461bcd60e51b81526004016105da90612823565b60006119c96111f3565b905060006119d685611c70565b905060006119e385611c70565b90506000868152602081815260408083206001600160a01b038c16845290915290205485811015611a265760405162461bcd60e51b81526004016105da90612868565b6000878152602081815260408083206001600160a01b038d8116855292528083208985039055908a16825281208054889290611a63908490612810565b909155505060408051888152602081018890526001600160a01b03808b16928c821692918816917fc3d58168c5ae7397731d063d5bbf3d657854427343f4c083240f7aacaa2d0f62910160405180910390a4611ac3848a8a8a8a8a611cbb565b505050505050505050565b60007f00000000000000000000000000000000000000000000000000000000000000006001600160a01b03163303611b0d575060131936013560601c90565b503390565b90565b6001600160a01b0384163b156113e25760405163bc197c8160e01b81526001600160a01b0385169063bc197c8190611b59908990899088908890889060040161292d565b6020604051808303816000875af1925050508015611b94575060408051601f3d908101601f19168201909252611b919181019061297f565b60015b611c4057611ba061299c565b806308c379a003611bd95750611bb46129b7565b80611bbf5750611bdb565b8060405162461bcd60e51b81526004016105da9190611e5a565b505b60405162461bcd60e51b815260206004820152603460248201527f455243313135353a207472616e7366657220746f206e6f6e2d455243313135356044820152732932b1b2b4bb32b91034b6b83632b6b2b73a32b960611b60648201526084016105da565b6001600160e01b0319811663bc197c8160e01b146115795760405162461bcd60e51b81526004016105da90612a40565b60408051600180825281830190925260609160009190602080830190803683370190505090508281600081518110611caa57611caa61256f565b602090810291909101015292915050565b6001600160a01b0384163b156113e25760405163f23a6e6160e01b81526001600160a01b0385169063f23a6e6190611cff9089908990889088908890600401612a88565b6020604051808303816000875af1925050508015611d3a575060408051601f3d908101601f19168201909252611d379181019061297f565b60015b611d4657611ba061299c565b6001600160e01b0319811663f23a6e6160e01b146115795760405162461bcd60e51b81526004016105da90612a40565b6001600160a01b038116811461096257600080fd5b60008060408385031215611d9e57600080fd5b8235611da981611d76565b946020939093013593505050565b6001600160e01b03198116811461096257600080fd5b600060208284031215611ddf57600080fd5b8135611dea81611db7565b9392505050565b600060208284031215611e0357600080fd5b5035919050565b60005b83811015611e25578181015183820152602001611e0d565b50506000910152565b60008151808452611e46816020860160208601611e0a565b601f01601f19169290920160200192915050565b602081526000611dea6020830184611e2e565b634e487b7160e01b600052604160045260246000fd5b604081018181106001600160401b0382111715611ea257611ea2611e6d565b60405250565b601f8201601f191681016001600160401b0381118282101715611ecd57611ecd611e6d565b6040525050565b60405160a081016001600160401b0381118282101715611ef657611ef6611e6d565b60405290565b60006001600160401b03821115611f1557611f15611e6d565b5060051b60200190565b600082601f830112611f3057600080fd5b81356020611f3d82611efc565b604051611f4a8282611ea8565b83815260059390931b8501820192828101915086841115611f6a57600080fd5b8286015b84811015611f855780358352918301918301611f6e565b509695505050505050565b600082601f830112611fa157600080fd5b81356001600160401b03811115611fba57611fba611e6d565b604051611fd1601f8301601f191660200182611ea8565b818152846020838601011115611fe657600080fd5b816020850160208301376000918101602001919091529392505050565b600080600080600060a0868803121561201b57600080fd5b853561202681611d76565b9450602086013561203681611d76565b935060408601356001600160401b038082111561205257600080fd5b61205e89838a01611f1f565b9450606088013591508082111561207457600080fd5b61208089838a01611f1f565b9350608088013591508082111561209657600080fd5b506120a388828901611f90565b9150509295509295909350565b600080604083850312156120c357600080fd5b82356001600160401b03808211156120da57600080fd5b818501915085601f8301126120ee57600080fd5b813560206120fb82611efc565b6040516121088282611ea8565b83815260059390931b850182019282810191508984111561212857600080fd5b948201945b8386101561214f57853561214081611d76565b8252948201949082019061212d565b9650508601359250508082111561216557600080fd5b5061217285828601611f1f565b9150509250929050565b600081518084526020808501945080840160005b838110156121ac57815187529582019590820190600101612190565b509495945050505050565b602081526000611dea602083018461217c565b600080604083850312156121dd57600080fd5b50508035926020909101359150565b80356001600160401b038116811461220357600080fd5b919050565b6000806040838503121561221b57600080fd5b612224836121ec565b9150602083013561223481611d76565b809150509250929050565b60006020828403121561225157600080fd5b8135611dea81611d76565b6000806040838503121561226f57600080fd5b612278836121ec565b9150612286602084016121ec565b90509250929050565b6000602082840312156122a157600080fd5b81356001600160401b038111156122b757600080fd5b820160a08185031215611dea57600080fd5b6000806000606084860312156122de57600080fd5b6122e7846121ec565b95602085013595506040909401359392505050565b60006020828403121561230e57600080fd5b611dea826121ec565b801515811461096257600080fd5b6000806040838503121561233857600080fd5b823561234381611d76565b9150602083013561223481612317565b6000806000806080858703121561236957600080fd5b612372856121ec565b93506020850135925060408501359150606085013561239081611d76565b939692955090935050565b600080604083850312156123ae57600080fd5b823561222481611d76565b600080600080600060a086880312156123d157600080fd5b85356123dc81611d76565b945060208601356123ec81611d76565b9350604086013592506060860135915060808601356001600160401b0381111561241557600080fd5b6120a388828901611f90565b600181811c9082168061243557607f821691505b60208210810361245557634e487b7160e01b600052602260045260246000fd5b50919050565b6000815161246d818560208601611e0a565b9290920192915050565b600080845481600182811c91508083168061249357607f831692505b602080841082036124b257634e487b7160e01b86526022600452602486fd5b8180156124c657600181146124db57612508565b60ff1986168952841515850289019650612508565b60008b81526020902060005b868110156125005781548b8201529085019083016124e7565b505084890196505b505050505050612518818561245b565b95945050505050565b6020808252602e908201527f455243313135353a2063616c6c6572206973206e6f7420746f6b656e206f776e60408201526d195c881bdc88185c1c1c9bdd995960921b606082015260800190565b634e487b7160e01b600052603260045260246000fd5b634e487b7160e01b600052601160045260246000fd5b6000600182016125ad576125ad612585565b5060010190565b600082601f8301126125c557600080fd5b813560206125d282611efc565b604080516125e08382611ea8565b84815260069490941b860183019383810192508785111561260057600080fd5b8387015b858110156126495782818a03121561261c5760008081fd5b825161262781611e83565b813561263281611d76565b815281860135868201528452928401928201612604565b50979650505050505050565b600060a0823603121561266757600080fd5b61266f611ed4565b8235815261267f602084016121ec565b602082015260408301356001600160401b038082111561269e57600080fd5b6126aa36838701611f90565b604084015260608501359150808211156126c357600080fd5b6126cf36838701611f90565b606084015260808501359150808211156126e857600080fd5b506126f5368286016125b4565b60808301525092915050565b600060406001600160401b038516835260208181850152845160a08386015261272d60e0860182611e2e565b905081860151603f198087840301606088015261274a8383611e2e565b88860151888203830160808a01528051808352908601945060009350908501905b8084101561279d57845180516001600160a01b031683528601518683015293850193600193909301929086019061276b565b5060608901516001600160a01b031660a08901526080890151888203830160c08a015295506127cc8187611e2e565b9a9950505050505050505050565b6000602082840312156127ec57600080fd5b5051919050565b60006020828403121561280557600080fd5b8151611dea81612317565b8082018082111561060657610606612585565b60208082526025908201527f455243313135353a207472616e7366657220746f20746865207a65726f206164604082015264647265737360d81b606082015260800190565b6020808252602a908201527f455243313135353a20696e73756666696369656e742062616c616e636520666f60408201526939103a3930b739b332b960b11b606082015260800190565b6040815260006128c5604083018561217c565b8281036020840152612518818561217c565b6000602082840312156128e957600080fd5b8151611dea81611d76565b60008060006060848603121561290957600080fd5b8351925060208401519150604084015161292281611d76565b809150509250925092565b6001600160a01b0386811682528516602082015260a0604082018190526000906129599083018661217c565b828103606084015261296b818661217c565b90508281036080840152610dd68185611e2e565b60006020828403121561299157600080fd5b8151611dea81611db7565b600060033d1115611b125760046000803e5060005160e01c90565b600060443d10156129c55790565b6040516003193d81016004833e81513d6001600160401b0381602484011181841117156129f457505050505090565b8285019150815181811115612a0c5750505050505090565b843d8701016020828501011115612a265750505050505090565b612a3560208286010187611ea8565b509095945050505050565b60208082526028908201527f455243313135353a204552433131353552656365697665722072656a656374656040820152676420746f6b656e7360c01b606082015260800190565b6001600160a01b03868116825285166020820152604081018490526060810183905260a060808201819052600090612ac290830184611e2e565b97965050505050505056fea26469706673582212205f9dc8112ed12dbb38661f1454a3c387f646c4ca701ce52cbcef08ea22e861c964736f6c63430008130033",
    "linkReferences": {}
  },
  "methodIdentifiers": {
    "balanceOf(address,uint256)": "00fdd58e",
    "balanceOfBatch(address[],uint256[])": "4e1273f4",
    "baseUri()": "9abc8320",
    "ccipReceive((bytes32,uint64,bytes,bytes,(address,uint256)[]))": "85572ffb",
    "chainIdToChainSelector(uint64)": "9e5b0366",
    "chains(uint64)": "ada8bcdc",
    "crossChainTransfer(uint64,uint256,uint256)": "8d8b65a3",
    "getLinkFees(uint64,uint256,uint256,address)": "ba51d7ff",
    "getRouter()": "b0f479a1",
    "i_link()": "7d253aff",
    "isApprovedForAll(address,address)": "e985e9c5",
    "isTrustedForwarder(address)": "572b6c05",
    "mint(uint256)": "a0712d68",
    "mintMore(uint256,uint256)": "4f7c055e",
    "owner()": "8da5cb5b",
    "renounceOwnership()": "715018a6",
    "safeBatchTransferFrom(address,address,uint256[],uint256[],bytes)": "2eb2c2d6",
    "safeTransferFrom(address,address,uint256,uint256,bytes)": "f242432a",
    "setApprovalForAll(address,bool)": "a22cb465",
    "setChain(uint64,address)": "5694048c",
    "setChainSelector(uint64,uint64)": "78b7926e",
    "supportsInterface(bytes4)": "01ffc9a7",
    "transferOwnership(address)": "f2fde38b",
    "uri(uint256)": "0e89341c",
    "utilCount()": "baacbe9b"
  },
  "id": 57
}