{
  "abi": [
    {
      "inputs": [
        {
          "internalType": "string",
          "name": "_baseUri",
          "type": "string"
        },
        {
          "internalType": "address",
          "name": "trustedForwarder",
          "type": "address"
        },
        {
          "internalType": "address",
          "name": "_linkAddress",
          "type": "address"
        },
        {
          "internalType": "address",
          "name": "_router",
          "type": "address"
        }
      ],
      "stateMutability": "nonpayable",
      "type": "constructor"
    },
    {
      "inputs": [],
      "name": "CrossChainNotSupported",
      "type": "error"
    },
    {
      "inputs": [],
      "name": "InsufficientBalance",
      "type": "error"
    },
    {
      "inputs": [],
      "name": "InvalidChain",
      "type": "error"
    },
    {
      "inputs": [
        {
          "internalType": "address",
          "name": "router",
          "type": "address"
        }
      ],
      "name": "InvalidRouter",
      "type": "error"
    },
    {
      "anonymous": false,
      "inputs": [
        {
          "indexed": true,
          "internalType": "address",
          "name": "account",
          "type": "address"
        },
        {
          "indexed": true,
          "internalType": "address",
          "name": "operator",
          "type": "address"
        },
        {
          "indexed": false,
          "internalType": "bool",
          "name": "approved",
          "type": "bool"
        }
      ],
      "name": "ApprovalForAll",
      "type": "event"
    },
    {
      "anonymous": false,
      "inputs": [
        {
          "indexed": true,
          "internalType": "address",
          "name": "previousOwner",
          "type": "address"
        },
        {
          "indexed": true,
          "internalType": "address",
          "name": "newOwner",
          "type": "address"
        }
      ],
      "name": "OwnershipTransferred",
      "type": "event"
    },
    {
      "anonymous": false,
      "inputs": [
        {
          "indexed": true,
          "internalType": "address",
          "name": "operator",
          "type": "address"
        },
        {
          "indexed": true,
          "internalType": "address",
          "name": "from",
          "type": "address"
        },
        {
          "indexed": true,
          "internalType": "address",
          "name": "to",
          "type": "address"
        },
        {
          "indexed": false,
          "internalType": "uint256[]",
          "name": "ids",
          "type": "uint256[]"
        },
        {
          "indexed": false,
          "internalType": "uint256[]",
          "name": "values",
          "type": "uint256[]"
        }
      ],
      "name": "TransferBatch",
      "type": "event"
    },
    {
      "anonymous": false,
      "inputs": [
        {
          "indexed": true,
          "internalType": "address",
          "name": "operator",
          "type": "address"
        },
        {
          "indexed": true,
          "internalType": "address",
          "name": "from",
          "type": "address"
        },
        {
          "indexed": true,
          "internalType": "address",
          "name": "to",
          "type": "address"
        },
        {
          "indexed": false,
          "internalType": "uint256",
          "name": "id",
          "type": "uint256"
        },
        {
          "indexed": false,
          "internalType": "uint256",
          "name": "value",
          "type": "uint256"
        }
      ],
      "name": "TransferSingle",
      "type": "event"
    },
    {
      "anonymous": false,
      "inputs": [
        {
          "indexed": false,
          "internalType": "string",
          "name": "value",
          "type": "string"
        },
        {
          "indexed": true,
          "internalType": "uint256",
          "name": "id",
          "type": "uint256"
        }
      ],
      "name": "URI",
      "type": "event"
    },
    {
      "inputs": [
        {
          "internalType": "address",
          "name": "account",
          "type": "address"
        },
        {
          "internalType": "uint256",
          "name": "id",
          "type": "uint256"
        }
      ],
      "name": "balanceOf",
      "outputs": [
        {
          "internalType": "uint256",
          "name": "",
          "type": "uint256"
        }
      ],
      "stateMutability": "view",
      "type": "function"
    },
    {
      "inputs": [
        {
          "internalType": "address[]",
          "name": "accounts",
          "type": "address[]"
        },
        {
          "internalType": "uint256[]",
          "name": "ids",
          "type": "uint256[]"
        }
      ],
      "name": "balanceOfBatch",
      "outputs": [
        {
          "internalType": "uint256[]",
          "name": "",
          "type": "uint256[]"
        }
      ],
      "stateMutability": "view",
      "type": "function"
    },
    {
      "inputs": [],
      "name": "baseUri",
      "outputs": [
        {
          "internalType": "string",
          "name": "",
          "type": "string"
        }
      ],
      "stateMutability": "view",
      "type": "function"
    },
    {
      "inputs": [
        {
          "components": [
            {
              "internalType": "bytes32",
              "name": "messageId",
              "type": "bytes32"
            },
            {
              "internalType": "uint64",
              "name": "sourceChainSelector",
              "type": "uint64"
            },
            {
              "internalType": "bytes",
              "name": "sender",
              "type": "bytes"
            },
            {
              "internalType": "bytes",
              "name": "data",
              "type": "bytes"
            },
            {
              "components": [
                {
                  "internalType": "address",
                  "name": "token",
                  "type": "address"
                },
                {
                  "internalType": "uint256",
                  "name": "amount",
                  "type": "uint256"
                }
              ],
              "internalType": "struct Client.EVMTokenAmount[]",
              "name": "destTokenAmounts",
              "type": "tuple[]"
            }
          ],
          "internalType": "struct Client.Any2EVMMessage",
          "name": "message",
          "type": "tuple"
        }
      ],
      "name": "ccipReceive",
      "outputs": [],
      "stateMutability": "nonpayable",
      "type": "function"
    },
    {
      "inputs": [
        {
          "internalType": "uint64",
          "name": "",
          "type": "uint64"
        }
      ],
      "name": "chains",
      "outputs": [
        {
          "internalType": "address",
          "name": "",
          "type": "address"
        }
      ],
      "stateMutability": "view",
      "type": "function"
    },
    {
      "inputs": [
        {
          "internalType": "uint64",
          "name": "destinationChain",
          "type": "uint64"
        },
        {
          "internalType": "uint256",
          "name": "tokenId",
          "type": "uint256"
        },
        {
          "internalType": "uint256",
          "name": "amount",
          "type": "uint256"
        }
      ],
      "name": "crossChainTransfer",
      "outputs": [
        {
          "internalType": "bytes32",
          "name": "messageId",
          "type": "bytes32"
        }
      ],
      "stateMutability": "payable",
      "type": "function"
    },
    {
      "inputs": [],
      "name": "getRouter",
      "outputs": [
        {
          "internalType": "address",
          "name": "",
          "type": "address"
        }
      ],
      "stateMutability": "view",
      "type": "function"
    },
    {
      "inputs": [],
      "name": "i_link",
      "outputs": [
        {
          "internalType": "contract LinkTokenInterface",
          "name": "",
          "type": "address"
        }
      ],
      "stateMutability": "view",
      "type": "function"
    },
    {
      "inputs": [
        {
          "internalType": "address",
          "name": "account",
          "type": "address"
        },
        {
          "internalType": "address",
          "name": "operator",
          "type": "address"
        }
      ],
      "name": "isApprovedForAll",
      "outputs": [
        {
          "internalType": "bool",
          "name": "",
          "type": "bool"
        }
      ],
      "stateMutability": "view",
      "type": "function"
    },
    {
      "inputs": [
        {
          "internalType": "address",
          "name": "forwarder",
          "type": "address"
        }
      ],
      "name": "isTrustedForwarder",
      "outputs": [
        {
          "internalType": "bool",
          "name": "",
          "type": "bool"
        }
      ],
      "stateMutability": "view",
      "type": "function"
    },
    {
      "inputs": [
        {
          "internalType": "uint256",
          "name": "amount",
          "type": "uint256"
        }
      ],
      "name": "mint",
      "outputs": [],
      "stateMutability": "nonpayable",
      "type": "function"
    },
    {
      "inputs": [
        {
          "internalType": "uint256",
          "name": "id",
          "type": "uint256"
        },
        {
          "internalType": "uint256",
          "name": "amount",
          "type": "uint256"
        }
      ],
      "name": "mintMore",
      "outputs": [],
      "stateMutability": "nonpayable",
      "type": "function"
    },
    {
      "inputs": [],
      "name": "owner",
      "outputs": [
        {
          "internalType": "address",
          "name": "",
          "type": "address"
        }
      ],
      "stateMutability": "view",
      "type": "function"
    },
    {
      "inputs": [],
      "name": "renounceOwnership",
      "outputs": [],
      "stateMutability": "nonpayable",
      "type": "function"
    },
    {
      "inputs": [
        {
          "internalType": "address",
          "name": "from",
          "type": "address"
        },
        {
          "internalType": "address",
          "name": "to",
          "type": "address"
        },
        {
          "internalType": "uint256[]",
          "name": "ids",
          "type": "uint256[]"
        },
        {
          "internalType": "uint256[]",
          "name": "amounts",
          "type": "uint256[]"
        },
        {
          "internalType": "bytes",
          "name": "data",
          "type": "bytes"
        }
      ],
      "name": "safeBatchTransferFrom",
      "outputs": [],
      "stateMutability": "nonpayable",
      "type": "function"
    },
    {
      "inputs": [
        {
          "internalType": "address",
          "name": "from",
          "type": "address"
        },
        {
          "internalType": "address",
          "name": "to",
          "type": "address"
        },
        {
          "internalType": "uint256",
          "name": "id",
          "type": "uint256"
        },
        {
          "internalType": "uint256",
          "name": "amount",
          "type": "uint256"
        },
        {
          "internalType": "bytes",
          "name": "data",
          "type": "bytes"
        }
      ],
      "name": "safeTransferFrom",
      "outputs": [],
      "stateMutability": "nonpayable",
      "type": "function"
    },
    {
      "inputs": [
        {
          "internalType": "address",
          "name": "operator",
          "type": "address"
        },
        {
          "internalType": "bool",
          "name": "approved",
          "type": "bool"
        }
      ],
      "name": "setApprovalForAll",
      "outputs": [],
      "stateMutability": "nonpayable",
      "type": "function"
    },
    {
      "inputs": [
        {
          "internalType": "uint64",
          "name": "chain",
          "type": "uint64"
        },
        {
          "internalType": "address",
          "name": "addr",
          "type": "address"
        }
      ],
      "name": "setChain",
      "outputs": [],
      "stateMutability": "nonpayable",
      "type": "function"
    },
    {
      "inputs": [
        {
          "internalType": "bytes4",
          "name": "interfaceId",
          "type": "bytes4"
        }
      ],
      "name": "supportsInterface",
      "outputs": [
        {
          "internalType": "bool",
          "name": "",
          "type": "bool"
        }
      ],
      "stateMutability": "pure",
      "type": "function"
    },
    {
      "inputs": [
        {
          "internalType": "address",
          "name": "newOwner",
          "type": "address"
        }
      ],
      "name": "transferOwnership",
      "outputs": [],
      "stateMutability": "nonpayable",
      "type": "function"
    },
    {
      "inputs": [
        {
          "internalType": "uint256",
          "name": "id",
          "type": "uint256"
        }
      ],
      "name": "uri",
      "outputs": [
        {
          "internalType": "string",
          "name": "",
          "type": "string"
        }
      ],
      "stateMutability": "view",
      "type": "function"
    },
    {
      "inputs": [],
      "name": "utilCount",
      "outputs": [
        {
          "internalType": "uint256",
          "name": "",
          "type": "uint256"
        }
      ],
      "stateMutability": "view",
      "type": "function"
    }
  ],
  "bytecode": {
    "object": "0x60e06040523480156200001157600080fd5b5060405162002bd138038062002bd1833981016040819052620000349162000193565b6001600160a01b03831660805280846200004e81620000c3565b50620000636200005d620000d5565b620000e6565b6001600160a01b03811662000092576040516335fdcccd60e21b81526000600482015260240160405180910390fd5b6001600160a01b031660a0526004620000ac85826200032f565b50506001600160a01b031660c05250620003fb9050565b6002620000d182826200032f565b5050565b6000620000e162000138565b905090565b600380546001600160a01b038381166001600160a01b0319831681179093556040519116919082907f8be0079c531659141344cd1fd0a4f28419497f9722a3daafe3b4186f6b6457e090600090a35050565b6080516000906001600160a01b031633036200015b575060131936013560601c90565b503390565b634e487b7160e01b600052604160045260246000fd5b80516001600160a01b03811681146200018e57600080fd5b919050565b60008060008060808587031215620001aa57600080fd5b84516001600160401b0380821115620001c257600080fd5b818701915087601f830112620001d757600080fd5b815181811115620001ec57620001ec62000160565b604051601f8201601f19908116603f0116810190838211818310171562000217576200021762000160565b81604052828152602093508a848487010111156200023457600080fd5b600091505b8282101562000258578482018401518183018501529083019062000239565b60008484830101528098505050506200027381880162000176565b94505050620002856040860162000176565b9150620002956060860162000176565b905092959194509250565b600181811c90821680620002b557607f821691505b602082108103620002d657634e487b7160e01b600052602260045260246000fd5b50919050565b601f8211156200032a57600081815260208120601f850160051c81016020861015620003055750805b601f850160051c820191505b81811015620003265782815560010162000311565b5050505b505050565b81516001600160401b038111156200034b576200034b62000160565b62000363816200035c8454620002a0565b84620002dc565b602080601f8311600181146200039b5760008415620003825750858301515b600019600386901b1c1916600185901b17855562000326565b600085815260208120601f198616915b82811015620003cc57888601518255948401946001909101908401620003ab565b5085821015620003eb5787850151600019600388901b60f8161c191681555b5050505050600190811b01905550565b60805160a05160c05161276e62000463600039600081816102cc015281816109d801528181610b080152610bfb0152600081816103f10152818161081b01528181610a8c01528181610bcc0152610c8001526000818161027501526117b8015261276e6000f3fe6080604052600436106101345760003560e01c80638d8b65a3116100ab578063ada8bcdc1161006f578063ada8bcdc146103ac578063b0f479a1146103e2578063baacbe9b14610415578063e985e9c51461042b578063f242432a14610474578063f2fde38b1461049457600080fd5b80638d8b65a3146103265780638da5cb5b146103395780639abc832014610357578063a0712d681461036c578063a22cb4651461038c57600080fd5b80634f7c055e116100fd5780634f7c055e146102185780635694048c14610238578063572b6c0514610258578063715018a6146102a55780637d253aff146102ba57806385572ffb1461030657600080fd5b8062fdd58e1461013957806301ffc9a71461016c5780630e89341c1461019c5780632eb2c2d6146101c95780634e1273f4146101eb575b600080fd5b34801561014557600080fd5b50610159610154366004611a71565b6104b4565b6040519081526020015b60405180910390f35b34801561017857600080fd5b5061018c610187366004611ab3565b61054d565b6040519015158152602001610163565b3480156101a857600080fd5b506101bc6101b7366004611ad7565b6105d2565b6040516101639190611b40565b3480156101d557600080fd5b506101e96101e4366004611ce9565b610606565b005b3480156101f757600080fd5b5061020b610206366004611d96565b610664565b6040516101639190611e9d565b34801561022457600080fd5b506101e9610233366004611eb0565b61078d565b34801561024457600080fd5b506101e9610253366004611eee565b6107bb565b34801561026457600080fd5b5061018c610273366004611f25565b7f00000000000000000000000000000000000000000000000000000000000000006001600160a01b0390811691161490565b3480156102b157600080fd5b506101e96107fc565b3480156102c657600080fd5b506102ee7f000000000000000000000000000000000000000000000000000000000000000081565b6040516001600160a01b039091168152602001610163565b34801561031257600080fd5b506101e9610321366004611f42565b610810565b610159610334366004611f7c565b61086f565b34801561034557600080fd5b506003546001600160a01b03166102ee565b34801561036357600080fd5b506101bc610d06565b34801561037857600080fd5b506101e9610387366004611ad7565b610d94565b34801561039857600080fd5b506101e96103a7366004611fbd565b610dd9565b3480156103b857600080fd5b506102ee6103c7366004611feb565b6006602052600090815260409020546001600160a01b031681565b3480156103ee57600080fd5b507f00000000000000000000000000000000000000000000000000000000000000006102ee565b34801561042157600080fd5b5061015960055481565b34801561043757600080fd5b5061018c610446366004612006565b6001600160a01b03918216600090815260016020908152604080832093909416825291909152205460ff1690565b34801561048057600080fd5b506101e961048f366004612024565b610deb565b3480156104a057600080fd5b506101e96104af366004611f25565b610e42565b60006001600160a01b0383166105245760405162461bcd60e51b815260206004820152602a60248201527f455243313135353a2061646472657373207a65726f206973206e6f742061207660448201526930b634b21037bbb732b960b11b60648201526084015b60405180910390fd5b506000818152602081815260408083206001600160a01b03861684529091529020545b92915050565b60006001600160e01b03198216636cdb3d1360e11b148061057e57506001600160e01b031982166303a24d0760e21b145b8061059957506001600160e01b031982166385572ffb60e01b145b806105b457506001600160e01b031982166301ffc9a760e01b145b806105c357506105c382610eb8565b80610547575061054782610eb8565b606060046105df83610eee565b6040516020016105f09291906120e2565b6040516020818303038152906040529050919050565b61060e610f32565b6001600160a01b0316856001600160a01b03161480610634575061063485610446610f32565b6106505760405162461bcd60e51b815260040161051b9061218c565b61065d8585858585610f41565b5050505050565b606081518351146106c95760405162461bcd60e51b815260206004820152602960248201527f455243313135353a206163636f756e747320616e6420696473206c656e677468604482015268040dad2e6dac2e8c6d60bb1b606482015260840161051b565b600083516001600160401b038111156106e4576106e4611b53565b60405190808252806020026020018201604052801561070d578160200160208202803683370190505b50905060005b845181101561078557610758858281518110610731576107316121da565b602002602001015185838151811061074b5761074b6121da565b60200260200101516104b4565b82828151811061076a5761076a6121da565b602090810291909101015261077e81612206565b9050610713565b509392505050565b610795611129565b6107b76107a0610f32565b8383604051806020016040528060008152506111a2565b5050565b6107c3611129565b6001600160401b0391909116600090815260066020526040902080546001600160a01b0319166001600160a01b03909216919091179055565b610804611129565b61080e60006112c1565b565b336001600160a01b037f0000000000000000000000000000000000000000000000000000000000000000161461085b576040516335fdcccd60e21b815233600482015260240161051b565b61086c610867826122c0565b611313565b50565b6001600160401b0383166000908152600660205260408120546001600160a01b031680156108b05760405163057f3fa760e51b815260040160405180910390fd5b6108c16108bb610f32565b856104b4565b8311156108e157604051631e9acf1760e31b815260040160405180910390fd5b6108f36108ec610f32565b8585611418565b600084846108ff610f32565b6040805160208101949094528301919091526001600160a01b0316606082015260800160408051808303601f1901815260a083019091526001600160a01b03841660c083015291506000908060e081016040516020818303038152906040528152602001836040516020016109749190611b40565b60408051601f19818403018152919052815260200160006040519080825280602002602001820160405280156109d057816020015b60408051808201909152600080825260208201528152602001906001900390816109a95790505b5081526020017f00000000000000000000000000000000000000000000000000000000000000006001600160a01b03168152602001610a6d604051806040016040528062030d408152602001600015158152506040805182516024820152602092830151151560448083019190915282518083039091018152606490910190915290810180516001600160e01b03166397a657c960e01b17905290565b90526040516320487ded60e01b81529091506000906001600160a01b037f000000000000000000000000000000000000000000000000000000000000000016906320487ded90610ac3908b90869060040161236c565b602060405180830381865afa158015610ae0573d6000803e3d6000fd5b505050506040513d601f19601f82011682018060405250810190610b049190612445565b90507f00000000000000000000000000000000000000000000000000000000000000006001600160a01b03166323b872dd610b3d610f32565b6040516001600160e01b031960e084901b1681526001600160a01b039091166004820152306024820152604481018490526064016020604051808303816000875af1158015610b90573d6000803e3d6000fd5b505050506040513d601f19601f82011682018060405250810190610bb4919061245e565b5060405163095ea7b360e01b81526001600160a01b037f000000000000000000000000000000000000000000000000000000000000000081166004830152602482018390527f0000000000000000000000000000000000000000000000000000000000000000169063095ea7b3906044016020604051808303816000875af1158015610c44573d6000803e3d6000fd5b505050506040513d601f19601f82011682018060405250810190610c68919061245e565b506040516396f4e9f960e01b81526001600160a01b037f000000000000000000000000000000000000000000000000000000000000000016906396f4e9f990610cb7908b90869060040161236c565b6020604051808303816000875af1158015610cd6573d6000803e3d6000fd5b505050506040513d601f19601f82011682018060405250810190610cfa9190612445565b98975050505050505050565b60048054610d139061208c565b80601f0160208091040260200160405190810160405280929190818152602001828054610d3f9061208c565b8015610d8c5780601f10610d6157610100808354040283529160200191610d8c565b820191906000526020600020905b815481529060010190602001808311610d6f57829003601f168201915b505050505081565b610d9c611129565b600160056000828254610daf919061247b565b9091555061086c9050610dc0610f32565b60055483604051806020016040528060008152506111a2565b6107b7610de4610f32565b838361159f565b610df3610f32565b6001600160a01b0316856001600160a01b03161480610e195750610e1985610446610f32565b610e355760405162461bcd60e51b815260040161051b9061218c565b61065d858585858561167f565b610e4a611129565b6001600160a01b038116610eaf5760405162461bcd60e51b815260206004820152602660248201527f4f776e61626c653a206e6577206f776e657220697320746865207a65726f206160448201526564647265737360d01b606482015260840161051b565b61086c816112c1565b60006001600160e01b031982166385572ffb60e01b148061054757506001600160e01b031982166301ffc9a760e01b1492915050565b606060a06040510180604052602081039150506000815280825b600183039250600a81066030018353600a900480610f085750819003601f19909101908152919050565b6000610f3c6117b4565b905090565b8151835114610fa35760405162461bcd60e51b815260206004820152602860248201527f455243313135353a2069647320616e6420616d6f756e7473206c656e677468206044820152670dad2e6dac2e8c6d60c31b606482015260840161051b565b6001600160a01b038416610fc95760405162461bcd60e51b815260040161051b9061248e565b6000610fd3610f32565b905060005b84518110156110bb576000858281518110610ff557610ff56121da565b602002602001015190506000858381518110611013576110136121da565b602090810291909101810151600084815280835260408082206001600160a01b038e1683529093529190912054909150818110156110635760405162461bcd60e51b815260040161051b906124d3565b6000838152602081815260408083206001600160a01b038e8116855292528083208585039055908b168252812080548492906110a090849061247b565b92505081905550505050806110b490612206565b9050610fd8565b50846001600160a01b0316866001600160a01b0316826001600160a01b03167f4a39dc06d4c0dbc64b70af90fd698a233a518aa5d07e595d983b8c0526c8f7fb878760405161110b92919061251d565b60405180910390a46111218187878787876117fb565b505050505050565b611131610f32565b6001600160a01b031661114c6003546001600160a01b031690565b6001600160a01b03161461080e5760405162461bcd60e51b815260206004820181905260248201527f4f776e61626c653a2063616c6c6572206973206e6f7420746865206f776e6572604482015260640161051b565b6001600160a01b0384166112025760405162461bcd60e51b815260206004820152602160248201527f455243313135353a206d696e7420746f20746865207a65726f206164647265736044820152607360f81b606482015260840161051b565b600061120c610f32565b9050600061121985611956565b9050600061122685611956565b90506000868152602081815260408083206001600160a01b038b1684529091528120805487929061125890849061247b565b909155505060408051878152602081018790526001600160a01b03808a1692600092918716917fc3d58168c5ae7397731d063d5bbf3d657854427343f4c083240f7aacaa2d0f62910160405180910390a46112b8836000898989896119a1565b50505050505050565b600380546001600160a01b038381166001600160a01b0319831681179093556040519116919082907f8be0079c531659141344cd1fd0a4f28419497f9722a3daafe3b4186f6b6457e090600090a35050565b806040015180602001905181019061132b9190612542565b604051602001611353919060609190911b6bffffffffffffffffffffffff1916815260140190565b60408051601f198184030181528282528051602091820120848201516001600160401b0316600090815260068352929092205460601b6bffffffffffffffffffffffff1916908301529060340160405160208183030381529060405280519060200120146113d45760405163057f3fa760e51b815260040160405180910390fd5b600080600083606001518060200190518101906113f1919061255f565b925092509250611412818484604051806020016040528060008152506111a2565b50505050565b6001600160a01b03831661147a5760405162461bcd60e51b815260206004820152602360248201527f455243313135353a206275726e2066726f6d20746865207a65726f206164647260448201526265737360e81b606482015260840161051b565b6000611484610f32565b9050600061149184611956565b9050600061149e84611956565b60408051602080820183526000918290528882528181528282206001600160a01b038b16835290522054909150848110156115275760405162461bcd60e51b8152602060048201526024808201527f455243313135353a206275726e20616d6f756e7420657863656564732062616c604482015263616e636560e01b606482015260840161051b565b6000868152602081815260408083206001600160a01b038b81168086529184528285208a8703905582518b81529384018a90529092908816917fc3d58168c5ae7397731d063d5bbf3d657854427343f4c083240f7aacaa2d0f62910160405180910390a46040805160208101909152600090526112b8565b816001600160a01b0316836001600160a01b0316036116125760405162461bcd60e51b815260206004820152602960248201527f455243313135353a2073657474696e6720617070726f76616c20737461747573604482015268103337b91039b2b63360b91b606482015260840161051b565b6001600160a01b03838116600081815260016020908152604080832094871680845294825291829020805460ff191686151590811790915591519182527f17307eab39ab6107e8899845ad3d59bd9653f200f220920489ca2b5937696c31910160405180910390a3505050565b6001600160a01b0384166116a55760405162461bcd60e51b815260040161051b9061248e565b60006116af610f32565b905060006116bc85611956565b905060006116c985611956565b90506000868152602081815260408083206001600160a01b038c1684529091529020548581101561170c5760405162461bcd60e51b815260040161051b906124d3565b6000878152602081815260408083206001600160a01b038d8116855292528083208985039055908a1682528120805488929061174990849061247b565b909155505060408051888152602081018890526001600160a01b03808b16928c821692918816917fc3d58168c5ae7397731d063d5bbf3d657854427343f4c083240f7aacaa2d0f62910160405180910390a46117a9848a8a8a8a8a6119a1565b505050505050505050565b60007f00000000000000000000000000000000000000000000000000000000000000006001600160a01b031633036117f3575060131936013560601c90565b503390565b90565b6001600160a01b0384163b156111215760405163bc197c8160e01b81526001600160a01b0385169063bc197c819061183f9089908990889088908890600401612598565b6020604051808303816000875af192505050801561187a575060408051601f3d908101601f19168201909252611877918101906125ea565b60015b61192657611886612607565b806308c379a0036118bf575061189a612622565b806118a557506118c1565b8060405162461bcd60e51b815260040161051b9190611b40565b505b60405162461bcd60e51b815260206004820152603460248201527f455243313135353a207472616e7366657220746f206e6f6e2d455243313135356044820152732932b1b2b4bb32b91034b6b83632b6b2b73a32b960611b606482015260840161051b565b6001600160e01b0319811663bc197c8160e01b146112b85760405162461bcd60e51b815260040161051b906126ab565b60408051600180825281830190925260609160009190602080830190803683370190505090508281600081518110611990576119906121da565b602090810291909101015292915050565b6001600160a01b0384163b156111215760405163f23a6e6160e01b81526001600160a01b0385169063f23a6e61906119e590899089908890889088906004016126f3565b6020604051808303816000875af1925050508015611a20575060408051601f3d908101601f19168201909252611a1d918101906125ea565b60015b611a2c57611886612607565b6001600160e01b0319811663f23a6e6160e01b146112b85760405162461bcd60e51b815260040161051b906126ab565b6001600160a01b038116811461086c57600080fd5b60008060408385031215611a8457600080fd5b8235611a8f81611a5c565b946020939093013593505050565b6001600160e01b03198116811461086c57600080fd5b600060208284031215611ac557600080fd5b8135611ad081611a9d565b9392505050565b600060208284031215611ae957600080fd5b5035919050565b60005b83811015611b0b578181015183820152602001611af3565b50506000910152565b60008151808452611b2c816020860160208601611af0565b601f01601f19169290920160200192915050565b602081526000611ad06020830184611b14565b634e487b7160e01b600052604160045260246000fd5b604081018181106001600160401b0382111715611b8857611b88611b53565b60405250565b601f8201601f191681016001600160401b0381118282101715611bb357611bb3611b53565b6040525050565b60405160a081016001600160401b0381118282101715611bdc57611bdc611b53565b60405290565b60006001600160401b03821115611bfb57611bfb611b53565b5060051b60200190565b600082601f830112611c1657600080fd5b81356020611c2382611be2565b604051611c308282611b8e565b83815260059390931b8501820192828101915086841115611c5057600080fd5b8286015b84811015611c6b5780358352918301918301611c54565b509695505050505050565b600082601f830112611c8757600080fd5b81356001600160401b03811115611ca057611ca0611b53565b604051611cb7601f8301601f191660200182611b8e565b818152846020838601011115611ccc57600080fd5b816020850160208301376000918101602001919091529392505050565b600080600080600060a08688031215611d0157600080fd5b8535611d0c81611a5c565b94506020860135611d1c81611a5c565b935060408601356001600160401b0380821115611d3857600080fd5b611d4489838a01611c05565b94506060880135915080821115611d5a57600080fd5b611d6689838a01611c05565b93506080880135915080821115611d7c57600080fd5b50611d8988828901611c76565b9150509295509295909350565b60008060408385031215611da957600080fd5b82356001600160401b0380821115611dc057600080fd5b818501915085601f830112611dd457600080fd5b81356020611de182611be2565b604051611dee8282611b8e565b83815260059390931b8501820192828101915089841115611e0e57600080fd5b948201945b83861015611e35578535611e2681611a5c565b82529482019490820190611e13565b96505086013592505080821115611e4b57600080fd5b50611e5885828601611c05565b9150509250929050565b600081518084526020808501945080840160005b83811015611e9257815187529582019590820190600101611e76565b509495945050505050565b602081526000611ad06020830184611e62565b60008060408385031215611ec357600080fd5b50508035926020909101359150565b80356001600160401b0381168114611ee957600080fd5b919050565b60008060408385031215611f0157600080fd5b611f0a83611ed2565b91506020830135611f1a81611a5c565b809150509250929050565b600060208284031215611f3757600080fd5b8135611ad081611a5c565b600060208284031215611f5457600080fd5b81356001600160401b03811115611f6a57600080fd5b820160a08185031215611ad057600080fd5b600080600060608486031215611f9157600080fd5b611f9a84611ed2565b95602085013595506040909401359392505050565b801515811461086c57600080fd5b60008060408385031215611fd057600080fd5b8235611fdb81611a5c565b91506020830135611f1a81611faf565b600060208284031215611ffd57600080fd5b611ad082611ed2565b6000806040838503121561201957600080fd5b8235611f0a81611a5c565b600080600080600060a0868803121561203c57600080fd5b853561204781611a5c565b9450602086013561205781611a5c565b9350604086013592506060860135915060808601356001600160401b0381111561208057600080fd5b611d8988828901611c76565b600181811c908216806120a057607f821691505b6020821081036120c057634e487b7160e01b600052602260045260246000fd5b50919050565b600081516120d8818560208601611af0565b9290920192915050565b600080845481600182811c9150808316806120fe57607f831692505b6020808410820361211d57634e487b7160e01b86526022600452602486fd5b818015612131576001811461214657612173565b60ff1986168952841515850289019650612173565b60008b81526020902060005b8681101561216b5781548b820152908501908301612152565b505084890196505b50505050505061218381856120c6565b95945050505050565b6020808252602e908201527f455243313135353a2063616c6c6572206973206e6f7420746f6b656e206f776e60408201526d195c881bdc88185c1c1c9bdd995960921b606082015260800190565b634e487b7160e01b600052603260045260246000fd5b634e487b7160e01b600052601160045260246000fd5b600060018201612218576122186121f0565b5060010190565b600082601f83011261223057600080fd5b8135602061223d82611be2565b6040805161224b8382611b8e565b84815260069490941b860183019383810192508785111561226b57600080fd5b8387015b858110156122b45782818a0312156122875760008081fd5b825161229281611b69565b813561229d81611a5c565b81528186013586820152845292840192820161226f565b50979650505050505050565b600060a082360312156122d257600080fd5b6122da611bba565b823581526122ea60208401611ed2565b602082015260408301356001600160401b038082111561230957600080fd5b61231536838701611c76565b6040840152606085013591508082111561232e57600080fd5b61233a36838701611c76565b6060840152608085013591508082111561235357600080fd5b506123603682860161221f565b60808301525092915050565b600060406001600160401b038516835260208181850152845160a08386015261239860e0860182611b14565b905081860151603f19808784030160608801526123b58383611b14565b88860151888203830160808a01528051808352908601945060009350908501905b8084101561240857845180516001600160a01b03168352860151868301529385019360019390930192908601906123d6565b5060608901516001600160a01b031660a08901526080890151888203830160c08a015295506124378187611b14565b9a9950505050505050505050565b60006020828403121561245757600080fd5b5051919050565b60006020828403121561247057600080fd5b8151611ad081611faf565b80820180821115610547576105476121f0565b60208082526025908201527f455243313135353a207472616e7366657220746f20746865207a65726f206164604082015264647265737360d81b606082015260800190565b6020808252602a908201527f455243313135353a20696e73756666696369656e742062616c616e636520666f60408201526939103a3930b739b332b960b11b606082015260800190565b6040815260006125306040830185611e62565b82810360208401526121838185611e62565b60006020828403121561255457600080fd5b8151611ad081611a5c565b60008060006060848603121561257457600080fd5b8351925060208401519150604084015161258d81611a5c565b809150509250925092565b6001600160a01b0386811682528516602082015260a0604082018190526000906125c490830186611e62565b82810360608401526125d68186611e62565b90508281036080840152610cfa8185611b14565b6000602082840312156125fc57600080fd5b8151611ad081611a9d565b600060033d11156117f85760046000803e5060005160e01c90565b600060443d10156126305790565b6040516003193d81016004833e81513d6001600160401b03816024840111818411171561265f57505050505090565b82850191508151818111156126775750505050505090565b843d87010160208285010111156126915750505050505090565b6126a060208286010187611b8e565b509095945050505050565b60208082526028908201527f455243313135353a204552433131353552656365697665722072656a656374656040820152676420746f6b656e7360c01b606082015260800190565b6001600160a01b03868116825285166020820152604081018490526060810183905260a06080820181905260009061272d90830184611b14565b97965050505050505056fea26469706673582212202652ac5d9535a9031b007ad514bc1f5582dedbd53fe93e84fef3989d756f5d0964736f6c63430008130033",
    "linkReferences": {}
  },
  "methodIdentifiers": {
    "balanceOf(address,uint256)": "00fdd58e",
    "balanceOfBatch(address[],uint256[])": "4e1273f4",
    "baseUri()": "9abc8320",
    "ccipReceive((bytes32,uint64,bytes,bytes,(address,uint256)[]))": "85572ffb",
    "chains(uint64)": "ada8bcdc",
    "crossChainTransfer(uint64,uint256,uint256)": "8d8b65a3",
    "getRouter()": "b0f479a1",
    "i_link()": "7d253aff",
    "isApprovedForAll(address,address)": "e985e9c5",
    "isTrustedForwarder(address)": "572b6c05",
    "mint(uint256)": "a0712d68",
    "mintMore(uint256,uint256)": "4f7c055e",
    "owner()": "8da5cb5b",
    "renounceOwnership()": "715018a6",
    "safeBatchTransferFrom(address,address,uint256[],uint256[],bytes)": "2eb2c2d6",
    "safeTransferFrom(address,address,uint256,uint256,bytes)": "f242432a",
    "setApprovalForAll(address,bool)": "a22cb465",
    "setChain(uint64,address)": "5694048c",
    "supportsInterface(bytes4)": "01ffc9a7",
    "transferOwnership(address)": "f2fde38b",
    "uri(uint256)": "0e89341c",
    "utilCount()": "baacbe9b"
  },
  "id": 46
}