{
  "abi": [
    {
      "inputs": [
        {
          "internalType": "uint256",
          "name": "_size",
          "type": "uint256"
        },
        {
          "internalType": "uint256",
          "name": "_perSize",
          "type": "uint256"
        },
        {
          "internalType": "string",
          "name": "_baseUri",
          "type": "string"
        },
        {
          "internalType": "address",
          "name": "_utilsAddress",
          "type": "address"
        },
        {
          "internalType": "address",
          "name": "trustedForwarder",
          "type": "address"
        }
      ],
      "stateMutability": "nonpayable",
      "type": "constructor"
    },
    {
      "inputs": [],
      "name": "InvalidLength",
      "type": "error"
    },
    {
      "inputs": [],
      "name": "InvalidXIndex",
      "type": "error"
    },
    {
      "inputs": [],
      "name": "InvalidYIndex",
      "type": "error"
    },
    {
      "inputs": [],
      "name": "LandAlreadyOwned",
      "type": "error"
    },
    {
      "inputs": [],
      "name": "NotOwner",
      "type": "error"
    },
    {
      "inputs": [],
      "name": "SizeNotDivisibleByPerSize",
      "type": "error"
    },
    {
      "inputs": [],
      "name": "ZeroPerSize",
      "type": "error"
    },
    {
      "inputs": [],
      "name": "ZeroSize",
      "type": "error"
    },
    {
      "anonymous": false,
      "inputs": [
        {
          "indexed": true,
          "internalType": "address",
          "name": "owner",
          "type": "address"
        },
        {
          "indexed": true,
          "internalType": "address",
          "name": "approved",
          "type": "address"
        },
        {
          "indexed": true,
          "internalType": "uint256",
          "name": "tokenId",
          "type": "uint256"
        }
      ],
      "name": "Approval",
      "type": "event"
    },
    {
      "anonymous": false,
      "inputs": [
        {
          "indexed": true,
          "internalType": "address",
          "name": "owner",
          "type": "address"
        },
        {
          "indexed": true,
          "internalType": "address",
          "name": "operator",
          "type": "address"
        },
        {
          "indexed": false,
          "internalType": "bool",
          "name": "approved",
          "type": "bool"
        }
      ],
      "name": "ApprovalForAll",
      "type": "event"
    },
    {
      "anonymous": false,
      "inputs": [
        {
          "indexed": true,
          "internalType": "address",
          "name": "from",
          "type": "address"
        },
        {
          "indexed": true,
          "internalType": "address",
          "name": "to",
          "type": "address"
        },
        {
          "indexed": true,
          "internalType": "uint256",
          "name": "tokenId",
          "type": "uint256"
        }
      ],
      "name": "Transfer",
      "type": "event"
    },
    {
      "inputs": [
        {
          "internalType": "address",
          "name": "to",
          "type": "address"
        },
        {
          "internalType": "uint256",
          "name": "tokenId",
          "type": "uint256"
        }
      ],
      "name": "approve",
      "outputs": [],
      "stateMutability": "nonpayable",
      "type": "function"
    },
    {
      "inputs": [
        {
          "internalType": "address",
          "name": "owner",
          "type": "address"
        }
      ],
      "name": "balanceOf",
      "outputs": [
        {
          "internalType": "uint256",
          "name": "",
          "type": "uint256"
        }
      ],
      "stateMutability": "view",
      "type": "function"
    },
    {
      "inputs": [],
      "name": "baseUri",
      "outputs": [
        {
          "internalType": "string",
          "name": "",
          "type": "string"
        }
      ],
      "stateMutability": "view",
      "type": "function"
    },
    {
      "inputs": [
        {
          "internalType": "uint256",
          "name": "tokenId",
          "type": "uint256"
        }
      ],
      "name": "getApproved",
      "outputs": [
        {
          "internalType": "address",
          "name": "",
          "type": "address"
        }
      ],
      "stateMutability": "view",
      "type": "function"
    },
    {
      "inputs": [
        {
          "internalType": "address",
          "name": "owner",
          "type": "address"
        },
        {
          "internalType": "address",
          "name": "operator",
          "type": "address"
        }
      ],
      "name": "isApprovedForAll",
      "outputs": [
        {
          "internalType": "bool",
          "name": "",
          "type": "bool"
        }
      ],
      "stateMutability": "view",
      "type": "function"
    },
    {
      "inputs": [
        {
          "internalType": "address",
          "name": "forwarder",
          "type": "address"
        }
      ],
      "name": "isTrustedForwarder",
      "outputs": [
        {
          "internalType": "bool",
          "name": "",
          "type": "bool"
        }
      ],
      "stateMutability": "view",
      "type": "function"
    },
    {
      "inputs": [
        {
          "internalType": "uint256",
          "name": "",
          "type": "uint256"
        }
      ],
      "name": "land",
      "outputs": [
        {
          "internalType": "uint256",
          "name": "xIndex",
          "type": "uint256"
        },
        {
          "internalType": "uint256",
          "name": "yIndex",
          "type": "uint256"
        }
      ],
      "stateMutability": "view",
      "type": "function"
    },
    {
      "inputs": [],
      "name": "landCount",
      "outputs": [
        {
          "internalType": "uint256",
          "name": "",
          "type": "uint256"
        }
      ],
      "stateMutability": "view",
      "type": "function"
    },
    {
      "inputs": [
        {
          "internalType": "uint256",
          "name": "",
          "type": "uint256"
        },
        {
          "internalType": "uint256",
          "name": "",
          "type": "uint256"
        }
      ],
      "name": "landIds",
      "outputs": [
        {
          "internalType": "uint256",
          "name": "",
          "type": "uint256"
        }
      ],
      "stateMutability": "view",
      "type": "function"
    },
    {
      "inputs": [
        {
          "internalType": "uint256",
          "name": "",
          "type": "uint256"
        },
        {
          "internalType": "uint256",
          "name": "",
          "type": "uint256"
        }
      ],
      "name": "map",
      "outputs": [
        {
          "internalType": "uint256",
          "name": "",
          "type": "uint256"
        }
      ],
      "stateMutability": "view",
      "type": "function"
    },
    {
      "inputs": [
        {
          "internalType": "uint256",
          "name": "xIndex",
          "type": "uint256"
        },
        {
          "internalType": "uint256",
          "name": "yIndex",
          "type": "uint256"
        }
      ],
      "name": "mint",
      "outputs": [
        {
          "internalType": "uint256",
          "name": "",
          "type": "uint256"
        }
      ],
      "stateMutability": "nonpayable",
      "type": "function"
    },
    {
      "inputs": [],
      "name": "name",
      "outputs": [
        {
          "internalType": "string",
          "name": "",
          "type": "string"
        }
      ],
      "stateMutability": "view",
      "type": "function"
    },
    {
      "inputs": [
        {
          "internalType": "address",
          "name": "",
          "type": "address"
        },
        {
          "internalType": "address",
          "name": "",
          "type": "address"
        },
        {
          "internalType": "uint256[]",
          "name": "",
          "type": "uint256[]"
        },
        {
          "internalType": "uint256[]",
          "name": "",
          "type": "uint256[]"
        },
        {
          "internalType": "bytes",
          "name": "",
          "type": "bytes"
        }
      ],
      "name": "onERC1155BatchReceived",
      "outputs": [
        {
          "internalType": "bytes4",
          "name": "",
          "type": "bytes4"
        }
      ],
      "stateMutability": "nonpayable",
      "type": "function"
    },
    {
      "inputs": [
        {
          "internalType": "address",
          "name": "",
          "type": "address"
        },
        {
          "internalType": "address",
          "name": "",
          "type": "address"
        },
        {
          "internalType": "uint256",
          "name": "",
          "type": "uint256"
        },
        {
          "internalType": "uint256",
          "name": "",
          "type": "uint256"
        },
        {
          "internalType": "bytes",
          "name": "",
          "type": "bytes"
        }
      ],
      "name": "onERC1155Received",
      "outputs": [
        {
          "internalType": "bytes4",
          "name": "",
          "type": "bytes4"
        }
      ],
      "stateMutability": "nonpayable",
      "type": "function"
    },
    {
      "inputs": [
        {
          "internalType": "uint256",
          "name": "tokenId",
          "type": "uint256"
        }
      ],
      "name": "ownerOf",
      "outputs": [
        {
          "internalType": "address",
          "name": "",
          "type": "address"
        }
      ],
      "stateMutability": "view",
      "type": "function"
    },
    {
      "inputs": [],
      "name": "perSize",
      "outputs": [
        {
          "internalType": "uint256",
          "name": "",
          "type": "uint256"
        }
      ],
      "stateMutability": "view",
      "type": "function"
    },
    {
      "inputs": [
        {
          "internalType": "uint256",
          "name": "x",
          "type": "uint256"
        },
        {
          "internalType": "uint256",
          "name": "y",
          "type": "uint256"
        },
        {
          "internalType": "uint256",
          "name": "utilId",
          "type": "uint256"
        }
      ],
      "name": "placeItem",
      "outputs": [],
      "stateMutability": "nonpayable",
      "type": "function"
    },
    {
      "inputs": [
        {
          "internalType": "uint256[]",
          "name": "x",
          "type": "uint256[]"
        },
        {
          "internalType": "uint256[]",
          "name": "y",
          "type": "uint256[]"
        },
        {
          "internalType": "uint256[]",
          "name": "utilId",
          "type": "uint256[]"
        }
      ],
      "name": "placeItems",
      "outputs": [],
      "stateMutability": "nonpayable",
      "type": "function"
    },
    {
      "inputs": [
        {
          "internalType": "uint256",
          "name": "x",
          "type": "uint256"
        },
        {
          "internalType": "uint256",
          "name": "y",
          "type": "uint256"
        }
      ],
      "name": "removeItem",
      "outputs": [],
      "stateMutability": "nonpayable",
      "type": "function"
    },
    {
      "inputs": [
        {
          "internalType": "address",
          "name": "from",
          "type": "address"
        },
        {
          "internalType": "address",
          "name": "to",
          "type": "address"
        },
        {
          "internalType": "uint256",
          "name": "tokenId",
          "type": "uint256"
        }
      ],
      "name": "safeTransferFrom",
      "outputs": [],
      "stateMutability": "nonpayable",
      "type": "function"
    },
    {
      "inputs": [
        {
          "internalType": "address",
          "name": "from",
          "type": "address"
        },
        {
          "internalType": "address",
          "name": "to",
          "type": "address"
        },
        {
          "internalType": "uint256",
          "name": "tokenId",
          "type": "uint256"
        },
        {
          "internalType": "bytes",
          "name": "data",
          "type": "bytes"
        }
      ],
      "name": "safeTransferFrom",
      "outputs": [],
      "stateMutability": "nonpayable",
      "type": "function"
    },
    {
      "inputs": [
        {
          "internalType": "address",
          "name": "operator",
          "type": "address"
        },
        {
          "internalType": "bool",
          "name": "approved",
          "type": "bool"
        }
      ],
      "name": "setApprovalForAll",
      "outputs": [],
      "stateMutability": "nonpayable",
      "type": "function"
    },
    {
      "inputs": [],
      "name": "size",
      "outputs": [
        {
          "internalType": "uint256",
          "name": "",
          "type": "uint256"
        }
      ],
      "stateMutability": "view",
      "type": "function"
    },
    {
      "inputs": [
        {
          "internalType": "bytes4",
          "name": "interfaceId",
          "type": "bytes4"
        }
      ],
      "name": "supportsInterface",
      "outputs": [
        {
          "internalType": "bool",
          "name": "",
          "type": "bool"
        }
      ],
      "stateMutability": "view",
      "type": "function"
    },
    {
      "inputs": [],
      "name": "symbol",
      "outputs": [
        {
          "internalType": "string",
          "name": "",
          "type": "string"
        }
      ],
      "stateMutability": "view",
      "type": "function"
    },
    {
      "inputs": [
        {
          "internalType": "uint256",
          "name": "id",
          "type": "uint256"
        }
      ],
      "name": "tokenURI",
      "outputs": [
        {
          "internalType": "string",
          "name": "",
          "type": "string"
        }
      ],
      "stateMutability": "view",
      "type": "function"
    },
    {
      "inputs": [
        {
          "internalType": "address",
          "name": "from",
          "type": "address"
        },
        {
          "internalType": "address",
          "name": "to",
          "type": "address"
        },
        {
          "internalType": "uint256",
          "name": "tokenId",
          "type": "uint256"
        }
      ],
      "name": "transferFrom",
      "outputs": [],
      "stateMutability": "nonpayable",
      "type": "function"
    },
    {
      "inputs": [
        {
          "internalType": "uint256",
          "name": "x",
          "type": "uint256"
        },
        {
          "internalType": "uint256",
          "name": "y",
          "type": "uint256"
        },
        {
          "internalType": "uint256",
          "name": "utilId",
          "type": "uint256"
        }
      ],
      "name": "updateItem",
      "outputs": [],
      "stateMutability": "nonpayable",
      "type": "function"
    },
    {
      "inputs": [
        {
          "internalType": "uint256[]",
          "name": "x",
          "type": "uint256[]"
        },
        {
          "internalType": "uint256[]",
          "name": "y",
          "type": "uint256[]"
        },
        {
          "internalType": "uint256[]",
          "name": "utilId",
          "type": "uint256[]"
        }
      ],
      "name": "updateItems",
      "outputs": [],
      "stateMutability": "nonpayable",
      "type": "function"
    },
    {
      "inputs": [],
      "name": "utilCount",
      "outputs": [
        {
          "internalType": "uint256",
          "name": "",
          "type": "uint256"
        }
      ],
      "stateMutability": "view",
      "type": "function"
    },
    {
      "inputs": [],
      "name": "utilsAddress",
      "outputs": [
        {
          "internalType": "address",
          "name": "",
          "type": "address"
        }
      ],
      "stateMutability": "view",
      "type": "function"
    }
  ],
  "bytecode": {
    "object": "0x60a06040523480156200001157600080fd5b50604051620022c8380380620022c883398101604081905262000034916200017c565b60408051808201825260038082526204d61760ec1b60208084019190915283518085019094529083526204d41560ec1b908301526001600160a01b0383166080529060006200008483826200031a565b5060016200009382826200031a565b50505084600003620000b85760405163c459d23f60e01b815260040160405180910390fd5b83600003620000da57604051630c110df560e41b815260040160405180910390fd5b60068590556007849055620000f08486620003e6565b156200010f57604051632b0baa0760e11b815260040160405180910390fd5b60096200011d84826200031a565b5050600b80546001600160a01b0319166001600160a01b03929092169190911790555062000409915050565b634e487b7160e01b600052604160045260246000fd5b80516001600160a01b03811681146200017757600080fd5b919050565b600080600080600060a086880312156200019557600080fd5b855160208088015160408901519297509550906001600160401b0380821115620001be57600080fd5b818901915089601f830112620001d357600080fd5b815181811115620001e857620001e862000149565b604051601f8201601f19908116603f0116810190838211818310171562000213576200021362000149565b816040528281528c868487010111156200022c57600080fd5b600093505b8284101562000250578484018601518185018701529285019262000231565b60008684830101528098505050505050506200026f606087016200015f565b91506200027f608087016200015f565b90509295509295909350565b600181811c90821680620002a057607f821691505b602082108103620002c157634e487b7160e01b600052602260045260246000fd5b50919050565b601f8211156200031557600081815260208120601f850160051c81016020861015620002f05750805b601f850160051c820191505b818110156200031157828155600101620002fc565b5050505b505050565b81516001600160401b0381111562000336576200033662000149565b6200034e816200034784546200028b565b84620002c7565b602080601f8311600181146200038657600084156200036d5750858301515b600019600386901b1c1916600185901b17855562000311565b600085815260208120601f198616915b82811015620003b75788860151825594840194600190910190840162000396565b5085821015620003d65787850151600019600388901b60f8161c191681555b5050505050600190811b01905550565b6000826200040457634e487b7160e01b600052601260045260246000fd5b500690565b608051611e9c6200042c6000396000818161032201526114e80152611e9c6000f3fe608060405234801561001057600080fd5b50600436106101e55760003560e01c8063870fc3471161010f578063b88d4fde116100a2578063d7bce65811610071578063d7bce658146104a1578063e985e9c5146104aa578063f23a6e61146104e6578063fb9bb97f1461050557600080fd5b8063b88d4fde1461043a578063baacbe9b1461044d578063bc197c8114610456578063c87b56dd1461048e57600080fd5b80639abc8320116100de5780639abc8320146103eb578063a22cb465146103f3578063a90b912814610406578063ae9deae41461043157600080fd5b8063870fc347146103b4578063949d225d146103c757806395d89b41146103d057806395f5b17a146103d857600080fd5b806323b872dd11610187578063572b6c0511610156578063572b6c05146103125780636352211e1461035257806370a0823114610365578063861e46561461037857600080fd5b806323b872dd146102c657806342842e0e146102d9578063512c4aaf146102ec578063539447d4146102ff57600080fd5b8063095ea7b3116101c3578063095ea7b3146102525780630d0637b31461026757806319579a541461027a5780631b2ef1ca146102b357600080fd5b806301ffc9a7146101ea57806306fdde0314610212578063081812fc14610227575b600080fd5b6101fd6101f8366004611646565b610518565b60405190151581526020015b60405180910390f35b61021a61056a565b60405161020991906116ba565b61023a6102353660046116cd565b6105fc565b6040516001600160a01b039091168152602001610209565b610265610260366004611702565b610623565b005b6102656102753660046117f3565b61074f565b6102a561028836600461187b565b600c60209081526000928352604080842090915290825290205481565b604051908152602001610209565b6102a56102c136600461187b565b61080d565b6102656102d436600461189d565b610920565b6102656102e736600461189d565b610958565b600b5461023a906001600160a01b031681565b61026561030d3660046118d9565b610973565b6101fd610320366004611905565b7f00000000000000000000000000000000000000000000000000000000000000006001600160a01b0390811691161490565b61023a6103603660046116cd565b610990565b6102a5610373366004611905565b6109f0565b61039f6103863660046116cd565b600d602052600090815260409020805460019091015482565b60408051928352602083019190915201610209565b6102656103c236600461187b565b610a76565b6102a560065481565b61021a610bcc565b6102656103e63660046118d9565b610bdb565b61021a610d89565b610265610401366004611920565b610e17565b6102a561041436600461187b565b600e60209081526000928352604080842090915290825290205481565b6102a560075481565b6102656104483660046119cc565b610e2d565b6102a5600a5481565b610475610464366004611a34565b63bc197c8160e01b95945050505050565b6040516001600160e01b03199091168152602001610209565b61021a61049c3660046116cd565b610e66565b6102a560085481565b6101fd6104b8366004611ade565b6001600160a01b03918216600090815260056020908152604080832093909416825291909152205460ff1690565b6104756104f4366004611b11565b63f23a6e6160e01b95945050505050565b6102656105133660046117f3565b610e9a565b60006001600160e01b031982166380ac58cd60e01b148061054957506001600160e01b03198216635b5e139f60e01b145b8061056457506301ffc9a760e01b6001600160e01b03198316145b92915050565b60606000805461057990611b76565b80601f01602080910402602001604051908101604052809291908181526020018280546105a590611b76565b80156105f25780601f106105c7576101008083540402835291602001916105f2565b820191906000526020600020905b8154815290600101906020018083116105d557829003601f168201915b5050505050905090565b600061060782610f52565b506000908152600460205260409020546001600160a01b031690565b600061062e82610990565b9050806001600160a01b0316836001600160a01b0316036106a05760405162461bcd60e51b815260206004820152602160248201527f4552433732313a20617070726f76616c20746f2063757272656e74206f776e656044820152603960f91b60648201526084015b60405180910390fd5b806001600160a01b03166106b2610fb4565b6001600160a01b031614806106ce57506106ce816104b8610fb4565b6107405760405162461bcd60e51b815260206004820152603d60248201527f4552433732313a20617070726f76652063616c6c6572206973206e6f7420746f60448201527f6b656e206f776e6572206f7220617070726f76656420666f7220616c6c0000006064820152608401610697565b61074a8383610fc3565b505050565b81518351146107715760405163251f56a160e21b815260040160405180910390fd5b80518351146107935760405163251f56a160e21b815260040160405180910390fd5b60005b8351811015610807576107f58482815181106107b4576107b4611bb0565b60200260200101518483815181106107ce576107ce611bb0565b60200260200101518484815181106107e8576107e8611bb0565b6020026020010151610bdb565b806107ff81611bdc565b915050610796565b50505050565b600060075460065461081f9190611bf5565b831061083e5760405163c24c736760e01b815260040160405180910390fd5b60075460065461084e9190611bf5565b821061086d57604051634665aadb60e11b815260040160405180910390fd5b6000838152600c60209081526040808320858452909152902054156108a5576040516306a9893b60e51b815260040160405180910390fd5b6001600860008282546108b89190611c17565b90915550506008546000848152600c60209081526040808320868452825280832084905580518082018252878152808301878152948452600d90925290912090518155905160019091015561091661090e610fb4565b600854611031565b5060085492915050565b61093161092b610fb4565b826111bc565b61094d5760405162461bcd60e51b815260040161069790611c2a565b61074a83838361123b565b61074a83838360405180602001604052806000815250610e2d565b806000036109855761074a8383610a76565b61074a838383610bdb565b6000818152600260205260408120546001600160a01b0316806105645760405162461bcd60e51b8152602060048201526018602482015277115490cdcc8c4e881a5b9d985b1a59081d1bdad95b88125160421b6044820152606401610697565b60006001600160a01b038216610a5a5760405162461bcd60e51b815260206004820152602960248201527f4552433732313a2061646472657373207a65726f206973206e6f7420612076616044820152683634b21037bbb732b960b91b6064820152608401610697565b506001600160a01b031660009081526003602052604090205490565b610abd600c600060075485610a8b9190611bf5565b8152602001908152602001600020600060075484610aa99190611bf5565b815260200190815260200160002054610990565b6001600160a01b0316610ace610fb4565b6001600160a01b031614610af5576040516330cd747160e01b815260040160405180910390fd5b600b546000838152600e602090815260408083208584529091529020546001600160a01b039091169015610baf57806001600160a01b031663f242432a30610b3b610fb4565b6000878152600e60209081526040808320898452909152908190205490516001600160e01b031960e086901b168152610b7c93929190600190600401611c77565b600060405180830381600087803b158015610b9657600080fd5b505af1158015610baa573d6000803e3d6000fd5b505050505b506000918252600e60209081526040808420928452919052812055565b60606001805461057990611b76565b610c0e600c600060075486610bf09190611bf5565b8152602001908152602001600020600060075485610aa99190611bf5565b6001600160a01b0316610c1f610fb4565b6001600160a01b031614610c46576040516330cd747160e01b815260040160405180910390fd5b600b546000848152600e602090815260408083208684529091529020546001600160a01b039091169015610d0057806001600160a01b031663f242432a30610c8c610fb4565b6000888152600e602090815260408083208a8452909152908190205490516001600160e01b031960e086901b168152610ccd93929190600190600401611c77565b600060405180830381600087803b158015610ce757600080fd5b505af1158015610cfb573d6000803e3d6000fd5b505050505b806001600160a01b031663f242432a610d17610fb4565b308560016040518563ffffffff1660e01b8152600401610d3a9493929190611c77565b600060405180830381600087803b158015610d5457600080fd5b505af1158015610d68573d6000803e3d6000fd5b50505060009485525050600e60209081526040808520938552929052912055565b60098054610d9690611b76565b80601f0160208091040260200160405190810160405280929190818152602001828054610dc290611b76565b8015610e0f5780601f10610de457610100808354040283529160200191610e0f565b820191906000526020600020905b815481529060010190602001808311610df257829003601f168201915b505050505081565b610e29610e22610fb4565b838361139f565b5050565b610e3e610e38610fb4565b836111bc565b610e5a5760405162461bcd60e51b815260040161069790611c2a565b6108078484848461146d565b60606009610e73836114a0565b604051602001610e84929190611ccb565b6040516020818303038152906040529050919050565b8151835114610ebc5760405163251f56a160e21b815260040160405180910390fd5b8051835114610ede5760405163251f56a160e21b815260040160405180910390fd5b60005b835181101561080757610f40848281518110610eff57610eff611bb0565b6020026020010151848381518110610f1957610f19611bb0565b6020026020010151848481518110610f3357610f33611bb0565b6020026020010151610973565b80610f4a81611bdc565b915050610ee1565b6000818152600260205260409020546001600160a01b0316610fb15760405162461bcd60e51b8152602060048201526018602482015277115490cdcc8c4e881a5b9d985b1a59081d1bdad95b88125160421b6044820152606401610697565b50565b6000610fbe6114e4565b905090565b600081815260046020526040902080546001600160a01b0319166001600160a01b0384169081179091558190610ff882610990565b6001600160a01b03167f8c5be1e5ebec7d5bd14f71427d1e84f3dd0314c0f7b2291e5b200ac8c7c3b92560405160405180910390a45050565b6001600160a01b0382166110875760405162461bcd60e51b815260206004820181905260248201527f4552433732313a206d696e7420746f20746865207a65726f20616464726573736044820152606401610697565b6000818152600260205260409020546001600160a01b0316156110ec5760405162461bcd60e51b815260206004820152601c60248201527f4552433732313a20746f6b656e20616c7265616479206d696e746564000000006044820152606401610697565b6000818152600260205260409020546001600160a01b0316156111515760405162461bcd60e51b815260206004820152601c60248201527f4552433732313a20746f6b656e20616c7265616479206d696e746564000000006044820152606401610697565b6001600160a01b038216600081815260036020908152604080832080546001019055848352600290915280822080546001600160a01b0319168417905551839291907fddf252ad1be2c89b69c2b068fc378daa952ba7f163c4a11628f55a4df523b3ef908290a45050565b6000806111c883610990565b9050806001600160a01b0316846001600160a01b0316148061120f57506001600160a01b0380821660009081526005602090815260408083209388168352929052205460ff165b806112335750836001600160a01b0316611228846105fc565b6001600160a01b0316145b949350505050565b826001600160a01b031661124e82610990565b6001600160a01b0316146112745760405162461bcd60e51b815260040161069790611d75565b6001600160a01b0382166112d65760405162461bcd60e51b8152602060048201526024808201527f4552433732313a207472616e7366657220746f20746865207a65726f206164646044820152637265737360e01b6064820152608401610697565b826001600160a01b03166112e982610990565b6001600160a01b03161461130f5760405162461bcd60e51b815260040161069790611d75565b600081815260046020908152604080832080546001600160a01b03199081169091556001600160a01b0387811680865260038552838620805460001901905590871680865283862080546001019055868652600290945282852080549092168417909155905184937fddf252ad1be2c89b69c2b068fc378daa952ba7f163c4a11628f55a4df523b3ef91a4505050565b816001600160a01b0316836001600160a01b0316036114005760405162461bcd60e51b815260206004820152601960248201527f4552433732313a20617070726f766520746f2063616c6c6572000000000000006044820152606401610697565b6001600160a01b03838116600081815260056020908152604080832094871680845294825291829020805460ff191686151590811790915591519182527f17307eab39ab6107e8899845ad3d59bd9653f200f220920489ca2b5937696c31910160405180910390a3505050565b61147884848461123b565b61148484848484611528565b6108075760405162461bcd60e51b815260040161069790611dba565b606060a06040510180604052602081039150506000815280825b600183039250600a81066030018353600a9004806114ba5750819003601f19909101908152919050565b60007f00000000000000000000000000000000000000000000000000000000000000006001600160a01b03163303611523575060131936013560601c90565b503390565b60006001600160a01b0384163b1561162557836001600160a01b031663150b7a02611551610fb4565b8786866040518563ffffffff1660e01b81526004016115739493929190611e0c565b6020604051808303816000875af19250505080156115ae575060408051601f3d908101601f191682019092526115ab91810190611e49565b60015b61160b573d8080156115dc576040519150601f19603f3d011682016040523d82523d6000602084013e6115e1565b606091505b5080516000036116035760405162461bcd60e51b815260040161069790611dba565b805181602001fd5b6001600160e01b031916630a85bd0160e11b149050611233565b506001949350505050565b6001600160e01b031981168114610fb157600080fd5b60006020828403121561165857600080fd5b813561166381611630565b9392505050565b60005b8381101561168557818101518382015260200161166d565b50506000910152565b600081518084526116a681602086016020860161166a565b601f01601f19169290920160200192915050565b602081526000611663602083018461168e565b6000602082840312156116df57600080fd5b5035919050565b80356001600160a01b03811681146116fd57600080fd5b919050565b6000806040838503121561171557600080fd5b61171e836116e6565b946020939093013593505050565b634e487b7160e01b600052604160045260246000fd5b604051601f8201601f1916810167ffffffffffffffff8111828210171561176b5761176b61172c565b604052919050565b600082601f83011261178457600080fd5b8135602067ffffffffffffffff8211156117a0576117a061172c565b8160051b6117af828201611742565b92835284810182019282810190878511156117c957600080fd5b83870192505b848310156117e8578235825291830191908301906117cf565b979650505050505050565b60008060006060848603121561180857600080fd5b833567ffffffffffffffff8082111561182057600080fd5b61182c87838801611773565b9450602086013591508082111561184257600080fd5b61184e87838801611773565b9350604086013591508082111561186457600080fd5b5061187186828701611773565b9150509250925092565b6000806040838503121561188e57600080fd5b50508035926020909101359150565b6000806000606084860312156118b257600080fd5b6118bb846116e6565b92506118c9602085016116e6565b9150604084013590509250925092565b6000806000606084860312156118ee57600080fd5b505081359360208301359350604090920135919050565b60006020828403121561191757600080fd5b611663826116e6565b6000806040838503121561193357600080fd5b61193c836116e6565b91506020830135801515811461195157600080fd5b809150509250929050565b600082601f83011261196d57600080fd5b813567ffffffffffffffff8111156119875761198761172c565b61199a601f8201601f1916602001611742565b8181528460208386010111156119af57600080fd5b816020850160208301376000918101602001919091529392505050565b600080600080608085870312156119e257600080fd5b6119eb856116e6565b93506119f9602086016116e6565b925060408501359150606085013567ffffffffffffffff811115611a1c57600080fd5b611a288782880161195c565b91505092959194509250565b600080600080600060a08688031215611a4c57600080fd5b611a55866116e6565b9450611a63602087016116e6565b9350604086013567ffffffffffffffff80821115611a8057600080fd5b611a8c89838a01611773565b94506060880135915080821115611aa257600080fd5b611aae89838a01611773565b93506080880135915080821115611ac457600080fd5b50611ad18882890161195c565b9150509295509295909350565b60008060408385031215611af157600080fd5b611afa836116e6565b9150611b08602084016116e6565b90509250929050565b600080600080600060a08688031215611b2957600080fd5b611b32866116e6565b9450611b40602087016116e6565b93506040860135925060608601359150608086013567ffffffffffffffff811115611b6a57600080fd5b611ad18882890161195c565b600181811c90821680611b8a57607f821691505b602082108103611baa57634e487b7160e01b600052602260045260246000fd5b50919050565b634e487b7160e01b600052603260045260246000fd5b634e487b7160e01b600052601160045260246000fd5b600060018201611bee57611bee611bc6565b5060010190565b600082611c1257634e487b7160e01b600052601260045260246000fd5b500490565b8082018082111561056457610564611bc6565b6020808252602d908201527f4552433732313a2063616c6c6572206973206e6f7420746f6b656e206f776e6560408201526c1c881bdc88185c1c1c9bdd9959609a1b606082015260800190565b6001600160a01b0394851681529290931660208301526040820152606081019190915260a06080820181905260009082015260c00190565b60008151611cc181856020860161166a565b9290920192915050565b600080845481600182811c915080831680611ce757607f831692505b60208084108203611d0657634e487b7160e01b86526022600452602486fd5b818015611d1a5760018114611d2f57611d5c565b60ff1986168952841515850289019650611d5c565b60008b81526020902060005b86811015611d545781548b820152908501908301611d3b565b505084890196505b505050505050611d6c8185611caf565b95945050505050565b60208082526025908201527f4552433732313a207472616e736665722066726f6d20696e636f72726563742060408201526437bbb732b960d91b606082015260800190565b60208082526032908201527f4552433732313a207472616e7366657220746f206e6f6e20455243373231526560408201527131b2b4bb32b91034b6b83632b6b2b73a32b960711b606082015260800190565b6001600160a01b0385811682528416602082015260408101839052608060608201819052600090611e3f9083018461168e565b9695505050505050565b600060208284031215611e5b57600080fd5b81516116638161163056fea2646970667358221220b880d5a5b8e6a535046cb8c7a74989eb07cdc8c13cb71e302d382a53f1e9c88a64736f6c63430008130033",
    "linkReferences": {}
  },
  "methodIdentifiers": {
    "approve(address,uint256)": "095ea7b3",
    "balanceOf(address)": "70a08231",
    "baseUri()": "9abc8320",
    "getApproved(uint256)": "081812fc",
    "isApprovedForAll(address,address)": "e985e9c5",
    "isTrustedForwarder(address)": "572b6c05",
    "land(uint256)": "861e4656",
    "landCount()": "d7bce658",
    "landIds(uint256,uint256)": "19579a54",
    "map(uint256,uint256)": "a90b9128",
    "mint(uint256,uint256)": "1b2ef1ca",
    "name()": "06fdde03",
    "onERC1155BatchReceived(address,address,uint256[],uint256[],bytes)": "bc197c81",
    "onERC1155Received(address,address,uint256,uint256,bytes)": "f23a6e61",
    "ownerOf(uint256)": "6352211e",
    "perSize()": "ae9deae4",
    "placeItem(uint256,uint256,uint256)": "95f5b17a",
    "placeItems(uint256[],uint256[],uint256[])": "0d0637b3",
    "removeItem(uint256,uint256)": "870fc347",
    "safeTransferFrom(address,address,uint256)": "42842e0e",
    "safeTransferFrom(address,address,uint256,bytes)": "b88d4fde",
    "setApprovalForAll(address,bool)": "a22cb465",
    "size()": "949d225d",
    "supportsInterface(bytes4)": "01ffc9a7",
    "symbol()": "95d89b41",
    "tokenURI(uint256)": "c87b56dd",
    "transferFrom(address,address,uint256)": "23b872dd",
    "updateItem(uint256,uint256,uint256)": "539447d4",
    "updateItems(uint256[],uint256[],uint256[])": "fb9bb97f",
    "utilCount()": "baacbe9b",
    "utilsAddress()": "512c4aaf"
  },
  "id": 44
}