{
  "abi": [
    {
      "inputs": [
        {
          "internalType": "uint256",
          "name": "_size",
          "type": "uint256"
        },
        {
          "internalType": "uint256",
          "name": "_perSize",
          "type": "uint256"
        },
        {
          "internalType": "string",
          "name": "_baseUri",
          "type": "string"
        },
        {
          "internalType": "address",
          "name": "_utilsAddress",
          "type": "address"
        },
        {
          "internalType": "address",
          "name": "trustedForwarder",
          "type": "address"
        }
      ],
      "stateMutability": "nonpayable",
      "type": "constructor"
    },
    {
      "inputs": [],
      "name": "InvalidLength",
      "type": "error"
    },
    {
      "inputs": [],
      "name": "InvalidXIndex",
      "type": "error"
    },
    {
      "inputs": [],
      "name": "InvalidYIndex",
      "type": "error"
    },
    {
      "inputs": [],
      "name": "LandAlreadyOwned",
      "type": "error"
    },
    {
      "inputs": [],
      "name": "NotOwner",
      "type": "error"
    },
    {
      "inputs": [],
      "name": "SizeNotDivisibleByPerSize",
      "type": "error"
    },
    {
      "inputs": [],
      "name": "ZeroPerSize",
      "type": "error"
    },
    {
      "inputs": [],
      "name": "ZeroSize",
      "type": "error"
    },
    {
      "anonymous": false,
      "inputs": [
        {
          "indexed": true,
          "internalType": "address",
          "name": "owner",
          "type": "address"
        },
        {
          "indexed": true,
          "internalType": "address",
          "name": "approved",
          "type": "address"
        },
        {
          "indexed": true,
          "internalType": "uint256",
          "name": "tokenId",
          "type": "uint256"
        }
      ],
      "name": "Approval",
      "type": "event"
    },
    {
      "anonymous": false,
      "inputs": [
        {
          "indexed": true,
          "internalType": "address",
          "name": "owner",
          "type": "address"
        },
        {
          "indexed": true,
          "internalType": "address",
          "name": "operator",
          "type": "address"
        },
        {
          "indexed": false,
          "internalType": "bool",
          "name": "approved",
          "type": "bool"
        }
      ],
      "name": "ApprovalForAll",
      "type": "event"
    },
    {
      "anonymous": false,
      "inputs": [
        {
          "indexed": true,
          "internalType": "address",
          "name": "from",
          "type": "address"
        },
        {
          "indexed": true,
          "internalType": "address",
          "name": "to",
          "type": "address"
        },
        {
          "indexed": true,
          "internalType": "uint256",
          "name": "tokenId",
          "type": "uint256"
        }
      ],
      "name": "Transfer",
      "type": "event"
    },
    {
      "inputs": [
        {
          "internalType": "address",
          "name": "to",
          "type": "address"
        },
        {
          "internalType": "uint256",
          "name": "tokenId",
          "type": "uint256"
        }
      ],
      "name": "approve",
      "outputs": [],
      "stateMutability": "nonpayable",
      "type": "function"
    },
    {
      "inputs": [
        {
          "internalType": "address",
          "name": "owner",
          "type": "address"
        }
      ],
      "name": "balanceOf",
      "outputs": [
        {
          "internalType": "uint256",
          "name": "",
          "type": "uint256"
        }
      ],
      "stateMutability": "view",
      "type": "function"
    },
    {
      "inputs": [],
      "name": "baseUri",
      "outputs": [
        {
          "internalType": "string",
          "name": "",
          "type": "string"
        }
      ],
      "stateMutability": "view",
      "type": "function"
    },
    {
      "inputs": [
        {
          "internalType": "uint256",
          "name": "tokenId",
          "type": "uint256"
        }
      ],
      "name": "getApproved",
      "outputs": [
        {
          "internalType": "address",
          "name": "",
          "type": "address"
        }
      ],
      "stateMutability": "view",
      "type": "function"
    },
    {
      "inputs": [
        {
          "internalType": "address",
          "name": "owner",
          "type": "address"
        },
        {
          "internalType": "address",
          "name": "operator",
          "type": "address"
        }
      ],
      "name": "isApprovedForAll",
      "outputs": [
        {
          "internalType": "bool",
          "name": "",
          "type": "bool"
        }
      ],
      "stateMutability": "view",
      "type": "function"
    },
    {
      "inputs": [
        {
          "internalType": "address",
          "name": "forwarder",
          "type": "address"
        }
      ],
      "name": "isTrustedForwarder",
      "outputs": [
        {
          "internalType": "bool",
          "name": "",
          "type": "bool"
        }
      ],
      "stateMutability": "view",
      "type": "function"
    },
    {
      "inputs": [
        {
          "internalType": "uint256",
          "name": "",
          "type": "uint256"
        }
      ],
      "name": "land",
      "outputs": [
        {
          "internalType": "uint256",
          "name": "xIndex",
          "type": "uint256"
        },
        {
          "internalType": "uint256",
          "name": "yIndex",
          "type": "uint256"
        }
      ],
      "stateMutability": "view",
      "type": "function"
    },
    {
      "inputs": [],
      "name": "landCount",
      "outputs": [
        {
          "internalType": "uint256",
          "name": "",
          "type": "uint256"
        }
      ],
      "stateMutability": "view",
      "type": "function"
    },
    {
      "inputs": [
        {
          "internalType": "uint256",
          "name": "",
          "type": "uint256"
        },
        {
          "internalType": "uint256",
          "name": "",
          "type": "uint256"
        }
      ],
      "name": "landIds",
      "outputs": [
        {
          "internalType": "uint256",
          "name": "",
          "type": "uint256"
        }
      ],
      "stateMutability": "view",
      "type": "function"
    },
    {
      "inputs": [
        {
          "internalType": "uint256",
          "name": "",
          "type": "uint256"
        },
        {
          "internalType": "uint256",
          "name": "",
          "type": "uint256"
        }
      ],
      "name": "map",
      "outputs": [
        {
          "internalType": "uint256",
          "name": "",
          "type": "uint256"
        }
      ],
      "stateMutability": "view",
      "type": "function"
    },
    {
      "inputs": [
        {
          "internalType": "uint256",
          "name": "xIndex",
          "type": "uint256"
        },
        {
          "internalType": "uint256",
          "name": "yIndex",
          "type": "uint256"
        }
      ],
      "name": "mint",
      "outputs": [
        {
          "internalType": "uint256",
          "name": "",
          "type": "uint256"
        }
      ],
      "stateMutability": "nonpayable",
      "type": "function"
    },
    {
      "inputs": [],
      "name": "name",
      "outputs": [
        {
          "internalType": "string",
          "name": "",
          "type": "string"
        }
      ],
      "stateMutability": "view",
      "type": "function"
    },
    {
      "inputs": [
        {
          "internalType": "address",
          "name": "",
          "type": "address"
        },
        {
          "internalType": "address",
          "name": "",
          "type": "address"
        },
        {
          "internalType": "uint256[]",
          "name": "",
          "type": "uint256[]"
        },
        {
          "internalType": "uint256[]",
          "name": "",
          "type": "uint256[]"
        },
        {
          "internalType": "bytes",
          "name": "",
          "type": "bytes"
        }
      ],
      "name": "onERC1155BatchReceived",
      "outputs": [
        {
          "internalType": "bytes4",
          "name": "",
          "type": "bytes4"
        }
      ],
      "stateMutability": "nonpayable",
      "type": "function"
    },
    {
      "inputs": [
        {
          "internalType": "address",
          "name": "",
          "type": "address"
        },
        {
          "internalType": "address",
          "name": "",
          "type": "address"
        },
        {
          "internalType": "uint256",
          "name": "",
          "type": "uint256"
        },
        {
          "internalType": "uint256",
          "name": "",
          "type": "uint256"
        },
        {
          "internalType": "bytes",
          "name": "",
          "type": "bytes"
        }
      ],
      "name": "onERC1155Received",
      "outputs": [
        {
          "internalType": "bytes4",
          "name": "",
          "type": "bytes4"
        }
      ],
      "stateMutability": "nonpayable",
      "type": "function"
    },
    {
      "inputs": [
        {
          "internalType": "uint256",
          "name": "tokenId",
          "type": "uint256"
        }
      ],
      "name": "ownerOf",
      "outputs": [
        {
          "internalType": "address",
          "name": "",
          "type": "address"
        }
      ],
      "stateMutability": "view",
      "type": "function"
    },
    {
      "inputs": [],
      "name": "perSize",
      "outputs": [
        {
          "internalType": "uint256",
          "name": "",
          "type": "uint256"
        }
      ],
      "stateMutability": "view",
      "type": "function"
    },
    {
      "inputs": [
        {
          "internalType": "uint256",
          "name": "x",
          "type": "uint256"
        },
        {
          "internalType": "uint256",
          "name": "y",
          "type": "uint256"
        },
        {
          "internalType": "uint256",
          "name": "utilId",
          "type": "uint256"
        }
      ],
      "name": "placeItem",
      "outputs": [],
      "stateMutability": "nonpayable",
      "type": "function"
    },
    {
      "inputs": [
        {
          "internalType": "uint256[]",
          "name": "x",
          "type": "uint256[]"
        },
        {
          "internalType": "uint256[]",
          "name": "y",
          "type": "uint256[]"
        },
        {
          "internalType": "uint256[]",
          "name": "utilId",
          "type": "uint256[]"
        }
      ],
      "name": "placeItems",
      "outputs": [],
      "stateMutability": "nonpayable",
      "type": "function"
    },
    {
      "inputs": [
        {
          "internalType": "uint256",
          "name": "x",
          "type": "uint256"
        },
        {
          "internalType": "uint256",
          "name": "y",
          "type": "uint256"
        }
      ],
      "name": "removeItem",
      "outputs": [],
      "stateMutability": "nonpayable",
      "type": "function"
    },
    {
      "inputs": [
        {
          "internalType": "address",
          "name": "from",
          "type": "address"
        },
        {
          "internalType": "address",
          "name": "to",
          "type": "address"
        },
        {
          "internalType": "uint256",
          "name": "tokenId",
          "type": "uint256"
        }
      ],
      "name": "safeTransferFrom",
      "outputs": [],
      "stateMutability": "nonpayable",
      "type": "function"
    },
    {
      "inputs": [
        {
          "internalType": "address",
          "name": "from",
          "type": "address"
        },
        {
          "internalType": "address",
          "name": "to",
          "type": "address"
        },
        {
          "internalType": "uint256",
          "name": "tokenId",
          "type": "uint256"
        },
        {
          "internalType": "bytes",
          "name": "data",
          "type": "bytes"
        }
      ],
      "name": "safeTransferFrom",
      "outputs": [],
      "stateMutability": "nonpayable",
      "type": "function"
    },
    {
      "inputs": [
        {
          "internalType": "address",
          "name": "operator",
          "type": "address"
        },
        {
          "internalType": "bool",
          "name": "approved",
          "type": "bool"
        }
      ],
      "name": "setApprovalForAll",
      "outputs": [],
      "stateMutability": "nonpayable",
      "type": "function"
    },
    {
      "inputs": [],
      "name": "size",
      "outputs": [
        {
          "internalType": "uint256",
          "name": "",
          "type": "uint256"
        }
      ],
      "stateMutability": "view",
      "type": "function"
    },
    {
      "inputs": [
        {
          "internalType": "bytes4",
          "name": "interfaceId",
          "type": "bytes4"
        }
      ],
      "name": "supportsInterface",
      "outputs": [
        {
          "internalType": "bool",
          "name": "",
          "type": "bool"
        }
      ],
      "stateMutability": "view",
      "type": "function"
    },
    {
      "inputs": [],
      "name": "symbol",
      "outputs": [
        {
          "internalType": "string",
          "name": "",
          "type": "string"
        }
      ],
      "stateMutability": "view",
      "type": "function"
    },
    {
      "inputs": [
        {
          "internalType": "uint256",
          "name": "id",
          "type": "uint256"
        }
      ],
      "name": "tokenURI",
      "outputs": [
        {
          "internalType": "string",
          "name": "",
          "type": "string"
        }
      ],
      "stateMutability": "view",
      "type": "function"
    },
    {
      "inputs": [
        {
          "internalType": "address",
          "name": "from",
          "type": "address"
        },
        {
          "internalType": "address",
          "name": "to",
          "type": "address"
        },
        {
          "internalType": "uint256",
          "name": "tokenId",
          "type": "uint256"
        }
      ],
      "name": "transferFrom",
      "outputs": [],
      "stateMutability": "nonpayable",
      "type": "function"
    },
    {
      "inputs": [
        {
          "internalType": "uint256",
          "name": "x",
          "type": "uint256"
        },
        {
          "internalType": "uint256",
          "name": "y",
          "type": "uint256"
        },
        {
          "internalType": "uint256",
          "name": "utilId",
          "type": "uint256"
        }
      ],
      "name": "updateItem",
      "outputs": [],
      "stateMutability": "nonpayable",
      "type": "function"
    },
    {
      "inputs": [
        {
          "internalType": "uint256[]",
          "name": "x",
          "type": "uint256[]"
        },
        {
          "internalType": "uint256[]",
          "name": "y",
          "type": "uint256[]"
        },
        {
          "internalType": "uint256[]",
          "name": "utilId",
          "type": "uint256[]"
        }
      ],
      "name": "updateItems",
      "outputs": [],
      "stateMutability": "nonpayable",
      "type": "function"
    },
    {
      "inputs": [],
      "name": "utilCount",
      "outputs": [
        {
          "internalType": "uint256",
          "name": "",
          "type": "uint256"
        }
      ],
      "stateMutability": "view",
      "type": "function"
    },
    {
      "inputs": [],
      "name": "utilsAddress",
      "outputs": [
        {
          "internalType": "address",
          "name": "",
          "type": "address"
        }
      ],
      "stateMutability": "view",
      "type": "function"
    }
  ],
  "bytecode": {
    "object": "0x604060a081523462000549576200203b803803806200001e816200056e565b928339810160a08282031262000549578151602080840151858501516001600160401b03939192908481116200054957860194601f91818388011215620005495786518681116200034a57601f19976200007e8286018a1684016200056e565b938285528383830101116200054957829060005b8381106200053457505060009184010152620000bf6080620000b760608b0162000594565b990162000594565b94620000ca6200054e565b946003968787526204d61760ec1b84880152620000e66200054e565b908882526204d41560ec1b8583015260805286518981116200034a576000546001988982811c9216801562000529575b8783101462000329578189849311620004d3575b5086908983116001146200046f5760009262000463575b5050600019828b1b1c191690881b176000555b8051908982116200034a578754908882811c9216801562000458575b868310146200032957818884931162000402575b5085908883116001146200039f5760009262000393575b5050600019828a1b1c191690871b1786555b8015620003825781156200037157806006558160075506620003605781519586116200034a576009548481811c911680156200033f575b828210146200032957838111620002dd575b50809286116001146200026f57508495509084929160009562000263575b50501b92600019911b1c1916176009555b600b80546001600160a01b0319166001600160a01b039290921691909117905551611a919081620005aa82396080518181816109200152611a1e0152f35b01519350388062000214565b93929585908116600960005285600020956000905b89838310620002c25750505010620002a7575b50505050811b0160095562000225565b01519060f884600019921b161c191690553880808062000297565b85870151895590970196948501948893509081019062000284565b6009600052816000208480890160051c820192848a106200031f575b0160051c019085905b82811062000312575050620001f6565b6000815501859062000302565b92508192620002f9565b634e487b7160e01b600052602260045260246000fd5b90607f1690620001e4565b634e487b7160e01b600052604160045260246000fd5b8851632b0baa0760e11b8152600490fd5b8a51630c110df560e41b8152600490fd5b8a5163c459d23f60e01b8152600490fd5b0151905038806200019b565b908c8a94169184600052876000209260005b89828210620003eb5750508411620003d2575b505050811b018655620001ad565b0151600019838c1b60f8161c19169055388080620003c4565b8385015186558d97909501949384019301620003b1565b90915088600052856000208880850160051c8201928886106200044e575b918b91869594930160051c01915b8281106200043e57505062000184565b600081558594508b91016200042e565b9250819262000420565b91607f169162000170565b01519050388062000141565b908d8b94169160008052886000209260005b8a828210620004bc5750508411620004a3575b505050811b0160005562000154565b0151600019838d1b60f8161c1916905538808062000494565b8385015186558e9790950194938401930162000481565b90915060008052866000208980850160051c8201928986106200051f575b918c91869594930160051c01915b8281106200050f5750506200012a565b600081558594508c9101620004ff565b92508192620004f1565b91607f169162000116565b81810183015186820184015284920162000092565b600080fd5b60408051919082016001600160401b038111838210176200034a57604052565b6040519190601f01601f191682016001600160401b038111838210176200034a57604052565b51906001600160a01b0382168203620005495756fe608060409080825260048036101561001657600080fd5b600091823560e01c90816301ffc9a714610ee05750806306fdde0314610e38578063081812fc14610e17578063095ea7b314610c9d5780630d0637b314610c3957806319579a5414610c0d5780631b2ef1ca14610a0757806323b872dd146109d657806342842e0e14610988578063512c4aaf1461095f578063539447d414610947578063572b6c05146108f55780636352211e146108c357806370a082311461082f578063861e4656146107fc578063870fc347146107e4578063949d225d146107c557806395d89b411461071d57806395f5b17a146107055780639abc832014610620578063a22cb46514610546578063a90b91281461051a578063ae9deae4146104fb578063b88d4fde146104a5578063baacbe9b14610486578063bc197c81146103fe578063c87b56dd146102bd578063d7bce6581461029e578063e985e9c514610250578063f23a6e61146101f65763fb9bb97f1461017957600080fd5b346101f25761018736611078565b92909482518651036101e55782518451036101e5575050825b81518110156101e157806101d76101ba6101dc93856119f1565b516101c583896119f1565b516101d084886119f1565b51916119b0565b6119cc565b6101a0565b8380f35b5163251f56a160e21b8152fd5b5080fd5b5091903461024d5760a036600319011261024d57610212610f94565b5061021b610faf565b506084359067ffffffffffffffff821161024d575060209261023f91369101611192565b505163f23a6e6160e01b8152f35b80fd5b8284346101f257806003193601126101f25760ff81602093610270610f94565b610278610faf565b6001600160a01b0391821683526005875283832091168252855220549151911615158152f35b8284346101f257816003193601126101f2576020906008549051908152f35b5091346101f2576020918260031936011261024d57815160a081018352608081019482865235945b6000190194600a9060308282060187530494856102e5579450601f19916080868481019303018252835195869282600954906103208261113c565b916001908a82821691826000146103d7575050600114610377575b5050509180610357610364959361037398979551938491610f4c565b0103908101865285610fef565b51928284938452830190610f6f565b0390f35b8993949550600982527f6e1540171b6c0c960b71a7020d9f60077f6af931a8bbf590da0223dacf75c7af5b8383106103bd5750505084010191908061035761037361033b565b80549783018501979097528a968a949092019181016103a2565b60ff191689820152841515909402880190930195508392506103579150610373905061033b565b5091903461024d5760a036600319011261024d5761041a610f94565b50610423610faf565b5067ffffffffffffffff906044358281116101f2576104459036908601611011565b506064358281116101f25761045d9036908601611011565b5060843591821161024d575060209261047891369101611192565b505163bc197c8160e01b8152f35b8284346101f257816003193601126101f257602090600a549051908152f35b50346101f25760803660031901126101f2576104bf610f94565b6104c7610faf565b9060643567ffffffffffffffff81116104f7576104f4936104ea91369101611192565b91604435916112e8565b80f35b8480fd5b8284346101f257816003193601126101f2576020906007549051908152f35b8284346101f2578060209261052e366110d7565b908252600e8552828220908252845220549051908152f35b5082903461061c578160031936011261061c57610561610f94565b91602435908115158092036104f757610578611a1b565b6001600160a01b039485169416928385146105da57507f17307eab39ab6107e8899845ad3d59bd9653f200f220920489ca2b5937696c319160209184875260058352808720868852835280872060ff1981541660ff841617905551908152a380f35b6020606492519162461bcd60e51b8352820152601960248201527f4552433732313a20617070726f766520746f2063616c6c6572000000000000006044820152fd5b8280fd5b8284346101f257816003193601126101f257805190826009546106428161113c565b808552916001918083169081156106dd5750600114610680575b50505061066e82610373940383610fef565b51918291602083526020830190610f6f565b9450600985527f6e1540171b6c0c960b71a7020d9f60077f6af931a8bbf590da0223dacf75c7af5b8286106106c55750505061066e826020610373958201019461065c565b805460208787018101919091529095019481016106a8565b61037397508693506020925061066e94915060ff191682840152151560051b8201019461065c565b823461024d576104f461071736611122565b91611734565b8284346101f257816003193601126101f2578051908260018054916107418361113c565b808652928281169081156106dd57506001146107695750505061066e82610373940383610fef565b94508085527fb10e2d527612073b26eecdfd717e6a320cf44b4afac2b0732d9fcbe2b7fa0cf65b8286106107ad5750505061066e826020610373958201019461065c565b80546020878701810191909152909501948101610790565b8284346101f257816003193601126101f2576020906006549051908152f35b823461024d576104f46107f6366110d7565b906118a1565b5082903461061c57602036600319011261061c57918192358152600d602052206001815491015482519182526020820152f35b50346101f25760203660031901126101f2576001600160a01b03610851610f94565b1690811561086e5760208480858581526003845220549051908152f35b608490602085519162461bcd60e51b8352820152602960248201527f4552433732313a2061646472657373207a65726f206973206e6f7420612076616044820152683634b21037bbb732b960b91b6064820152fd5b5091903461024d57602036600319011261024d57506108e460209235611225565b90516001600160a01b039091168152f35b8284346101f25760203660031901126101f257602090610913610f94565b90519060018060a01b03807f0000000000000000000000000000000000000000000000000000000000000000169116148152f35b823461024d576104f461095936611122565b916119b0565b8284346101f257816003193601126101f257600b5490516001600160a01b039091168152602090f35b5091346101f257610998366110ed565b91835193602085019085821067ffffffffffffffff8311176109c3576104f4969750528584526112e8565b634e487b7160e01b875260418852602487fd5b823461024d576104f46109e8366110ed565b91610a026109fd846109f8611a1b565b611385565b611286565b61144d565b5091346101f257610a17366110d7565b939060065460075490610a2a8282611690565b831015610bfd5790610a3b91611690565b851015610bee57808452602094600c8652838520818652865283852054610bde5760085460018101809111610bcb5780600855828652600c87528486208287528752808587205584519285840184811067ffffffffffffffff821117610bb857865283528683019182528552600d86528385209151825551600190910155610ac1611a1b565b600854926001600160a01b03909116918215610b785750600083815260026020526040902054610afd906001600160a01b031615155b156116b0565b600083815260026020526040902054610b20906001600160a01b03161515610af7565b81845260038552808420805460010190558284526002855280842080546001600160a01b0319168317905551927fddf252ad1be2c89b69c2b068fc378daa952ba7f163c4a11628f55a4df523b3ef8180a46008548152f35b8580606493519262461bcd60e51b845283015260248201527f4552433732313a206d696e7420746f20746865207a65726f20616464726573736044820152fd5b634e487b7160e01b885260418652602488fd5b634e487b7160e01b865260118452602486fd5b83516306a9893b60e51b81528390fd5b509051634665aadb60e11b8152fd5b845163c24c736760e01b81528490fd5b8284346101f25780602092610c21366110d7565b908252600c8552828220908252845220549051908152f35b50346101f257610c4836611078565b92909482518651036101e55782518451036101e5575050825b81518110156101e157806101d7610c7b610c9893856119f1565b51610c8683896119f1565b51610c9184886119f1565b5191611734565b610c61565b5082903461061c578160031936011261061c57610cb8610f94565b6024359290916001600160a01b0391908280610cd387611225565b16941693808514610dca5783610ce7611a1b565b16818114918215610dab575b505015610d4357848652602052842080546001600160a01b03191683179055610d1b83611225565b167f8c5be1e5ebec7d5bd14f71427d1e84f3dd0314c0f7b2291e5b200ac8c7c3b9258480a480f35b6020608492519162461bcd60e51b8352820152603d60248201527f4552433732313a20617070726f76652063616c6c6572206973206e6f7420746f60448201527f6b656e206f776e6572206f7220617070726f76656420666f7220616c6c0000006064820152fd5b88526005602090815284892091895252508186205460ff168780610cf3565b506020608492519162461bcd60e51b8352820152602160248201527f4552433732313a20617070726f76616c20746f2063757272656e74206f776e656044820152603960f91b6064820152fd5b5091903461024d57602036600319011261024d57506108e460209235611248565b8284346101f257816003193601126101f257805190828054610e598161113c565b808552916001918083169081156106dd5750600114610e845750505061066e82610373940383610fef565b80809650527f290decd9548b62a8d60345a988386fc84ba6bc95484008f6362f93160ef3e5635b828610610ec85750505061066e826020610373958201019461065c565b80546020878701810191909152909501948101610eab565b9190503461061c57602036600319011261061c573563ffffffff60e01b811680910361061c57602092506380ac58cd60e01b8114908115610f3b575b8115610f2a575b5015158152f35b6301ffc9a760e01b14905083610f23565b635b5e139f60e01b81149150610f1c565b60005b838110610f5f5750506000910152565b8181015183820152602001610f4f565b90602091610f8881518092818552858086019101610f4c565b601f01601f1916010190565b600435906001600160a01b0382168203610faa57565b600080fd5b602435906001600160a01b0382168203610faa57565b67ffffffffffffffff8111610fd957604052565b634e487b7160e01b600052604160045260246000fd5b90601f8019910116810190811067ffffffffffffffff821117610fd957604052565b9080601f83011215610faa5781359067ffffffffffffffff8211610fd9578160051b6040519360209361104685840187610fef565b85528380860192820101928311610faa578301905b828210611069575050505090565b8135815290830190830161105b565b6060600319820112610faa5767ffffffffffffffff91600435838111610faa57826110a591600401611011565b92602435818111610faa57836110bd91600401611011565b92604435918211610faa576110d491600401611011565b90565b6040906003190112610faa576004359060243590565b6060906003190112610faa576001600160a01b03906004358281168103610faa57916024359081168103610faa579060443590565b6060906003190112610faa57600435906024359060443590565b90600182811c9216801561116c575b602083101461115657565b634e487b7160e01b600052602260045260246000fd5b91607f169161114b565b67ffffffffffffffff8111610fd957601f01601f191660200190565b81601f82011215610faa578035906111a982611176565b926111b76040519485610fef565b82845260208383010111610faa57816000926020809301838601378301015290565b156111e057565b60405162461bcd60e51b815260206004820152601860248201527f4552433732313a20696e76616c696420746f6b656e20494400000000000000006044820152606490fd5b6000908152600260205260409020546001600160a01b03166110d48115156111d9565b60008181526002602052604090205461126b906001600160a01b031615156111d9565b6000908152600460205260409020546001600160a01b031690565b1561128d57565b60405162461bcd60e51b815260206004820152602d60248201527f4552433732313a2063616c6c6572206973206e6f7420746f6b656e206f776e6560448201526c1c881bdc88185c1c1c9bdd9959609a1b6064820152608490fd5b9061130e9392916112fe6109fd846109f8611a1b565b61130983838361144d565b611563565b1561131557565b60405162461bcd60e51b81528061132e60048201611332565b0390fd5b60809060208152603260208201527f4552433732313a207472616e7366657220746f206e6f6e20455243373231526560408201527131b2b4bb32b91034b6b83632b6b2b73a32b960711b60608201520190565b906001600160a01b03808061139984611225565b169316918383149384156113cc575b5083156113b6575b50505090565b6113c291929350611248565b16143880806113b0565b909350600052600560205260406000208260005260205260ff6040600020541692386113a8565b156113fa57565b60405162461bcd60e51b815260206004820152602560248201527f4552433732313a207472616e736665722066726f6d20696e636f72726563742060448201526437bbb732b960d91b6064820152608490fd5b906114759161145b84611225565b6001600160a01b03939184169284929091831684146113f3565b1691821561151257816114929161148b86611225565b16146113f3565b7fddf252ad1be2c89b69c2b068fc378daa952ba7f163c4a11628f55a4df523b3ef60008481526004602052604081206bffffffffffffffffffffffff60a01b9081815416905583825260036020526040822060001981540190558482526040822060018154019055858252600260205284604083209182541617905580a4565b60405162461bcd60e51b8152602060048201526024808201527f4552433732313a207472616e7366657220746f20746865207a65726f206164646044820152637265737360e01b6064820152608490fd5b9293600093909291803b15611685579484916115c996611581611a1b565b946040519485938492630a85bd0160e11b9889855260018060a01b03928380921660048701521660248501526044840152608060648401528260209b8c976084830190610f6f565b0393165af1849181611645575b50611634575050503d60001461162c573d6115f081611176565b906115fe6040519283610fef565b81528091833d92013e5b805191826116295760405162461bcd60e51b81528061132e60048201611332565b01fd5b506060611608565b6001600160e01b0319161492509050565b9091508581813d831161167e575b61165d8183610fef565b810103126104f757516001600160e01b0319811681036104f75790386115d6565b503d611653565b505050915050600190565b811561169a570490565b634e487b7160e01b600052601260045260246000fd5b156116b757565b60405162461bcd60e51b815260206004820152601c60248201527f4552433732313a20746f6b656e20616c7265616479206d696e746564000000006044820152606490fd5b6001600160a01b0391821681529116602082015260408101919091526001606082015260a06080820181905260009082015260c00190565b61173c611a1b565b916007549260009261174e8582611690565b8452602091600c83526040956117678787209186611690565b86528352858520546001600160a01b0390819061178390611225565b168183160361189057600b541690828652600e845286862085875284528686205461181e575b813b1561181a57876117d5928792838a51809681958294637921219560e11b84523090600485016116fc565b03925af18015611810579085916117f8575b5052600e8152838320918352522055565b61180190610fc5565b61180c5783386117e7565b8380fd5b86513d87823e3d90fd5b8580fd5b828652600e8452868620858752845286862054823b1561188c578661185891895180938192637921219560e11b83528630600485016116fc565b038183875af180156118825761186f575b506117a9565b61187b90969196610fc5565b9438611869565b88513d89823e3d90fd5b8680fd5b86516330cd747160e01b8152600490fd5b906118aa611a1b565b90600754916000936118bc8482611690565b8552602091600c83526040946118d58688209186611690565b87528352848620546001600160a01b039081906118f190611225565b168183160361199f57600b5416828752600e845285872085885284528587205461192a575b50508452600e815282842091845252812055565b828752600e845285872085885284528587205491813b1561199b5791879161196993838951809681958294637921219560e11b845230600485016116fc565b03925af180156119915761197e575b80611916565b61198a90959195610fc5565b9338611978565b85513d88823e3d90fd5b8780fd5b85516330cd747160e01b8152600490fd5b91806119c257506119c0916118a1565b565b906119c092611734565b60001981146119db5760010190565b634e487b7160e01b600052601160045260246000fd5b8051821015611a055760209160051b010190565b634e487b7160e01b600052603260045260246000fd5b337f00000000000000000000000000000000000000000000000000000000000000006001600160a01b031603611a575736601319013560601c90565b339056fea2646970667358221220414d1699c0951325b8aa156d8411d8c34907225f5bea0054bae8cc1ee364426f64736f6c63430008130033",
    "linkReferences": {}
  },
  "methodIdentifiers": {
    "approve(address,uint256)": "095ea7b3",
    "balanceOf(address)": "70a08231",
    "baseUri()": "9abc8320",
    "getApproved(uint256)": "081812fc",
    "isApprovedForAll(address,address)": "e985e9c5",
    "isTrustedForwarder(address)": "572b6c05",
    "land(uint256)": "861e4656",
    "landCount()": "d7bce658",
    "landIds(uint256,uint256)": "19579a54",
    "map(uint256,uint256)": "a90b9128",
    "mint(uint256,uint256)": "1b2ef1ca",
    "name()": "06fdde03",
    "onERC1155BatchReceived(address,address,uint256[],uint256[],bytes)": "bc197c81",
    "onERC1155Received(address,address,uint256,uint256,bytes)": "f23a6e61",
    "ownerOf(uint256)": "6352211e",
    "perSize()": "ae9deae4",
    "placeItem(uint256,uint256,uint256)": "95f5b17a",
    "placeItems(uint256[],uint256[],uint256[])": "0d0637b3",
    "removeItem(uint256,uint256)": "870fc347",
    "safeTransferFrom(address,address,uint256)": "42842e0e",
    "safeTransferFrom(address,address,uint256,bytes)": "b88d4fde",
    "setApprovalForAll(address,bool)": "a22cb465",
    "size()": "949d225d",
    "supportsInterface(bytes4)": "01ffc9a7",
    "symbol()": "95d89b41",
    "tokenURI(uint256)": "c87b56dd",
    "transferFrom(address,address,uint256)": "23b872dd",
    "updateItem(uint256,uint256,uint256)": "539447d4",
    "updateItems(uint256[],uint256[],uint256[])": "fb9bb97f",
    "utilCount()": "baacbe9b",
    "utilsAddress()": "512c4aaf"
  },
  "id": 52
}