{
  "abi": [
    {
      "inputs": [
        {
          "internalType": "uint256",
          "name": "_size",
          "type": "uint256"
        },
        {
          "internalType": "uint256",
          "name": "_perSize",
          "type": "uint256"
        },
        {
          "internalType": "string",
          "name": "_baseUri",
          "type": "string"
        },
        {
          "internalType": "address",
          "name": "_utilsAddress",
          "type": "address"
        }
      ],
      "stateMutability": "nonpayable",
      "type": "constructor"
    },
    {
      "inputs": [],
      "name": "InvalidLength",
      "type": "error"
    },
    {
      "inputs": [],
      "name": "InvalidXIndex",
      "type": "error"
    },
    {
      "inputs": [],
      "name": "InvalidYIndex",
      "type": "error"
    },
    {
      "inputs": [],
      "name": "LandAlreadyOwned",
      "type": "error"
    },
    {
      "inputs": [],
      "name": "NotOwner",
      "type": "error"
    },
    {
      "inputs": [],
      "name": "SizeNotDivisibleByPerSize",
      "type": "error"
    },
    {
      "inputs": [],
      "name": "ZeroPerSize",
      "type": "error"
    },
    {
      "inputs": [],
      "name": "ZeroSize",
      "type": "error"
    },
    {
      "anonymous": false,
      "inputs": [
        {
          "indexed": true,
          "internalType": "address",
          "name": "owner",
          "type": "address"
        },
        {
          "indexed": true,
          "internalType": "address",
          "name": "spender",
          "type": "address"
        },
        {
          "indexed": true,
          "internalType": "uint256",
          "name": "id",
          "type": "uint256"
        }
      ],
      "name": "Approval",
      "type": "event"
    },
    {
      "anonymous": false,
      "inputs": [
        {
          "indexed": true,
          "internalType": "address",
          "name": "owner",
          "type": "address"
        },
        {
          "indexed": true,
          "internalType": "address",
          "name": "operator",
          "type": "address"
        },
        {
          "indexed": false,
          "internalType": "bool",
          "name": "approved",
          "type": "bool"
        }
      ],
      "name": "ApprovalForAll",
      "type": "event"
    },
    {
      "anonymous": false,
      "inputs": [
        {
          "indexed": true,
          "internalType": "address",
          "name": "user",
          "type": "address"
        },
        {
          "indexed": true,
          "internalType": "address",
          "name": "newOwner",
          "type": "address"
        }
      ],
      "name": "OwnershipTransferred",
      "type": "event"
    },
    {
      "anonymous": false,
      "inputs": [
        {
          "indexed": true,
          "internalType": "address",
          "name": "from",
          "type": "address"
        },
        {
          "indexed": true,
          "internalType": "address",
          "name": "to",
          "type": "address"
        },
        {
          "indexed": true,
          "internalType": "uint256",
          "name": "id",
          "type": "uint256"
        }
      ],
      "name": "Transfer",
      "type": "event"
    },
    {
      "inputs": [
        {
          "internalType": "address",
          "name": "spender",
          "type": "address"
        },
        {
          "internalType": "uint256",
          "name": "id",
          "type": "uint256"
        }
      ],
      "name": "approve",
      "outputs": [],
      "stateMutability": "nonpayable",
      "type": "function"
    },
    {
      "inputs": [
        {
          "internalType": "address",
          "name": "owner",
          "type": "address"
        }
      ],
      "name": "balanceOf",
      "outputs": [
        {
          "internalType": "uint256",
          "name": "",
          "type": "uint256"
        }
      ],
      "stateMutability": "view",
      "type": "function"
    },
    {
      "inputs": [],
      "name": "baseUri",
      "outputs": [
        {
          "internalType": "string",
          "name": "",
          "type": "string"
        }
      ],
      "stateMutability": "view",
      "type": "function"
    },
    {
      "inputs": [
        {
          "internalType": "uint256",
          "name": "",
          "type": "uint256"
        }
      ],
      "name": "getApproved",
      "outputs": [
        {
          "internalType": "address",
          "name": "",
          "type": "address"
        }
      ],
      "stateMutability": "view",
      "type": "function"
    },
    {
      "inputs": [
        {
          "internalType": "address",
          "name": "",
          "type": "address"
        },
        {
          "internalType": "address",
          "name": "",
          "type": "address"
        }
      ],
      "name": "isApprovedForAll",
      "outputs": [
        {
          "internalType": "bool",
          "name": "",
          "type": "bool"
        }
      ],
      "stateMutability": "view",
      "type": "function"
    },
    {
      "inputs": [
        {
          "internalType": "uint256",
          "name": "",
          "type": "uint256"
        }
      ],
      "name": "land",
      "outputs": [
        {
          "internalType": "uint256",
          "name": "xIndex",
          "type": "uint256"
        },
        {
          "internalType": "uint256",
          "name": "yIndex",
          "type": "uint256"
        }
      ],
      "stateMutability": "view",
      "type": "function"
    },
    {
      "inputs": [],
      "name": "landCount",
      "outputs": [
        {
          "internalType": "uint256",
          "name": "",
          "type": "uint256"
        }
      ],
      "stateMutability": "view",
      "type": "function"
    },
    {
      "inputs": [
        {
          "internalType": "uint256",
          "name": "",
          "type": "uint256"
        },
        {
          "internalType": "uint256",
          "name": "",
          "type": "uint256"
        }
      ],
      "name": "landIds",
      "outputs": [
        {
          "internalType": "uint256",
          "name": "",
          "type": "uint256"
        }
      ],
      "stateMutability": "view",
      "type": "function"
    },
    {
      "inputs": [
        {
          "internalType": "uint256",
          "name": "",
          "type": "uint256"
        },
        {
          "internalType": "uint256",
          "name": "",
          "type": "uint256"
        }
      ],
      "name": "map",
      "outputs": [
        {
          "internalType": "uint256",
          "name": "",
          "type": "uint256"
        }
      ],
      "stateMutability": "view",
      "type": "function"
    },
    {
      "inputs": [
        {
          "internalType": "uint256",
          "name": "xIndex",
          "type": "uint256"
        },
        {
          "internalType": "uint256",
          "name": "yIndex",
          "type": "uint256"
        }
      ],
      "name": "mint",
      "outputs": [
        {
          "internalType": "uint256",
          "name": "",
          "type": "uint256"
        }
      ],
      "stateMutability": "nonpayable",
      "type": "function"
    },
    {
      "inputs": [],
      "name": "name",
      "outputs": [
        {
          "internalType": "string",
          "name": "",
          "type": "string"
        }
      ],
      "stateMutability": "view",
      "type": "function"
    },
    {
      "inputs": [
        {
          "internalType": "address",
          "name": "",
          "type": "address"
        },
        {
          "internalType": "address",
          "name": "",
          "type": "address"
        },
        {
          "internalType": "uint256[]",
          "name": "",
          "type": "uint256[]"
        },
        {
          "internalType": "uint256[]",
          "name": "",
          "type": "uint256[]"
        },
        {
          "internalType": "bytes",
          "name": "",
          "type": "bytes"
        }
      ],
      "name": "onERC1155BatchReceived",
      "outputs": [
        {
          "internalType": "bytes4",
          "name": "",
          "type": "bytes4"
        }
      ],
      "stateMutability": "nonpayable",
      "type": "function"
    },
    {
      "inputs": [
        {
          "internalType": "address",
          "name": "",
          "type": "address"
        },
        {
          "internalType": "address",
          "name": "",
          "type": "address"
        },
        {
          "internalType": "uint256",
          "name": "",
          "type": "uint256"
        },
        {
          "internalType": "uint256",
          "name": "",
          "type": "uint256"
        },
        {
          "internalType": "bytes",
          "name": "",
          "type": "bytes"
        }
      ],
      "name": "onERC1155Received",
      "outputs": [
        {
          "internalType": "bytes4",
          "name": "",
          "type": "bytes4"
        }
      ],
      "stateMutability": "nonpayable",
      "type": "function"
    },
    {
      "inputs": [],
      "name": "owner",
      "outputs": [
        {
          "internalType": "address",
          "name": "",
          "type": "address"
        }
      ],
      "stateMutability": "view",
      "type": "function"
    },
    {
      "inputs": [
        {
          "internalType": "uint256",
          "name": "id",
          "type": "uint256"
        }
      ],
      "name": "ownerOf",
      "outputs": [
        {
          "internalType": "address",
          "name": "owner",
          "type": "address"
        }
      ],
      "stateMutability": "view",
      "type": "function"
    },
    {
      "inputs": [],
      "name": "perSize",
      "outputs": [
        {
          "internalType": "uint256",
          "name": "",
          "type": "uint256"
        }
      ],
      "stateMutability": "view",
      "type": "function"
    },
    {
      "inputs": [
        {
          "internalType": "uint256",
          "name": "x",
          "type": "uint256"
        },
        {
          "internalType": "uint256",
          "name": "y",
          "type": "uint256"
        },
        {
          "internalType": "uint256",
          "name": "utilId",
          "type": "uint256"
        }
      ],
      "name": "placeItem",
      "outputs": [],
      "stateMutability": "nonpayable",
      "type": "function"
    },
    {
      "inputs": [
        {
          "internalType": "uint256[]",
          "name": "x",
          "type": "uint256[]"
        },
        {
          "internalType": "uint256[]",
          "name": "y",
          "type": "uint256[]"
        },
        {
          "internalType": "uint256[]",
          "name": "utilId",
          "type": "uint256[]"
        }
      ],
      "name": "placeItems",
      "outputs": [],
      "stateMutability": "nonpayable",
      "type": "function"
    },
    {
      "inputs": [
        {
          "internalType": "uint256",
          "name": "x",
          "type": "uint256"
        },
        {
          "internalType": "uint256",
          "name": "y",
          "type": "uint256"
        }
      ],
      "name": "removeItem",
      "outputs": [],
      "stateMutability": "nonpayable",
      "type": "function"
    },
    {
      "inputs": [
        {
          "internalType": "address",
          "name": "from",
          "type": "address"
        },
        {
          "internalType": "address",
          "name": "to",
          "type": "address"
        },
        {
          "internalType": "uint256",
          "name": "id",
          "type": "uint256"
        }
      ],
      "name": "safeTransferFrom",
      "outputs": [],
      "stateMutability": "nonpayable",
      "type": "function"
    },
    {
      "inputs": [
        {
          "internalType": "address",
          "name": "from",
          "type": "address"
        },
        {
          "internalType": "address",
          "name": "to",
          "type": "address"
        },
        {
          "internalType": "uint256",
          "name": "id",
          "type": "uint256"
        },
        {
          "internalType": "bytes",
          "name": "data",
          "type": "bytes"
        }
      ],
      "name": "safeTransferFrom",
      "outputs": [],
      "stateMutability": "nonpayable",
      "type": "function"
    },
    {
      "inputs": [
        {
          "internalType": "address",
          "name": "operator",
          "type": "address"
        },
        {
          "internalType": "bool",
          "name": "approved",
          "type": "bool"
        }
      ],
      "name": "setApprovalForAll",
      "outputs": [],
      "stateMutability": "nonpayable",
      "type": "function"
    },
    {
      "inputs": [],
      "name": "size",
      "outputs": [
        {
          "internalType": "uint256",
          "name": "",
          "type": "uint256"
        }
      ],
      "stateMutability": "view",
      "type": "function"
    },
    {
      "inputs": [
        {
          "internalType": "bytes4",
          "name": "interfaceId",
          "type": "bytes4"
        }
      ],
      "name": "supportsInterface",
      "outputs": [
        {
          "internalType": "bool",
          "name": "",
          "type": "bool"
        }
      ],
      "stateMutability": "view",
      "type": "function"
    },
    {
      "inputs": [],
      "name": "symbol",
      "outputs": [
        {
          "internalType": "string",
          "name": "",
          "type": "string"
        }
      ],
      "stateMutability": "view",
      "type": "function"
    },
    {
      "inputs": [
        {
          "internalType": "uint256",
          "name": "id",
          "type": "uint256"
        }
      ],
      "name": "tokenURI",
      "outputs": [
        {
          "internalType": "string",
          "name": "",
          "type": "string"
        }
      ],
      "stateMutability": "view",
      "type": "function"
    },
    {
      "inputs": [
        {
          "internalType": "address",
          "name": "from",
          "type": "address"
        },
        {
          "internalType": "address",
          "name": "to",
          "type": "address"
        },
        {
          "internalType": "uint256",
          "name": "id",
          "type": "uint256"
        }
      ],
      "name": "transferFrom",
      "outputs": [],
      "stateMutability": "nonpayable",
      "type": "function"
    },
    {
      "inputs": [
        {
          "internalType": "address",
          "name": "newOwner",
          "type": "address"
        }
      ],
      "name": "transferOwnership",
      "outputs": [],
      "stateMutability": "nonpayable",
      "type": "function"
    },
    {
      "inputs": [
        {
          "internalType": "uint256",
          "name": "x",
          "type": "uint256"
        },
        {
          "internalType": "uint256",
          "name": "y",
          "type": "uint256"
        },
        {
          "internalType": "uint256",
          "name": "utilId",
          "type": "uint256"
        }
      ],
      "name": "updateItem",
      "outputs": [],
      "stateMutability": "nonpayable",
      "type": "function"
    },
    {
      "inputs": [
        {
          "internalType": "uint256[]",
          "name": "x",
          "type": "uint256[]"
        },
        {
          "internalType": "uint256[]",
          "name": "y",
          "type": "uint256[]"
        },
        {
          "internalType": "uint256[]",
          "name": "utilId",
          "type": "uint256[]"
        }
      ],
      "name": "updateItems",
      "outputs": [],
      "stateMutability": "nonpayable",
      "type": "function"
    },
    {
      "inputs": [],
      "name": "utilCount",
      "outputs": [
        {
          "internalType": "uint256",
          "name": "",
          "type": "uint256"
        }
      ],
      "stateMutability": "view",
      "type": "function"
    },
    {
      "inputs": [],
      "name": "utilsAddress",
      "outputs": [
        {
          "internalType": "address",
          "name": "",
          "type": "address"
        }
      ],
      "stateMutability": "view",
      "type": "function"
    }
  ],
  "bytecode": {
    "object": "0x60806040523480156200001157600080fd5b5060405162001f5d38038062001f5d8339810160408190526200003491620001c1565b336040518060400160405280600381526020016204d61760ec1b8152506040518060400160405280600381526020016204d41560ec1b81525081600090816200007e91906200034c565b5060016200008d82826200034c565b5050600680546001600160a01b0319166001600160a01b0384169081179091556040519091506000907f8be0079c531659141344cd1fd0a4f28419497f9722a3daafe3b4186f6b6457e0908290a35083600003620000fe5760405163c459d23f60e01b815260040160405180910390fd5b826000036200012057604051630c110df560e41b815260040160405180910390fd5b6007849055600883905562000136838562000418565b156200015557604051632b0baa0760e11b815260040160405180910390fd5b600a6200016383826200034c565b50600c80546001600160a01b0319166001600160a01b0392909216919091179055506200043b915050565b634e487b7160e01b600052604160045260246000fd5b80516001600160a01b0381168114620001bc57600080fd5b919050565b60008060008060808587031215620001d857600080fd5b845160208087015160408801519296509450906001600160401b03808211156200020157600080fd5b818801915088601f8301126200021657600080fd5b8151818111156200022b576200022b6200018e565b604051601f8201601f19908116603f011681019083821181831017156200025657620002566200018e565b816040528281528b868487010111156200026f57600080fd5b600093505b8284101562000293578484018601518185018701529285019262000274565b6000868483010152809750505050505050620002b260608601620001a4565b905092959194509250565b600181811c90821680620002d257607f821691505b602082108103620002f357634e487b7160e01b600052602260045260246000fd5b50919050565b601f8211156200034757600081815260208120601f850160051c81016020861015620003225750805b601f850160051c820191505b8181101562000343578281556001016200032e565b5050505b505050565b81516001600160401b038111156200036857620003686200018e565b6200038081620003798454620002bd565b84620002f9565b602080601f831160018114620003b857600084156200039f5750858301515b600019600386901b1c1916600185901b17855562000343565b600085815260208120601f198616915b82811015620003e957888601518255948401946001909101908401620003c8565b5085821015620004085787850151600019600388901b60f8161c191681555b5050505050600190811b01905550565b6000826200043657634e487b7160e01b600052601260045260246000fd5b500690565b611b12806200044b6000396000f3fe608060405234801561001057600080fd5b50600436106101f05760003560e01c8063949d225d1161010f578063baacbe9b116100a2578063e985e9c511610071578063e985e9c51461049e578063f23a6e61146104cc578063f2fde38b146104eb578063fb9bb97f146104fe57600080fd5b8063baacbe9b14610441578063bc197c811461044a578063c87b56dd14610482578063d7bce6581461049557600080fd5b8063a22cb465116100de578063a22cb465146103e7578063a90b9128146103fa578063ae9deae414610425578063b88d4fde1461042e57600080fd5b8063949d225d146103bb57806395d89b41146103c457806395f5b17a146103cc5780639abc8320146103df57600080fd5b806342842e0e1161018757806370a082311161015657806370a0823114610346578063861e465614610359578063870fc347146103955780638da5cb5b146103a857600080fd5b806342842e0e146102fa578063512c4aaf1461030d578063539447d4146103205780636352211e1461033357600080fd5b80630d0637b3116101c35780630d0637b31461028857806319579a541461029b5780631b2ef1ca146102d457806323b872dd146102e757600080fd5b806301ffc9a7146101f557806306fdde031461021d578063081812fc14610232578063095ea7b314610273575b600080fd5b610208610203366004611367565b610511565b60405190151581526020015b60405180910390f35b610225610563565b60405161021491906113af565b61025b6102403660046113e2565b6004602052600090815260409020546001600160a01b031681565b6040516001600160a01b039091168152602001610214565b610286610281366004611412565b6105f1565b005b610286610296366004611503565b6106d8565b6102c66102a936600461158b565b600d60209081526000928352604080842090915290825290205481565b604051908152602001610214565b6102c66102e236600461158b565b610796565b6102866102f53660046115ad565b6108a3565b6102866103083660046115ad565b610a6a565b600c5461025b906001600160a01b031681565b61028661032e3660046115e9565b610b62565b61025b6103413660046113e2565b610b7f565b6102c6610354366004611615565b610bd6565b6103806103673660046113e2565b600e602052600090815260409020805460019091015482565b60408051928352602083019190915201610214565b6102866103a336600461158b565b610c39565b60065461025b906001600160a01b031681565b6102c660075481565b610225610d7c565b6102866103da3660046115e9565b610d89565b610225610f1d565b6102866103f5366004611630565b610f2a565b6102c661040836600461158b565b600f60209081526000928352604080842090915290825290205481565b6102c660085481565b61028661043c36600461166c565b610f96565b6102c6600b5481565b610469610458366004611777565b63bc197c8160e01b95945050505050565b6040516001600160e01b03199091168152602001610214565b6102256104903660046113e2565b61107e565b6102c660095481565b6102086104ac366004611821565b600560209081526000928352604080842090915290825290205460ff1681565b6104696104da366004611854565b63f23a6e6160e01b95945050505050565b6102866104f9366004611615565b6110b2565b61028661050c366004611503565b611147565b60006301ffc9a760e01b6001600160e01b03198316148061054257506380ac58cd60e01b6001600160e01b03198316145b8061055d5750635b5e139f60e01b6001600160e01b03198316145b92915050565b60008054610570906118b9565b80601f016020809104026020016040519081016040528092919081815260200182805461059c906118b9565b80156105e95780601f106105be576101008083540402835291602001916105e9565b820191906000526020600020905b8154815290600101906020018083116105cc57829003601f168201915b505050505081565b6000818152600260205260409020546001600160a01b03163381148061063a57506001600160a01b038116600090815260056020908152604080832033845290915290205460ff165b61067c5760405162461bcd60e51b815260206004820152600e60248201526d1393d517d055551213d49256915160921b60448201526064015b60405180910390fd5b60008281526004602052604080822080546001600160a01b0319166001600160a01b0387811691821790925591518593918516917f8c5be1e5ebec7d5bd14f71427d1e84f3dd0314c0f7b2291e5b200ac8c7c3b92591a4505050565b81518351146106fa5760405163251f56a160e21b815260040160405180910390fd5b805183511461071c5760405163251f56a160e21b815260040160405180910390fd5b60005b83518110156107905761077e84828151811061073d5761073d6118f3565b6020026020010151848381518110610757576107576118f3565b6020026020010151848481518110610771576107716118f3565b6020026020010151610d89565b806107888161191f565b91505061071f565b50505050565b60006008546007546107a89190611938565b83106107c75760405163c24c736760e01b815260040160405180910390fd5b6008546007546107d79190611938565b82106107f657604051634665aadb60e11b815260040160405180910390fd5b6000838152600d602090815260408083208584529091529020541561082e576040516306a9893b60e51b815260040160405180910390fd5b600160096000828254610841919061195a565b9091555050600980546000858152600d60209081526040808320878452825280832084905580518082018252888152808301888152948452600e909252909120905181559051600190910155546108999033906111ff565b5060095492915050565b6000818152600260205260409020546001600160a01b038481169116146108f95760405162461bcd60e51b815260206004820152600a60248201526957524f4e475f46524f4d60b01b6044820152606401610673565b6001600160a01b0382166109435760405162461bcd60e51b81526020600482015260116024820152701253959053125117d49150d25412515395607a1b6044820152606401610673565b336001600160a01b038416148061097d57506001600160a01b038316600090815260056020908152604080832033845290915290205460ff165b8061099e57506000818152600460205260409020546001600160a01b031633145b6109db5760405162461bcd60e51b815260206004820152600e60248201526d1393d517d055551213d49256915160921b6044820152606401610673565b6001600160a01b0380841660008181526003602090815260408083208054600019019055938616808352848320805460010190558583526002825284832080546001600160a01b03199081168317909155600490925284832080549092169091559251849392917fddf252ad1be2c89b69c2b068fc378daa952ba7f163c4a11628f55a4df523b3ef91a4505050565b610a758383836108a3565b6001600160a01b0382163b1580610b1e5750604051630a85bd0160e11b8082523360048301526001600160a01b03858116602484015260448301849052608060648401526000608484015290919084169063150b7a029060a4016020604051808303816000875af1158015610aee573d6000803e3d6000fd5b505050506040513d601f19601f82011682018060405250810190610b12919061196d565b6001600160e01b031916145b610b5d5760405162461bcd60e51b815260206004820152601060248201526f155394d0519157d49150d2541251539560821b6044820152606401610673565b505050565b80600003610b7457610b5d8383610c39565b610b5d838383610d89565b6000818152600260205260409020546001600160a01b031680610bd15760405162461bcd60e51b815260206004820152600a6024820152691393d517d3525395115160b21b6044820152606401610673565b919050565b60006001600160a01b038216610c1d5760405162461bcd60e51b815260206004820152600c60248201526b5a45524f5f4144445245535360a01b6044820152606401610673565b506001600160a01b031660009081526003602052604090205490565b610c80600d600060085485610c4e9190611938565b8152602001908152602001600020600060085484610c6c9190611938565b815260200190815260200160002054610b7f565b6001600160a01b0316336001600160a01b031614610cb1576040516330cd747160e01b815260040160405180910390fd5b600c546000838152600f602090815260408083208584529091529020546001600160a01b039091169015610d5f576000838152600f6020908152604080832085845290915290819020549051637921219560e11b81526001600160a01b0383169163f242432a91610d2c91309133919060019060040161198a565b600060405180830381600087803b158015610d4657600080fd5b505af1158015610d5a573d6000803e3d6000fd5b505050505b506000918252600f60209081526040808420928452919052812055565b60018054610570906118b9565b610dbc600d600060085486610d9e9190611938565b8152602001908152602001600020600060085485610c6c9190611938565b6001600160a01b0316336001600160a01b031614610ded576040516330cd747160e01b815260040160405180910390fd5b600c546000848152600f602090815260408083208684529091529020546001600160a01b039091169015610e9b576000848152600f6020908152604080832086845290915290819020549051637921219560e11b81526001600160a01b0383169163f242432a91610e6891309133919060019060040161198a565b600060405180830381600087803b158015610e8257600080fd5b505af1158015610e96573d6000803e3d6000fd5b505050505b604051637921219560e11b81526001600160a01b0382169063f242432a90610ece9033903090879060019060040161198a565b600060405180830381600087803b158015610ee857600080fd5b505af1158015610efc573d6000803e3d6000fd5b50505060009485525050600f60209081526040808520938552929052912055565b600a8054610570906118b9565b3360008181526005602090815260408083206001600160a01b03871680855290835292819020805460ff191686151590811790915590519081529192917f17307eab39ab6107e8899845ad3d59bd9653f200f220920489ca2b5937696c31910160405180910390a35050565b610fa18585856108a3565b6001600160a01b0384163b15806110385750604051630a85bd0160e11b808252906001600160a01b0386169063150b7a0290610fe99033908a908990899089906004016119c2565b6020604051808303816000875af1158015611008573d6000803e3d6000fd5b505050506040513d601f19601f8201168201806040525081019061102c919061196d565b6001600160e01b031916145b6110775760405162461bcd60e51b815260206004820152601060248201526f155394d0519157d49150d2541251539560821b6044820152606401610673565b5050505050565b6060600a61108b8361130a565b60405160200161109c929190611a32565b6040516020818303038152906040529050919050565b6006546001600160a01b031633146110fb5760405162461bcd60e51b815260206004820152600c60248201526b15539055551213d49256915160a21b6044820152606401610673565b600680546001600160a01b0319166001600160a01b03831690811790915560405133907f8be0079c531659141344cd1fd0a4f28419497f9722a3daafe3b4186f6b6457e090600090a350565b81518351146111695760405163251f56a160e21b815260040160405180910390fd5b805183511461118b5760405163251f56a160e21b815260040160405180910390fd5b60005b8351811015610790576111ed8482815181106111ac576111ac6118f3565b60200260200101518483815181106111c6576111c66118f3565b60200260200101518484815181106111e0576111e06118f3565b6020026020010151610b62565b806111f78161191f565b91505061118e565b6001600160a01b0382166112495760405162461bcd60e51b81526020600482015260116024820152701253959053125117d49150d25412515395607a1b6044820152606401610673565b6000818152600260205260409020546001600160a01b03161561129f5760405162461bcd60e51b815260206004820152600e60248201526d1053149150511657d3525395115160921b6044820152606401610673565b6001600160a01b038216600081815260036020908152604080832080546001019055848352600290915280822080546001600160a01b0319168417905551839291907fddf252ad1be2c89b69c2b068fc378daa952ba7f163c4a11628f55a4df523b3ef908290a45050565b606060a06040510180604052602081039150506000815280825b600183039250600a81066030018353600a9004806113245750819003601f19909101908152919050565b6001600160e01b03198116811461136457600080fd5b50565b60006020828403121561137957600080fd5b81356113848161134e565b9392505050565b60005b838110156113a657818101518382015260200161138e565b50506000910152565b60208152600082518060208401526113ce81604085016020870161138b565b601f01601f19169190910160400192915050565b6000602082840312156113f457600080fd5b5035919050565b80356001600160a01b0381168114610bd157600080fd5b6000806040838503121561142557600080fd5b61142e836113fb565b946020939093013593505050565b634e487b7160e01b600052604160045260246000fd5b604051601f8201601f1916810167ffffffffffffffff8111828210171561147b5761147b61143c565b604052919050565b600082601f83011261149457600080fd5b8135602067ffffffffffffffff8211156114b0576114b061143c565b8160051b6114bf828201611452565b92835284810182019282810190878511156114d957600080fd5b83870192505b848310156114f8578235825291830191908301906114df565b979650505050505050565b60008060006060848603121561151857600080fd5b833567ffffffffffffffff8082111561153057600080fd5b61153c87838801611483565b9450602086013591508082111561155257600080fd5b61155e87838801611483565b9350604086013591508082111561157457600080fd5b5061158186828701611483565b9150509250925092565b6000806040838503121561159e57600080fd5b50508035926020909101359150565b6000806000606084860312156115c257600080fd5b6115cb846113fb565b92506115d9602085016113fb565b9150604084013590509250925092565b6000806000606084860312156115fe57600080fd5b505081359360208301359350604090920135919050565b60006020828403121561162757600080fd5b611384826113fb565b6000806040838503121561164357600080fd5b61164c836113fb565b91506020830135801515811461166157600080fd5b809150509250929050565b60008060008060006080868803121561168457600080fd5b61168d866113fb565b945061169b602087016113fb565b935060408601359250606086013567ffffffffffffffff808211156116bf57600080fd5b818801915088601f8301126116d357600080fd5b8135818111156116e257600080fd5b8960208285010111156116f457600080fd5b9699959850939650602001949392505050565b600082601f83011261171857600080fd5b813567ffffffffffffffff8111156117325761173261143c565b611745601f8201601f1916602001611452565b81815284602083860101111561175a57600080fd5b816020850160208301376000918101602001919091529392505050565b600080600080600060a0868803121561178f57600080fd5b611798866113fb565b94506117a6602087016113fb565b9350604086013567ffffffffffffffff808211156117c357600080fd5b6117cf89838a01611483565b945060608801359150808211156117e557600080fd5b6117f189838a01611483565b9350608088013591508082111561180757600080fd5b5061181488828901611707565b9150509295509295909350565b6000806040838503121561183457600080fd5b61183d836113fb565b915061184b602084016113fb565b90509250929050565b600080600080600060a0868803121561186c57600080fd5b611875866113fb565b9450611883602087016113fb565b93506040860135925060608601359150608086013567ffffffffffffffff8111156118ad57600080fd5b61181488828901611707565b600181811c908216806118cd57607f821691505b6020821081036118ed57634e487b7160e01b600052602260045260246000fd5b50919050565b634e487b7160e01b600052603260045260246000fd5b634e487b7160e01b600052601160045260246000fd5b60006001820161193157611931611909565b5060010190565b60008261195557634e487b7160e01b600052601260045260246000fd5b500490565b8082018082111561055d5761055d611909565b60006020828403121561197f57600080fd5b81516113848161134e565b6001600160a01b0394851681529290931660208301526040820152606081019190915260a06080820181905260009082015260c00190565b6001600160a01b038681168252851660208201526040810184905260806060820181905281018290526000828460a0840137600060a0848401015260a0601f19601f85011683010190509695505050505050565b60008151611a2881856020860161138b565b9290920192915050565b600080845481600182811c915080831680611a4e57607f831692505b60208084108203611a6d57634e487b7160e01b86526022600452602486fd5b818015611a815760018114611a9657611ac3565b60ff1986168952841515850289019650611ac3565b60008b81526020902060005b86811015611abb5781548b820152908501908301611aa2565b505084890196505b505050505050611ad38185611a16565b9594505050505056fea2646970667358221220303e8ecdacc6688a9ca12d63ae35b0bb2a4baf81811dc90e271e94d586e449b464736f6c63430008130033",
    "linkReferences": {}
  },
  "methodIdentifiers": {
    "approve(address,uint256)": "095ea7b3",
    "balanceOf(address)": "70a08231",
    "baseUri()": "9abc8320",
    "getApproved(uint256)": "081812fc",
    "isApprovedForAll(address,address)": "e985e9c5",
    "land(uint256)": "861e4656",
    "landCount()": "d7bce658",
    "landIds(uint256,uint256)": "19579a54",
    "map(uint256,uint256)": "a90b9128",
    "mint(uint256,uint256)": "1b2ef1ca",
    "name()": "06fdde03",
    "onERC1155BatchReceived(address,address,uint256[],uint256[],bytes)": "bc197c81",
    "onERC1155Received(address,address,uint256,uint256,bytes)": "f23a6e61",
    "owner()": "8da5cb5b",
    "ownerOf(uint256)": "6352211e",
    "perSize()": "ae9deae4",
    "placeItem(uint256,uint256,uint256)": "95f5b17a",
    "placeItems(uint256[],uint256[],uint256[])": "0d0637b3",
    "removeItem(uint256,uint256)": "870fc347",
    "safeTransferFrom(address,address,uint256)": "42842e0e",
    "safeTransferFrom(address,address,uint256,bytes)": "b88d4fde",
    "setApprovalForAll(address,bool)": "a22cb465",
    "size()": "949d225d",
    "supportsInterface(bytes4)": "01ffc9a7",
    "symbol()": "95d89b41",
    "tokenURI(uint256)": "c87b56dd",
    "transferFrom(address,address,uint256)": "23b872dd",
    "transferOwnership(address)": "f2fde38b",
    "updateItem(uint256,uint256,uint256)": "539447d4",
    "updateItems(uint256[],uint256[],uint256[])": "fb9bb97f",
    "utilCount()": "baacbe9b",
    "utilsAddress()": "512c4aaf"
  },
  "id": 23
}