{
  "abi": [
    {
      "inputs": [
        {
          "internalType": "uint256",
          "name": "_size",
          "type": "uint256"
        },
        {
          "internalType": "uint256",
          "name": "_perSize",
          "type": "uint256"
        },
        {
          "internalType": "string",
          "name": "_baseUri",
          "type": "string"
        },
        {
          "internalType": "address",
          "name": "_utilsAddress",
          "type": "address"
        }
      ],
      "stateMutability": "nonpayable",
      "type": "constructor"
    },
    {
      "inputs": [],
      "name": "InvalidLength",
      "type": "error"
    },
    {
      "inputs": [],
      "name": "InvalidXIndex",
      "type": "error"
    },
    {
      "inputs": [],
      "name": "InvalidYIndex",
      "type": "error"
    },
    {
      "inputs": [],
      "name": "LandAlreadyOwned",
      "type": "error"
    },
    {
      "inputs": [],
      "name": "NotOwner",
      "type": "error"
    },
    {
      "inputs": [],
      "name": "SizeNotDivisibleByPerSize",
      "type": "error"
    },
    {
      "inputs": [],
      "name": "ZeroPerSize",
      "type": "error"
    },
    {
      "inputs": [],
      "name": "ZeroSize",
      "type": "error"
    },
    {
      "anonymous": false,
      "inputs": [
        {
          "indexed": true,
          "internalType": "address",
          "name": "owner",
          "type": "address"
        },
        {
          "indexed": true,
          "internalType": "address",
          "name": "spender",
          "type": "address"
        },
        {
          "indexed": true,
          "internalType": "uint256",
          "name": "id",
          "type": "uint256"
        }
      ],
      "name": "Approval",
      "type": "event"
    },
    {
      "anonymous": false,
      "inputs": [
        {
          "indexed": true,
          "internalType": "address",
          "name": "owner",
          "type": "address"
        },
        {
          "indexed": true,
          "internalType": "address",
          "name": "operator",
          "type": "address"
        },
        {
          "indexed": false,
          "internalType": "bool",
          "name": "approved",
          "type": "bool"
        }
      ],
      "name": "ApprovalForAll",
      "type": "event"
    },
    {
      "anonymous": false,
      "inputs": [
        {
          "indexed": true,
          "internalType": "address",
          "name": "user",
          "type": "address"
        },
        {
          "indexed": true,
          "internalType": "address",
          "name": "newOwner",
          "type": "address"
        }
      ],
      "name": "OwnershipTransferred",
      "type": "event"
    },
    {
      "anonymous": false,
      "inputs": [
        {
          "indexed": true,
          "internalType": "address",
          "name": "from",
          "type": "address"
        },
        {
          "indexed": true,
          "internalType": "address",
          "name": "to",
          "type": "address"
        },
        {
          "indexed": true,
          "internalType": "uint256",
          "name": "id",
          "type": "uint256"
        }
      ],
      "name": "Transfer",
      "type": "event"
    },
    {
      "inputs": [
        {
          "internalType": "address",
          "name": "spender",
          "type": "address"
        },
        {
          "internalType": "uint256",
          "name": "id",
          "type": "uint256"
        }
      ],
      "name": "approve",
      "outputs": [],
      "stateMutability": "nonpayable",
      "type": "function"
    },
    {
      "inputs": [
        {
          "internalType": "address",
          "name": "owner",
          "type": "address"
        }
      ],
      "name": "balanceOf",
      "outputs": [
        {
          "internalType": "uint256",
          "name": "",
          "type": "uint256"
        }
      ],
      "stateMutability": "view",
      "type": "function"
    },
    {
      "inputs": [],
      "name": "baseUri",
      "outputs": [
        {
          "internalType": "string",
          "name": "",
          "type": "string"
        }
      ],
      "stateMutability": "view",
      "type": "function"
    },
    {
      "inputs": [
        {
          "internalType": "uint256",
          "name": "",
          "type": "uint256"
        }
      ],
      "name": "getApproved",
      "outputs": [
        {
          "internalType": "address",
          "name": "",
          "type": "address"
        }
      ],
      "stateMutability": "view",
      "type": "function"
    },
    {
      "inputs": [
        {
          "internalType": "address",
          "name": "",
          "type": "address"
        },
        {
          "internalType": "address",
          "name": "",
          "type": "address"
        }
      ],
      "name": "isApprovedForAll",
      "outputs": [
        {
          "internalType": "bool",
          "name": "",
          "type": "bool"
        }
      ],
      "stateMutability": "view",
      "type": "function"
    },
    {
      "inputs": [],
      "name": "landCount",
      "outputs": [
        {
          "internalType": "uint256",
          "name": "",
          "type": "uint256"
        }
      ],
      "stateMutability": "view",
      "type": "function"
    },
    {
      "inputs": [
        {
          "internalType": "uint256",
          "name": "",
          "type": "uint256"
        },
        {
          "internalType": "uint256",
          "name": "",
          "type": "uint256"
        }
      ],
      "name": "map",
      "outputs": [
        {
          "internalType": "uint256",
          "name": "",
          "type": "uint256"
        }
      ],
      "stateMutability": "view",
      "type": "function"
    },
    {
      "inputs": [
        {
          "internalType": "uint256",
          "name": "xIndex",
          "type": "uint256"
        },
        {
          "internalType": "uint256",
          "name": "yIndex",
          "type": "uint256"
        }
      ],
      "name": "mint",
      "outputs": [
        {
          "internalType": "uint256",
          "name": "",
          "type": "uint256"
        }
      ],
      "stateMutability": "nonpayable",
      "type": "function"
    },
    {
      "inputs": [],
      "name": "name",
      "outputs": [
        {
          "internalType": "string",
          "name": "",
          "type": "string"
        }
      ],
      "stateMutability": "view",
      "type": "function"
    },
    {
      "inputs": [
        {
          "internalType": "address",
          "name": "",
          "type": "address"
        },
        {
          "internalType": "address",
          "name": "",
          "type": "address"
        },
        {
          "internalType": "uint256[]",
          "name": "",
          "type": "uint256[]"
        },
        {
          "internalType": "uint256[]",
          "name": "",
          "type": "uint256[]"
        },
        {
          "internalType": "bytes",
          "name": "",
          "type": "bytes"
        }
      ],
      "name": "onERC1155BatchReceived",
      "outputs": [
        {
          "internalType": "bytes4",
          "name": "",
          "type": "bytes4"
        }
      ],
      "stateMutability": "nonpayable",
      "type": "function"
    },
    {
      "inputs": [
        {
          "internalType": "address",
          "name": "",
          "type": "address"
        },
        {
          "internalType": "address",
          "name": "",
          "type": "address"
        },
        {
          "internalType": "uint256",
          "name": "",
          "type": "uint256"
        },
        {
          "internalType": "uint256",
          "name": "",
          "type": "uint256"
        },
        {
          "internalType": "bytes",
          "name": "",
          "type": "bytes"
        }
      ],
      "name": "onERC1155Received",
      "outputs": [
        {
          "internalType": "bytes4",
          "name": "",
          "type": "bytes4"
        }
      ],
      "stateMutability": "nonpayable",
      "type": "function"
    },
    {
      "inputs": [],
      "name": "owner",
      "outputs": [
        {
          "internalType": "address",
          "name": "",
          "type": "address"
        }
      ],
      "stateMutability": "view",
      "type": "function"
    },
    {
      "inputs": [
        {
          "internalType": "uint256",
          "name": "id",
          "type": "uint256"
        }
      ],
      "name": "ownerOf",
      "outputs": [
        {
          "internalType": "address",
          "name": "owner",
          "type": "address"
        }
      ],
      "stateMutability": "view",
      "type": "function"
    },
    {
      "inputs": [],
      "name": "perSize",
      "outputs": [
        {
          "internalType": "uint256",
          "name": "",
          "type": "uint256"
        }
      ],
      "stateMutability": "view",
      "type": "function"
    },
    {
      "inputs": [
        {
          "internalType": "uint256",
          "name": "x",
          "type": "uint256"
        },
        {
          "internalType": "uint256",
          "name": "y",
          "type": "uint256"
        },
        {
          "internalType": "uint256",
          "name": "utilId",
          "type": "uint256"
        }
      ],
      "name": "placeItem",
      "outputs": [],
      "stateMutability": "nonpayable",
      "type": "function"
    },
    {
      "inputs": [
        {
          "internalType": "uint256[]",
          "name": "x",
          "type": "uint256[]"
        },
        {
          "internalType": "uint256[]",
          "name": "y",
          "type": "uint256[]"
        },
        {
          "internalType": "uint256[]",
          "name": "utilId",
          "type": "uint256[]"
        }
      ],
      "name": "placeItems",
      "outputs": [],
      "stateMutability": "nonpayable",
      "type": "function"
    },
    {
      "inputs": [
        {
          "internalType": "uint256",
          "name": "x",
          "type": "uint256"
        },
        {
          "internalType": "uint256",
          "name": "y",
          "type": "uint256"
        }
      ],
      "name": "removeItem",
      "outputs": [],
      "stateMutability": "nonpayable",
      "type": "function"
    },
    {
      "inputs": [
        {
          "internalType": "address",
          "name": "from",
          "type": "address"
        },
        {
          "internalType": "address",
          "name": "to",
          "type": "address"
        },
        {
          "internalType": "uint256",
          "name": "id",
          "type": "uint256"
        }
      ],
      "name": "safeTransferFrom",
      "outputs": [],
      "stateMutability": "nonpayable",
      "type": "function"
    },
    {
      "inputs": [
        {
          "internalType": "address",
          "name": "from",
          "type": "address"
        },
        {
          "internalType": "address",
          "name": "to",
          "type": "address"
        },
        {
          "internalType": "uint256",
          "name": "id",
          "type": "uint256"
        },
        {
          "internalType": "bytes",
          "name": "data",
          "type": "bytes"
        }
      ],
      "name": "safeTransferFrom",
      "outputs": [],
      "stateMutability": "nonpayable",
      "type": "function"
    },
    {
      "inputs": [
        {
          "internalType": "address",
          "name": "operator",
          "type": "address"
        },
        {
          "internalType": "bool",
          "name": "approved",
          "type": "bool"
        }
      ],
      "name": "setApprovalForAll",
      "outputs": [],
      "stateMutability": "nonpayable",
      "type": "function"
    },
    {
      "inputs": [],
      "name": "size",
      "outputs": [
        {
          "internalType": "uint256",
          "name": "",
          "type": "uint256"
        }
      ],
      "stateMutability": "view",
      "type": "function"
    },
    {
      "inputs": [
        {
          "internalType": "bytes4",
          "name": "interfaceId",
          "type": "bytes4"
        }
      ],
      "name": "supportsInterface",
      "outputs": [
        {
          "internalType": "bool",
          "name": "",
          "type": "bool"
        }
      ],
      "stateMutability": "view",
      "type": "function"
    },
    {
      "inputs": [],
      "name": "symbol",
      "outputs": [
        {
          "internalType": "string",
          "name": "",
          "type": "string"
        }
      ],
      "stateMutability": "view",
      "type": "function"
    },
    {
      "inputs": [
        {
          "internalType": "uint256",
          "name": "id",
          "type": "uint256"
        }
      ],
      "name": "tokenURI",
      "outputs": [
        {
          "internalType": "string",
          "name": "",
          "type": "string"
        }
      ],
      "stateMutability": "view",
      "type": "function"
    },
    {
      "inputs": [
        {
          "internalType": "address",
          "name": "from",
          "type": "address"
        },
        {
          "internalType": "address",
          "name": "to",
          "type": "address"
        },
        {
          "internalType": "uint256",
          "name": "id",
          "type": "uint256"
        }
      ],
      "name": "transferFrom",
      "outputs": [],
      "stateMutability": "nonpayable",
      "type": "function"
    },
    {
      "inputs": [
        {
          "internalType": "address",
          "name": "newOwner",
          "type": "address"
        }
      ],
      "name": "transferOwnership",
      "outputs": [],
      "stateMutability": "nonpayable",
      "type": "function"
    },
    {
      "inputs": [],
      "name": "utilCount",
      "outputs": [
        {
          "internalType": "uint256",
          "name": "",
          "type": "uint256"
        }
      ],
      "stateMutability": "view",
      "type": "function"
    },
    {
      "inputs": [],
      "name": "utilsAddress",
      "outputs": [
        {
          "internalType": "address",
          "name": "",
          "type": "address"
        }
      ],
      "stateMutability": "view",
      "type": "function"
    }
  ],
  "bytecode": {
    "object": "0x60806040523480156200001157600080fd5b5060405162001da638038062001da68339810160408190526200003491620001c1565b336040518060400160405280600381526020016204d61760ec1b8152506040518060400160405280600381526020016204d41560ec1b81525081600090816200007e91906200034c565b5060016200008d82826200034c565b5050600680546001600160a01b0319166001600160a01b0384169081179091556040519091506000907f8be0079c531659141344cd1fd0a4f28419497f9722a3daafe3b4186f6b6457e0908290a35083600003620000fe5760405163c459d23f60e01b815260040160405180910390fd5b826000036200012057604051630c110df560e41b815260040160405180910390fd5b6007849055600883905562000136838562000418565b156200015557604051632b0baa0760e11b815260040160405180910390fd5b600a6200016383826200034c565b50600c80546001600160a01b0319166001600160a01b0392909216919091179055506200043b915050565b634e487b7160e01b600052604160045260246000fd5b80516001600160a01b0381168114620001bc57600080fd5b919050565b60008060008060808587031215620001d857600080fd5b845160208087015160408801519296509450906001600160401b03808211156200020157600080fd5b818801915088601f8301126200021657600080fd5b8151818111156200022b576200022b6200018e565b604051601f8201601f19908116603f011681019083821181831017156200025657620002566200018e565b816040528281528b868487010111156200026f57600080fd5b600093505b8284101562000293578484018601518185018701529285019262000274565b6000868483010152809750505050505050620002b260608601620001a4565b905092959194509250565b600181811c90821680620002d257607f821691505b602082108103620002f357634e487b7160e01b600052602260045260246000fd5b50919050565b601f8211156200034757600081815260208120601f850160051c81016020861015620003225750805b601f850160051c820191505b8181101562000343578281556001016200032e565b5050505b505050565b81516001600160401b038111156200036857620003686200018e565b6200038081620003798454620002bd565b84620002f9565b602080601f831160018114620003b857600084156200039f5750858301515b600019600386901b1c1916600185901b17855562000343565b600085815260208120601f198616915b82811015620003e957888601518255948401946001909101908401620003c8565b5085821015620004085787850151600019600388901b60f8161c191681555b5050505050600190811b01905550565b6000826200043657634e487b7160e01b600052601260045260246000fd5b500690565b61195b806200044b6000396000f3fe608060405234801561001057600080fd5b50600436106101c45760003560e01c806395d89b41116100f9578063baacbe9b11610097578063d7bce65811610071578063d7bce658146103ef578063e985e9c5146103f8578063f23a6e6114610426578063f2fde38b1461044557600080fd5b8063baacbe9b1461039b578063bc197c81146103a4578063c87b56dd146103dc57600080fd5b8063a22cb465116100d3578063a22cb46514610341578063a90b912814610354578063ae9deae41461037f578063b88d4fde1461038857600080fd5b806395d89b411461031e57806395f5b17a146103265780639abc83201461033957600080fd5b806342842e0e1161016657806370a082311161014057806370a08231146102dc578063870fc347146102ef5780638da5cb5b14610302578063949d225d1461031557600080fd5b806342842e0e146102a3578063512c4aaf146102b65780636352211e146102c957600080fd5b8063095ea7b3116101a2578063095ea7b3146102475780630d0637b31461025c5780631b2ef1ca1461026f57806323b872dd1461029057600080fd5b806301ffc9a7146101c957806306fdde03146101f1578063081812fc14610206575b600080fd5b6101dc6101d73660046111b0565b610458565b60405190151581526020015b60405180910390f35b6101f96104aa565b6040516101e891906111f8565b61022f61021436600461122b565b6004602052600090815260409020546001600160a01b031681565b6040516001600160a01b0390911681526020016101e8565b61025a61025536600461125b565b610538565b005b61025a61026a36600461134c565b61061f565b61028261027d3660046113d4565b6106dd565b6040519081526020016101e8565b61025a61029e3660046113f6565b6107c1565b61025a6102b13660046113f6565b610988565b600c5461022f906001600160a01b031681565b61022f6102d736600461122b565b610a80565b6102826102ea366004611432565b610ad7565b61025a6102fd3660046113d4565b610b3a565b60065461022f906001600160a01b031681565b61028260075481565b6101f9610c7d565b61025a61033436600461144d565b610c8a565b6101f9610e1e565b61025a61034f366004611479565b610e2b565b6102826103623660046113d4565b600e60209081526000928352604080842090915290825290205481565b61028260085481565b61025a6103963660046114b5565b610e97565b610282600b5481565b6103c36103b23660046115c0565b63bc197c8160e01b95945050505050565b6040516001600160e01b031990911681526020016101e8565b6101f96103ea36600461122b565b610f7f565b61028260095481565b6101dc61040636600461166a565b600560209081526000928352604080842090915290825290205460ff1681565b6103c361043436600461169d565b63f23a6e6160e01b95945050505050565b61025a610453366004611432565b610fb3565b60006301ffc9a760e01b6001600160e01b03198316148061048957506380ac58cd60e01b6001600160e01b03198316145b806104a45750635b5e139f60e01b6001600160e01b03198316145b92915050565b600080546104b790611702565b80601f01602080910402602001604051908101604052809291908181526020018280546104e390611702565b80156105305780601f1061050557610100808354040283529160200191610530565b820191906000526020600020905b81548152906001019060200180831161051357829003601f168201915b505050505081565b6000818152600260205260409020546001600160a01b03163381148061058157506001600160a01b038116600090815260056020908152604080832033845290915290205460ff165b6105c35760405162461bcd60e51b815260206004820152600e60248201526d1393d517d055551213d49256915160921b60448201526064015b60405180910390fd5b60008281526004602052604080822080546001600160a01b0319166001600160a01b0387811691821790925591518593918516917f8c5be1e5ebec7d5bd14f71427d1e84f3dd0314c0f7b2291e5b200ac8c7c3b92591a4505050565b81518351146106415760405163251f56a160e21b815260040160405180910390fd5b80518351146106635760405163251f56a160e21b815260040160405180910390fd5b60005b83518110156106d7576106c58482815181106106845761068461173c565b602002602001015184838151811061069e5761069e61173c565b60200260200101518484815181106106b8576106b861173c565b6020026020010151610c8a565b806106cf81611768565b915050610666565b50505050565b60006008546007546106ef9190611781565b831061070e5760405163c24c736760e01b815260040160405180910390fd5b60085460075461071e9190611781565b821061073d57604051634665aadb60e11b815260040160405180910390fd5b6000838152600d6020908152604080832085845290915290205415610775576040516306a9893b60e51b815260040160405180910390fd5b60016009600082825461078891906117a3565b90915550506009546000848152600d6020908152604080832086845290915290208190556107b7903390611048565b5060095492915050565b6000818152600260205260409020546001600160a01b038481169116146108175760405162461bcd60e51b815260206004820152600a60248201526957524f4e475f46524f4d60b01b60448201526064016105ba565b6001600160a01b0382166108615760405162461bcd60e51b81526020600482015260116024820152701253959053125117d49150d25412515395607a1b60448201526064016105ba565b336001600160a01b038416148061089b57506001600160a01b038316600090815260056020908152604080832033845290915290205460ff165b806108bc57506000818152600460205260409020546001600160a01b031633145b6108f95760405162461bcd60e51b815260206004820152600e60248201526d1393d517d055551213d49256915160921b60448201526064016105ba565b6001600160a01b0380841660008181526003602090815260408083208054600019019055938616808352848320805460010190558583526002825284832080546001600160a01b03199081168317909155600490925284832080549092169091559251849392917fddf252ad1be2c89b69c2b068fc378daa952ba7f163c4a11628f55a4df523b3ef91a4505050565b6109938383836107c1565b6001600160a01b0382163b1580610a3c5750604051630a85bd0160e11b8082523360048301526001600160a01b03858116602484015260448301849052608060648401526000608484015290919084169063150b7a029060a4016020604051808303816000875af1158015610a0c573d6000803e3d6000fd5b505050506040513d601f19601f82011682018060405250810190610a3091906117b6565b6001600160e01b031916145b610a7b5760405162461bcd60e51b815260206004820152601060248201526f155394d0519157d49150d2541251539560821b60448201526064016105ba565b505050565b6000818152600260205260409020546001600160a01b031680610ad25760405162461bcd60e51b815260206004820152600a6024820152691393d517d3525395115160b21b60448201526064016105ba565b919050565b60006001600160a01b038216610b1e5760405162461bcd60e51b815260206004820152600c60248201526b5a45524f5f4144445245535360a01b60448201526064016105ba565b506001600160a01b031660009081526003602052604090205490565b610b81600d600060085485610b4f9190611781565b8152602001908152602001600020600060085484610b6d9190611781565b815260200190815260200160002054610a80565b6001600160a01b0316336001600160a01b031614610bb2576040516330cd747160e01b815260040160405180910390fd5b600c546000838152600e602090815260408083208584529091529020546001600160a01b039091169015610c60576000838152600e6020908152604080832085845290915290819020549051637921219560e11b81526001600160a01b0383169163f242432a91610c2d9130913391906001906004016117d3565b600060405180830381600087803b158015610c4757600080fd5b505af1158015610c5b573d6000803e3d6000fd5b505050505b506000918252600e60209081526040808420928452919052812055565b600180546104b790611702565b610cbd600d600060085486610c9f9190611781565b8152602001908152602001600020600060085485610b6d9190611781565b6001600160a01b0316336001600160a01b031614610cee576040516330cd747160e01b815260040160405180910390fd5b600c546000848152600e602090815260408083208684529091529020546001600160a01b039091169015610d9c576000848152600e6020908152604080832086845290915290819020549051637921219560e11b81526001600160a01b0383169163f242432a91610d699130913391906001906004016117d3565b600060405180830381600087803b158015610d8357600080fd5b505af1158015610d97573d6000803e3d6000fd5b505050505b604051637921219560e11b81526001600160a01b0382169063f242432a90610dcf903390309087906001906004016117d3565b600060405180830381600087803b158015610de957600080fd5b505af1158015610dfd573d6000803e3d6000fd5b50505060009485525050600e60209081526040808520938552929052912055565b600a80546104b790611702565b3360008181526005602090815260408083206001600160a01b03871680855290835292819020805460ff191686151590811790915590519081529192917f17307eab39ab6107e8899845ad3d59bd9653f200f220920489ca2b5937696c31910160405180910390a35050565b610ea28585856107c1565b6001600160a01b0384163b1580610f395750604051630a85bd0160e11b808252906001600160a01b0386169063150b7a0290610eea9033908a9089908990899060040161180b565b6020604051808303816000875af1158015610f09573d6000803e3d6000fd5b505050506040513d601f19601f82011682018060405250810190610f2d91906117b6565b6001600160e01b031916145b610f785760405162461bcd60e51b815260206004820152601060248201526f155394d0519157d49150d2541251539560821b60448201526064016105ba565b5050505050565b6060600a610f8c83611153565b604051602001610f9d92919061187b565b6040516020818303038152906040529050919050565b6006546001600160a01b03163314610ffc5760405162461bcd60e51b815260206004820152600c60248201526b15539055551213d49256915160a21b60448201526064016105ba565b600680546001600160a01b0319166001600160a01b03831690811790915560405133907f8be0079c531659141344cd1fd0a4f28419497f9722a3daafe3b4186f6b6457e090600090a350565b6001600160a01b0382166110925760405162461bcd60e51b81526020600482015260116024820152701253959053125117d49150d25412515395607a1b60448201526064016105ba565b6000818152600260205260409020546001600160a01b0316156110e85760405162461bcd60e51b815260206004820152600e60248201526d1053149150511657d3525395115160921b60448201526064016105ba565b6001600160a01b038216600081815260036020908152604080832080546001019055848352600290915280822080546001600160a01b0319168417905551839291907fddf252ad1be2c89b69c2b068fc378daa952ba7f163c4a11628f55a4df523b3ef908290a45050565b606060a06040510180604052602081039150506000815280825b600183039250600a81066030018353600a90048061116d5750819003601f19909101908152919050565b6001600160e01b0319811681146111ad57600080fd5b50565b6000602082840312156111c257600080fd5b81356111cd81611197565b9392505050565b60005b838110156111ef5781810151838201526020016111d7565b50506000910152565b60208152600082518060208401526112178160408501602087016111d4565b601f01601f19169190910160400192915050565b60006020828403121561123d57600080fd5b5035919050565b80356001600160a01b0381168114610ad257600080fd5b6000806040838503121561126e57600080fd5b61127783611244565b946020939093013593505050565b634e487b7160e01b600052604160045260246000fd5b604051601f8201601f1916810167ffffffffffffffff811182821017156112c4576112c4611285565b604052919050565b600082601f8301126112dd57600080fd5b8135602067ffffffffffffffff8211156112f9576112f9611285565b8160051b61130882820161129b565b928352848101820192828101908785111561132257600080fd5b83870192505b8483101561134157823582529183019190830190611328565b979650505050505050565b60008060006060848603121561136157600080fd5b833567ffffffffffffffff8082111561137957600080fd5b611385878388016112cc565b9450602086013591508082111561139b57600080fd5b6113a7878388016112cc565b935060408601359150808211156113bd57600080fd5b506113ca868287016112cc565b9150509250925092565b600080604083850312156113e757600080fd5b50508035926020909101359150565b60008060006060848603121561140b57600080fd5b61141484611244565b925061142260208501611244565b9150604084013590509250925092565b60006020828403121561144457600080fd5b6111cd82611244565b60008060006060848603121561146257600080fd5b505081359360208301359350604090920135919050565b6000806040838503121561148c57600080fd5b61149583611244565b9150602083013580151581146114aa57600080fd5b809150509250929050565b6000806000806000608086880312156114cd57600080fd5b6114d686611244565b94506114e460208701611244565b935060408601359250606086013567ffffffffffffffff8082111561150857600080fd5b818801915088601f83011261151c57600080fd5b81358181111561152b57600080fd5b89602082850101111561153d57600080fd5b9699959850939650602001949392505050565b600082601f83011261156157600080fd5b813567ffffffffffffffff81111561157b5761157b611285565b61158e601f8201601f191660200161129b565b8181528460208386010111156115a357600080fd5b816020850160208301376000918101602001919091529392505050565b600080600080600060a086880312156115d857600080fd5b6115e186611244565b94506115ef60208701611244565b9350604086013567ffffffffffffffff8082111561160c57600080fd5b61161889838a016112cc565b9450606088013591508082111561162e57600080fd5b61163a89838a016112cc565b9350608088013591508082111561165057600080fd5b5061165d88828901611550565b9150509295509295909350565b6000806040838503121561167d57600080fd5b61168683611244565b915061169460208401611244565b90509250929050565b600080600080600060a086880312156116b557600080fd5b6116be86611244565b94506116cc60208701611244565b93506040860135925060608601359150608086013567ffffffffffffffff8111156116f657600080fd5b61165d88828901611550565b600181811c9082168061171657607f821691505b60208210810361173657634e487b7160e01b600052602260045260246000fd5b50919050565b634e487b7160e01b600052603260045260246000fd5b634e487b7160e01b600052601160045260246000fd5b60006001820161177a5761177a611752565b5060010190565b60008261179e57634e487b7160e01b600052601260045260246000fd5b500490565b808201808211156104a4576104a4611752565b6000602082840312156117c857600080fd5b81516111cd81611197565b6001600160a01b0394851681529290931660208301526040820152606081019190915260a06080820181905260009082015260c00190565b6001600160a01b038681168252851660208201526040810184905260806060820181905281018290526000828460a0840137600060a0848401015260a0601f19601f85011683010190509695505050505050565b600081516118718185602086016111d4565b9290920192915050565b600080845481600182811c91508083168061189757607f831692505b602080841082036118b657634e487b7160e01b86526022600452602486fd5b8180156118ca57600181146118df5761190c565b60ff198616895284151585028901965061190c565b60008b81526020902060005b868110156119045781548b8201529085019083016118eb565b505084890196505b50505050505061191c818561185f565b9594505050505056fea2646970667358221220790058c7004ae5556d0477d9f980d47fd45ac2d6c14eede7df976f79edb2dac464736f6c63430008130033",
    "linkReferences": {}
  },
  "methodIdentifiers": {
    "approve(address,uint256)": "095ea7b3",
    "balanceOf(address)": "70a08231",
    "baseUri()": "9abc8320",
    "getApproved(uint256)": "081812fc",
    "isApprovedForAll(address,address)": "e985e9c5",
    "landCount()": "d7bce658",
    "map(uint256,uint256)": "a90b9128",
    "mint(uint256,uint256)": "1b2ef1ca",
    "name()": "06fdde03",
    "onERC1155BatchReceived(address,address,uint256[],uint256[],bytes)": "bc197c81",
    "onERC1155Received(address,address,uint256,uint256,bytes)": "f23a6e61",
    "owner()": "8da5cb5b",
    "ownerOf(uint256)": "6352211e",
    "perSize()": "ae9deae4",
    "placeItem(uint256,uint256,uint256)": "95f5b17a",
    "placeItems(uint256[],uint256[],uint256[])": "0d0637b3",
    "removeItem(uint256,uint256)": "870fc347",
    "safeTransferFrom(address,address,uint256)": "42842e0e",
    "safeTransferFrom(address,address,uint256,bytes)": "b88d4fde",
    "setApprovalForAll(address,bool)": "a22cb465",
    "size()": "949d225d",
    "supportsInterface(bytes4)": "01ffc9a7",
    "symbol()": "95d89b41",
    "tokenURI(uint256)": "c87b56dd",
    "transferFrom(address,address,uint256)": "23b872dd",
    "transferOwnership(address)": "f2fde38b",
    "utilCount()": "baacbe9b",
    "utilsAddress()": "512c4aaf"
  },
  "id": 4
}