{
  "abi": [
    {
      "inputs": [
        {
          "internalType": "uint256",
          "name": "_size",
          "type": "uint256"
        },
        {
          "internalType": "uint256",
          "name": "_perSize",
          "type": "uint256"
        },
        {
          "internalType": "string",
          "name": "_baseUri",
          "type": "string"
        },
        {
          "internalType": "address",
          "name": "_utilsAddress",
          "type": "address"
        },
        {
          "internalType": "address",
          "name": "trustedForwarder",
          "type": "address"
        }
      ],
      "stateMutability": "nonpayable",
      "type": "constructor"
    },
    {
      "inputs": [],
      "name": "InvalidLength",
      "type": "error"
    },
    {
      "inputs": [],
      "name": "InvalidXIndex",
      "type": "error"
    },
    {
      "inputs": [],
      "name": "InvalidYIndex",
      "type": "error"
    },
    {
      "inputs": [],
      "name": "LandAlreadyOwned",
      "type": "error"
    },
    {
      "inputs": [],
      "name": "NotOwner",
      "type": "error"
    },
    {
      "inputs": [],
      "name": "SizeNotDivisibleByPerSize",
      "type": "error"
    },
    {
      "inputs": [],
      "name": "ZeroPerSize",
      "type": "error"
    },
    {
      "inputs": [],
      "name": "ZeroSize",
      "type": "error"
    },
    {
      "anonymous": false,
      "inputs": [
        {
          "indexed": true,
          "internalType": "address",
          "name": "owner",
          "type": "address"
        },
        {
          "indexed": true,
          "internalType": "address",
          "name": "approved",
          "type": "address"
        },
        {
          "indexed": true,
          "internalType": "uint256",
          "name": "tokenId",
          "type": "uint256"
        }
      ],
      "name": "Approval",
      "type": "event"
    },
    {
      "anonymous": false,
      "inputs": [
        {
          "indexed": true,
          "internalType": "address",
          "name": "owner",
          "type": "address"
        },
        {
          "indexed": true,
          "internalType": "address",
          "name": "operator",
          "type": "address"
        },
        {
          "indexed": false,
          "internalType": "bool",
          "name": "approved",
          "type": "bool"
        }
      ],
      "name": "ApprovalForAll",
      "type": "event"
    },
    {
      "anonymous": false,
      "inputs": [
        {
          "indexed": true,
          "internalType": "address",
          "name": "from",
          "type": "address"
        },
        {
          "indexed": true,
          "internalType": "address",
          "name": "to",
          "type": "address"
        },
        {
          "indexed": true,
          "internalType": "uint256",
          "name": "tokenId",
          "type": "uint256"
        }
      ],
      "name": "Transfer",
      "type": "event"
    },
    {
      "inputs": [
        {
          "internalType": "address",
          "name": "to",
          "type": "address"
        },
        {
          "internalType": "uint256",
          "name": "tokenId",
          "type": "uint256"
        }
      ],
      "name": "approve",
      "outputs": [],
      "stateMutability": "nonpayable",
      "type": "function"
    },
    {
      "inputs": [
        {
          "internalType": "address",
          "name": "owner",
          "type": "address"
        }
      ],
      "name": "balanceOf",
      "outputs": [
        {
          "internalType": "uint256",
          "name": "",
          "type": "uint256"
        }
      ],
      "stateMutability": "view",
      "type": "function"
    },
    {
      "inputs": [],
      "name": "baseUri",
      "outputs": [
        {
          "internalType": "string",
          "name": "",
          "type": "string"
        }
      ],
      "stateMutability": "view",
      "type": "function"
    },
    {
      "inputs": [
        {
          "internalType": "uint256",
          "name": "tokenId",
          "type": "uint256"
        }
      ],
      "name": "getApproved",
      "outputs": [
        {
          "internalType": "address",
          "name": "",
          "type": "address"
        }
      ],
      "stateMutability": "view",
      "type": "function"
    },
    {
      "inputs": [
        {
          "internalType": "address",
          "name": "owner",
          "type": "address"
        },
        {
          "internalType": "address",
          "name": "operator",
          "type": "address"
        }
      ],
      "name": "isApprovedForAll",
      "outputs": [
        {
          "internalType": "bool",
          "name": "",
          "type": "bool"
        }
      ],
      "stateMutability": "view",
      "type": "function"
    },
    {
      "inputs": [
        {
          "internalType": "address",
          "name": "forwarder",
          "type": "address"
        }
      ],
      "name": "isTrustedForwarder",
      "outputs": [
        {
          "internalType": "bool",
          "name": "",
          "type": "bool"
        }
      ],
      "stateMutability": "view",
      "type": "function"
    },
    {
      "inputs": [
        {
          "internalType": "uint256",
          "name": "",
          "type": "uint256"
        }
      ],
      "name": "land",
      "outputs": [
        {
          "internalType": "uint256",
          "name": "xIndex",
          "type": "uint256"
        },
        {
          "internalType": "uint256",
          "name": "yIndex",
          "type": "uint256"
        }
      ],
      "stateMutability": "view",
      "type": "function"
    },
    {
      "inputs": [],
      "name": "landCount",
      "outputs": [
        {
          "internalType": "uint256",
          "name": "",
          "type": "uint256"
        }
      ],
      "stateMutability": "view",
      "type": "function"
    },
    {
      "inputs": [
        {
          "internalType": "uint256",
          "name": "",
          "type": "uint256"
        },
        {
          "internalType": "uint256",
          "name": "",
          "type": "uint256"
        }
      ],
      "name": "landIds",
      "outputs": [
        {
          "internalType": "uint256",
          "name": "",
          "type": "uint256"
        }
      ],
      "stateMutability": "view",
      "type": "function"
    },
    {
      "inputs": [
        {
          "internalType": "uint256",
          "name": "",
          "type": "uint256"
        },
        {
          "internalType": "uint256",
          "name": "",
          "type": "uint256"
        }
      ],
      "name": "map",
      "outputs": [
        {
          "internalType": "uint256",
          "name": "",
          "type": "uint256"
        }
      ],
      "stateMutability": "view",
      "type": "function"
    },
    {
      "inputs": [
        {
          "internalType": "uint256",
          "name": "xIndex",
          "type": "uint256"
        },
        {
          "internalType": "uint256",
          "name": "yIndex",
          "type": "uint256"
        }
      ],
      "name": "mint",
      "outputs": [
        {
          "internalType": "uint256",
          "name": "",
          "type": "uint256"
        }
      ],
      "stateMutability": "nonpayable",
      "type": "function"
    },
    {
      "inputs": [],
      "name": "name",
      "outputs": [
        {
          "internalType": "string",
          "name": "",
          "type": "string"
        }
      ],
      "stateMutability": "view",
      "type": "function"
    },
    {
      "inputs": [
        {
          "internalType": "address",
          "name": "",
          "type": "address"
        },
        {
          "internalType": "address",
          "name": "",
          "type": "address"
        },
        {
          "internalType": "uint256[]",
          "name": "",
          "type": "uint256[]"
        },
        {
          "internalType": "uint256[]",
          "name": "",
          "type": "uint256[]"
        },
        {
          "internalType": "bytes",
          "name": "",
          "type": "bytes"
        }
      ],
      "name": "onKIP37BatchReceived",
      "outputs": [
        {
          "internalType": "bytes4",
          "name": "",
          "type": "bytes4"
        }
      ],
      "stateMutability": "nonpayable",
      "type": "function"
    },
    {
      "inputs": [
        {
          "internalType": "address",
          "name": "",
          "type": "address"
        },
        {
          "internalType": "address",
          "name": "",
          "type": "address"
        },
        {
          "internalType": "uint256",
          "name": "",
          "type": "uint256"
        },
        {
          "internalType": "uint256",
          "name": "",
          "type": "uint256"
        },
        {
          "internalType": "bytes",
          "name": "",
          "type": "bytes"
        }
      ],
      "name": "onKIP37Received",
      "outputs": [
        {
          "internalType": "bytes4",
          "name": "",
          "type": "bytes4"
        }
      ],
      "stateMutability": "nonpayable",
      "type": "function"
    },
    {
      "inputs": [
        {
          "internalType": "uint256",
          "name": "tokenId",
          "type": "uint256"
        }
      ],
      "name": "ownerOf",
      "outputs": [
        {
          "internalType": "address",
          "name": "",
          "type": "address"
        }
      ],
      "stateMutability": "view",
      "type": "function"
    },
    {
      "inputs": [],
      "name": "perSize",
      "outputs": [
        {
          "internalType": "uint256",
          "name": "",
          "type": "uint256"
        }
      ],
      "stateMutability": "view",
      "type": "function"
    },
    {
      "inputs": [
        {
          "internalType": "uint256",
          "name": "x",
          "type": "uint256"
        },
        {
          "internalType": "uint256",
          "name": "y",
          "type": "uint256"
        },
        {
          "internalType": "uint256",
          "name": "utilId",
          "type": "uint256"
        }
      ],
      "name": "placeItem",
      "outputs": [],
      "stateMutability": "nonpayable",
      "type": "function"
    },
    {
      "inputs": [
        {
          "internalType": "uint256[]",
          "name": "x",
          "type": "uint256[]"
        },
        {
          "internalType": "uint256[]",
          "name": "y",
          "type": "uint256[]"
        },
        {
          "internalType": "uint256[]",
          "name": "utilId",
          "type": "uint256[]"
        }
      ],
      "name": "placeItems",
      "outputs": [],
      "stateMutability": "nonpayable",
      "type": "function"
    },
    {
      "inputs": [
        {
          "internalType": "uint256",
          "name": "x",
          "type": "uint256"
        },
        {
          "internalType": "uint256",
          "name": "y",
          "type": "uint256"
        }
      ],
      "name": "removeItem",
      "outputs": [],
      "stateMutability": "nonpayable",
      "type": "function"
    },
    {
      "inputs": [
        {
          "internalType": "address",
          "name": "from",
          "type": "address"
        },
        {
          "internalType": "address",
          "name": "to",
          "type": "address"
        },
        {
          "internalType": "uint256",
          "name": "tokenId",
          "type": "uint256"
        }
      ],
      "name": "safeTransferFrom",
      "outputs": [],
      "stateMutability": "nonpayable",
      "type": "function"
    },
    {
      "inputs": [
        {
          "internalType": "address",
          "name": "from",
          "type": "address"
        },
        {
          "internalType": "address",
          "name": "to",
          "type": "address"
        },
        {
          "internalType": "uint256",
          "name": "tokenId",
          "type": "uint256"
        },
        {
          "internalType": "bytes",
          "name": "_data",
          "type": "bytes"
        }
      ],
      "name": "safeTransferFrom",
      "outputs": [],
      "stateMutability": "nonpayable",
      "type": "function"
    },
    {
      "inputs": [
        {
          "internalType": "address",
          "name": "operator",
          "type": "address"
        },
        {
          "internalType": "bool",
          "name": "approved",
          "type": "bool"
        }
      ],
      "name": "setApprovalForAll",
      "outputs": [],
      "stateMutability": "nonpayable",
      "type": "function"
    },
    {
      "inputs": [],
      "name": "size",
      "outputs": [
        {
          "internalType": "uint256",
          "name": "",
          "type": "uint256"
        }
      ],
      "stateMutability": "view",
      "type": "function"
    },
    {
      "inputs": [
        {
          "internalType": "bytes4",
          "name": "interfaceId",
          "type": "bytes4"
        }
      ],
      "name": "supportsInterface",
      "outputs": [
        {
          "internalType": "bool",
          "name": "",
          "type": "bool"
        }
      ],
      "stateMutability": "view",
      "type": "function"
    },
    {
      "inputs": [],
      "name": "symbol",
      "outputs": [
        {
          "internalType": "string",
          "name": "",
          "type": "string"
        }
      ],
      "stateMutability": "view",
      "type": "function"
    },
    {
      "inputs": [
        {
          "internalType": "uint256",
          "name": "id",
          "type": "uint256"
        }
      ],
      "name": "tokenURI",
      "outputs": [
        {
          "internalType": "string",
          "name": "",
          "type": "string"
        }
      ],
      "stateMutability": "view",
      "type": "function"
    },
    {
      "inputs": [
        {
          "internalType": "address",
          "name": "from",
          "type": "address"
        },
        {
          "internalType": "address",
          "name": "to",
          "type": "address"
        },
        {
          "internalType": "uint256",
          "name": "tokenId",
          "type": "uint256"
        }
      ],
      "name": "transferFrom",
      "outputs": [],
      "stateMutability": "nonpayable",
      "type": "function"
    },
    {
      "inputs": [
        {
          "internalType": "uint256",
          "name": "x",
          "type": "uint256"
        },
        {
          "internalType": "uint256",
          "name": "y",
          "type": "uint256"
        },
        {
          "internalType": "uint256",
          "name": "utilId",
          "type": "uint256"
        }
      ],
      "name": "updateItem",
      "outputs": [],
      "stateMutability": "nonpayable",
      "type": "function"
    },
    {
      "inputs": [
        {
          "internalType": "uint256[]",
          "name": "x",
          "type": "uint256[]"
        },
        {
          "internalType": "uint256[]",
          "name": "y",
          "type": "uint256[]"
        },
        {
          "internalType": "uint256[]",
          "name": "utilId",
          "type": "uint256[]"
        }
      ],
      "name": "updateItems",
      "outputs": [],
      "stateMutability": "nonpayable",
      "type": "function"
    },
    {
      "inputs": [],
      "name": "utilCount",
      "outputs": [
        {
          "internalType": "uint256",
          "name": "",
          "type": "uint256"
        }
      ],
      "stateMutability": "view",
      "type": "function"
    },
    {
      "inputs": [],
      "name": "utilsAddress",
      "outputs": [
        {
          "internalType": "address",
          "name": "",
          "type": "address"
        }
      ],
      "stateMutability": "view",
      "type": "function"
    }
  ],
  "bytecode": {
    "object": "0x60a06040523480156200001157600080fd5b50604051620024cf380380620024cf83398101604081905262000034916200017c565b60408051808201825260038082526204d61760ec1b60208084019190915283518085019094529083526204d41560ec1b908301526001600160a01b0383166080529060006200008483826200031a565b5060016200009382826200031a565b50505084600003620000b85760405163c459d23f60e01b815260040160405180910390fd5b83600003620000da57604051630c110df560e41b815260040160405180910390fd5b60068590556007849055620000f08486620003e6565b156200010f57604051632b0baa0760e11b815260040160405180910390fd5b60096200011d84826200031a565b5050600b80546001600160a01b0319166001600160a01b03929092169190911790555062000409915050565b634e487b7160e01b600052604160045260246000fd5b80516001600160a01b03811681146200017757600080fd5b919050565b600080600080600060a086880312156200019557600080fd5b855160208088015160408901519297509550906001600160401b0380821115620001be57600080fd5b818901915089601f830112620001d357600080fd5b815181811115620001e857620001e862000149565b604051601f8201601f19908116603f0116810190838211818310171562000213576200021362000149565b816040528281528c868487010111156200022c57600080fd5b600093505b8284101562000250578484018601518185018701529285019262000231565b60008684830101528098505050505050506200026f606087016200015f565b91506200027f608087016200015f565b90509295509295909350565b600181811c90821680620002a057607f821691505b602082108103620002c157634e487b7160e01b600052602260045260246000fd5b50919050565b601f8211156200031557600081815260208120601f850160051c81016020861015620002f05750805b601f850160051c820191505b818110156200031157828155600101620002fc565b5050505b505050565b81516001600160401b0381111562000336576200033662000149565b6200034e816200034784546200028b565b84620002c7565b602080601f8311600181146200038657600084156200036d5750858301515b600019600386901b1c1916600185901b17855562000311565b600085815260208120601f198616915b82811015620003b75788860151825594840194600190910190840162000396565b5085821015620003d65787850151600019600388901b60f8161c191681555b5050505050600190811b01905550565b6000826200040457634e487b7160e01b600052601260045260246000fd5b500690565b6080516120a36200042c60003960008181610322015261169101526120a36000f3fe608060405234801561001057600080fd5b50600436106101e55760003560e01c8063870fc3471161010f578063ae9deae4116100a2578063d7bce65811610071578063d7bce658146104a1578063e78b3325146104aa578063e985e9c5146104c9578063fb9bb97f1461050557600080fd5b8063ae9deae414610469578063b88d4fde14610472578063baacbe9b14610485578063c87b56dd1461048e57600080fd5b80639abc8320116100de5780639abc8320146103eb5780639b49e332146103f3578063a22cb4651461042b578063a90b91281461043e57600080fd5b8063870fc347146103b4578063949d225d146103c757806395d89b41146103d057806395f5b17a146103d857600080fd5b806323b872dd11610187578063572b6c0511610156578063572b6c05146103125780636352211e1461035257806370a0823114610365578063861e46561461037857600080fd5b806323b872dd146102c657806342842e0e146102d9578063512c4aaf146102ec578063539447d4146102ff57600080fd5b8063095ea7b3116101c3578063095ea7b3146102525780630d0637b31461026757806319579a541461027a5780631b2ef1ca146102b357600080fd5b806301ffc9a7146101ea57806306fdde0314610212578063081812fc14610227575b600080fd5b6101fd6101f83660046118b2565b610518565b60405190151581526020015b60405180910390f35b61021a61056a565b6040516102099190611926565b61023a610235366004611939565b6105fc565b6040516001600160a01b039091168152602001610209565b61026561026036600461196e565b610695565b005b610265610275366004611a5f565b6107b2565b6102a5610288366004611ae7565b600c60209081526000928352604080842090915290825290205481565b604051908152602001610209565b6102a56102c1366004611ae7565b610870565b6102656102d4366004611b09565b610983565b6102656102e7366004611b09565b6109bb565b600b5461023a906001600160a01b031681565b61026561030d366004611b45565b6109d6565b6101fd610320366004611b71565b7f00000000000000000000000000000000000000000000000000000000000000006001600160a01b0390811691161490565b61023a610360366004611939565b6109f3565b6102a5610373366004611b71565b610a69565b61039f610386366004611939565b600d602052600090815260409020805460019091015482565b60408051928352602083019190915201610209565b6102656103c2366004611ae7565b610aee565b6102a560065481565b61021a610c44565b6102656103e6366004611b45565b610c53565b61021a610e01565b610412610401366004611bfc565b634da4f19960e11b95945050505050565b6040516001600160e01b03199091168152602001610209565b610265610439366004611ca6565b610e8f565b6102a561044c366004611ae7565b600e60209081526000928352604080842090915290825290205481565b6102a560075481565b610265610480366004611ce2565b610ea5565b6102a5600a5481565b61021a61049c366004611939565b610ede565b6102a560085481565b6104126104b8366004611d4a565b63e78b332560e01b95945050505050565b6101fd6104d7366004611daf565b6001600160a01b03918216600090815260056020908152604080832093909416825291909152205460ff1690565b610265610513366004611a5f565b610f12565b60006001600160e01b031982166380ac58cd60e01b148061054957506001600160e01b03198216635b5e139f60e01b145b8061056457506301ffc9a760e01b6001600160e01b03198316145b92915050565b60606000805461057990611de2565b80601f01602080910402602001604051908101604052809291908181526020018280546105a590611de2565b80156105f25780601f106105c7576101008083540402835291602001916105f2565b820191906000526020600020905b8154815290600101906020018083116105d557829003601f168201915b5050505050905090565b6000818152600260205260408120546001600160a01b03166106795760405162461bcd60e51b815260206004820152602b60248201527f4b495031373a20617070726f76656420717565727920666f72206e6f6e65786960448201526a39ba32b73a103a37b5b2b760a91b60648201526084015b60405180910390fd5b506000908152600460205260409020546001600160a01b031690565b60006106a0826109f3565b9050806001600160a01b0316836001600160a01b0316036107035760405162461bcd60e51b815260206004820181905260248201527f4b495031373a20617070726f76616c20746f2063757272656e74206f776e65726044820152606401610670565b806001600160a01b0316610715610fca565b6001600160a01b031614806107315750610731816104d7610fca565b6107a35760405162461bcd60e51b815260206004820152603760248201527f4b495031373a20617070726f76652063616c6c6572206973206e6f74206f776e60448201527f6572206e6f7220617070726f76656420666f7220616c6c0000000000000000006064820152608401610670565b6107ad8383610fd9565b505050565b81518351146107d45760405163251f56a160e21b815260040160405180910390fd5b80518351146107f65760405163251f56a160e21b815260040160405180910390fd5b60005b835181101561086a5761085884828151811061081757610817611e1c565b602002602001015184838151811061083157610831611e1c565b602002602001015184848151811061084b5761084b611e1c565b6020026020010151610c53565b8061086281611e48565b9150506107f9565b50505050565b60006007546006546108829190611e77565b83106108a15760405163c24c736760e01b815260040160405180910390fd5b6007546006546108b19190611e77565b82106108d057604051634665aadb60e11b815260040160405180910390fd5b6000838152600c6020908152604080832085845290915290205415610908576040516306a9893b60e51b815260040160405180910390fd5b60016008600082825461091b9190611e8b565b90915550506008546000848152600c60209081526040808320868452825280832084905580518082018252878152808301878152948452600d909252909120905181559051600190910155610979610971610fca565b600854611047565b5060085492915050565b61099461098e610fca565b82611189565b6109b05760405162461bcd60e51b815260040161067090611e9e565b6107ad83838361127f565b6107ad83838360405180602001604052806000815250610ea5565b806000036109e8576107ad8383610aee565b6107ad838383610c53565b6000818152600260205260408120546001600160a01b0316806105645760405162461bcd60e51b815260206004820152602860248201527f4b495031373a206f776e657220717565727920666f72206e6f6e657869737465604482015267373a103a37b5b2b760c11b6064820152608401610670565b60006001600160a01b038216610ad25760405162461bcd60e51b815260206004820152602860248201527f4b495031373a2061646472657373207a65726f206973206e6f7420612076616c60448201526734b21037bbb732b960c11b6064820152608401610670565b506001600160a01b031660009081526003602052604090205490565b610b35600c600060075485610b039190611e77565b8152602001908152602001600020600060075484610b219190611e77565b8152602001908152602001600020546109f3565b6001600160a01b0316610b46610fca565b6001600160a01b031614610b6d576040516330cd747160e01b815260040160405180910390fd5b600b546000838152600e602090815260408083208584529091529020546001600160a01b039091169015610c2757806001600160a01b031663f242432a30610bb3610fca565b6000878152600e60209081526040808320898452909152908190205490516001600160e01b031960e086901b168152610bf493929190600190600401611eee565b600060405180830381600087803b158015610c0e57600080fd5b505af1158015610c22573d6000803e3d6000fd5b505050505b506000918252600e60209081526040808420928452919052812055565b60606001805461057990611de2565b610c86600c600060075486610c689190611e77565b8152602001908152602001600020600060075485610b219190611e77565b6001600160a01b0316610c97610fca565b6001600160a01b031614610cbe576040516330cd747160e01b815260040160405180910390fd5b600b546000848152600e602090815260408083208684529091529020546001600160a01b039091169015610d7857806001600160a01b031663f242432a30610d04610fca565b6000888152600e602090815260408083208a8452909152908190205490516001600160e01b031960e086901b168152610d4593929190600190600401611eee565b600060405180830381600087803b158015610d5f57600080fd5b505af1158015610d73573d6000803e3d6000fd5b505050505b806001600160a01b031663f242432a610d8f610fca565b308560016040518563ffffffff1660e01b8152600401610db29493929190611eee565b600060405180830381600087803b158015610dcc57600080fd5b505af1158015610de0573d6000803e3d6000fd5b50505060009485525050600e60209081526040808520938552929052912055565b60098054610e0e90611de2565b80601f0160208091040260200160405190810160405280929190818152602001828054610e3a90611de2565b8015610e875780601f10610e5c57610100808354040283529160200191610e87565b820191906000526020600020905b815481529060010190602001808311610e6a57829003601f168201915b505050505081565b610ea1610e9a610fca565b8383611419565b5050565b610eb6610eb0610fca565b83611189565b610ed25760405162461bcd60e51b815260040161067090611e9e565b61086a848484846114e7565b60606009610eeb8361158c565b604051602001610efc929190611f42565b6040516020818303038152906040529050919050565b8151835114610f345760405163251f56a160e21b815260040160405180910390fd5b8051835114610f565760405163251f56a160e21b815260040160405180910390fd5b60005b835181101561086a57610fb8848281518110610f7757610f77611e1c565b6020026020010151848381518110610f9157610f91611e1c565b6020026020010151848481518110610fab57610fab611e1c565b60200260200101516109d6565b80610fc281611e48565b915050610f59565b6000610fd461168d565b905090565b600081815260046020526040902080546001600160a01b0319166001600160a01b038416908117909155819061100e826109f3565b6001600160a01b03167f8c5be1e5ebec7d5bd14f71427d1e84f3dd0314c0f7b2291e5b200ac8c7c3b92560405160405180910390a45050565b6001600160a01b03821661109d5760405162461bcd60e51b815260206004820152601f60248201527f4b495031373a206d696e7420746f20746865207a65726f2061646472657373006044820152606401610670565b6000818152600260205260409020546001600160a01b0316156111025760405162461bcd60e51b815260206004820152601b60248201527f4b495031373a20746f6b656e20616c7265616479206d696e74656400000000006044820152606401610670565b6001600160a01b038216600090815260036020526040812080546001929061112b908490611e8b565b909155505060008181526002602052604080822080546001600160a01b0319166001600160a01b03861690811790915590518392907fddf252ad1be2c89b69c2b068fc378daa952ba7f163c4a11628f55a4df523b3ef908290a45050565b6000818152600260205260408120546001600160a01b03166112015760405162461bcd60e51b815260206004820152602b60248201527f4b495031373a206f70657261746f7220717565727920666f72206e6f6e65786960448201526a39ba32b73a103a37b5b2b760a91b6064820152608401610670565b600061120c836109f3565b9050806001600160a01b0316846001600160a01b0316148061125357506001600160a01b0380821660009081526005602090815260408083209388168352929052205460ff165b806112775750836001600160a01b031661126c846105fc565b6001600160a01b0316145b949350505050565b826001600160a01b0316611292826109f3565b6001600160a01b0316146112f45760405162461bcd60e51b8152602060048201526024808201527f4b495031373a207472616e736665722066726f6d20696e636f7272656374206f6044820152633bb732b960e11b6064820152608401610670565b6001600160a01b0382166113565760405162461bcd60e51b815260206004820152602360248201527f4b495031373a207472616e7366657220746f20746865207a65726f206164647260448201526265737360e81b6064820152608401610670565b611361600082610fd9565b6001600160a01b038316600090815260036020526040812080546001929061138a908490611fec565b90915550506001600160a01b03821660009081526003602052604081208054600192906113b8908490611e8b565b909155505060008181526002602052604080822080546001600160a01b0319166001600160a01b0386811691821790925591518493918716917fddf252ad1be2c89b69c2b068fc378daa952ba7f163c4a11628f55a4df523b3ef91a4505050565b816001600160a01b0316836001600160a01b03160361147a5760405162461bcd60e51b815260206004820152601860248201527f4b495031373a20617070726f766520746f2063616c6c657200000000000000006044820152606401610670565b6001600160a01b03838116600081815260056020908152604080832094871680845294825291829020805460ff191686151590811790915591519182527f17307eab39ab6107e8899845ad3d59bd9653f200f220920489ca2b5937696c31910160405180910390a3505050565b6114f284848461127f565b6114fe848484846116d1565b806115105750611510848484846117cb565b61086a5760405162461bcd60e51b815260206004820152604160248201527f4b495031373a207472616e7366657220746f206e6f6e20494b4950313752656360448201527f65697665722f49455243373231526563656976657220696d706c656d656e74656064820152603960f91b608482015260a401610670565b6060816000036115b35750506040805180820190915260018152600360fc1b602082015290565b8160005b81156115dd57806115c781611e48565b91506115d69050600a83611e77565b91506115b7565b60008167ffffffffffffffff8111156115f8576115f8611998565b6040519080825280601f01601f191660200182016040528015611622576020820181803683370190505b5090505b841561127757611637600183611fec565b9150611644600a86611fff565b61164f906030611e8b565b60f81b81838151811061166457611664611e1c565b60200101906001600160f81b031916908160001a905350611686600a86611e77565b9450611626565b60007f00000000000000000000000000000000000000000000000000000000000000006001600160a01b031633036116cc575060131936013560601c90565b503390565b60006001600160a01b0384163b156117c057836001600160a01b0316636745782b6116fa610fca565b8786866040518563ffffffff1660e01b815260040161171c9493929190612013565b6020604051808303816000875af1925050508015611757575060408051601f3d908101601f1916820190925261175491810190612050565b60015b6117a6573d808015611785576040519150601f19603f3d011682016040523d82523d6000602084013e61178a565b606091505b50805160000361179e576000915050611277565b805181602001fd5b6001600160e01b031916636745782b60e01b149050611277565b506001949350505050565b60006001600160a01b0384163b156117c057836001600160a01b031663150b7a026117f4610fca565b8786866040518563ffffffff1660e01b81526004016118169493929190612013565b6020604051808303816000875af1925050508015611851575060408051601f3d908101601f1916820190925261184e91810190612050565b60015b61187f573d808015611785576040519150601f19603f3d011682016040523d82523d6000602084013e61178a565b6001600160e01b031916630a85bd0160e11b149050611277565b6001600160e01b0319811681146118af57600080fd5b50565b6000602082840312156118c457600080fd5b81356118cf81611899565b9392505050565b60005b838110156118f15781810151838201526020016118d9565b50506000910152565b600081518084526119128160208601602086016118d6565b601f01601f19169290920160200192915050565b6020815260006118cf60208301846118fa565b60006020828403121561194b57600080fd5b5035919050565b80356001600160a01b038116811461196957600080fd5b919050565b6000806040838503121561198157600080fd5b61198a83611952565b946020939093013593505050565b634e487b7160e01b600052604160045260246000fd5b604051601f8201601f1916810167ffffffffffffffff811182821017156119d7576119d7611998565b604052919050565b600082601f8301126119f057600080fd5b8135602067ffffffffffffffff821115611a0c57611a0c611998565b8160051b611a1b8282016119ae565b9283528481018201928281019087851115611a3557600080fd5b83870192505b84831015611a5457823582529183019190830190611a3b565b979650505050505050565b600080600060608486031215611a7457600080fd5b833567ffffffffffffffff80821115611a8c57600080fd5b611a98878388016119df565b94506020860135915080821115611aae57600080fd5b611aba878388016119df565b93506040860135915080821115611ad057600080fd5b50611add868287016119df565b9150509250925092565b60008060408385031215611afa57600080fd5b50508035926020909101359150565b600080600060608486031215611b1e57600080fd5b611b2784611952565b9250611b3560208501611952565b9150604084013590509250925092565b600080600060608486031215611b5a57600080fd5b505081359360208301359350604090920135919050565b600060208284031215611b8357600080fd5b6118cf82611952565b600082601f830112611b9d57600080fd5b813567ffffffffffffffff811115611bb757611bb7611998565b611bca601f8201601f19166020016119ae565b818152846020838601011115611bdf57600080fd5b816020850160208301376000918101602001919091529392505050565b600080600080600060a08688031215611c1457600080fd5b611c1d86611952565b9450611c2b60208701611952565b9350604086013567ffffffffffffffff80821115611c4857600080fd5b611c5489838a016119df565b94506060880135915080821115611c6a57600080fd5b611c7689838a016119df565b93506080880135915080821115611c8c57600080fd5b50611c9988828901611b8c565b9150509295509295909350565b60008060408385031215611cb957600080fd5b611cc283611952565b915060208301358015158114611cd757600080fd5b809150509250929050565b60008060008060808587031215611cf857600080fd5b611d0185611952565b9350611d0f60208601611952565b925060408501359150606085013567ffffffffffffffff811115611d3257600080fd5b611d3e87828801611b8c565b91505092959194509250565b600080600080600060a08688031215611d6257600080fd5b611d6b86611952565b9450611d7960208701611952565b93506040860135925060608601359150608086013567ffffffffffffffff811115611da357600080fd5b611c9988828901611b8c565b60008060408385031215611dc257600080fd5b611dcb83611952565b9150611dd960208401611952565b90509250929050565b600181811c90821680611df657607f821691505b602082108103611e1657634e487b7160e01b600052602260045260246000fd5b50919050565b634e487b7160e01b600052603260045260246000fd5b634e487b7160e01b600052601160045260246000fd5b600060018201611e5a57611e5a611e32565b5060010190565b634e487b7160e01b600052601260045260246000fd5b600082611e8657611e86611e61565b500490565b8082018082111561056457610564611e32565b60208082526030908201527f4b495031373a207472616e736665722063616c6c6572206973206e6f74206f7760408201526f1b995c881b9bdc88185c1c1c9bdd995960821b606082015260800190565b6001600160a01b0394851681529290931660208301526040820152606081019190915260a06080820181905260009082015260c00190565b60008151611f388185602086016118d6565b9290920192915050565b600080845481600182811c915080831680611f5e57607f831692505b60208084108203611f7d57634e487b7160e01b86526022600452602486fd5b818015611f915760018114611fa657611fd3565b60ff1986168952841515850289019650611fd3565b60008b81526020902060005b86811015611fcb5781548b820152908501908301611fb2565b505084890196505b505050505050611fe38185611f26565b95945050505050565b8181038181111561056457610564611e32565b60008261200e5761200e611e61565b500690565b6001600160a01b0385811682528416602082015260408101839052608060608201819052600090612046908301846118fa565b9695505050505050565b60006020828403121561206257600080fd5b81516118cf8161189956fea2646970667358221220587711436f90509935f1a8c1afffc5cdbb21ecf2ed74fdd55b604140520c459e64736f6c63430008130033",
    "linkReferences": {}
  },
  "methodIdentifiers": {
    "approve(address,uint256)": "095ea7b3",
    "balanceOf(address)": "70a08231",
    "baseUri()": "9abc8320",
    "getApproved(uint256)": "081812fc",
    "isApprovedForAll(address,address)": "e985e9c5",
    "isTrustedForwarder(address)": "572b6c05",
    "land(uint256)": "861e4656",
    "landCount()": "d7bce658",
    "landIds(uint256,uint256)": "19579a54",
    "map(uint256,uint256)": "a90b9128",
    "mint(uint256,uint256)": "1b2ef1ca",
    "name()": "06fdde03",
    "onKIP37BatchReceived(address,address,uint256[],uint256[],bytes)": "9b49e332",
    "onKIP37Received(address,address,uint256,uint256,bytes)": "e78b3325",
    "ownerOf(uint256)": "6352211e",
    "perSize()": "ae9deae4",
    "placeItem(uint256,uint256,uint256)": "95f5b17a",
    "placeItems(uint256[],uint256[],uint256[])": "0d0637b3",
    "removeItem(uint256,uint256)": "870fc347",
    "safeTransferFrom(address,address,uint256)": "42842e0e",
    "safeTransferFrom(address,address,uint256,bytes)": "b88d4fde",
    "setApprovalForAll(address,bool)": "a22cb465",
    "size()": "949d225d",
    "supportsInterface(bytes4)": "01ffc9a7",
    "symbol()": "95d89b41",
    "tokenURI(uint256)": "c87b56dd",
    "transferFrom(address,address,uint256)": "23b872dd",
    "updateItem(uint256,uint256,uint256)": "539447d4",
    "updateItems(uint256[],uint256[],uint256[])": "fb9bb97f",
    "utilCount()": "baacbe9b",
    "utilsAddress()": "512c4aaf"
  },
  "id": 29
}