{
  "abi": [
    {
      "inputs": [
        {
          "internalType": "string",
          "name": "uri_",
          "type": "string"
        }
      ],
      "stateMutability": "nonpayable",
      "type": "constructor"
    },
    {
      "anonymous": false,
      "inputs": [
        {
          "indexed": true,
          "internalType": "address",
          "name": "owner",
          "type": "address"
        },
        {
          "indexed": true,
          "internalType": "address",
          "name": "operator",
          "type": "address"
        },
        {
          "indexed": false,
          "internalType": "bool",
          "name": "approved",
          "type": "bool"
        }
      ],
      "name": "ApprovalForAll",
      "type": "event"
    },
    {
      "anonymous": false,
      "inputs": [
        {
          "indexed": true,
          "internalType": "address",
          "name": "operator",
          "type": "address"
        },
        {
          "indexed": true,
          "internalType": "address",
          "name": "from",
          "type": "address"
        },
        {
          "indexed": true,
          "internalType": "address",
          "name": "to",
          "type": "address"
        },
        {
          "indexed": false,
          "internalType": "uint256[]",
          "name": "ids",
          "type": "uint256[]"
        },
        {
          "indexed": false,
          "internalType": "uint256[]",
          "name": "amounts",
          "type": "uint256[]"
        }
      ],
      "name": "TransferBatch",
      "type": "event"
    },
    {
      "anonymous": false,
      "inputs": [
        {
          "indexed": true,
          "internalType": "address",
          "name": "operator",
          "type": "address"
        },
        {
          "indexed": true,
          "internalType": "address",
          "name": "from",
          "type": "address"
        },
        {
          "indexed": true,
          "internalType": "address",
          "name": "to",
          "type": "address"
        },
        {
          "indexed": false,
          "internalType": "uint256",
          "name": "id",
          "type": "uint256"
        },
        {
          "indexed": false,
          "internalType": "uint256",
          "name": "amount",
          "type": "uint256"
        }
      ],
      "name": "TransferSingle",
      "type": "event"
    },
    {
      "anonymous": false,
      "inputs": [
        {
          "indexed": false,
          "internalType": "string",
          "name": "value",
          "type": "string"
        },
        {
          "indexed": true,
          "internalType": "uint256",
          "name": "id",
          "type": "uint256"
        }
      ],
      "name": "URI",
      "type": "event"
    },
    {
      "inputs": [
        {
          "internalType": "address",
          "name": "owner",
          "type": "address"
        },
        {
          "internalType": "uint256",
          "name": "id",
          "type": "uint256"
        }
      ],
      "name": "balanceOf",
      "outputs": [
        {
          "internalType": "uint256",
          "name": "",
          "type": "uint256"
        }
      ],
      "stateMutability": "view",
      "type": "function"
    },
    {
      "inputs": [
        {
          "internalType": "address[]",
          "name": "owners",
          "type": "address[]"
        },
        {
          "internalType": "uint256[]",
          "name": "ids",
          "type": "uint256[]"
        }
      ],
      "name": "balanceOfBatch",
      "outputs": [
        {
          "internalType": "uint256[]",
          "name": "",
          "type": "uint256[]"
        }
      ],
      "stateMutability": "view",
      "type": "function"
    },
    {
      "inputs": [
        {
          "internalType": "address",
          "name": "owner",
          "type": "address"
        },
        {
          "internalType": "address",
          "name": "operator",
          "type": "address"
        }
      ],
      "name": "isApprovedForAll",
      "outputs": [
        {
          "internalType": "bool",
          "name": "",
          "type": "bool"
        }
      ],
      "stateMutability": "view",
      "type": "function"
    },
    {
      "inputs": [
        {
          "internalType": "address",
          "name": "from",
          "type": "address"
        },
        {
          "internalType": "address",
          "name": "to",
          "type": "address"
        },
        {
          "internalType": "uint256[]",
          "name": "ids",
          "type": "uint256[]"
        },
        {
          "internalType": "uint256[]",
          "name": "amounts",
          "type": "uint256[]"
        },
        {
          "internalType": "bytes",
          "name": "data",
          "type": "bytes"
        }
      ],
      "name": "safeBatchTransferFrom",
      "outputs": [],
      "stateMutability": "nonpayable",
      "type": "function"
    },
    {
      "inputs": [
        {
          "internalType": "address",
          "name": "from",
          "type": "address"
        },
        {
          "internalType": "address",
          "name": "to",
          "type": "address"
        },
        {
          "internalType": "uint256",
          "name": "id",
          "type": "uint256"
        },
        {
          "internalType": "uint256",
          "name": "amount",
          "type": "uint256"
        },
        {
          "internalType": "bytes",
          "name": "data",
          "type": "bytes"
        }
      ],
      "name": "safeTransferFrom",
      "outputs": [],
      "stateMutability": "nonpayable",
      "type": "function"
    },
    {
      "inputs": [
        {
          "internalType": "address",
          "name": "operator",
          "type": "address"
        },
        {
          "internalType": "bool",
          "name": "approved",
          "type": "bool"
        }
      ],
      "name": "setApprovalForAll",
      "outputs": [],
      "stateMutability": "nonpayable",
      "type": "function"
    },
    {
      "inputs": [
        {
          "internalType": "bytes4",
          "name": "interfaceId",
          "type": "bytes4"
        }
      ],
      "name": "supportsInterface",
      "outputs": [
        {
          "internalType": "bool",
          "name": "",
          "type": "bool"
        }
      ],
      "stateMutability": "view",
      "type": "function"
    },
    {
      "inputs": [
        {
          "internalType": "uint256",
          "name": "id",
          "type": "uint256"
        }
      ],
      "name": "totalSupply",
      "outputs": [
        {
          "internalType": "uint256",
          "name": "",
          "type": "uint256"
        }
      ],
      "stateMutability": "view",
      "type": "function"
    },
    {
      "inputs": [
        {
          "internalType": "uint256",
          "name": "",
          "type": "uint256"
        }
      ],
      "name": "uri",
      "outputs": [
        {
          "internalType": "string",
          "name": "",
          "type": "string"
        }
      ],
      "stateMutability": "view",
      "type": "function"
    }
  ],
  "bytecode": {
    "object": "0x60806040523480156200001157600080fd5b50604051620019153803806200191583398101604081905262000034916200006e565b6200003f8162000046565b506200029e565b6003620000548282620001d2565b5050565b634e487b7160e01b600052604160045260246000fd5b600060208083850312156200008257600080fd5b82516001600160401b03808211156200009a57600080fd5b818501915085601f830112620000af57600080fd5b815181811115620000c457620000c462000058565b604051601f8201601f19908116603f01168101908382118183101715620000ef57620000ef62000058565b8160405282815288868487010111156200010857600080fd5b600093505b828410156200012c57848401860151818501870152928501926200010d565b600086848301015280965050505050505092915050565b600181811c908216806200015857607f821691505b6020821081036200017957634e487b7160e01b600052602260045260246000fd5b50919050565b601f821115620001cd57600081815260208120601f850160051c81016020861015620001a85750805b601f850160051c820191505b81811015620001c957828155600101620001b4565b5050505b505050565b81516001600160401b03811115620001ee57620001ee62000058565b6200020681620001ff845462000143565b846200017f565b602080601f8311600181146200023e5760008415620002255750858301515b600019600386901b1c1916600185901b178555620001c9565b600085815260208120601f198616915b828110156200026f578886015182559484019460019091019084016200024e565b50858210156200028e5787850151600019600388901b60f8161c191681555b5050505050600190811b01905550565b61166780620002ae6000396000f3fe608060405234801561001057600080fd5b50600436106100925760003560e01c80634e1273f4116100665780634e1273f414610115578063a22cb46514610135578063bd85b03914610148578063e985e9c514610168578063f242432a146101a457600080fd5b8062fdd58e1461009757806301ffc9a7146100bd5780630e89341c146100e05780632eb2c2d614610100575b600080fd5b6100aa6100a5366004610f7b565b6101b7565b6040519081526020015b60405180910390f35b6100d06100cb366004610fbe565b61024e565b60405190151581526020016100b4565b6100f36100ee366004610fe2565b61029e565b6040516100b49190611041565b61011361010e36600461119a565b610332565b005b610128610123366004611244565b6103c7565b6040516100b4919061133f565b610113610143366004611352565b6104ed565b6100aa610156366004610fe2565b60009081526001602052604090205490565b6100d061017636600461138e565b6001600160a01b03918216600090815260026020908152604080832093909416825291909152205460ff1690565b6101136101b23660046113c1565b6104fc565b60006001600160a01b0383166102255760405162461bcd60e51b815260206004820152602860248201527f4b495033373a2061646472657373207a65726f206973206e6f7420612076616c60448201526734b21037bbb732b960c11b60648201526084015b60405180910390fd5b506000818152602081815260408083206001600160a01b03861684529091529020545b92915050565b60006001600160e01b03198216636433ca1f60e01b148061027f57506001600160e01b031982166303a24d0760e21b145b8061024857506301ffc9a760e01b6001600160e01b0319831614610248565b6060600380546102ad90611426565b80601f01602080910402602001604051908101604052809291908181526020018280546102d990611426565b80156103265780601f106102fb57610100808354040283529160200191610326565b820191906000526020600020905b81548152906001019060200180831161030957829003601f168201915b50505050509050919050565b6001600160a01b03851633148061034e575061034e8533610176565b6103b35760405162461bcd60e51b815260206004820152603060248201527f4b495033373a207472616e736665722063616c6c6572206973206e6f74206f7760448201526f1b995c881b9bdc88185c1c1c9bdd995960821b606482015260840161021c565b6103c08585858585610581565b5050505050565b606081518351146104285760405162461bcd60e51b815260206004820152602560248201527f4b495033373a206f776e65727320616e6420696473206c656e677468206d69736044820152640dac2e8c6d60db1b606482015260840161021c565b6000835167ffffffffffffffff81111561044457610444611054565b60405190808252806020026020018201604052801561046d578160200160208202803683370190505b50905060005b84518110156104e5576104b885828151811061049157610491611460565b60200260200101518583815181106104ab576104ab611460565b60200260200101516101b7565b8282815181106104ca576104ca611460565b60209081029190910101526104de8161148c565b9050610473565b509392505050565b6104f833838361076a565b5050565b6001600160a01b03851633148061051857506105188533610176565b6105745760405162461bcd60e51b815260206004820152602760248201527f4b495033373a2063616c6c6572206973206e6f74206f776e6572206e6f7220616044820152661c1c1c9bdd995960ca1b606482015260840161021c565b6103c08585858585610848565b81518351146105e15760405162461bcd60e51b815260206004820152602660248201527f4b495033373a2069647320616e6420616d6f756e7473206c656e677468206d696044820152650e6dac2e8c6d60d31b606482015260840161021c565b6001600160a01b0384166106075760405162461bcd60e51b815260040161021c906114a5565b33610616818787878787610980565b60005b84518110156106fc57600085828151811061063657610636611460565b60200260200101519050600085838151811061065457610654611460565b602090810291909101810151600084815280835260408082206001600160a01b038e1683529093529190912054909150818110156106a45760405162461bcd60e51b815260040161021c906114e8565b6000838152602081815260408083206001600160a01b038e8116855292528083208585039055908b168252812080548492906106e1908490611530565b92505081905550505050806106f59061148c565b9050610619565b50846001600160a01b0316866001600160a01b0316826001600160a01b03167f4a39dc06d4c0dbc64b70af90fd698a233a518aa5d07e595d983b8c0526c8f7fb878760405161074c929190611543565b60405180910390a4610762818787878787610b00565b505050505050565b816001600160a01b0316836001600160a01b0316036107db5760405162461bcd60e51b815260206004820152602760248201527f4b495033373a2073657474696e6720617070726f76616c20737461747573206660448201526637b91039b2b63360c91b606482015260840161021c565b6001600160a01b03838116600081815260026020908152604080832094871680845294825291829020805460ff191686151590811790915591519182527f17307eab39ab6107e8899845ad3d59bd9653f200f220920489ca2b5937696c31910160405180910390a3505050565b6001600160a01b03841661086e5760405162461bcd60e51b815260040161021c906114a5565b33600061087a85610b9f565b9050600061088785610b9f565b9050610897838989858589610980565b6000868152602081815260408083206001600160a01b038c168452909152902054858110156108d85760405162461bcd60e51b815260040161021c906114e8565b6000878152602081815260408083206001600160a01b038d8116855292528083208985039055908a16825281208054889290610915908490611530565b909155505060408051888152602081018890526001600160a01b03808b16928c821692918816917fc3d58168c5ae7397731d063d5bbf3d657854427343f4c083240f7aacaa2d0f62910160405180910390a4610975848a8a8a8a8a610bea565b505050505050505050565b6001600160a01b038516610a075760005b8351811015610a05578281815181106109ac576109ac611460565b6020026020010151600160008684815181106109ca576109ca611460565b6020026020010151815260200190815260200160002060008282546109ef9190611530565b909155506109fe90508161148c565b9050610991565b505b6001600160a01b0384166107625760005b8351811015610af7576000848281518110610a3557610a35611460565b602002602001015190506000848381518110610a5357610a53611460565b6020026020010151905060006001600084815260200190815260200160002054905081811015610ad45760405162461bcd60e51b815260206004820152602660248201527f4b495033373a206275726e20616d6f756e74206578636565647320746f74616c604482015265537570706c7960d01b606482015260840161021c565b60009283526001602052604090922091039055610af08161148c565b9050610a18565b50505050505050565b610b0e868686868686610c0c565b80610b225750610b22868686868686610d04565b6107625760405162461bcd60e51b815260206004820152604260248201527f4b495033373a207472616e7366657220746f206e6f6e20494b4950333752656360448201527f65697665722f4945524331313535526563656976657220696d706c656d656e7460648201526132b960f11b608482015260a40161021c565b60408051600180825281830190925260609160009190602080830190803683370190505090508281600081518110610bd957610bd9611460565b602090810291909101015292915050565b610bf8868686868686610dcd565b80610b225750610b22868686868686610e96565b60006001600160a01b0385163b15610cf657604051634da4f19960e11b81526001600160a01b03861690639b49e33290610c52908a908a90899089908990600401611571565b6020604051808303816000875af1925050508015610c8d575060408051601f3d908101601f19168201909252610c8a918101906115cf565b60015b610cdc573d808015610cbb576040519150601f19603f3d011682016040523d82523d6000602084013e610cc0565b606091505b508051600003610cd4576000915050610cfa565b805181602001fd5b6001600160e01b031916634da4f19960e11b149050610cfa565b5060015b9695505050505050565b60006001600160a01b0385163b15610cf65760405163bc197c8160e01b81526001600160a01b0386169063bc197c8190610d4a908a908a90899089908990600401611571565b6020604051808303816000875af1925050508015610d85575060408051601f3d908101601f19168201909252610d82918101906115cf565b60015b610db3573d808015610cbb576040519150601f19603f3d011682016040523d82523d6000602084013e610cc0565b6001600160e01b03191663bc197c8160e01b149050610cfa565b60006001600160a01b0385163b15610cf65760405163e78b332560e01b81526001600160a01b0386169063e78b332590610e13908a908a908990899089906004016115ec565b6020604051808303816000875af1925050508015610e4e575060408051601f3d908101601f19168201909252610e4b918101906115cf565b60015b610e7c573d808015610cbb576040519150601f19603f3d011682016040523d82523d6000602084013e610cc0565b6001600160e01b03191663e78b332560e01b149050610cfa565b60006001600160a01b0385163b15610cf65760405163f23a6e6160e01b81526001600160a01b0386169063f23a6e6190610edc908a908a908990899089906004016115ec565b6020604051808303816000875af1925050508015610f17575060408051601f3d908101601f19168201909252610f14918101906115cf565b60015b610f45573d808015610cbb576040519150601f19603f3d011682016040523d82523d6000602084013e610cc0565b6001600160e01b03191663f23a6e6160e01b149050610cfa565b80356001600160a01b0381168114610f7657600080fd5b919050565b60008060408385031215610f8e57600080fd5b610f9783610f5f565b946020939093013593505050565b6001600160e01b031981168114610fbb57600080fd5b50565b600060208284031215610fd057600080fd5b8135610fdb81610fa5565b9392505050565b600060208284031215610ff457600080fd5b5035919050565b6000815180845260005b8181101561102157602081850181015186830182015201611005565b506000602082860101526020601f19601f83011685010191505092915050565b602081526000610fdb6020830184610ffb565b634e487b7160e01b600052604160045260246000fd5b604051601f8201601f1916810167ffffffffffffffff8111828210171561109357611093611054565b604052919050565b600067ffffffffffffffff8211156110b5576110b5611054565b5060051b60200190565b600082601f8301126110d057600080fd5b813560206110e56110e08361109b565b61106a565b82815260059290921b8401810191818101908684111561110457600080fd5b8286015b8481101561111f5780358352918301918301611108565b509695505050505050565b600082601f83011261113b57600080fd5b813567ffffffffffffffff81111561115557611155611054565b611168601f8201601f191660200161106a565b81815284602083860101111561117d57600080fd5b816020850160208301376000918101602001919091529392505050565b600080600080600060a086880312156111b257600080fd5b6111bb86610f5f565b94506111c960208701610f5f565b9350604086013567ffffffffffffffff808211156111e657600080fd5b6111f289838a016110bf565b9450606088013591508082111561120857600080fd5b61121489838a016110bf565b9350608088013591508082111561122a57600080fd5b506112378882890161112a565b9150509295509295909350565b6000806040838503121561125757600080fd5b823567ffffffffffffffff8082111561126f57600080fd5b818501915085601f83011261128357600080fd5b813560206112936110e08361109b565b82815260059290921b840181019181810190898411156112b257600080fd5b948201945b838610156112d7576112c886610f5f565b825294820194908201906112b7565b965050860135925050808211156112ed57600080fd5b506112fa858286016110bf565b9150509250929050565b600081518084526020808501945080840160005b8381101561133457815187529582019590820190600101611318565b509495945050505050565b602081526000610fdb6020830184611304565b6000806040838503121561136557600080fd5b61136e83610f5f565b91506020830135801515811461138357600080fd5b809150509250929050565b600080604083850312156113a157600080fd5b6113aa83610f5f565b91506113b860208401610f5f565b90509250929050565b600080600080600060a086880312156113d957600080fd5b6113e286610f5f565b94506113f060208701610f5f565b93506040860135925060608601359150608086013567ffffffffffffffff81111561141a57600080fd5b6112378882890161112a565b600181811c9082168061143a57607f821691505b60208210810361145a57634e487b7160e01b600052602260045260246000fd5b50919050565b634e487b7160e01b600052603260045260246000fd5b634e487b7160e01b600052601160045260246000fd5b60006001820161149e5761149e611476565b5060010190565b60208082526023908201527f4b495033373a207472616e7366657220746f20746865207a65726f206164647260408201526265737360e81b606082015260800190565b60208082526028908201527f4b495033373a20696e73756666696369656e742062616c616e636520666f72206040820152673a3930b739b332b960c11b606082015260800190565b8082018082111561024857610248611476565b6040815260006115566040830185611304565b82810360208401526115688185611304565b95945050505050565b6001600160a01b0386811682528516602082015260a06040820181905260009061159d90830186611304565b82810360608401526115af8186611304565b905082810360808401526115c38185610ffb565b98975050505050505050565b6000602082840312156115e157600080fd5b8151610fdb81610fa5565b6001600160a01b03868116825285166020820152604081018490526060810183905260a06080820181905260009061162690830184610ffb565b97965050505050505056fea264697066735822122041f284d61306b52b21e842d1c673fe9288a2fa5c8f03e1a18c216194ba4ef04564736f6c63430008130033",
    "linkReferences": {}
  },
  "methodIdentifiers": {
    "balanceOf(address,uint256)": "00fdd58e",
    "balanceOfBatch(address[],uint256[])": "4e1273f4",
    "isApprovedForAll(address,address)": "e985e9c5",
    "safeBatchTransferFrom(address,address,uint256[],uint256[],bytes)": "2eb2c2d6",
    "safeTransferFrom(address,address,uint256,uint256,bytes)": "f242432a",
    "setApprovalForAll(address,bool)": "a22cb465",
    "supportsInterface(bytes4)": "01ffc9a7",
    "totalSupply(uint256)": "bd85b039",
    "uri(uint256)": "0e89341c"
  },
  "id": 12
}