{
  "abi": [
    {
      "inputs": [],
      "stateMutability": "nonpayable",
      "type": "constructor"
    },
    {
      "inputs": [],
      "name": "InvalidShortString",
      "type": "error"
    },
    {
      "inputs": [
        {
          "internalType": "string",
          "name": "str",
          "type": "string"
        }
      ],
      "name": "StringTooLong",
      "type": "error"
    },
    {
      "anonymous": false,
      "inputs": [],
      "name": "EIP712DomainChanged",
      "type": "event"
    },
    {
      "inputs": [],
      "name": "eip712Domain",
      "outputs": [
        {
          "internalType": "bytes1",
          "name": "fields",
          "type": "bytes1"
        },
        {
          "internalType": "string",
          "name": "name",
          "type": "string"
        },
        {
          "internalType": "string",
          "name": "version",
          "type": "string"
        },
        {
          "internalType": "uint256",
          "name": "chainId",
          "type": "uint256"
        },
        {
          "internalType": "address",
          "name": "verifyingContract",
          "type": "address"
        },
        {
          "internalType": "bytes32",
          "name": "salt",
          "type": "bytes32"
        },
        {
          "internalType": "uint256[]",
          "name": "extensions",
          "type": "uint256[]"
        }
      ],
      "stateMutability": "view",
      "type": "function"
    },
    {
      "inputs": [
        {
          "components": [
            {
              "internalType": "address",
              "name": "from",
              "type": "address"
            },
            {
              "internalType": "address",
              "name": "to",
              "type": "address"
            },
            {
              "internalType": "uint256",
              "name": "value",
              "type": "uint256"
            },
            {
              "internalType": "uint256",
              "name": "gas",
              "type": "uint256"
            },
            {
              "internalType": "uint256",
              "name": "nonce",
              "type": "uint256"
            },
            {
              "internalType": "bytes",
              "name": "data",
              "type": "bytes"
            }
          ],
          "internalType": "struct Forwarder.ForwardRequest",
          "name": "req",
          "type": "tuple"
        },
        {
          "internalType": "bytes",
          "name": "signature",
          "type": "bytes"
        }
      ],
      "name": "execute",
      "outputs": [
        {
          "internalType": "bool",
          "name": "",
          "type": "bool"
        },
        {
          "internalType": "bytes",
          "name": "",
          "type": "bytes"
        }
      ],
      "stateMutability": "payable",
      "type": "function"
    },
    {
      "inputs": [
        {
          "internalType": "address",
          "name": "from",
          "type": "address"
        }
      ],
      "name": "getNonce",
      "outputs": [
        {
          "internalType": "uint256",
          "name": "",
          "type": "uint256"
        }
      ],
      "stateMutability": "view",
      "type": "function"
    },
    {
      "inputs": [
        {
          "components": [
            {
              "internalType": "address",
              "name": "from",
              "type": "address"
            },
            {
              "internalType": "address",
              "name": "to",
              "type": "address"
            },
            {
              "internalType": "uint256",
              "name": "value",
              "type": "uint256"
            },
            {
              "internalType": "uint256",
              "name": "gas",
              "type": "uint256"
            },
            {
              "internalType": "uint256",
              "name": "nonce",
              "type": "uint256"
            },
            {
              "internalType": "bytes",
              "name": "data",
              "type": "bytes"
            }
          ],
          "internalType": "struct Forwarder.ForwardRequest",
          "name": "req",
          "type": "tuple"
        },
        {
          "internalType": "bytes",
          "name": "signature",
          "type": "bytes"
        }
      ],
      "name": "verify",
      "outputs": [
        {
          "internalType": "bool",
          "name": "",
          "type": "bool"
        }
      ],
      "stateMutability": "view",
      "type": "function"
    }
  ],
  "bytecode": {
    "object": "0x6101608060405234620001585762000017816200015d565b600f8152602081016e23a9a73b19102337b93bb0b93232b960891b81526040519162000043836200015d565b600583526020830164302e302e3160d81b8152620000618262000179565b9261012093845262000073856200034c565b92610140938452519020938460e05251902091610100938385524660a0526040519360208501917f8b73c3c69bb8fe3d512ecc4cf759cc79239f7b179b0ffacaa9a75d522b39400f8352604086015260608501524660808501523060a085015260a0845260c084019380851060018060401b038611176200014257846040525190206080523060c052610d289384620004fa853960805184610aa6015260a05184610b61015260c05184610a70015260e05184610af501525183610b1b015251826102f8015251816103210152f35b634e487b7160e01b600052604160045260246000fd5b600080fd5b604081019081106001600160401b038211176200014257604052565b8051602091908281101562000218575090601f825111620001b75780825192015190808310620001a857501790565b82600019910360031b1b161790565b90604051809263305a27a960e01b82528060048301528251908160248401526000935b828510620001fe575050604492506000838284010152601f80199101168101030190fd5b8481018201518686016044015293810193859350620001da565b6001600160401b03811162000142576000928354926001938481811c9116801562000341575b838210146200032d57601f8111620002f7575b5081601f8411600114620002905750928293918392869462000284575b50501b916000199060031b1c191617905560ff90565b0151925038806200026e565b919083601f1981168780528488209488905b88838310620002dc5750505010620002c2575b505050811b01905560ff90565b015160001960f88460031b161c19169055388080620002b5565b858701518855909601959485019487935090810190620002a2565b85805284601f848820920160051c820191601f860160051c015b8281106200032157505062000251565b87815501859062000311565b634e487b7160e01b86526022600452602486fd5b90607f16906200023e565b805160209081811015620003da5750601f825111620003795780825192015190808310620001a857501790565b90604051809263305a27a960e01b82528060048301528251908160248401526000935b828510620003c0575050604492506000838284010152601f80199101168101030190fd5b84810182015186860160440152938101938593506200039c565b9192916001600160401b038111620001425760019182548381811c91168015620004ee575b82821014620004d857601f81116200049f575b5080601f83116001146200045257508192939460009262000446575b5050600019600383901b1c191690821b17905560ff90565b0151905038806200042e565b90601f198316958460005282600020926000905b888210620004875750508385969710620002c257505050811b01905560ff90565b80878596829496860151815501950193019062000466565b8360005283601f83600020920160051c820191601f850160051c015b828110620004cb57505062000412565b60008155018490620004bb565b634e487b7160e01b600052602260045260246000fd5b90607f1690620003ff56fe6080604052600436101561001257600080fd5b6000803560e01c9081632d0335ab1461005a5750806347153f821461005557806384b0196e146100505763bf5d3bdb1461004b57600080fd5b6103d5565b6102dd565b610178565b346100945760203660031901126100945760409060043561007a81610097565b60018060a01b031681526002602052205460805260206080f35b80fd5b6001600160a01b038116036100a857565b600080fd5b90600319906040828401126100a85760043567ffffffffffffffff928382116100a85760c09082860301126100a85760040192602435908382116100a857806023830112156100a85781600401359384116100a857602484830101116100a8576024019190565b60005b8381106101275750506000910152565b8181015183820152602001610117565b9060209161015081518092818552858086019101610114565b601f01601f1916010190565b6040906101759392151581528160208201520190610137565b90565b610190610195610187366100ad565b90829492610711565b610b87565b6101a26080820135610bee565b6101c86101ae8361069d565b6001600160a01b0316600090815260026020526040902090565b556000806101d86020840161069d565b9260406060820135946101ee60a08401846106a7565b61021f6101fd8695939561069d565b916102118451938492602084019889610c12565b03601f19810183528261044b565b519301359086f161022e610c35565b91828215610259575061024690603f5a910410610cd5565b6102556040519283928361015c565b0390f35b8360448151106102985761029491602480600461027c9401518301019101610c65565b60405162461bcd60e51b815291829160048301610cc4565b0390fd5b60405162461bcd60e51b815260206004820152601d60248201527f5472616e73616374696f6e2072657665727465642073696c656e746c790000006044820152606490fd5b346100a857600080600319360112610094576103879061031c7f000000000000000000000000000000000000000000000000000000000000000061046d565b6103457f000000000000000000000000000000000000000000000000000000000000000061056d565b91604051916103538361040e565b818352604051948594600f60f81b865261037960209360e08589015260e0880190610137565b908682036040880152610137565b904660608601523060808601528260a086015284820360c08601528080855193848152019401925b8281106103be57505050500390f35b8351855286955093810193928101926001016103af565b346100a85760206103ee6103e8366100ad565b91610711565b6040519015158152f35b634e487b7160e01b600052604160045260246000fd5b6020810190811067ffffffffffffffff82111761042a57604052565b6103f8565b60c0810190811067ffffffffffffffff82111761042a57604052565b90601f8019910116810190811067ffffffffffffffff82111761042a57604052565b60ff811461047e5761017590610656565b506040516000805490600182811c92818116918215610563575b602091828610841461054f5785875286949360208601939291811561053057506001146104cf575b5050506101759250038261044b565b9250936104fd600080527f290decd9548b62a8d60345a988386fc84ba6bc95484008f6362f93160ef3e56390565b946000935b82851061051a575050506101759350013880806104c0565b8654858501529586019587955093810193610502565b925050506101759491925060ff19168252151560051b013880806104c0565b634e487b7160e01b85526022600452602485fd5b93607f1693610498565b60ff811461057e5761017590610656565b506040516001805480821c91600091808216918215610630575b602091828610841461054f5785875286949360208601939291811561053057506001146105ce575050506101759250038261044b565b9250936105fd60016000527fb10e2d527612073b26eecdfd717e6a320cf44b4afac2b0732d9fcbe2b7fa0cf690565b946000935b82851061061a575050506101759350013880806104c0565b8654858501529586019587955093810193610602565b93607f1693610598565b67ffffffffffffffff811161042a57601f01601f191660200190565b60ff811690601f821161068b57604051916040830183811067ffffffffffffffff82111761042a576040528252602082015290565b604051632cd44ac360e21b8152600490fd5b3561017581610097565b903590601e19813603018212156100a8570180359067ffffffffffffffff82116100a8576020019181360383136100a857565b9291926106e68261063a565b916106f4604051938461044b565b8294818452818301116100a8578281602093846000960137010152565b916107e7906107e184359361072585610097565b6107d96107346020880161069d565b876107d160808201359861021161075861075160a08601866106a7565b36916106da565b602081519101208b604051958694602086019860406060840135930135918a9260c09491979695929760e08501987fdd8f4b70b0f4393e889bd39128a30628a78b61816a9eb8199759e7a349657e48865260018060a01b0380921660208701521660408501526060840152608083015260a08201520152565b519020610a47565b9236916106da565b9061082b565b906107f46101ae8461069d565b5414918261080157505090565b61081c9192506108109061069d565b6001600160a01b031690565b6001600160a01b039091161490565b6101759161083891610980565b919091610860565b6005111561084a57565b634e487b7160e01b600052602160045260246000fd5b61086981610840565b806108715750565b61087a81610840565b600181036108c75760405162461bcd60e51b815260206004820152601860248201527f45434453413a20696e76616c6964207369676e617475726500000000000000006044820152606490fd5b6108d081610840565b6002810361091d5760405162461bcd60e51b815260206004820152601f60248201527f45434453413a20696e76616c6964207369676e6174757265206c656e677468006044820152606490fd5b80610929600392610840565b1461093057565b60405162461bcd60e51b815260206004820152602260248201527f45434453413a20696e76616c6964207369676e6174757265202773272076616c604482015261756560f01b6064820152608490fd5b9060418151146000146109ae576109aa916020820151906060604084015193015160001a906109b8565b9091565b5050600090600290565b9291907f7fffffffffffffffffffffffffffffff5d576e7357a4501ddfe92f46681b20a08311610a3b5791608094939160ff602094604051948552168484015260408301526060820152600093849182805260015afa15610a2e5781516001600160a01b03811615610a28579190565b50600190565b50604051903d90823e3d90fd5b50505050600090600390565b604290610a52610a6d565b906040519161190160f01b8352600283015260228201522090565b307f00000000000000000000000000000000000000000000000000000000000000006001600160a01b03161480610b5e575b15610ac8577f000000000000000000000000000000000000000000000000000000000000000090565b60405160208101907f8b73c3c69bb8fe3d512ecc4cf759cc79239f7b179b0ffacaa9a75d522b39400f82527f000000000000000000000000000000000000000000000000000000000000000060408201527f000000000000000000000000000000000000000000000000000000000000000060608201524660808201523060a082015260a08152610b588161042f565b51902090565b507f00000000000000000000000000000000000000000000000000000000000000004614610a9f565b15610b8e57565b60405162461bcd60e51b815260206004820152603260248201527f4d696e696d616c466f727761726465723a207369676e617475726520646f6573604482015271081b9bdd081b585d18da081c995c5d595cdd60721b6064820152608490fd5b9060018201809211610bfc57565b634e487b7160e01b600052601160045260246000fd5b826014949392823701906bffffffffffffffffffffffff199060601b1681520190565b3d15610c60573d90610c468261063a565b91610c54604051938461044b565b82523d6000602084013e565b606090565b6020818303126100a85780519067ffffffffffffffff82116100a8570181601f820112156100a8578051610c988161063a565b92610ca6604051948561044b565b818452602082840101116100a8576101759160208085019101610114565b906020610175928181520190610137565b15610cdc57565b634e487b7160e01b600052600160045260246000fdfea264697066735822122039a5c601f06929418f3352681fc737c7af1f65a0a66acc06014f5bad6fecfa4964736f6c63430008130033",
    "linkReferences": {}
  },
  "methodIdentifiers": {
    "eip712Domain()": "84b0196e",
    "execute((address,address,uint256,uint256,uint256,bytes),bytes)": "47153f82",
    "getNonce(address)": "2d0335ab",
    "verify((address,address,uint256,uint256,uint256,bytes),bytes)": "bf5d3bdb"
  },
  "id": 51
}