{
  "abi": [
    {
      "inputs": [
        {
          "internalType": "string",
          "name": "_baseUri",
          "type": "string"
        },
        {
          "internalType": "address",
          "name": "trustedForwarder",
          "type": "address"
        }
      ],
      "stateMutability": "nonpayable",
      "type": "constructor"
    },
    {
      "anonymous": false,
      "inputs": [
        {
          "indexed": true,
          "internalType": "address",
          "name": "account",
          "type": "address"
        },
        {
          "indexed": true,
          "internalType": "address",
          "name": "operator",
          "type": "address"
        },
        {
          "indexed": false,
          "internalType": "bool",
          "name": "approved",
          "type": "bool"
        }
      ],
      "name": "ApprovalForAll",
      "type": "event"
    },
    {
      "anonymous": false,
      "inputs": [
        {
          "indexed": true,
          "internalType": "address",
          "name": "previousOwner",
          "type": "address"
        },
        {
          "indexed": true,
          "internalType": "address",
          "name": "newOwner",
          "type": "address"
        }
      ],
      "name": "OwnershipTransferred",
      "type": "event"
    },
    {
      "anonymous": false,
      "inputs": [
        {
          "indexed": true,
          "internalType": "address",
          "name": "operator",
          "type": "address"
        },
        {
          "indexed": true,
          "internalType": "address",
          "name": "from",
          "type": "address"
        },
        {
          "indexed": true,
          "internalType": "address",
          "name": "to",
          "type": "address"
        },
        {
          "indexed": false,
          "internalType": "uint256[]",
          "name": "ids",
          "type": "uint256[]"
        },
        {
          "indexed": false,
          "internalType": "uint256[]",
          "name": "values",
          "type": "uint256[]"
        }
      ],
      "name": "TransferBatch",
      "type": "event"
    },
    {
      "anonymous": false,
      "inputs": [
        {
          "indexed": true,
          "internalType": "address",
          "name": "operator",
          "type": "address"
        },
        {
          "indexed": true,
          "internalType": "address",
          "name": "from",
          "type": "address"
        },
        {
          "indexed": true,
          "internalType": "address",
          "name": "to",
          "type": "address"
        },
        {
          "indexed": false,
          "internalType": "uint256",
          "name": "id",
          "type": "uint256"
        },
        {
          "indexed": false,
          "internalType": "uint256",
          "name": "value",
          "type": "uint256"
        }
      ],
      "name": "TransferSingle",
      "type": "event"
    },
    {
      "anonymous": false,
      "inputs": [
        {
          "indexed": false,
          "internalType": "string",
          "name": "value",
          "type": "string"
        },
        {
          "indexed": true,
          "internalType": "uint256",
          "name": "id",
          "type": "uint256"
        }
      ],
      "name": "URI",
      "type": "event"
    },
    {
      "inputs": [
        {
          "internalType": "address",
          "name": "account",
          "type": "address"
        },
        {
          "internalType": "uint256",
          "name": "id",
          "type": "uint256"
        }
      ],
      "name": "balanceOf",
      "outputs": [
        {
          "internalType": "uint256",
          "name": "",
          "type": "uint256"
        }
      ],
      "stateMutability": "view",
      "type": "function"
    },
    {
      "inputs": [
        {
          "internalType": "address[]",
          "name": "accounts",
          "type": "address[]"
        },
        {
          "internalType": "uint256[]",
          "name": "ids",
          "type": "uint256[]"
        }
      ],
      "name": "balanceOfBatch",
      "outputs": [
        {
          "internalType": "uint256[]",
          "name": "",
          "type": "uint256[]"
        }
      ],
      "stateMutability": "view",
      "type": "function"
    },
    {
      "inputs": [],
      "name": "baseUri",
      "outputs": [
        {
          "internalType": "string",
          "name": "",
          "type": "string"
        }
      ],
      "stateMutability": "view",
      "type": "function"
    },
    {
      "inputs": [
        {
          "internalType": "address",
          "name": "account",
          "type": "address"
        },
        {
          "internalType": "address",
          "name": "operator",
          "type": "address"
        }
      ],
      "name": "isApprovedForAll",
      "outputs": [
        {
          "internalType": "bool",
          "name": "",
          "type": "bool"
        }
      ],
      "stateMutability": "view",
      "type": "function"
    },
    {
      "inputs": [
        {
          "internalType": "address",
          "name": "forwarder",
          "type": "address"
        }
      ],
      "name": "isTrustedForwarder",
      "outputs": [
        {
          "internalType": "bool",
          "name": "",
          "type": "bool"
        }
      ],
      "stateMutability": "view",
      "type": "function"
    },
    {
      "inputs": [
        {
          "internalType": "uint256",
          "name": "amount",
          "type": "uint256"
        }
      ],
      "name": "mint",
      "outputs": [],
      "stateMutability": "nonpayable",
      "type": "function"
    },
    {
      "inputs": [],
      "name": "owner",
      "outputs": [
        {
          "internalType": "address",
          "name": "",
          "type": "address"
        }
      ],
      "stateMutability": "view",
      "type": "function"
    },
    {
      "inputs": [],
      "name": "renounceOwnership",
      "outputs": [],
      "stateMutability": "nonpayable",
      "type": "function"
    },
    {
      "inputs": [
        {
          "internalType": "address",
          "name": "from",
          "type": "address"
        },
        {
          "internalType": "address",
          "name": "to",
          "type": "address"
        },
        {
          "internalType": "uint256[]",
          "name": "ids",
          "type": "uint256[]"
        },
        {
          "internalType": "uint256[]",
          "name": "amounts",
          "type": "uint256[]"
        },
        {
          "internalType": "bytes",
          "name": "data",
          "type": "bytes"
        }
      ],
      "name": "safeBatchTransferFrom",
      "outputs": [],
      "stateMutability": "nonpayable",
      "type": "function"
    },
    {
      "inputs": [
        {
          "internalType": "address",
          "name": "from",
          "type": "address"
        },
        {
          "internalType": "address",
          "name": "to",
          "type": "address"
        },
        {
          "internalType": "uint256",
          "name": "id",
          "type": "uint256"
        },
        {
          "internalType": "uint256",
          "name": "amount",
          "type": "uint256"
        },
        {
          "internalType": "bytes",
          "name": "data",
          "type": "bytes"
        }
      ],
      "name": "safeTransferFrom",
      "outputs": [],
      "stateMutability": "nonpayable",
      "type": "function"
    },
    {
      "inputs": [
        {
          "internalType": "address",
          "name": "operator",
          "type": "address"
        },
        {
          "internalType": "bool",
          "name": "approved",
          "type": "bool"
        }
      ],
      "name": "setApprovalForAll",
      "outputs": [],
      "stateMutability": "nonpayable",
      "type": "function"
    },
    {
      "inputs": [
        {
          "internalType": "bytes4",
          "name": "interfaceId",
          "type": "bytes4"
        }
      ],
      "name": "supportsInterface",
      "outputs": [
        {
          "internalType": "bool",
          "name": "",
          "type": "bool"
        }
      ],
      "stateMutability": "view",
      "type": "function"
    },
    {
      "inputs": [
        {
          "internalType": "address",
          "name": "newOwner",
          "type": "address"
        }
      ],
      "name": "transferOwnership",
      "outputs": [],
      "stateMutability": "nonpayable",
      "type": "function"
    },
    {
      "inputs": [
        {
          "internalType": "uint256",
          "name": "id",
          "type": "uint256"
        }
      ],
      "name": "uri",
      "outputs": [
        {
          "internalType": "string",
          "name": "",
          "type": "string"
        }
      ],
      "stateMutability": "view",
      "type": "function"
    },
    {
      "inputs": [],
      "name": "utilCount",
      "outputs": [
        {
          "internalType": "uint256",
          "name": "",
          "type": "uint256"
        }
      ],
      "stateMutability": "view",
      "type": "function"
    }
  ],
  "bytecode": {
    "object": "0x60a06040523480156200001157600080fd5b5060405162001ccd38038062001ccd833981016040819052620000349162000149565b6001600160a01b038116608052816200004d8162000079565b50620000626200005c6200008b565b6200009c565b6004620000708382620002c0565b5050506200038c565b6002620000878282620002c0565b5050565b600062000097620000ee565b905090565b600380546001600160a01b038381166001600160a01b0319831681179093556040519116919082907f8be0079c531659141344cd1fd0a4f28419497f9722a3daafe3b4186f6b6457e090600090a35050565b6080516000906001600160a01b0316330362000111575060131936013560601c90565b503390565b634e487b7160e01b600052604160045260246000fd5b80516001600160a01b03811681146200014457600080fd5b919050565b600080604083850312156200015d57600080fd5b82516001600160401b03808211156200017557600080fd5b818501915085601f8301126200018a57600080fd5b8151818111156200019f576200019f62000116565b604051601f8201601f19908116603f01168101908382118183101715620001ca57620001ca62000116565b81604052828152602093508884848701011115620001e757600080fd5b600091505b828210156200020b5784820184015181830185015290830190620001ec565b6000848483010152809650505050620002268186016200012c565b925050509250929050565b600181811c908216806200024657607f821691505b6020821081036200026757634e487b7160e01b600052602260045260246000fd5b50919050565b601f821115620002bb57600081815260208120601f850160051c81016020861015620002965750805b601f850160051c820191505b81811015620002b757828155600101620002a2565b5050505b505050565b81516001600160401b03811115620002dc57620002dc62000116565b620002f481620002ed845462000231565b846200026d565b602080601f8311600181146200032c5760008415620003135750858301515b600019600386901b1c1916600185901b178555620002b7565b600085815260208120601f198616915b828110156200035d578886015182559484019460019091019084016200033c565b50858210156200037c5787850151600019600388901b60f8161c191681555b5050505050600190811b01905550565b60805161191e620003af600039600081816101a70152610d43015261191e6000f3fe608060405234801561001057600080fd5b50600436106100f45760003560e01c80638da5cb5b11610097578063baacbe9b11610066578063baacbe9b14610228578063e985e9c514610231578063f242432a1461026d578063f2fde38b1461028057600080fd5b80638da5cb5b146101df5780639abc8320146101fa578063a0712d6814610202578063a22cb4651461021557600080fd5b80632eb2c2d6116100d35780632eb2c2d6146101625780634e1273f414610177578063572b6c0514610197578063715018a6146101d757600080fd5b8062fdd58e146100f957806301ffc9a71461011f5780630e89341c14610142575b600080fd5b61010c610107366004611003565b610293565b6040519081526020015b60405180910390f35b61013261012d366004611043565b61032c565b6040519015158152602001610116565b610155610150366004611067565b61037c565b60405161011691906110d0565b61017561017036600461122f565b6103b0565b005b61018a6101853660046112d9565b61040e565b60405161011691906113df565b6101326101a53660046113f2565b7f00000000000000000000000000000000000000000000000000000000000000006001600160a01b0390811691161490565b610175610538565b6003546040516001600160a01b039091168152602001610116565b61015561054c565b610175610210366004611067565b6105da565b61017561022336600461140d565b610622565b61010c60055481565b61013261023f366004611449565b6001600160a01b03918216600090815260016020908152604080832093909416825291909152205460ff1690565b61017561027b36600461147c565b610638565b61017561028e3660046113f2565b61068f565b60006001600160a01b0383166103035760405162461bcd60e51b815260206004820152602a60248201527f455243313135353a2061646472657373207a65726f206973206e6f742061207660448201526930b634b21037bbb732b960b11b60648201526084015b60405180910390fd5b506000818152602081815260408083206001600160a01b03861684529091529020545b92915050565b60006001600160e01b03198216636cdb3d1360e11b148061035d57506001600160e01b031982166303a24d0760e21b145b8061032657506301ffc9a760e01b6001600160e01b0319831614610326565b6060600461038983610705565b60405160200161039a929190611537565b6040516020818303038152906040529050919050565b6103b8610749565b6001600160a01b0316856001600160a01b031614806103de57506103de8561023f610749565b6103fa5760405162461bcd60e51b81526004016102fa906115e1565b6104078585858585610758565b5050505050565b606081518351146104735760405162461bcd60e51b815260206004820152602960248201527f455243313135353a206163636f756e747320616e6420696473206c656e677468604482015268040dad2e6dac2e8c6d60bb1b60648201526084016102fa565b6000835167ffffffffffffffff81111561048f5761048f6110e3565b6040519080825280602002602001820160405280156104b8578160200160208202803683370190505b50905060005b8451811015610530576105038582815181106104dc576104dc61162f565b60200260200101518583815181106104f6576104f661162f565b6020026020010151610293565b8282815181106105155761051561162f565b60209081029190910101526105298161165b565b90506104be565b509392505050565b610540610940565b61054a60006109b9565b565b60048054610559906114e1565b80601f0160208091040260200160405190810160405280929190818152602001828054610585906114e1565b80156105d25780601f106105a7576101008083540402835291602001916105d2565b820191906000526020600020905b8154815290600101906020018083116105b557829003601f168201915b505050505081565b6105e2610940565b6001600560008282546105f59190611674565b9091555061061f9050610606610749565b6005548360405180602001604052806000815250610a0b565b50565b61063461062d610749565b8383610b2a565b5050565b610640610749565b6001600160a01b0316856001600160a01b0316148061066657506106668561023f610749565b6106825760405162461bcd60e51b81526004016102fa906115e1565b6104078585858585610c0a565b610697610940565b6001600160a01b0381166106fc5760405162461bcd60e51b815260206004820152602660248201527f4f776e61626c653a206e6577206f776e657220697320746865207a65726f206160448201526564647265737360d01b60648201526084016102fa565b61061f816109b9565b606060a06040510180604052602081039150506000815280825b600183039250600a81066030018353600a90048061071f5750819003601f19909101908152919050565b6000610753610d3f565b905090565b81518351146107ba5760405162461bcd60e51b815260206004820152602860248201527f455243313135353a2069647320616e6420616d6f756e7473206c656e677468206044820152670dad2e6dac2e8c6d60c31b60648201526084016102fa565b6001600160a01b0384166107e05760405162461bcd60e51b81526004016102fa90611687565b60006107ea610749565b905060005b84518110156108d257600085828151811061080c5761080c61162f565b60200260200101519050600085838151811061082a5761082a61162f565b602090810291909101810151600084815280835260408082206001600160a01b038e16835290935291909120549091508181101561087a5760405162461bcd60e51b81526004016102fa906116cc565b6000838152602081815260408083206001600160a01b038e8116855292528083208585039055908b168252812080548492906108b7908490611674565b92505081905550505050806108cb9061165b565b90506107ef565b50846001600160a01b0316866001600160a01b0316826001600160a01b03167f4a39dc06d4c0dbc64b70af90fd698a233a518aa5d07e595d983b8c0526c8f7fb8787604051610922929190611716565b60405180910390a4610938818787878787610d86565b505050505050565b610948610749565b6001600160a01b03166109636003546001600160a01b031690565b6001600160a01b03161461054a5760405162461bcd60e51b815260206004820181905260248201527f4f776e61626c653a2063616c6c6572206973206e6f7420746865206f776e657260448201526064016102fa565b600380546001600160a01b038381166001600160a01b0319831681179093556040519116919082907f8be0079c531659141344cd1fd0a4f28419497f9722a3daafe3b4186f6b6457e090600090a35050565b6001600160a01b038416610a6b5760405162461bcd60e51b815260206004820152602160248201527f455243313135353a206d696e7420746f20746865207a65726f206164647265736044820152607360f81b60648201526084016102fa565b6000610a75610749565b90506000610a8285610ee1565b90506000610a8f85610ee1565b90506000868152602081815260408083206001600160a01b038b16845290915281208054879290610ac1908490611674565b909155505060408051878152602081018790526001600160a01b03808a1692600092918716917fc3d58168c5ae7397731d063d5bbf3d657854427343f4c083240f7aacaa2d0f62910160405180910390a4610b2183600089898989610f2c565b50505050505050565b816001600160a01b0316836001600160a01b031603610b9d5760405162461bcd60e51b815260206004820152602960248201527f455243313135353a2073657474696e6720617070726f76616c20737461747573604482015268103337b91039b2b63360b91b60648201526084016102fa565b6001600160a01b03838116600081815260016020908152604080832094871680845294825291829020805460ff191686151590811790915591519182527f17307eab39ab6107e8899845ad3d59bd9653f200f220920489ca2b5937696c31910160405180910390a3505050565b6001600160a01b038416610c305760405162461bcd60e51b81526004016102fa90611687565b6000610c3a610749565b90506000610c4785610ee1565b90506000610c5485610ee1565b90506000868152602081815260408083206001600160a01b038c16845290915290205485811015610c975760405162461bcd60e51b81526004016102fa906116cc565b6000878152602081815260408083206001600160a01b038d8116855292528083208985039055908a16825281208054889290610cd4908490611674565b909155505060408051888152602081018890526001600160a01b03808b16928c821692918816917fc3d58168c5ae7397731d063d5bbf3d657854427343f4c083240f7aacaa2d0f62910160405180910390a4610d34848a8a8a8a8a610f2c565b505050505050505050565b60007f00000000000000000000000000000000000000000000000000000000000000006001600160a01b03163303610d7e575060131936013560601c90565b503390565b90565b6001600160a01b0384163b156109385760405163bc197c8160e01b81526001600160a01b0385169063bc197c8190610dca908990899088908890889060040161173b565b6020604051808303816000875af1925050508015610e05575060408051601f3d908101601f19168201909252610e0291810190611799565b60015b610eb157610e116117b6565b806308c379a003610e4a5750610e256117d1565b80610e305750610e4c565b8060405162461bcd60e51b81526004016102fa91906110d0565b505b60405162461bcd60e51b815260206004820152603460248201527f455243313135353a207472616e7366657220746f206e6f6e2d455243313135356044820152732932b1b2b4bb32b91034b6b83632b6b2b73a32b960611b60648201526084016102fa565b6001600160e01b0319811663bc197c8160e01b14610b215760405162461bcd60e51b81526004016102fa9061185b565b60408051600180825281830190925260609160009190602080830190803683370190505090508281600081518110610f1b57610f1b61162f565b602090810291909101015292915050565b6001600160a01b0384163b156109385760405163f23a6e6160e01b81526001600160a01b0385169063f23a6e6190610f7090899089908890889088906004016118a3565b6020604051808303816000875af1925050508015610fab575060408051601f3d908101601f19168201909252610fa891810190611799565b60015b610fb757610e116117b6565b6001600160e01b0319811663f23a6e6160e01b14610b215760405162461bcd60e51b81526004016102fa9061185b565b80356001600160a01b0381168114610ffe57600080fd5b919050565b6000806040838503121561101657600080fd5b61101f83610fe7565b946020939093013593505050565b6001600160e01b03198116811461061f57600080fd5b60006020828403121561105557600080fd5b81356110608161102d565b9392505050565b60006020828403121561107957600080fd5b5035919050565b60005b8381101561109b578181015183820152602001611083565b50506000910152565b600081518084526110bc816020860160208601611080565b601f01601f19169290920160200192915050565b60208152600061106060208301846110a4565b634e487b7160e01b600052604160045260246000fd5b601f8201601f1916810167ffffffffffffffff8111828210171561111f5761111f6110e3565b6040525050565b600067ffffffffffffffff821115611140576111406110e3565b5060051b60200190565b600082601f83011261115b57600080fd5b8135602061116882611126565b60405161117582826110f9565b83815260059390931b850182019282810191508684111561119557600080fd5b8286015b848110156111b05780358352918301918301611199565b509695505050505050565b600082601f8301126111cc57600080fd5b813567ffffffffffffffff8111156111e6576111e66110e3565b6040516111fd601f8301601f1916602001826110f9565b81815284602083860101111561121257600080fd5b816020850160208301376000918101602001919091529392505050565b600080600080600060a0868803121561124757600080fd5b61125086610fe7565b945061125e60208701610fe7565b9350604086013567ffffffffffffffff8082111561127b57600080fd5b61128789838a0161114a565b9450606088013591508082111561129d57600080fd5b6112a989838a0161114a565b935060808801359150808211156112bf57600080fd5b506112cc888289016111bb565b9150509295509295909350565b600080604083850312156112ec57600080fd5b823567ffffffffffffffff8082111561130457600080fd5b818501915085601f83011261131857600080fd5b8135602061132582611126565b60405161133282826110f9565b83815260059390931b850182019282810191508984111561135257600080fd5b948201945b838610156113775761136886610fe7565b82529482019490820190611357565b9650508601359250508082111561138d57600080fd5b5061139a8582860161114a565b9150509250929050565b600081518084526020808501945080840160005b838110156113d4578151875295820195908201906001016113b8565b509495945050505050565b60208152600061106060208301846113a4565b60006020828403121561140457600080fd5b61106082610fe7565b6000806040838503121561142057600080fd5b61142983610fe7565b91506020830135801515811461143e57600080fd5b809150509250929050565b6000806040838503121561145c57600080fd5b61146583610fe7565b915061147360208401610fe7565b90509250929050565b600080600080600060a0868803121561149457600080fd5b61149d86610fe7565b94506114ab60208701610fe7565b93506040860135925060608601359150608086013567ffffffffffffffff8111156114d557600080fd5b6112cc888289016111bb565b600181811c908216806114f557607f821691505b60208210810361151557634e487b7160e01b600052602260045260246000fd5b50919050565b6000815161152d818560208601611080565b9290920192915050565b600080845481600182811c91508083168061155357607f831692505b6020808410820361157257634e487b7160e01b86526022600452602486fd5b818015611586576001811461159b576115c8565b60ff19861689528415158502890196506115c8565b60008b81526020902060005b868110156115c05781548b8201529085019083016115a7565b505084890196505b5050505050506115d8818561151b565b95945050505050565b6020808252602e908201527f455243313135353a2063616c6c6572206973206e6f7420746f6b656e206f776e60408201526d195c881bdc88185c1c1c9bdd995960921b606082015260800190565b634e487b7160e01b600052603260045260246000fd5b634e487b7160e01b600052601160045260246000fd5b60006001820161166d5761166d611645565b5060010190565b8082018082111561032657610326611645565b60208082526025908201527f455243313135353a207472616e7366657220746f20746865207a65726f206164604082015264647265737360d81b606082015260800190565b6020808252602a908201527f455243313135353a20696e73756666696369656e742062616c616e636520666f60408201526939103a3930b739b332b960b11b606082015260800190565b60408152600061172960408301856113a4565b82810360208401526115d881856113a4565b6001600160a01b0386811682528516602082015260a060408201819052600090611767908301866113a4565b828103606084015261177981866113a4565b9050828103608084015261178d81856110a4565b98975050505050505050565b6000602082840312156117ab57600080fd5b81516110608161102d565b600060033d1115610d835760046000803e5060005160e01c90565b600060443d10156117df5790565b6040516003193d81016004833e81513d67ffffffffffffffff816024840111818411171561180f57505050505090565b82850191508151818111156118275750505050505090565b843d87010160208285010111156118415750505050505090565b611850602082860101876110f9565b509095945050505050565b60208082526028908201527f455243313135353a204552433131353552656365697665722072656a656374656040820152676420746f6b656e7360c01b606082015260800190565b6001600160a01b03868116825285166020820152604081018490526060810183905260a0608082018190526000906118dd908301846110a4565b97965050505050505056fea26469706673582212207c989e23dcaf18646cc73ee7f4f6e02687ba99d2559a7f843b0e65a5a8714ddf64736f6c63430008130033",
    "linkReferences": {}
  },
  "methodIdentifiers": {
    "balanceOf(address,uint256)": "00fdd58e",
    "balanceOfBatch(address[],uint256[])": "4e1273f4",
    "baseUri()": "9abc8320",
    "isApprovedForAll(address,address)": "e985e9c5",
    "isTrustedForwarder(address)": "572b6c05",
    "mint(uint256)": "a0712d68",
    "owner()": "8da5cb5b",
    "renounceOwnership()": "715018a6",
    "safeBatchTransferFrom(address,address,uint256[],uint256[],bytes)": "2eb2c2d6",
    "safeTransferFrom(address,address,uint256,uint256,bytes)": "f242432a",
    "setApprovalForAll(address,bool)": "a22cb465",
    "supportsInterface(bytes4)": "01ffc9a7",
    "transferOwnership(address)": "f2fde38b",
    "uri(uint256)": "0e89341c",
    "utilCount()": "baacbe9b"
  },
  "id": 35
}