{
  "abi": [
    {
      "inputs": [
        {
          "internalType": "string",
          "name": "_baseUri",
          "type": "string"
        },
        {
          "internalType": "address",
          "name": "trustedForwarder",
          "type": "address"
        }
      ],
      "stateMutability": "nonpayable",
      "type": "constructor"
    },
    {
      "anonymous": false,
      "inputs": [
        {
          "indexed": true,
          "internalType": "address",
          "name": "account",
          "type": "address"
        },
        {
          "indexed": true,
          "internalType": "address",
          "name": "operator",
          "type": "address"
        },
        {
          "indexed": false,
          "internalType": "bool",
          "name": "approved",
          "type": "bool"
        }
      ],
      "name": "ApprovalForAll",
      "type": "event"
    },
    {
      "anonymous": false,
      "inputs": [
        {
          "indexed": true,
          "internalType": "address",
          "name": "previousOwner",
          "type": "address"
        },
        {
          "indexed": true,
          "internalType": "address",
          "name": "newOwner",
          "type": "address"
        }
      ],
      "name": "OwnershipTransferred",
      "type": "event"
    },
    {
      "anonymous": false,
      "inputs": [
        {
          "indexed": true,
          "internalType": "address",
          "name": "operator",
          "type": "address"
        },
        {
          "indexed": true,
          "internalType": "address",
          "name": "from",
          "type": "address"
        },
        {
          "indexed": true,
          "internalType": "address",
          "name": "to",
          "type": "address"
        },
        {
          "indexed": false,
          "internalType": "uint256[]",
          "name": "ids",
          "type": "uint256[]"
        },
        {
          "indexed": false,
          "internalType": "uint256[]",
          "name": "values",
          "type": "uint256[]"
        }
      ],
      "name": "TransferBatch",
      "type": "event"
    },
    {
      "anonymous": false,
      "inputs": [
        {
          "indexed": true,
          "internalType": "address",
          "name": "operator",
          "type": "address"
        },
        {
          "indexed": true,
          "internalType": "address",
          "name": "from",
          "type": "address"
        },
        {
          "indexed": true,
          "internalType": "address",
          "name": "to",
          "type": "address"
        },
        {
          "indexed": false,
          "internalType": "uint256",
          "name": "id",
          "type": "uint256"
        },
        {
          "indexed": false,
          "internalType": "uint256",
          "name": "value",
          "type": "uint256"
        }
      ],
      "name": "TransferSingle",
      "type": "event"
    },
    {
      "anonymous": false,
      "inputs": [
        {
          "indexed": false,
          "internalType": "string",
          "name": "value",
          "type": "string"
        },
        {
          "indexed": true,
          "internalType": "uint256",
          "name": "id",
          "type": "uint256"
        }
      ],
      "name": "URI",
      "type": "event"
    },
    {
      "inputs": [
        {
          "internalType": "address",
          "name": "account",
          "type": "address"
        },
        {
          "internalType": "uint256",
          "name": "id",
          "type": "uint256"
        }
      ],
      "name": "balanceOf",
      "outputs": [
        {
          "internalType": "uint256",
          "name": "",
          "type": "uint256"
        }
      ],
      "stateMutability": "view",
      "type": "function"
    },
    {
      "inputs": [
        {
          "internalType": "address[]",
          "name": "accounts",
          "type": "address[]"
        },
        {
          "internalType": "uint256[]",
          "name": "ids",
          "type": "uint256[]"
        }
      ],
      "name": "balanceOfBatch",
      "outputs": [
        {
          "internalType": "uint256[]",
          "name": "",
          "type": "uint256[]"
        }
      ],
      "stateMutability": "view",
      "type": "function"
    },
    {
      "inputs": [],
      "name": "baseUri",
      "outputs": [
        {
          "internalType": "string",
          "name": "",
          "type": "string"
        }
      ],
      "stateMutability": "view",
      "type": "function"
    },
    {
      "inputs": [
        {
          "internalType": "address",
          "name": "account",
          "type": "address"
        },
        {
          "internalType": "address",
          "name": "operator",
          "type": "address"
        }
      ],
      "name": "isApprovedForAll",
      "outputs": [
        {
          "internalType": "bool",
          "name": "",
          "type": "bool"
        }
      ],
      "stateMutability": "view",
      "type": "function"
    },
    {
      "inputs": [
        {
          "internalType": "address",
          "name": "forwarder",
          "type": "address"
        }
      ],
      "name": "isTrustedForwarder",
      "outputs": [
        {
          "internalType": "bool",
          "name": "",
          "type": "bool"
        }
      ],
      "stateMutability": "view",
      "type": "function"
    },
    {
      "inputs": [
        {
          "internalType": "uint256",
          "name": "amount",
          "type": "uint256"
        }
      ],
      "name": "mint",
      "outputs": [],
      "stateMutability": "nonpayable",
      "type": "function"
    },
    {
      "inputs": [],
      "name": "owner",
      "outputs": [
        {
          "internalType": "address",
          "name": "",
          "type": "address"
        }
      ],
      "stateMutability": "view",
      "type": "function"
    },
    {
      "inputs": [],
      "name": "renounceOwnership",
      "outputs": [],
      "stateMutability": "nonpayable",
      "type": "function"
    },
    {
      "inputs": [
        {
          "internalType": "address",
          "name": "from",
          "type": "address"
        },
        {
          "internalType": "address",
          "name": "to",
          "type": "address"
        },
        {
          "internalType": "uint256[]",
          "name": "ids",
          "type": "uint256[]"
        },
        {
          "internalType": "uint256[]",
          "name": "amounts",
          "type": "uint256[]"
        },
        {
          "internalType": "bytes",
          "name": "data",
          "type": "bytes"
        }
      ],
      "name": "safeBatchTransferFrom",
      "outputs": [],
      "stateMutability": "nonpayable",
      "type": "function"
    },
    {
      "inputs": [
        {
          "internalType": "address",
          "name": "from",
          "type": "address"
        },
        {
          "internalType": "address",
          "name": "to",
          "type": "address"
        },
        {
          "internalType": "uint256",
          "name": "id",
          "type": "uint256"
        },
        {
          "internalType": "uint256",
          "name": "amount",
          "type": "uint256"
        },
        {
          "internalType": "bytes",
          "name": "data",
          "type": "bytes"
        }
      ],
      "name": "safeTransferFrom",
      "outputs": [],
      "stateMutability": "nonpayable",
      "type": "function"
    },
    {
      "inputs": [
        {
          "internalType": "address",
          "name": "operator",
          "type": "address"
        },
        {
          "internalType": "bool",
          "name": "approved",
          "type": "bool"
        }
      ],
      "name": "setApprovalForAll",
      "outputs": [],
      "stateMutability": "nonpayable",
      "type": "function"
    },
    {
      "inputs": [
        {
          "internalType": "bytes4",
          "name": "interfaceId",
          "type": "bytes4"
        }
      ],
      "name": "supportsInterface",
      "outputs": [
        {
          "internalType": "bool",
          "name": "",
          "type": "bool"
        }
      ],
      "stateMutability": "view",
      "type": "function"
    },
    {
      "inputs": [
        {
          "internalType": "address",
          "name": "newOwner",
          "type": "address"
        }
      ],
      "name": "transferOwnership",
      "outputs": [],
      "stateMutability": "nonpayable",
      "type": "function"
    },
    {
      "inputs": [
        {
          "internalType": "uint256",
          "name": "id",
          "type": "uint256"
        }
      ],
      "name": "uri",
      "outputs": [
        {
          "internalType": "string",
          "name": "",
          "type": "string"
        }
      ],
      "stateMutability": "view",
      "type": "function"
    },
    {
      "inputs": [],
      "name": "utilCount",
      "outputs": [
        {
          "internalType": "uint256",
          "name": "",
          "type": "uint256"
        }
      ],
      "stateMutability": "view",
      "type": "function"
    }
  ],
  "bytecode": {
    "object": "0x60a060405234620003a95762001a1c803803806200001d81620003c3565b9283398101604082820312620003a95781516001600160401b0390818111620003a957830191601f818185011215620003a957835193838511620002b657602095601f19956200007384820188168901620003c3565b94818652888285010111620003a95787809360005b838110620003ae5750506000918601015201516001600160a01b0392908381168103620003a957608052805192848411620002b657600254936001948581811c911680156200039e575b8982101462000388578481116200033c575b508088858211600114620002d857600091620002cc575b50600019600383901b1c191690851b176002555b62000119620003e9565b600380549183166001600160a01b03198316811790915591167f8be0079c531659141344cd1fd0a4f28419497f9722a3daafe3b4186f6b6457e0600080a38051938411620002b65760049586548481811c91168015620002ab575b8282101462000296578381116200024b575b5080928511600114620001e2575083945090839291600094620001d6575b50501b916000199060031b1c19161790555b60405161160d90816200040f82396080518181816109a9015261159a0152f35b015192503880620001a4565b9294849081168760005284600020946000905b8883831062000230575050501062000216575b505050811b019055620001b6565b015160001960f88460031b161c1916905538808062000208565b858701518855909601959485019487935090810190620001f5565b87600052816000208480880160051c8201928489106200028c575b0160051c019085905b8281106200027f57505062000186565b600081550185906200026f565b9250819262000266565b602288634e487b7160e01b6000525260246000fd5b90607f169062000174565b634e487b7160e01b600052604160045260246000fd5b905083015138620000fb565b888793169060026000528a6000209160005b8c8282106200032557505083116200030b575b5050811b016002556200010f565b85015160001960f88460031b161c191690553880620002fd565b8389015185558a96909401939283019201620002ea565b6002600052886000208580840160051c8201928b85106200037e575b0160051c019086905b82811062000371575050620000e4565b6000815501869062000361565b9250819262000358565b634e487b7160e01b600052602260045260246000fd5b90607f1690620000d2565b600080fd5b81810183015188820184015285920162000088565b6040519190601f01601f191682016001600160401b03811183821017620002b657604052565b608051336001600160a01b03909116036200040a5736601319013560601c90565b339056fe6040608081526004908136101561001557600080fd5b600091823560e01c8062fdd58e1461103557806301ffc9a714610fc85780630e89341c14610e855780632eb2c2d614610b6d5780634e1273f4146109d0578063572b6c051461097e578063715018a61461091e5780638da5cb5b146108f55780639abc83201461080b578063a0712d68146105f4578063a22cb4651461050a578063baacbe9b146104eb578063e985e9c514610499578063f242432a146101935763f2fde38b146100c557600080fd5b3461018f57602036600319011261018f576100de611065565b906100e7611251565b6001600160a01b0391821692831561013d575050600354826bffffffffffffffffffffffff60a01b821617600355167f8be0079c531659141344cd1fd0a4f28419497f9722a3daafe3b4186f6b6457e08380a380f35b906020608492519162461bcd60e51b8352820152602660248201527f4f776e61626c653a206e6577206f776e657220697320746865207a65726f206160448201526564647265737360d01b6064820152fd5b8280fd5b50903461018f5760a036600319011261018f576101ae611065565b6101b6611080565b9060643560443560843567ffffffffffffffff8111610495576101dc903690880161118c565b906001600160a01b0380806101ef611597565b169516908582148015610476575b61020690611388565b8616906102148215156113eb565b61021d83611561565b5061022785611561565b50828a52896020978189528982208383528952868a83205461024b82821015611445565b868452838b528b84208585528b52038a832055848252818952898220848352895289822061027a8882546114a4565b90558383897fc3d58168c5ae7397731d063d5bbf3d657854427343f4c083240f7aacaa2d0f628d8d8c8251918c8352820152a43b6102b55780f35b89966102f489968b519889978896879563f23a6e6160e01b9d8e885287015260248601526044850152606484015260a0608484015260a48301906110b9565b03925af1869181610447575b506103d25750506001906103126114d1565b6308c379a01461039f575b506103325750505b3880808080808080808980f35b5162461bcd60e51b81529150819061039b90820160809060208152603460208201527f455243313135353a207472616e7366657220746f206e6f6e2d455243313135356040820152732932b1b2b4bb32b91034b6b83632b6b2b73a32b960611b60608201520190565b0390fd5b6103a76114ef565b806103b2575061031d565b61039b8591855193849362461bcd60e51b855284015260248301906110b9565b6001600160e01b0319160390506103ea575050610325565b5162461bcd60e51b81529150819061039b90820160809060208152602860208201527f455243313135353a204552433131353552656365697665722072656a656374656040820152676420746f6b656e7360c01b60608201520190565b610468919250843d861161046f575b61046081836110de565b8101906114b1565b9038610300565b503d610456565b50818a5260016020908152888b20878c529052878a205460ff166101fd565b8780fd5b5050346104e757806003193601126104e75760ff816020936104b9611065565b6104c1611080565b6001600160a01b0391821683526001875283832091168252855220549151911615158152f35b5080fd5b5050346104e757816003193601126104e7576020906005549051908152f35b503461018f578160031936011261018f57610523611065565b91602435908115158092036105f05761053a611597565b6001600160a01b0394851694169283851461059c57507f17307eab39ab6107e8899845ad3d59bd9653f200f220920489ca2b5937696c319160209184875260018352808720868852835280872060ff1981541660ff841617905551908152a380f35b6020608492519162461bcd60e51b8352820152602960248201527f455243313135353a2073657474696e6720617070726f76616c20737461747573604482015268103337b91039b2b63360b91b6064820152fd5b8480fd5b50903461018f57602080600319360112610807578235610612611251565b600554600181018091116107f4578060055561062c611597565b84519084820182811067ffffffffffffffff8211176107e15786528782526001600160a01b03811690811561079457908392916106698a95611561565b5061067386611561565b5083855284875287852082865287528785206106908782546114a4565b90558185817fc3d58168c5ae7397731d063d5bbf3d657854427343f4c083240f7aacaa2d0f628b80518981528b8d820152a43b6106cb578380f35b879461070d9487948951968795869485938763f23a6e6160e01b9c8d87528601528560248601526044850152606484015260a0608484015260a48301906110b9565b03925af1869181610775575b5061075d57505060019061072b6114d1565b6308c379a01461074a575b506103325750505b38808080848180808380f35b6107526114ef565b806103b25750610736565b6001600160e01b0319160390506103ea57505061073e565b61078d919250843d861161046f5761046081836110de565b9038610719565b865162461bcd60e51b8152808901879052602160248201527f455243313135353a206d696e7420746f20746865207a65726f206164647265736044820152607360f81b6064820152608490fd5b634e487b7160e01b895260418852602489fd5b634e487b7160e01b865260118552602486fd5b8380fd5b50903461018f578260031936011261018f578051918381549061082d82611217565b808652926001928084169081156108ca575060011461086e575b61086a8686610858828b03836110de565b519182916020835260208301906110b9565b0390f35b815294507f8a35acfbc15ff81a39ae7d344fd709f28e8600b4aa8c65c6b64bfe7fe36bd19b5b8286106108b25750505061085882602061086a958201019438610847565b80546020878701810191909152909501948101610894565b905061086a97508693506020925061085894915060ff191682840152151560051b8201019438610847565b5050346104e757816003193601126104e75760035490516001600160a01b039091168152602090f35b833461097b578060031936011261097b57610937611251565b600380546001600160a01b0319811690915581906001600160a01b03167f8be0079c531659141344cd1fd0a4f28419497f9722a3daafe3b4186f6b6457e08280a380f35b80fd5b5050346104e75760203660031901126104e75760209061099c611065565b90519060018060a01b03807f0000000000000000000000000000000000000000000000000000000000000000169116148152f35b503461018f578160031936011261018f57803567ffffffffffffffff8082116105f057366023830112156105f0578183013590610a0c82611116565b92610a19865194856110de565b82845260209260248486019160051b83010191368311610b6957602401905b828210610b4657505050602435908111610b4257610a59903690850161112e565b928251845103610aef5750815194610a7086611116565b95610a7d865197886110de565b808752610a8c601f1991611116565b0136838801375b8251811015610add57610ad890610ac86001600160a01b03610ab5838761135e565b5116610ac1838861135e565b51906112b4565b610ad2828961135e565b52611339565b610a93565b84518281528061086a818501896111e3565b60849185519162461bcd60e51b8352820152602960248201527f455243313135353a206163636f756e747320616e6420696473206c656e677468604482015268040dad2e6dac2e8c6d60bb1b6064820152fd5b8580fd5b81356001600160a01b0381168103610b65578152908401908401610a38565b8980fd5b8880fd5b503461018f576003199160a03684011261080757610b89611065565b92610b92611080565b9367ffffffffffffffff9360443585811161049557610bb4903690830161112e565b90606435868111610b6957610bcc903690830161112e565b95608435908111610b6957610be4903690830161118c565b6001600160a01b0393908480610bf8611597565b169216948286148015610e66575b610c0f90611388565b8451895103610e1257891695610c268715156113eb565b8a5b8b8651821015610cad57908a610ca18b610ca8948c8c610c5487610c4d8f829061135e565b519761135e565b51958084528660209285845286862081875284528686205490610c7983831015611445565b83875286855287872090875284520385852055835282815283832091835252209182546114a4565b9055611339565b610c28565b505090919697959492988584897f4a39dc06d4c0dbc64b70af90fd698a233a518aa5d07e595d983b8c0526c8f7fb888d610d028d610cf483519484869586528501906111e3565b9083820360208501526111e3565b0390a43b610d0e578980f35b8751958694859463bc197c8160e01b998a87528c87015260248601526044850160a0905260a48501610d3f916111e3565b82858203016064860152610d52916111e3565b90838203016084840152610d65916110b9565b0381885a94602095f1859181610df2575b50610ddc5750506001610d876114d1565b6308c379a014610da5575b6103325750503880808080808080808980f35b610dad6114ef565b80610db85750610d92565b905061039b91602094505193849362461bcd60e51b855284015260248301906110b9565b6001600160e01b031916036103ea575050610325565b610e0b91925060203d811161046f5761046081836110de565b9038610d76565b875162461bcd60e51b8152602081860152602860248201527f455243313135353a2069647320616e6420616d6f756e7473206c656e677468206044820152670dad2e6dac2e8c6d60c31b6064820152608490fd5b50858b5260016020908152888c20848d529052878b205460ff16610c06565b509190346104e7576020918260031936011261097b5781519360a08501835260808501918083528135925b6000190192600a906030828206018553049283610eb0579250601f199260808185810198030187528451968793838154610ee981611217565b926001918b8382169182600014610f9c575050600114610f3b575b878b61086a8c610f2c8d858d80610f1f8f8f51938491611096565b01039081018652856110de565b519282849384528301906110b9565b8a9495965082527f8a35acfbc15ff81a39ae7d344fd709f28e8600b4aa8c65c6b64bfe7fe36bd19b5b838310610f8257505050840101919080610f1f61086a610f2c610f04565b80549783018501979097528a968a94909201918101610f64565b60ff19168a82015285151590950289019094019650849350610f1f925061086a9150610f2c9050610f04565b503461018f57602036600319011261018f57359063ffffffff60e01b821680920361018f5760209250636cdb3d1360e11b8214918215611024575b8215611013575b50519015158152f35b6301ffc9a760e01b1491503861100a565b6303a24d0760e21b81149250611003565b5050346104e757806003193601126104e75760209061105e611055611065565b602435906112b4565b9051908152f35b600435906001600160a01b038216820361107b57565b600080fd5b602435906001600160a01b038216820361107b57565b60005b8381106110a95750506000910152565b8181015183820152602001611099565b906020916110d281518092818552858086019101611096565b601f01601f1916010190565b90601f8019910116810190811067ffffffffffffffff82111761110057604052565b634e487b7160e01b600052604160045260246000fd5b67ffffffffffffffff81116111005760051b60200190565b81601f8201121561107b5780359161114583611116565b9261115360405194856110de565b808452602092838086019260051b82010192831161107b578301905b82821061117d575050505090565b8135815290830190830161116f565b81601f8201121561107b5780359067ffffffffffffffff821161110057604051926111c1601f8401601f1916602001856110de565b8284526020838301011161107b57816000926020809301838601378301015290565b90815180825260208080930193019160005b828110611203575050505090565b8351855293810193928101926001016111f5565b90600182811c92168015611247575b602083101461123157565b634e487b7160e01b600052602260045260246000fd5b91607f1691611226565b6003546001600160a01b0390811690611268611597565b160361127057565b606460405162461bcd60e51b815260206004820152602060248201527f4f776e61626c653a2063616c6c6572206973206e6f7420746865206f776e65726044820152fd5b6001600160a01b03169081156112e157600052600060205260406000209060005260205260406000205490565b60405162461bcd60e51b815260206004820152602a60248201527f455243313135353a2061646472657373207a65726f206973206e6f742061207660448201526930b634b21037bbb732b960b11b6064820152608490fd5b60001981146113485760010190565b634e487b7160e01b600052601160045260246000fd5b80518210156113725760209160051b010190565b634e487b7160e01b600052603260045260246000fd5b1561138f57565b60405162461bcd60e51b815260206004820152602e60248201527f455243313135353a2063616c6c6572206973206e6f7420746f6b656e206f776e60448201526d195c881bdc88185c1c1c9bdd995960921b6064820152608490fd5b156113f257565b60405162461bcd60e51b815260206004820152602560248201527f455243313135353a207472616e7366657220746f20746865207a65726f206164604482015264647265737360d81b6064820152608490fd5b1561144c57565b60405162461bcd60e51b815260206004820152602a60248201527f455243313135353a20696e73756666696369656e742062616c616e636520666f60448201526939103a3930b739b332b960b11b6064820152608490fd5b9190820180921161134857565b9081602091031261107b57516001600160e01b03198116810361107b5790565b60009060033d116114de57565b905060046000803e60005160e01c90565b600060443d1061154d57604051600319913d83016004833e815167ffffffffffffffff918282113d60248401111761155057818401948551938411611558573d85010160208487010111611550575061154d929101602001906110de565b90565b949350505050565b50949350505050565b604051906040820182811067ffffffffffffffff8211176111005760405260018252602082016020368237825115611372575290565b337f00000000000000000000000000000000000000000000000000000000000000006001600160a01b0316036115d35736601319013560601c90565b339056fea2646970667358221220d5478c0dfcb08f9c5eaa9a7a67dcf8b0f00cd52a4a0f50bb685934831ed4b4d664736f6c63430008130033",
    "linkReferences": {}
  },
  "methodIdentifiers": {
    "balanceOf(address,uint256)": "00fdd58e",
    "balanceOfBatch(address[],uint256[])": "4e1273f4",
    "baseUri()": "9abc8320",
    "isApprovedForAll(address,address)": "e985e9c5",
    "isTrustedForwarder(address)": "572b6c05",
    "mint(uint256)": "a0712d68",
    "owner()": "8da5cb5b",
    "renounceOwnership()": "715018a6",
    "safeBatchTransferFrom(address,address,uint256[],uint256[],bytes)": "2eb2c2d6",
    "safeTransferFrom(address,address,uint256,uint256,bytes)": "f242432a",
    "setApprovalForAll(address,bool)": "a22cb465",
    "supportsInterface(bytes4)": "01ffc9a7",
    "transferOwnership(address)": "f2fde38b",
    "uri(uint256)": "0e89341c",
    "utilCount()": "baacbe9b"
  },
  "id": 54
}