{
  "abi": [
    {
      "inputs": [
        {
          "internalType": "string",
          "name": "_baseUri",
          "type": "string"
        },
        {
          "internalType": "address",
          "name": "trustedForwarder",
          "type": "address"
        }
      ],
      "stateMutability": "nonpayable",
      "type": "constructor"
    },
    {
      "inputs": [],
      "name": "CrossChainNotSupported",
      "type": "error"
    },
    {
      "inputs": [],
      "name": "InsufficientBalance",
      "type": "error"
    },
    {
      "inputs": [],
      "name": "InvalidChain",
      "type": "error"
    },
    {
      "anonymous": false,
      "inputs": [
        {
          "indexed": true,
          "internalType": "address",
          "name": "owner",
          "type": "address"
        },
        {
          "indexed": true,
          "internalType": "address",
          "name": "operator",
          "type": "address"
        },
        {
          "indexed": false,
          "internalType": "bool",
          "name": "approved",
          "type": "bool"
        }
      ],
      "name": "ApprovalForAll",
      "type": "event"
    },
    {
      "anonymous": false,
      "inputs": [
        {
          "indexed": true,
          "internalType": "address",
          "name": "previousOwner",
          "type": "address"
        },
        {
          "indexed": true,
          "internalType": "address",
          "name": "newOwner",
          "type": "address"
        }
      ],
      "name": "OwnershipTransferred",
      "type": "event"
    },
    {
      "anonymous": false,
      "inputs": [
        {
          "indexed": true,
          "internalType": "address",
          "name": "operator",
          "type": "address"
        },
        {
          "indexed": true,
          "internalType": "address",
          "name": "from",
          "type": "address"
        },
        {
          "indexed": true,
          "internalType": "address",
          "name": "to",
          "type": "address"
        },
        {
          "indexed": false,
          "internalType": "uint256[]",
          "name": "ids",
          "type": "uint256[]"
        },
        {
          "indexed": false,
          "internalType": "uint256[]",
          "name": "amounts",
          "type": "uint256[]"
        }
      ],
      "name": "TransferBatch",
      "type": "event"
    },
    {
      "anonymous": false,
      "inputs": [
        {
          "indexed": true,
          "internalType": "address",
          "name": "operator",
          "type": "address"
        },
        {
          "indexed": true,
          "internalType": "address",
          "name": "from",
          "type": "address"
        },
        {
          "indexed": true,
          "internalType": "address",
          "name": "to",
          "type": "address"
        },
        {
          "indexed": false,
          "internalType": "uint256",
          "name": "id",
          "type": "uint256"
        },
        {
          "indexed": false,
          "internalType": "uint256",
          "name": "amount",
          "type": "uint256"
        }
      ],
      "name": "TransferSingle",
      "type": "event"
    },
    {
      "anonymous": false,
      "inputs": [
        {
          "indexed": false,
          "internalType": "string",
          "name": "value",
          "type": "string"
        },
        {
          "indexed": true,
          "internalType": "uint256",
          "name": "id",
          "type": "uint256"
        }
      ],
      "name": "URI",
      "type": "event"
    },
    {
      "inputs": [
        {
          "internalType": "address",
          "name": "owner",
          "type": "address"
        },
        {
          "internalType": "uint256",
          "name": "id",
          "type": "uint256"
        }
      ],
      "name": "balanceOf",
      "outputs": [
        {
          "internalType": "uint256",
          "name": "",
          "type": "uint256"
        }
      ],
      "stateMutability": "view",
      "type": "function"
    },
    {
      "inputs": [
        {
          "internalType": "address[]",
          "name": "owners",
          "type": "address[]"
        },
        {
          "internalType": "uint256[]",
          "name": "ids",
          "type": "uint256[]"
        }
      ],
      "name": "balanceOfBatch",
      "outputs": [
        {
          "internalType": "uint256[]",
          "name": "",
          "type": "uint256[]"
        }
      ],
      "stateMutability": "view",
      "type": "function"
    },
    {
      "inputs": [],
      "name": "baseUri",
      "outputs": [
        {
          "internalType": "string",
          "name": "",
          "type": "string"
        }
      ],
      "stateMutability": "view",
      "type": "function"
    },
    {
      "inputs": [
        {
          "internalType": "address",
          "name": "owner",
          "type": "address"
        },
        {
          "internalType": "address",
          "name": "operator",
          "type": "address"
        }
      ],
      "name": "isApprovedForAll",
      "outputs": [
        {
          "internalType": "bool",
          "name": "",
          "type": "bool"
        }
      ],
      "stateMutability": "view",
      "type": "function"
    },
    {
      "inputs": [
        {
          "internalType": "address",
          "name": "forwarder",
          "type": "address"
        }
      ],
      "name": "isTrustedForwarder",
      "outputs": [
        {
          "internalType": "bool",
          "name": "",
          "type": "bool"
        }
      ],
      "stateMutability": "view",
      "type": "function"
    },
    {
      "inputs": [
        {
          "internalType": "uint256",
          "name": "amount",
          "type": "uint256"
        }
      ],
      "name": "mint",
      "outputs": [],
      "stateMutability": "nonpayable",
      "type": "function"
    },
    {
      "inputs": [
        {
          "internalType": "uint256",
          "name": "id",
          "type": "uint256"
        },
        {
          "internalType": "uint256",
          "name": "amount",
          "type": "uint256"
        }
      ],
      "name": "mintMore",
      "outputs": [],
      "stateMutability": "nonpayable",
      "type": "function"
    },
    {
      "inputs": [],
      "name": "owner",
      "outputs": [
        {
          "internalType": "address",
          "name": "",
          "type": "address"
        }
      ],
      "stateMutability": "view",
      "type": "function"
    },
    {
      "inputs": [],
      "name": "renounceOwnership",
      "outputs": [],
      "stateMutability": "nonpayable",
      "type": "function"
    },
    {
      "inputs": [
        {
          "internalType": "address",
          "name": "from",
          "type": "address"
        },
        {
          "internalType": "address",
          "name": "to",
          "type": "address"
        },
        {
          "internalType": "uint256[]",
          "name": "ids",
          "type": "uint256[]"
        },
        {
          "internalType": "uint256[]",
          "name": "amounts",
          "type": "uint256[]"
        },
        {
          "internalType": "bytes",
          "name": "data",
          "type": "bytes"
        }
      ],
      "name": "safeBatchTransferFrom",
      "outputs": [],
      "stateMutability": "nonpayable",
      "type": "function"
    },
    {
      "inputs": [
        {
          "internalType": "address",
          "name": "from",
          "type": "address"
        },
        {
          "internalType": "address",
          "name": "to",
          "type": "address"
        },
        {
          "internalType": "uint256",
          "name": "id",
          "type": "uint256"
        },
        {
          "internalType": "uint256",
          "name": "amount",
          "type": "uint256"
        },
        {
          "internalType": "bytes",
          "name": "data",
          "type": "bytes"
        }
      ],
      "name": "safeTransferFrom",
      "outputs": [],
      "stateMutability": "nonpayable",
      "type": "function"
    },
    {
      "inputs": [
        {
          "internalType": "address",
          "name": "operator",
          "type": "address"
        },
        {
          "internalType": "bool",
          "name": "approved",
          "type": "bool"
        }
      ],
      "name": "setApprovalForAll",
      "outputs": [],
      "stateMutability": "nonpayable",
      "type": "function"
    },
    {
      "inputs": [
        {
          "internalType": "bytes4",
          "name": "interfaceId",
          "type": "bytes4"
        }
      ],
      "name": "supportsInterface",
      "outputs": [
        {
          "internalType": "bool",
          "name": "",
          "type": "bool"
        }
      ],
      "stateMutability": "view",
      "type": "function"
    },
    {
      "inputs": [
        {
          "internalType": "uint256",
          "name": "id",
          "type": "uint256"
        }
      ],
      "name": "totalSupply",
      "outputs": [
        {
          "internalType": "uint256",
          "name": "",
          "type": "uint256"
        }
      ],
      "stateMutability": "view",
      "type": "function"
    },
    {
      "inputs": [
        {
          "internalType": "address",
          "name": "newOwner",
          "type": "address"
        }
      ],
      "name": "transferOwnership",
      "outputs": [],
      "stateMutability": "nonpayable",
      "type": "function"
    },
    {
      "inputs": [
        {
          "internalType": "uint256",
          "name": "id",
          "type": "uint256"
        }
      ],
      "name": "uri",
      "outputs": [
        {
          "internalType": "string",
          "name": "",
          "type": "string"
        }
      ],
      "stateMutability": "view",
      "type": "function"
    },
    {
      "inputs": [],
      "name": "utilCount",
      "outputs": [
        {
          "internalType": "uint256",
          "name": "",
          "type": "uint256"
        }
      ],
      "stateMutability": "view",
      "type": "function"
    }
  ],
  "bytecode": {
    "object": "0x60a06040523480156200001157600080fd5b50604051620021fa380380620021fa833981016040819052620000349162000149565b6001600160a01b038116608052816200004d8162000079565b50620000626200005c6200008b565b6200009c565b6005620000708382620002c0565b5050506200038c565b6003620000878282620002c0565b5050565b600062000097620000ee565b905090565b600480546001600160a01b038381166001600160a01b0319831681179093556040519116919082907f8be0079c531659141344cd1fd0a4f28419497f9722a3daafe3b4186f6b6457e090600090a35050565b6080516000906001600160a01b0316330362000111575060131936013560601c90565b503390565b634e487b7160e01b600052604160045260246000fd5b80516001600160a01b03811681146200014457600080fd5b919050565b600080604083850312156200015d57600080fd5b82516001600160401b03808211156200017557600080fd5b818501915085601f8301126200018a57600080fd5b8151818111156200019f576200019f62000116565b604051601f8201601f19908116603f01168101908382118183101715620001ca57620001ca62000116565b81604052828152602093508884848701011115620001e757600080fd5b600091505b828210156200020b5784820184015181830185015290830190620001ec565b6000848483010152809650505050620002268186016200012c565b925050509250929050565b600181811c908216806200024657607f821691505b6020821081036200026757634e487b7160e01b600052602260045260246000fd5b50919050565b601f821115620002bb57600081815260208120601f850160051c81016020861015620002965750805b601f850160051c820191505b81811015620002b757828155600101620002a2565b5050505b505050565b81516001600160401b03811115620002dc57620002dc62000116565b620002f481620002ed845462000231565b846200026d565b602080601f8311600181146200032c5760008415620003135750858301515b600019600386901b1c1916600185901b178555620002b7565b600085815260208120601f198616915b828110156200035d578886015182559484019460019091019084016200033c565b50858210156200037c5787850151600019600388901b60f8161c191681555b5050505050600190811b01905550565b608051611e4b620003af600039600081816101d00152610fa60152611e4b6000f3fe608060405234801561001057600080fd5b506004361061010a5760003560e01c80638da5cb5b116100a2578063baacbe9b11610071578063baacbe9b14610251578063bd85b0391461025a578063e985e9c51461027a578063f242432a146102b6578063f2fde38b146102c957600080fd5b80638da5cb5b146102085780639abc832014610223578063a0712d681461022b578063a22cb4651461023e57600080fd5b80634e1273f4116100de5780634e1273f41461018d5780634f7c055e146101ad578063572b6c05146101c0578063715018a61461020057600080fd5b8062fdd58e1461010f57806301ffc9a7146101355780630e89341c146101585780632eb2c2d614610178575b600080fd5b61012261011d3660046115d8565b6102dc565b6040519081526020015b60405180910390f35b610148610143366004611618565b610373565b604051901515815260200161012c565b61016b61016636600461163c565b6103c3565b60405161012c91906116a5565b61018b6101863660046117fe565b6103f7565b005b6101a061019b3660046118a8565b61049e565b60405161012c91906119a3565b61018b6101bb3660046119b6565b6105c4565b6101486101ce3660046119d8565b7f00000000000000000000000000000000000000000000000000000000000000006001600160a01b0390811691161490565b61018b610633565b6004546040516001600160a01b03909116815260200161012c565b61016b610688565b61018b61023936600461163c565b610716565b61018b61024c3660046119f3565b61079f565b61012260065481565b61012261026836600461163c565b60009081526001602052604090205490565b610148610288366004611a2f565b6001600160a01b03918216600090815260026020908152604080832093909416825291909152205460ff1690565b61018b6102c4366004611a62565b6107b1565b61018b6102d73660046119d8565b610848565b60006001600160a01b03831661034a5760405162461bcd60e51b815260206004820152602860248201527f4b495033373a2061646472657373207a65726f206973206e6f7420612076616c60448201526734b21037bbb732b960c11b60648201526084015b60405180910390fd5b506000818152602081815260408083206001600160a01b03861684529091529020545b92915050565b60006001600160e01b03198216636433ca1f60e01b14806103a457506001600160e01b031982166303a24d0760e21b145b8061036d57506301ffc9a760e01b6001600160e01b031983161461036d565b606060056103d0836108ff565b6040516020016103e1929190611b1d565b6040516020818303038152906040529050919050565b6103ff610a08565b6001600160a01b0316856001600160a01b03161480610425575061042585610288610a08565b61048a5760405162461bcd60e51b815260206004820152603060248201527f4b495033373a207472616e736665722063616c6c6572206973206e6f74206f7760448201526f1b995c881b9bdc88185c1c1c9bdd995960821b6064820152608401610341565b6104978585858585610a17565b5050505050565b606081518351146104ff5760405162461bcd60e51b815260206004820152602560248201527f4b495033373a206f776e65727320616e6420696473206c656e677468206d69736044820152640dac2e8c6d60db1b6064820152608401610341565b6000835167ffffffffffffffff81111561051b5761051b6116b8565b604051908082528060200260200182016040528015610544578160200160208202803683370190505b50905060005b84518110156105bc5761058f85828151811061056857610568611bc7565b602002602001015185838151811061058257610582611bc7565b60200260200101516102dc565b8282815181106105a1576105a1611bc7565b60209081029190910101526105b581611bf3565b905061054a565b509392505050565b6105cc610a08565b6001600160a01b03166105e76004546001600160a01b031690565b6001600160a01b03161461060d5760405162461bcd60e51b815260040161034190611c0c565b61062f610618610a08565b838360405180602001604052806000815250610c0b565b5050565b61063b610a08565b6001600160a01b03166106566004546001600160a01b031690565b6001600160a01b03161461067c5760405162461bcd60e51b815260040161034190611c0c565b6106866000610d2f565b565b6005805461069590611ac7565b80601f01602080910402602001604051908101604052809291908181526020018280546106c190611ac7565b801561070e5780601f106106e35761010080835404028352916020019161070e565b820191906000526020600020905b8154815290600101906020018083116106f157829003601f168201915b505050505081565b61071e610a08565b6001600160a01b03166107396004546001600160a01b031690565b6001600160a01b03161461075f5760405162461bcd60e51b815260040161034190611c0c565b6001600660008282546107729190611c41565b9091555061079c9050610783610a08565b6006548360405180602001604052806000815250610c0b565b50565b61062f6107aa610a08565b8383610d81565b6107b9610a08565b6001600160a01b0316856001600160a01b031614806107df57506107df85610288610a08565b61083b5760405162461bcd60e51b815260206004820152602760248201527f4b495033373a2063616c6c6572206973206e6f74206f776e6572206e6f7220616044820152661c1c1c9bdd995960ca1b6064820152608401610341565b6104978585858585610e5f565b610850610a08565b6001600160a01b031661086b6004546001600160a01b031690565b6001600160a01b0316146108915760405162461bcd60e51b815260040161034190611c0c565b6001600160a01b0381166108f65760405162461bcd60e51b815260206004820152602660248201527f4f776e61626c653a206e6577206f776e657220697320746865207a65726f206160448201526564647265737360d01b6064820152608401610341565b61079c81610d2f565b6060816000036109265750506040805180820190915260018152600360fc1b602082015290565b8160005b8115610950578061093a81611bf3565b91506109499050600a83611c6a565b915061092a565b60008167ffffffffffffffff81111561096b5761096b6116b8565b6040519080825280601f01601f191660200182016040528015610995576020820181803683370190505b5090505b8415610a00576109aa600183611c7e565b91506109b7600a86611c91565b6109c2906030611c41565b60f81b8183815181106109d7576109d7611bc7565b60200101906001600160f81b031916908160001a9053506109f9600a86611c6a565b9450610999565b949350505050565b6000610a12610fa2565b905090565b8151835114610a775760405162461bcd60e51b815260206004820152602660248201527f4b495033373a2069647320616e6420616d6f756e7473206c656e677468206d696044820152650e6dac2e8c6d60d31b6064820152608401610341565b6001600160a01b038416610a9d5760405162461bcd60e51b815260040161034190611ca5565b6000610aa7610a08565b9050610ab7818787878787610fe6565b60005b8451811015610b9d576000858281518110610ad757610ad7611bc7565b602002602001015190506000858381518110610af557610af5611bc7565b602090810291909101810151600084815280835260408082206001600160a01b038e168352909352919091205490915081811015610b455760405162461bcd60e51b815260040161034190611ce8565b6000838152602081815260408083206001600160a01b038e8116855292528083208585039055908b16825281208054849290610b82908490611c41565b9250508190555050505080610b9690611bf3565b9050610aba565b50846001600160a01b0316866001600160a01b0316826001600160a01b03167f4a39dc06d4c0dbc64b70af90fd698a233a518aa5d07e595d983b8c0526c8f7fb8787604051610bed929190611d30565b60405180910390a4610c0381878787878761115d565b505050505050565b6001600160a01b038416610c615760405162461bcd60e51b815260206004820152601f60248201527f4b495033373a206d696e7420746f20746865207a65726f2061646472657373006044820152606401610341565b6000610c6b610a08565b90506000610c78856111fc565b90506000610c85856111fc565b9050610c9683600089858589610fe6565b6000868152602081815260408083206001600160a01b038b16845290915281208054879290610cc6908490611c41565b909155505060408051878152602081018790526001600160a01b03808a1692600092918716917fc3d58168c5ae7397731d063d5bbf3d657854427343f4c083240f7aacaa2d0f62910160405180910390a4610d2683600089898989611247565b50505050505050565b600480546001600160a01b038381166001600160a01b0319831681179093556040519116919082907f8be0079c531659141344cd1fd0a4f28419497f9722a3daafe3b4186f6b6457e090600090a35050565b816001600160a01b0316836001600160a01b031603610df25760405162461bcd60e51b815260206004820152602760248201527f4b495033373a2073657474696e6720617070726f76616c20737461747573206660448201526637b91039b2b63360c91b6064820152608401610341565b6001600160a01b03838116600081815260026020908152604080832094871680845294825291829020805460ff191686151590811790915591519182527f17307eab39ab6107e8899845ad3d59bd9653f200f220920489ca2b5937696c31910160405180910390a3505050565b6001600160a01b038416610e855760405162461bcd60e51b815260040161034190611ca5565b6000610e8f610a08565b90506000610e9c856111fc565b90506000610ea9856111fc565b9050610eb9838989858589610fe6565b6000868152602081815260408083206001600160a01b038c16845290915290205485811015610efa5760405162461bcd60e51b815260040161034190611ce8565b6000878152602081815260408083206001600160a01b038d8116855292528083208985039055908a16825281208054889290610f37908490611c41565b909155505060408051888152602081018890526001600160a01b03808b16928c821692918816917fc3d58168c5ae7397731d063d5bbf3d657854427343f4c083240f7aacaa2d0f62910160405180910390a4610f97848a8a8a8a8a611247565b505050505050505050565b60007f00000000000000000000000000000000000000000000000000000000000000006001600160a01b03163303610fe1575060131936013560601c90565b503390565b6001600160a01b03851661106d5760005b835181101561106b5782818151811061101257611012611bc7565b60200260200101516001600086848151811061103057611030611bc7565b6020026020010151815260200190815260200160002060008282546110559190611c41565b90915550611064905081611bf3565b9050610ff7565b505b6001600160a01b038416610c035760005b8351811015610d2657600084828151811061109b5761109b611bc7565b6020026020010151905060008483815181106110b9576110b9611bc7565b602002602001015190506000600160008481526020019081526020016000205490508181101561113a5760405162461bcd60e51b815260206004820152602660248201527f4b495033373a206275726e20616d6f756e74206578636565647320746f74616c604482015265537570706c7960d01b6064820152608401610341565b6000928352600160205260409092209103905561115681611bf3565b905061107e565b61116b868686868686611269565b8061117f575061117f868686868686611361565b610c035760405162461bcd60e51b815260206004820152604260248201527f4b495033373a207472616e7366657220746f206e6f6e20494b4950333752656360448201527f65697665722f4945524331313535526563656976657220696d706c656d656e7460648201526132b960f11b608482015260a401610341565b6040805160018082528183019092526060916000919060208083019080368337019050509050828160008151811061123657611236611bc7565b602090810291909101015292915050565b61125586868686868661142a565b8061117f575061117f8686868686866114f3565b60006001600160a01b0385163b1561135357604051634da4f19960e11b81526001600160a01b03861690639b49e332906112af908a908a90899089908990600401611d55565b6020604051808303816000875af19250505080156112ea575060408051601f3d908101601f191682019092526112e791810190611db3565b60015b611339573d808015611318576040519150601f19603f3d011682016040523d82523d6000602084013e61131d565b606091505b508051600003611331576000915050611357565b805181602001fd5b6001600160e01b031916634da4f19960e11b149050611357565b5060015b9695505050505050565b60006001600160a01b0385163b156113535760405163bc197c8160e01b81526001600160a01b0386169063bc197c81906113a7908a908a90899089908990600401611d55565b6020604051808303816000875af19250505080156113e2575060408051601f3d908101601f191682019092526113df91810190611db3565b60015b611410573d808015611318576040519150601f19603f3d011682016040523d82523d6000602084013e61131d565b6001600160e01b03191663bc197c8160e01b149050611357565b60006001600160a01b0385163b156113535760405163e78b332560e01b81526001600160a01b0386169063e78b332590611470908a908a90899089908990600401611dd0565b6020604051808303816000875af19250505080156114ab575060408051601f3d908101601f191682019092526114a891810190611db3565b60015b6114d9573d808015611318576040519150601f19603f3d011682016040523d82523d6000602084013e61131d565b6001600160e01b03191663e78b332560e01b149050611357565b60006001600160a01b0385163b156113535760405163f23a6e6160e01b81526001600160a01b0386169063f23a6e6190611539908a908a90899089908990600401611dd0565b6020604051808303816000875af1925050508015611574575060408051601f3d908101601f1916820190925261157191810190611db3565b60015b6115a2573d808015611318576040519150601f19603f3d011682016040523d82523d6000602084013e61131d565b6001600160e01b03191663f23a6e6160e01b149050611357565b80356001600160a01b03811681146115d357600080fd5b919050565b600080604083850312156115eb57600080fd5b6115f4836115bc565b946020939093013593505050565b6001600160e01b03198116811461079c57600080fd5b60006020828403121561162a57600080fd5b813561163581611602565b9392505050565b60006020828403121561164e57600080fd5b5035919050565b60005b83811015611670578181015183820152602001611658565b50506000910152565b60008151808452611691816020860160208601611655565b601f01601f19169290920160200192915050565b6020815260006116356020830184611679565b634e487b7160e01b600052604160045260246000fd5b604051601f8201601f1916810167ffffffffffffffff811182821017156116f7576116f76116b8565b604052919050565b600067ffffffffffffffff821115611719576117196116b8565b5060051b60200190565b600082601f83011261173457600080fd5b81356020611749611744836116ff565b6116ce565b82815260059290921b8401810191818101908684111561176857600080fd5b8286015b84811015611783578035835291830191830161176c565b509695505050505050565b600082601f83011261179f57600080fd5b813567ffffffffffffffff8111156117b9576117b96116b8565b6117cc601f8201601f19166020016116ce565b8181528460208386010111156117e157600080fd5b816020850160208301376000918101602001919091529392505050565b600080600080600060a0868803121561181657600080fd5b61181f866115bc565b945061182d602087016115bc565b9350604086013567ffffffffffffffff8082111561184a57600080fd5b61185689838a01611723565b9450606088013591508082111561186c57600080fd5b61187889838a01611723565b9350608088013591508082111561188e57600080fd5b5061189b8882890161178e565b9150509295509295909350565b600080604083850312156118bb57600080fd5b823567ffffffffffffffff808211156118d357600080fd5b818501915085601f8301126118e757600080fd5b813560206118f7611744836116ff565b82815260059290921b8401810191818101908984111561191657600080fd5b948201945b8386101561193b5761192c866115bc565b8252948201949082019061191b565b9650508601359250508082111561195157600080fd5b5061195e85828601611723565b9150509250929050565b600081518084526020808501945080840160005b838110156119985781518752958201959082019060010161197c565b509495945050505050565b6020815260006116356020830184611968565b600080604083850312156119c957600080fd5b50508035926020909101359150565b6000602082840312156119ea57600080fd5b611635826115bc565b60008060408385031215611a0657600080fd5b611a0f836115bc565b915060208301358015158114611a2457600080fd5b809150509250929050565b60008060408385031215611a4257600080fd5b611a4b836115bc565b9150611a59602084016115bc565b90509250929050565b600080600080600060a08688031215611a7a57600080fd5b611a83866115bc565b9450611a91602087016115bc565b93506040860135925060608601359150608086013567ffffffffffffffff811115611abb57600080fd5b61189b8882890161178e565b600181811c90821680611adb57607f821691505b602082108103611afb57634e487b7160e01b600052602260045260246000fd5b50919050565b60008151611b13818560208601611655565b9290920192915050565b600080845481600182811c915080831680611b3957607f831692505b60208084108203611b5857634e487b7160e01b86526022600452602486fd5b818015611b6c5760018114611b8157611bae565b60ff1986168952841515850289019650611bae565b60008b81526020902060005b86811015611ba65781548b820152908501908301611b8d565b505084890196505b505050505050611bbe8185611b01565b95945050505050565b634e487b7160e01b600052603260045260246000fd5b634e487b7160e01b600052601160045260246000fd5b600060018201611c0557611c05611bdd565b5060010190565b6020808252818101527f4f776e61626c653a2063616c6c6572206973206e6f7420746865206f776e6572604082015260600190565b8082018082111561036d5761036d611bdd565b634e487b7160e01b600052601260045260246000fd5b600082611c7957611c79611c54565b500490565b8181038181111561036d5761036d611bdd565b600082611ca057611ca0611c54565b500690565b60208082526023908201527f4b495033373a207472616e7366657220746f20746865207a65726f206164647260408201526265737360e81b606082015260800190565b60208082526028908201527f4b495033373a20696e73756666696369656e742062616c616e636520666f72206040820152673a3930b739b332b960c11b606082015260800190565b604081526000611d436040830185611968565b8281036020840152611bbe8185611968565b6001600160a01b0386811682528516602082015260a060408201819052600090611d8190830186611968565b8281036060840152611d938186611968565b90508281036080840152611da78185611679565b98975050505050505050565b600060208284031215611dc557600080fd5b815161163581611602565b6001600160a01b03868116825285166020820152604081018490526060810183905260a060808201819052600090611e0a90830184611679565b97965050505050505056fea26469706673582212207b94b931e0b26dc274fd038ba0e8790ec5375a1d566740bcb6765e2ced53867c64736f6c63430008130033",
    "linkReferences": {}
  },
  "methodIdentifiers": {
    "balanceOf(address,uint256)": "00fdd58e",
    "balanceOfBatch(address[],uint256[])": "4e1273f4",
    "baseUri()": "9abc8320",
    "isApprovedForAll(address,address)": "e985e9c5",
    "isTrustedForwarder(address)": "572b6c05",
    "mint(uint256)": "a0712d68",
    "mintMore(uint256,uint256)": "4f7c055e",
    "owner()": "8da5cb5b",
    "renounceOwnership()": "715018a6",
    "safeBatchTransferFrom(address,address,uint256[],uint256[],bytes)": "2eb2c2d6",
    "safeTransferFrom(address,address,uint256,uint256,bytes)": "f242432a",
    "setApprovalForAll(address,bool)": "a22cb465",
    "supportsInterface(bytes4)": "01ffc9a7",
    "totalSupply(uint256)": "bd85b039",
    "transferOwnership(address)": "f2fde38b",
    "uri(uint256)": "0e89341c",
    "utilCount()": "baacbe9b"
  },
  "id": 31
}