{
  "address": "0x52Cb4B27503848ABd8dd3629474835299E1E99af",
  "abi": [
    {
      "inputs": [
        {
          "internalType": "string",
          "name": "_baseUri",
          "type": "string"
        },
        {
          "internalType": "address",
          "name": "trustedForwarder",
          "type": "address"
        },
        {
          "internalType": "contract IPolygonZkEVMBridge",
          "name": "_polygonZkEVMBridge",
          "type": "address"
        }
      ],
      "stateMutability": "nonpayable",
      "type": "constructor"
    },
    {
      "inputs": [],
      "name": "InsufficientBalance",
      "type": "error"
    },
    {
      "inputs": [],
      "name": "InvalidChain",
      "type": "error"
    },
    {
      "inputs": [],
      "name": "NotPolygonZkEVMBridge",
      "type": "error"
    },
    {
      "anonymous": false,
      "inputs": [
        {
          "indexed": true,
          "internalType": "address",
          "name": "account",
          "type": "address"
        },
        {
          "indexed": true,
          "internalType": "address",
          "name": "operator",
          "type": "address"
        },
        {
          "indexed": false,
          "internalType": "bool",
          "name": "approved",
          "type": "bool"
        }
      ],
      "name": "ApprovalForAll",
      "type": "event"
    },
    {
      "anonymous": false,
      "inputs": [
        {
          "indexed": true,
          "internalType": "address",
          "name": "previousOwner",
          "type": "address"
        },
        {
          "indexed": true,
          "internalType": "address",
          "name": "newOwner",
          "type": "address"
        }
      ],
      "name": "OwnershipTransferred",
      "type": "event"
    },
    {
      "anonymous": false,
      "inputs": [
        {
          "indexed": true,
          "internalType": "address",
          "name": "operator",
          "type": "address"
        },
        {
          "indexed": true,
          "internalType": "address",
          "name": "from",
          "type": "address"
        },
        {
          "indexed": true,
          "internalType": "address",
          "name": "to",
          "type": "address"
        },
        {
          "indexed": false,
          "internalType": "uint256[]",
          "name": "ids",
          "type": "uint256[]"
        },
        {
          "indexed": false,
          "internalType": "uint256[]",
          "name": "values",
          "type": "uint256[]"
        }
      ],
      "name": "TransferBatch",
      "type": "event"
    },
    {
      "anonymous": false,
      "inputs": [
        {
          "indexed": true,
          "internalType": "address",
          "name": "operator",
          "type": "address"
        },
        {
          "indexed": true,
          "internalType": "address",
          "name": "from",
          "type": "address"
        },
        {
          "indexed": true,
          "internalType": "address",
          "name": "to",
          "type": "address"
        },
        {
          "indexed": false,
          "internalType": "uint256",
          "name": "id",
          "type": "uint256"
        },
        {
          "indexed": false,
          "internalType": "uint256",
          "name": "value",
          "type": "uint256"
        }
      ],
      "name": "TransferSingle",
      "type": "event"
    },
    {
      "anonymous": false,
      "inputs": [
        {
          "indexed": false,
          "internalType": "string",
          "name": "value",
          "type": "string"
        },
        {
          "indexed": true,
          "internalType": "uint256",
          "name": "id",
          "type": "uint256"
        }
      ],
      "name": "URI",
      "type": "event"
    },
    {
      "inputs": [
        {
          "internalType": "address",
          "name": "account",
          "type": "address"
        },
        {
          "internalType": "uint256",
          "name": "id",
          "type": "uint256"
        }
      ],
      "name": "balanceOf",
      "outputs": [
        {
          "internalType": "uint256",
          "name": "",
          "type": "uint256"
        }
      ],
      "stateMutability": "view",
      "type": "function"
    },
    {
      "inputs": [
        {
          "internalType": "address[]",
          "name": "accounts",
          "type": "address[]"
        },
        {
          "internalType": "uint256[]",
          "name": "ids",
          "type": "uint256[]"
        }
      ],
      "name": "balanceOfBatch",
      "outputs": [
        {
          "internalType": "uint256[]",
          "name": "",
          "type": "uint256[]"
        }
      ],
      "stateMutability": "view",
      "type": "function"
    },
    {
      "inputs": [],
      "name": "baseUri",
      "outputs": [
        {
          "internalType": "string",
          "name": "",
          "type": "string"
        }
      ],
      "stateMutability": "view",
      "type": "function"
    },
    {
      "inputs": [
        {
          "internalType": "uint32",
          "name": "",
          "type": "uint32"
        }
      ],
      "name": "chains",
      "outputs": [
        {
          "internalType": "address",
          "name": "",
          "type": "address"
        }
      ],
      "stateMutability": "view",
      "type": "function"
    },
    {
      "inputs": [
        {
          "internalType": "uint32",
          "name": "destinationChain",
          "type": "uint32"
        },
        {
          "internalType": "uint256",
          "name": "tokenId",
          "type": "uint256"
        },
        {
          "internalType": "uint256",
          "name": "amount",
          "type": "uint256"
        },
        {
          "internalType": "bool",
          "name": "forceUpdateGlobalExitRoot",
          "type": "bool"
        }
      ],
      "name": "crossChainTransfer",
      "outputs": [],
      "stateMutability": "payable",
      "type": "function"
    },
    {
      "inputs": [
        {
          "internalType": "address",
          "name": "account",
          "type": "address"
        },
        {
          "internalType": "address",
          "name": "operator",
          "type": "address"
        }
      ],
      "name": "isApprovedForAll",
      "outputs": [
        {
          "internalType": "bool",
          "name": "",
          "type": "bool"
        }
      ],
      "stateMutability": "view",
      "type": "function"
    },
    {
      "inputs": [
        {
          "internalType": "address",
          "name": "forwarder",
          "type": "address"
        }
      ],
      "name": "isTrustedForwarder",
      "outputs": [
        {
          "internalType": "bool",
          "name": "",
          "type": "bool"
        }
      ],
      "stateMutability": "view",
      "type": "function"
    },
    {
      "inputs": [
        {
          "internalType": "uint256",
          "name": "amount",
          "type": "uint256"
        }
      ],
      "name": "mint",
      "outputs": [],
      "stateMutability": "nonpayable",
      "type": "function"
    },
    {
      "inputs": [
        {
          "internalType": "uint256",
          "name": "id",
          "type": "uint256"
        },
        {
          "internalType": "uint256",
          "name": "amount",
          "type": "uint256"
        }
      ],
      "name": "mintMore",
      "outputs": [],
      "stateMutability": "nonpayable",
      "type": "function"
    },
    {
      "inputs": [],
      "name": "networkID",
      "outputs": [
        {
          "internalType": "uint32",
          "name": "",
          "type": "uint32"
        }
      ],
      "stateMutability": "view",
      "type": "function"
    },
    {
      "inputs": [
        {
          "internalType": "address",
          "name": "sourceAddress",
          "type": "address"
        },
        {
          "internalType": "uint32",
          "name": "sourceChain",
          "type": "uint32"
        },
        {
          "internalType": "bytes",
          "name": "payload",
          "type": "bytes"
        }
      ],
      "name": "onMessageReceived",
      "outputs": [],
      "stateMutability": "payable",
      "type": "function"
    },
    {
      "inputs": [],
      "name": "owner",
      "outputs": [
        {
          "internalType": "address",
          "name": "",
          "type": "address"
        }
      ],
      "stateMutability": "view",
      "type": "function"
    },
    {
      "inputs": [],
      "name": "polygonZkEVMBridge",
      "outputs": [
        {
          "internalType": "contract IPolygonZkEVMBridge",
          "name": "",
          "type": "address"
        }
      ],
      "stateMutability": "view",
      "type": "function"
    },
    {
      "inputs": [],
      "name": "renounceOwnership",
      "outputs": [],
      "stateMutability": "nonpayable",
      "type": "function"
    },
    {
      "inputs": [
        {
          "internalType": "address",
          "name": "from",
          "type": "address"
        },
        {
          "internalType": "address",
          "name": "to",
          "type": "address"
        },
        {
          "internalType": "uint256[]",
          "name": "ids",
          "type": "uint256[]"
        },
        {
          "internalType": "uint256[]",
          "name": "amounts",
          "type": "uint256[]"
        },
        {
          "internalType": "bytes",
          "name": "data",
          "type": "bytes"
        }
      ],
      "name": "safeBatchTransferFrom",
      "outputs": [],
      "stateMutability": "nonpayable",
      "type": "function"
    },
    {
      "inputs": [
        {
          "internalType": "address",
          "name": "from",
          "type": "address"
        },
        {
          "internalType": "address",
          "name": "to",
          "type": "address"
        },
        {
          "internalType": "uint256",
          "name": "id",
          "type": "uint256"
        },
        {
          "internalType": "uint256",
          "name": "amount",
          "type": "uint256"
        },
        {
          "internalType": "bytes",
          "name": "data",
          "type": "bytes"
        }
      ],
      "name": "safeTransferFrom",
      "outputs": [],
      "stateMutability": "nonpayable",
      "type": "function"
    },
    {
      "inputs": [
        {
          "internalType": "address",
          "name": "operator",
          "type": "address"
        },
        {
          "internalType": "bool",
          "name": "approved",
          "type": "bool"
        }
      ],
      "name": "setApprovalForAll",
      "outputs": [],
      "stateMutability": "nonpayable",
      "type": "function"
    },
    {
      "inputs": [
        {
          "internalType": "uint32",
          "name": "chain",
          "type": "uint32"
        },
        {
          "internalType": "address",
          "name": "addr",
          "type": "address"
        }
      ],
      "name": "setChain",
      "outputs": [],
      "stateMutability": "nonpayable",
      "type": "function"
    },
    {
      "inputs": [
        {
          "internalType": "bytes4",
          "name": "interfaceId",
          "type": "bytes4"
        }
      ],
      "name": "supportsInterface",
      "outputs": [
        {
          "internalType": "bool",
          "name": "",
          "type": "bool"
        }
      ],
      "stateMutability": "view",
      "type": "function"
    },
    {
      "inputs": [
        {
          "internalType": "address",
          "name": "newOwner",
          "type": "address"
        }
      ],
      "name": "transferOwnership",
      "outputs": [],
      "stateMutability": "nonpayable",
      "type": "function"
    },
    {
      "inputs": [
        {
          "internalType": "uint256",
          "name": "id",
          "type": "uint256"
        }
      ],
      "name": "uri",
      "outputs": [
        {
          "internalType": "string",
          "name": "",
          "type": "string"
        }
      ],
      "stateMutability": "view",
      "type": "function"
    },
    {
      "inputs": [],
      "name": "utilCount",
      "outputs": [
        {
          "internalType": "uint256",
          "name": "",
          "type": "uint256"
        }
      ],
      "stateMutability": "view",
      "type": "function"
    }
  ],
  "transactionHash": "0x8fa75911e0c2b52a927905236c61d2aebfd8807f65be5d81eaf0add46355f625",
  "args": [
    "https://www.example.com/utils/",
    "0xbC9Da99F3c34E8e93134129A5466c3F5970cE210",
    "0xF6BEEeBB578e214CA9E23B0e9683454Ff88Ed2A7"
  ],
  "numDeployments": 1,
  "solcInputHash": "5d3ad3cf936986948735f02ea05b5ec7",
  "bytecode": "0x60e06040523480156200001157600080fd5b50604051620025dc380380620025dc83398101604081905262000034916200029a565b6001600160a01b038216608052826200004d81620000fe565b50620000626200005c62000117565b62000133565b825162000077906004906020860190620001c1565b506001600160a01b03811660a08190526040805163bab161bf60e01b8152905163bab161bf9160048082019260209290919082900301816000875af1158015620000c5573d6000803e3d6000fd5b505050506040513d601f19601f82011682018060405250810190620000eb91906200039d565b63ffffffff1660c0525062000408915050565b805162000113906002906020840190620001c1565b5050565b60006200012e6200018560201b62000c0e1760201c565b905090565b600380546001600160a01b038381166001600160a01b0319831681179093556040519116919082907f8be0079c531659141344cd1fd0a4f28419497f9722a3daafe3b4186f6b6457e090600090a35050565b6080516000906001600160a01b03163303620001a8575060131936013560601c90565b6200012e620001bd60201b62000c5a1760201c565b3390565b828054620001cf90620003cc565b90600052602060002090601f016020900481019282620001f357600085556200023e565b82601f106200020e57805160ff19168380011785556200023e565b828001600101855582156200023e579182015b828111156200023e57825182559160200191906001019062000221565b506200024c92915062000250565b5090565b5b808211156200024c576000815560010162000251565b634e487b7160e01b600052604160045260246000fd5b80516001600160a01b03811681146200029557600080fd5b919050565b600080600060608486031215620002b057600080fd5b83516001600160401b0380821115620002c857600080fd5b818601915086601f830112620002dd57600080fd5b815181811115620002f257620002f262000267565b604051601f8201601f19908116603f011681019083821181831017156200031d576200031d62000267565b816040528281526020935089848487010111156200033a57600080fd5b600091505b828210156200035e57848201840151818301850152908301906200033f565b82821115620003705760008484830101525b9650620003829150508682016200027d565b9350505062000394604085016200027d565b90509250925092565b600060208284031215620003b057600080fd5b815163ffffffff81168114620003c557600080fd5b9392505050565b600181811c90821680620003e157607f821691505b6020821081036200040257634e487b7160e01b600052602260045260246000fd5b50919050565b60805160a05160c05161218f6200044d60003960006103dd0152600081816102bd015281816105db015261083a01526000818161027b0152610c12015261218f6000f3fe6080604052600436106101345760003560e01c80638b203dd4116100ab578063baacbe9b1161006f578063baacbe9b146103b5578063bab161bf146103cb578063e416749f14610414578063e985e9c514610434578063f242432a1461047d578063f2fde38b1461049d57600080fd5b80638b203dd41461030c5780638da5cb5b146103425780639abc832014610360578063a0712d6814610375578063a22cb4651461039557600080fd5b806340150236116100fd57806340150236146101fe5780634e1273f4146102115780634f7c055e1461023e578063572b6c051461025e5780635d43792c146102ab578063715018a6146102f757600080fd5b8062fdd58e1461013957806301ffc9a71461016c5780630e89341c1461019c5780631806b5f2146101c95780632eb2c2d6146101de575b600080fd5b34801561014557600080fd5b50610159610154366004611687565b6104bd565b6040519081526020015b60405180910390f35b34801561017857600080fd5b5061018c6101873660046116c9565b610553565b6040519015158152602001610163565b3480156101a857600080fd5b506101bc6101b73660046116ed565b6105a5565b6040516101639190611762565b6101dc6101d736600461178e565b6105d9565b005b3480156101ea57600080fd5b506101dc6101f936600461196a565b610706565b6101dc61020c366004611a28565b610764565b34801561021d57600080fd5b5061023161022c366004611a6e565b6108af565b6040516101639190611b76565b34801561024a57600080fd5b506101dc610259366004611b89565b6109d9565b34801561026a57600080fd5b5061018c610279366004611bab565b7f00000000000000000000000000000000000000000000000000000000000000006001600160a01b0390811691161490565b3480156102b757600080fd5b506102df7f000000000000000000000000000000000000000000000000000000000000000081565b6040516001600160a01b039091168152602001610163565b34801561030357600080fd5b506101dc610a07565b34801561031857600080fd5b506102df610327366004611bc8565b6006602052600090815260409020546001600160a01b031681565b34801561034e57600080fd5b506003546001600160a01b03166102df565b34801561036c57600080fd5b506101bc610a1b565b34801561038157600080fd5b506101dc6103903660046116ed565b610aa9565b3480156103a157600080fd5b506101dc6103b0366004611be3565b610af1565b3480156103c157600080fd5b5061015960055481565b3480156103d757600080fd5b506103ff7f000000000000000000000000000000000000000000000000000000000000000081565b60405163ffffffff9091168152602001610163565b34801561042057600080fd5b506101dc61042f366004611c18565b610b03565b34801561044057600080fd5b5061018c61044f366004611c4f565b6001600160a01b03918216600090815260016020908152604080832093909416825291909152205460ff1690565b34801561048957600080fd5b506101dc610498366004611c6d565b610b41565b3480156104a957600080fd5b506101dc6104b8366004611bab565b610b98565b60006001600160a01b03831661052d5760405162461bcd60e51b815260206004820152602a60248201527f455243313135353a2061646472657373207a65726f206973206e6f742061207660448201526930b634b21037bbb732b960b11b60648201526084015b60405180910390fd5b506000908152602081815260408083206001600160a01b03949094168352929052205490565b60006001600160e01b03198216636cdb3d1360e11b148061058457506001600160e01b031982166303a24d0760e21b145b8061059f57506301ffc9a760e01b6001600160e01b03198316145b92915050565b606060046105b283610c5e565b6040516020016105c3929190611d2c565b6040516020818303038152906040529050919050565b7f00000000000000000000000000000000000000000000000000000000000000006001600160a01b031661060b610ca2565b6001600160a01b03161461063257604051636d10671f60e11b815260040160405180910390fd5b6040516bffffffffffffffffffffffff19606086901b16602082015260340160408051601f19818403018152828252805160209182012063ffffffff8716600090815260068352929092205460601b6bffffffffffffffffffffffff1916908301529060340160405160208183030381529060405280519060200120146106cc5760405163057f3fa760e51b815260040160405180910390fd5b600080806106dc84860186611dd2565b9250925092506106fd81848460405180602001604052806000815250610cac565b50505050505050565b61070e610ca2565b6001600160a01b0316856001600160a01b0316148061073457506107348561044f610ca2565b6107505760405162461bcd60e51b815260040161052490611e0b565b61075d8585858585610dc2565b5050505050565b63ffffffff84166000908152600660205260409020546001600160a01b0316806107a15760405163057f3fa760e51b815260040160405180910390fd5b6107b26107ac610ca2565b856104bd565b8311156107d257604051631e9acf1760e31b815260040160405180910390fd5b6107e46107dd610ca2565b8585610faa565b600084846107f0610ca2565b6040805160208101949094528301919091526001600160a01b0316606082015260800160408051601f1981840301815290829052630481fe6f60e31b825291506001600160a01b037f0000000000000000000000000000000000000000000000000000000000000000169063240ff37890610875908990869088908790600401611e59565b600060405180830381600087803b15801561088f57600080fd5b505af11580156108a3573d6000803e3d6000fd5b50505050505050505050565b606081518351146109145760405162461bcd60e51b815260206004820152602960248201527f455243313135353a206163636f756e747320616e6420696473206c656e677468604482015268040dad2e6dac2e8c6d60bb1b6064820152608401610524565b6000835167ffffffffffffffff8111156109305761093061181e565b604051908082528060200260200182016040528015610959578160200160208202803683370190505b50905060005b84518110156109d1576109a485828151811061097d5761097d611e9b565b602002602001015185838151811061099757610997611e9b565b60200260200101516104bd565b8282815181106109b6576109b6611e9b565b60209081029190910101526109ca81611ec7565b905061095f565b509392505050565b6109e1611131565b610a036109ec610ca2565b838360405180602001604052806000815250610cac565b5050565b610a0f611131565b610a1960006111aa565b565b60048054610a2890611cd6565b80601f0160208091040260200160405190810160405280929190818152602001828054610a5490611cd6565b8015610aa15780601f10610a7657610100808354040283529160200191610aa1565b820191906000526020600020905b815481529060010190602001808311610a8457829003601f168201915b505050505081565b610ab1611131565b600160056000828254610ac49190611ee0565b90915550610aee9050610ad5610ca2565b6005548360405180602001604052806000815250610cac565b50565b610a03610afc610ca2565b83836111fc565b610b0b611131565b63ffffffff91909116600090815260066020526040902080546001600160a01b0319166001600160a01b03909216919091179055565b610b49610ca2565b6001600160a01b0316856001600160a01b03161480610b6f5750610b6f8561044f610ca2565b610b8b5760405162461bcd60e51b815260040161052490611e0b565b61075d85858585856112dc565b610ba0611131565b6001600160a01b038116610c055760405162461bcd60e51b815260206004820152602660248201527f4f776e61626c653a206e6577206f776e657220697320746865207a65726f206160448201526564647265737360d01b6064820152608401610524565b610aee816111aa565b60007f00000000000000000000000000000000000000000000000000000000000000006001600160a01b03163303610c4d575060131936013560601c90565b503390565b905090565b90565b3390565b606060a06040510180604052602081039150506000815280825b600183039250600a81066030018353600a900480610c785750819003601f19909101908152919050565b6000610c52610c0e565b6001600160a01b038416610d0c5760405162461bcd60e51b815260206004820152602160248201527f455243313135353a206d696e7420746f20746865207a65726f206164647265736044820152607360f81b6064820152608401610524565b6000610d16610ca2565b90506000610d2385611411565b90506000610d3085611411565b90506000868152602081815260408083206001600160a01b038b16845290915281208054879290610d62908490611ee0565b909155505060408051878152602081018790526001600160a01b03808a1692600092918716917fc3d58168c5ae7397731d063d5bbf3d657854427343f4c083240f7aacaa2d0f62910160405180910390a46106fd8360008989898961145c565b8151835114610e245760405162461bcd60e51b815260206004820152602860248201527f455243313135353a2069647320616e6420616d6f756e7473206c656e677468206044820152670dad2e6dac2e8c6d60c31b6064820152608401610524565b6001600160a01b038416610e4a5760405162461bcd60e51b815260040161052490611ef8565b6000610e54610ca2565b905060005b8451811015610f3c576000858281518110610e7657610e76611e9b565b602002602001015190506000858381518110610e9457610e94611e9b565b602090810291909101810151600084815280835260408082206001600160a01b038e168352909352919091205490915081811015610ee45760405162461bcd60e51b815260040161052490611f3d565b6000838152602081815260408083206001600160a01b038e8116855292528083208585039055908b16825281208054849290610f21908490611ee0565b9250508190555050505080610f3590611ec7565b9050610e59565b50846001600160a01b0316866001600160a01b0316826001600160a01b03167f4a39dc06d4c0dbc64b70af90fd698a233a518aa5d07e595d983b8c0526c8f7fb8787604051610f8c929190611f87565b60405180910390a4610fa28187878787876115b7565b505050505050565b6001600160a01b03831661100c5760405162461bcd60e51b815260206004820152602360248201527f455243313135353a206275726e2066726f6d20746865207a65726f206164647260448201526265737360e81b6064820152608401610524565b6000611016610ca2565b9050600061102384611411565b9050600061103084611411565b60408051602080820183526000918290528882528181528282206001600160a01b038b16835290522054909150848110156110b95760405162461bcd60e51b8152602060048201526024808201527f455243313135353a206275726e20616d6f756e7420657863656564732062616c604482015263616e636560e01b6064820152608401610524565b6000868152602081815260408083206001600160a01b038b81168086529184528285208a8703905582518b81529384018a90529092908816917fc3d58168c5ae7397731d063d5bbf3d657854427343f4c083240f7aacaa2d0f62910160405180910390a46040805160208101909152600090526106fd565b611139610ca2565b6001600160a01b03166111546003546001600160a01b031690565b6001600160a01b031614610a195760405162461bcd60e51b815260206004820181905260248201527f4f776e61626c653a2063616c6c6572206973206e6f7420746865206f776e65726044820152606401610524565b600380546001600160a01b038381166001600160a01b0319831681179093556040519116919082907f8be0079c531659141344cd1fd0a4f28419497f9722a3daafe3b4186f6b6457e090600090a35050565b816001600160a01b0316836001600160a01b03160361126f5760405162461bcd60e51b815260206004820152602960248201527f455243313135353a2073657474696e6720617070726f76616c20737461747573604482015268103337b91039b2b63360b91b6064820152608401610524565b6001600160a01b03838116600081815260016020908152604080832094871680845294825291829020805460ff191686151590811790915591519182527f17307eab39ab6107e8899845ad3d59bd9653f200f220920489ca2b5937696c31910160405180910390a3505050565b6001600160a01b0384166113025760405162461bcd60e51b815260040161052490611ef8565b600061130c610ca2565b9050600061131985611411565b9050600061132685611411565b90506000868152602081815260408083206001600160a01b038c168452909152902054858110156113695760405162461bcd60e51b815260040161052490611f3d565b6000878152602081815260408083206001600160a01b038d8116855292528083208985039055908a168252812080548892906113a6908490611ee0565b909155505060408051888152602081018890526001600160a01b03808b16928c821692918816917fc3d58168c5ae7397731d063d5bbf3d657854427343f4c083240f7aacaa2d0f62910160405180910390a4611406848a8a8a8a8a61145c565b505050505050505050565b6040805160018082528183019092526060916000919060208083019080368337019050509050828160008151811061144b5761144b611e9b565b602090810291909101015292915050565b6001600160a01b0384163b15610fa25760405163f23a6e6160e01b81526001600160a01b0385169063f23a6e61906114a09089908990889088908890600401611fac565b6020604051808303816000875af19250505080156114db575060408051601f3d908101601f191682019092526114d891810190611ff1565b60015b611587576114e761200e565b806308c379a00361152057506114fb612029565b806115065750611522565b8060405162461bcd60e51b81526004016105249190611762565b505b60405162461bcd60e51b815260206004820152603460248201527f455243313135353a207472616e7366657220746f206e6f6e2d455243313135356044820152732932b1b2b4bb32b91034b6b83632b6b2b73a32b960611b6064820152608401610524565b6001600160e01b0319811663f23a6e6160e01b146106fd5760405162461bcd60e51b8152600401610524906120b3565b6001600160a01b0384163b15610fa25760405163bc197c8160e01b81526001600160a01b0385169063bc197c81906115fb90899089908890889088906004016120fb565b6020604051808303816000875af1925050508015611636575060408051601f3d908101601f1916820190925261163391810190611ff1565b60015b611642576114e761200e565b6001600160e01b0319811663bc197c8160e01b146106fd5760405162461bcd60e51b8152600401610524906120b3565b6001600160a01b0381168114610aee57600080fd5b6000806040838503121561169a57600080fd5b82356116a581611672565b946020939093013593505050565b6001600160e01b031981168114610aee57600080fd5b6000602082840312156116db57600080fd5b81356116e6816116b3565b9392505050565b6000602082840312156116ff57600080fd5b5035919050565b60005b83811015611721578181015183820152602001611709565b83811115611730576000848401525b50505050565b6000815180845261174e816020860160208601611706565b601f01601f19169290920160200192915050565b6020815260006116e66020830184611736565b803563ffffffff8116811461178957600080fd5b919050565b600080600080606085870312156117a457600080fd5b84356117af81611672565b93506117bd60208601611775565b9250604085013567ffffffffffffffff808211156117da57600080fd5b818701915087601f8301126117ee57600080fd5b8135818111156117fd57600080fd5b88602082850101111561180f57600080fd5b95989497505060200194505050565b634e487b7160e01b600052604160045260246000fd5b601f8201601f1916810167ffffffffffffffff8111828210171561185a5761185a61181e565b6040525050565b600067ffffffffffffffff82111561187b5761187b61181e565b5060051b60200190565b600082601f83011261189657600080fd5b813560206118a382611861565b6040516118b08282611834565b83815260059390931b85018201928281019150868411156118d057600080fd5b8286015b848110156118eb57803583529183019183016118d4565b509695505050505050565b600082601f83011261190757600080fd5b813567ffffffffffffffff8111156119215761192161181e565b604051611938601f8301601f191660200182611834565b81815284602083860101111561194d57600080fd5b816020850160208301376000918101602001919091529392505050565b600080600080600060a0868803121561198257600080fd5b853561198d81611672565b9450602086013561199d81611672565b9350604086013567ffffffffffffffff808211156119ba57600080fd5b6119c689838a01611885565b945060608801359150808211156119dc57600080fd5b6119e889838a01611885565b935060808801359150808211156119fe57600080fd5b50611a0b888289016118f6565b9150509295509295909350565b8035801515811461178957600080fd5b60008060008060808587031215611a3e57600080fd5b611a4785611775565b93506020850135925060408501359150611a6360608601611a18565b905092959194509250565b60008060408385031215611a8157600080fd5b823567ffffffffffffffff80821115611a9957600080fd5b818501915085601f830112611aad57600080fd5b81356020611aba82611861565b604051611ac78282611834565b83815260059390931b8501820192828101915089841115611ae757600080fd5b948201945b83861015611b0e578535611aff81611672565b82529482019490820190611aec565b96505086013592505080821115611b2457600080fd5b50611b3185828601611885565b9150509250929050565b600081518084526020808501945080840160005b83811015611b6b57815187529582019590820190600101611b4f565b509495945050505050565b6020815260006116e66020830184611b3b565b60008060408385031215611b9c57600080fd5b50508035926020909101359150565b600060208284031215611bbd57600080fd5b81356116e681611672565b600060208284031215611bda57600080fd5b6116e682611775565b60008060408385031215611bf657600080fd5b8235611c0181611672565b9150611c0f60208401611a18565b90509250929050565b60008060408385031215611c2b57600080fd5b611c3483611775565b91506020830135611c4481611672565b809150509250929050565b60008060408385031215611c6257600080fd5b8235611c3481611672565b600080600080600060a08688031215611c8557600080fd5b8535611c9081611672565b94506020860135611ca081611672565b93506040860135925060608601359150608086013567ffffffffffffffff811115611cca57600080fd5b611a0b888289016118f6565b600181811c90821680611cea57607f821691505b602082108103611d0a57634e487b7160e01b600052602260045260246000fd5b50919050565b60008151611d22818560208601611706565b9290920192915050565b600080845481600182811c915080831680611d4857607f831692505b60208084108203611d6757634e487b7160e01b86526022600452602486fd5b818015611d7b5760018114611d8c57611db9565b60ff19861689528489019650611db9565b60008b81526020902060005b86811015611db15781548b820152908501908301611d98565b505084890196505b505050505050611dc98185611d10565b95945050505050565b600080600060608486031215611de757600080fd5b83359250602084013591506040840135611e0081611672565b809150509250925092565b6020808252602e908201527f455243313135353a2063616c6c6572206973206e6f7420746f6b656e206f776e60408201526d195c881bdc88185c1c1c9bdd995960921b606082015260800190565b63ffffffff851681526001600160a01b03841660208201528215156040820152608060608201819052600090611e9190830184611736565b9695505050505050565b634e487b7160e01b600052603260045260246000fd5b634e487b7160e01b600052601160045260246000fd5b600060018201611ed957611ed9611eb1565b5060010190565b60008219821115611ef357611ef3611eb1565b500190565b60208082526025908201527f455243313135353a207472616e7366657220746f20746865207a65726f206164604082015264647265737360d81b606082015260800190565b6020808252602a908201527f455243313135353a20696e73756666696369656e742062616c616e636520666f60408201526939103a3930b739b332b960b11b606082015260800190565b604081526000611f9a6040830185611b3b565b8281036020840152611dc98185611b3b565b6001600160a01b03868116825285166020820152604081018490526060810183905260a060808201819052600090611fe690830184611736565b979650505050505050565b60006020828403121561200357600080fd5b81516116e6816116b3565b600060033d1115610c575760046000803e5060005160e01c90565b600060443d10156120375790565b6040516003193d81016004833e81513d67ffffffffffffffff816024840111818411171561206757505050505090565b828501915081518181111561207f5750505050505090565b843d87010160208285010111156120995750505050505090565b6120a860208286010187611834565b509095945050505050565b60208082526028908201527f455243313135353a204552433131353552656365697665722072656a656374656040820152676420746f6b656e7360c01b606082015260800190565b6001600160a01b0386811682528516602082015260a06040820181905260009061212790830186611b3b565b82810360608401526121398186611b3b565b9050828103608084015261214d8185611736565b9897505050505050505056fea2646970667358221220d23dc27e3094bbc4453451b8271a05bbc2cb93499da388a8cc3fdd5d00fe371c64736f6c634300080d0033",
  "devdoc": {
    "kind": "dev",
    "methods": {
      "balanceOf(address,uint256)": {
        "details": "See {IERC1155-balanceOf}. Requirements: - `account` cannot be the zero address."
      },
      "balanceOfBatch(address[],uint256[])": {
        "details": "See {IERC1155-balanceOfBatch}. Requirements: - `accounts` and `ids` must have the same length."
      },
      "isApprovedForAll(address,address)": {
        "details": "See {IERC1155-isApprovedForAll}."
      },
      "owner()": {
        "details": "Returns the address of the current owner."
      },
      "renounceOwnership()": {
        "details": "Leaves the contract without owner. It will not be possible to call `onlyOwner` functions. Can only be called by the current owner. NOTE: Renouncing ownership will leave the contract without an owner, thereby disabling any functionality that is only available to the owner."
      },
      "safeBatchTransferFrom(address,address,uint256[],uint256[],bytes)": {
        "details": "See {IERC1155-safeBatchTransferFrom}."
      },
      "safeTransferFrom(address,address,uint256,uint256,bytes)": {
        "details": "See {IERC1155-safeTransferFrom}."
      },
      "setApprovalForAll(address,bool)": {
        "details": "See {IERC1155-setApprovalForAll}."
      },
      "supportsInterface(bytes4)": {
        "details": "See {IERC165-supportsInterface}."
      },
      "transferOwnership(address)": {
        "details": "Transfers ownership of the contract to a new account (`newOwner`). Can only be called by the current owner."
      }
    },
    "version": 1
  },
  "userdoc": {
    "kind": "user",
    "methods": {},
    "version": 1
  },
  "storageLayout": {
    "storage": [
      {
        "astId": 1187,
        "contract": "src/UtilsLxLy.sol:Utils",
        "label": "_balances",
        "offset": 0,
        "slot": "0",
        "type": "t_mapping(t_uint256,t_mapping(t_address,t_uint256))"
      },
      {
        "astId": 1193,
        "contract": "src/UtilsLxLy.sol:Utils",
        "label": "_operatorApprovals",
        "offset": 0,
        "slot": "1",
        "type": "t_mapping(t_address,t_mapping(t_address,t_bool))"
      },
      {
        "astId": 1195,
        "contract": "src/UtilsLxLy.sol:Utils",
        "label": "_uri",
        "offset": 0,
        "slot": "2",
        "type": "t_string_storage"
      },
      {
        "astId": 952,
        "contract": "src/UtilsLxLy.sol:Utils",
        "label": "_owner",
        "offset": 0,
        "slot": "3",
        "type": "t_address"
      },
      {
        "astId": 9953,
        "contract": "src/UtilsLxLy.sol:Utils",
        "label": "baseUri",
        "offset": 0,
        "slot": "4",
        "type": "t_string_storage"
      },
      {
        "astId": 9955,
        "contract": "src/UtilsLxLy.sol:Utils",
        "label": "utilCount",
        "offset": 0,
        "slot": "5",
        "type": "t_uint256"
      },
      {
        "astId": 9964,
        "contract": "src/UtilsLxLy.sol:Utils",
        "label": "chains",
        "offset": 0,
        "slot": "6",
        "type": "t_mapping(t_uint32,t_address)"
      }
    ],
    "types": {
      "t_address": {
        "encoding": "inplace",
        "label": "address",
        "numberOfBytes": "20"
      },
      "t_bool": {
        "encoding": "inplace",
        "label": "bool",
        "numberOfBytes": "1"
      },
      "t_mapping(t_address,t_bool)": {
        "encoding": "mapping",
        "key": "t_address",
        "label": "mapping(address => bool)",
        "numberOfBytes": "32",
        "value": "t_bool"
      },
      "t_mapping(t_address,t_mapping(t_address,t_bool))": {
        "encoding": "mapping",
        "key": "t_address",
        "label": "mapping(address => mapping(address => bool))",
        "numberOfBytes": "32",
        "value": "t_mapping(t_address,t_bool)"
      },
      "t_mapping(t_address,t_uint256)": {
        "encoding": "mapping",
        "key": "t_address",
        "label": "mapping(address => uint256)",
        "numberOfBytes": "32",
        "value": "t_uint256"
      },
      "t_mapping(t_uint256,t_mapping(t_address,t_uint256))": {
        "encoding": "mapping",
        "key": "t_uint256",
        "label": "mapping(uint256 => mapping(address => uint256))",
        "numberOfBytes": "32",
        "value": "t_mapping(t_address,t_uint256)"
      },
      "t_mapping(t_uint32,t_address)": {
        "encoding": "mapping",
        "key": "t_uint32",
        "label": "mapping(uint32 => address)",
        "numberOfBytes": "32",
        "value": "t_address"
      },
      "t_string_storage": {
        "encoding": "bytes",
        "label": "string",
        "numberOfBytes": "32"
      },
      "t_uint256": {
        "encoding": "inplace",
        "label": "uint256",
        "numberOfBytes": "32"
      },
      "t_uint32": {
        "encoding": "inplace",
        "label": "uint32",
        "numberOfBytes": "4"
      }
    }
  }
}